{"address":"0x7B998e228E5d7B44948B5c2E64F901200124968B","bytecode":"0x60a060405234801561001057600080fd5b5030608052608051613670610037600039600081816104410152610dc401526136706000f3fe608060405234801561001057600080fd5b50600436106101fa5760003560e01c806364e9d5671161011a5780639d3d2a78116100ad578063bffa7f0f1161007c578063bffa7f0f14610421578063cc025f7c1461043c578063e6bd26a214610463578063f6370aa914610476578063f88ed60c1461048057600080fd5b80639d3d2a78146103c5578063aa98df39146103d8578063b6966495146103eb578063b788f3a11461040657600080fd5b806395861bd7116100e957806395861bd71461038557806396db7d5c146102255780639781a8ca146103a057806397b87b4a146103aa57600080fd5b806364e9d5671461032c5780636dc0ae22146103345780637aadef8b1461034f5780637e2f35fa1461036a57600080fd5b806325ad7f4d1161019257806348bbb5571161016157806348bbb557146102e2578063588c77e6146102fd5780636146195414610318578063623007321461032257600080fd5b806325ad7f4d146102895780632861c7d1146102a457806328787d00146102bf5780632d2c5565146102c757600080fd5b8063103f2907116101ce578063103f29071461023757806311ae7a141461026457806312e366aa1461026c578063194c0e181461027f57600080fd5b8062623d7d146101ff5780630251eb111461021b5780630b396e66146102255780630bc9136e1461022f575b600080fd5b61020861025881565b6040519081526020015b60405180910390f35b6102086205b8d881565b6102086205dfe881565b610208604e81565b61024c6000805160206135f783398151915281565b6040516001600160a01b039091168152602001610212565b610208607381565b61024c61027a366004612f0f565b61049b565b610208620606f881565b61024c739efde135ca4832abf0408c44c6f5f370eb0f35e881565b61024c7352aa899454998be5b000ad077a46bbe360f4e49781565b610208606481565b61024c7328849d2b63fa8d361e5fc15cb8abb13019884d0981565b61024c73e7eb63a8b6392481a9fdebb108cfd580dc8664d381565b61024c735c43aac965ff230ac1cf63e924d0153291d78bad81565b610320610519565b005b610208620514c881565b610208606681565b61024c730204cd037b2ec03605cfdfe482d8e257c765fa1b81565b61024c732386dc45added673317ef068992f19421b481f4c81565b61024c73059a94a72951c0ae1cc1ce3bf0db52421bbe821081565b61024c73a0d3707c569ff8c87fa923d3823ec5d81c98be7881565b61020862970fe081565b61024c7391716c4eda1fb55e84bf8b4c7085f84285c1908581565b6102086103d3366004612f3d565b6105ce565b6103206103e6366004612fa2565b610af1565b61024c73264786ef916af64a1db19f513f24a3681734ce9281565b61024c734f6f977acdd1177dcd81ab83074855ecb9c2d49e81565b61024c73a45f7bd6a5ff45d31aace6bcd3d426d9328cea0181565b61024c7f000000000000000000000000000000000000000000000000000000000000000081565b61024c610471366004612f0f565b610eef565b61020862056ab881565b61024c733daff61fe5cfb1f1b4ea7fba8173a58532ef184181565b604051630971b35560e11b8152600481018290526000907391716c4eda1fb55e84bf8b4c7085f84285c19085906312e366aa906024015b602060405180830381865afa1580156104ef573d6000803e3d6000fd5b505050506040513d601f19601f820116820180604052508101906105139190613053565b92915050565b30732386dc45added673317ef068992f19421b481f4c146105745760405162461bcd60e51b815260206004820152601060248201526f3737ba16bb30b634b216b1b0b63632b960811b60448201526064015b60405180910390fd5b61057c610f24565b61058461112b565b61058c6111c2565b6105946115fa565b61059c611789565b6105a46118ea565b6105ac611a7b565b6105b4611e65565b6105bc612512565b6105c4612618565b6105cc61269c565b565b600080841180156105df5750600083115b1561062c5760405162461bcd60e51b815260206004820181905260248201527f626f74682075736420616e6420616d6f756e7420617265206e6f74207a65726f604482015260640161056b565b604080516001600160a01b03871660208083019190915260058284015282518083038401815260608301938490528051910120632d71cdb960e21b90925260648101919091526000907352aa899454998be5b000ad077a46bbe360f4e4979063b5c736e490608401602060405180830381865afa1580156106b1573d6000803e3d6000fd5b505050506040513d601f19601f820116820180604052508101906106d59190613077565b90506000806106e38361271e565b90925090506000601273eeeeeeeeeeeeeeeeeeeeeeeeeeeeeeeeeeeeeeed196001600160a01b038b160161071f5750620514c890506012610a71565b737f39c581f595b53c5cb19bd0b3f8da6c935e2c9f196001600160a01b038b16016107525750620606f890506012610a71565b73cd5fe23c85820f7b72d0926fc9b05b43e359b7ed196001600160a01b038b1601610785575062056ab890506012610a71565b73a1290d69c65a6fe4df752f95823fae25cb99e5a6196001600160a01b038b16016107b857506205dfe890506012610a71565b73917cee801a67f933f2e6b33fc0cd1ed2d5909d87196001600160a01b038b16016107eb57506205b8d890506012610a71565b73d5f7838f5c461feff7fe49ea5ebaf7728bb0adf9196001600160a01b038b160161081e57506205dfe890506012610a71565b6001600160a01b038a1673cbb7c0000ab88b473b1f5afd9ef808440eed33bf148061086557506001600160a01b038a16732260fac5e5542a773aa44fbcfedf7c193bc2c599145b8061088c57506001600160a01b038a1673657e8c867d8b37dcc18fa4caead9c45eb088c642145b806108b357506001600160a01b038a16738236a87084f8b84306f72007f36f2618a5634494145b156108c6575062970fe090506008610a71565b7318084fba666a33d37592fa2633fd49a74dd93a87196001600160a01b038b16016108f9575062970fe090506012610a71565b6001600160a01b038a1673a0b86991c6218b36c1d19d4a2e9eb0ce3606eb48148061094057506001600160a01b038a1673dac17f958d2ee523a2206206994597c13d831ec7145b156109515750606490506006610a71565b739d39a5de30e57443bff2a8307a4256c8797a3496196001600160a01b038b16016109825750607390506012610a71565b73a3931d71877c0e7a3148cb7eb4463524fec27fbc196001600160a01b038b16016109b35750606690506012610a71565b6001600160a01b038a167340d16fc0246ad3160ccc09b8d0d3a2cd28ae6c2f14806109fa57506001600160a01b038a16734c9edd5852cd905f086c759e8383e09bff1e68b3145b15610a0b5750606490506012610a71565b736f40d4a6237c257fff2db00fa0510deeecd303ea196001600160a01b038b1601610a3d575061025890506012610a71565b60405162461bcd60e51b81526020600482015260096024820152681b9bdd0b599bdd5b9960ba1b604482015260640161056b565b600087610a7e5783610a80565b845b90508915610aaf5780610a988b64e8d4a510006130a6565b610aa291906130d3565b9650505050505050610ae9565b6064610abb82856130a6565b610ac591906130d3565b610ad083600a6131d9565b610adf8b64e8d4a510006130a6565b610a9891906130a6565b949350505050565b3373a45f7bd6a5ff45d31aace6bcd3d426d9328cea011480610b26575033734f6f977acdd1177dcd81ab83074855ecb9c2d49e145b80610b4457503073059a94a72951c0ae1cc1ce3bf0db52421bbe8210145b80610b62575030739efde135ca4832abf0408c44c6f5f370eb0f35e8145b80610b80575030735c43aac965ff230ac1cf63e924d0153291d78bad145b80610b9e575030733daff61fe5cfb1f1b4ea7fba8173a58532ef1841145b80610bbc57503073e7eb63a8b6392481a9fdebb108cfd580dc8664d3145b610c015760405162461bcd60e51b81526020600482015260166024820152751b5cd9cb9cd95b99195c8b5b9bdd0b585b1b1bddd95960521b604482015260640161056b565b604080516001808252818301909252600090826020808301908036833701905050905060008267ffffffffffffffff811115610c3f57610c3f612f8c565b604051908082528060200260200182016040528015610c68578160200160208202803683370190505b50905060008367ffffffffffffffff811115610c8657610c86612f8c565b604051908082528060200260200182016040528015610cb957816020015b6060815260200190600190039081610ca45790505b50905060008467ffffffffffffffff811115610cd757610cd7612f8c565b604051908082528060200260200182016040528015610d0a57816020015b6060815260200190600190039081610cf55790505b509050732386dc45added673317ef068992f19421b481f4c84600081518110610d3557610d356131e5565b60200260200101906001600160a01b031690816001600160a01b031681525050600083600081518110610d6a57610d6a6131e5565b6020026020010181815250506040518060600160405280602481526020016136176024913982600081518110610da257610da26131e5565b60209081029190910181019190915260408051600081529182018152610deb917f0000000000000000000000000000000000000000000000000000000000000000918101613241565b60405160208183030381529060405281600081518110610e0d57610e0d6131e5565b6020908102919091010152604051636d4ab48d60e11b8152600090730204cd037b2ec03605cfdfe482d8e257c765fa1b9063da95691a90610e5a9088908890889088908e90600401613312565b6020604051808303816000875af1158015610e79573d6000803e3d6000fd5b505050506040513d601f19601f82011682018060405250810190610e9d9190613077565b9050604e8114610ee65760405162461bcd60e51b815260206004820152601460248201527350524f504f53414c5f49535f4e4f545f53414d4560601b604482015260640161056b565b50505050505050565b60405163735e935160e11b8152600481018290526000906000805160206135f78339815191529063e6bd26a2906024016104d2565b6000610f30600f61049b565b90506000610f3e605c610eef565b60408051610100810182526001600160a01b0385168152739d39a5de30e57443bff2a8307a4256c8797a3497602082015273dac17f958d2ee523a2206206994597c13d831ec7918101919091526001606082015260006080820181905261271060a083015260c0820181905260e0820152909150610fbb81612913565b604051630f18fc2760e31b81527391716c4eda1fb55e84bf8b4c7085f84285c19085906378c7e1389061100b908690734f6f977acdd1177dcd81ab83074855ecb9c2d49e906001906004016133b1565b600060405180830381600087803b15801561102557600080fd5b505af1158015611039573d6000803e3d6000fd5b505050505060006040518060e00160405280836001600160a01b031681526020016001600381111561106d5761106d6133d5565b815260006020820181905273dac17f958d2ee523a2206206994597c13d831ec760408301526060820152611f40608082015261271060a09091015290506110b381612a7d565b604051637faa1d2160e01b81526000805160206135f783398151915290637faa1d21906110fd908590734f6f977acdd1177dcd81ab83074855ecb9c2d49e906001906004016133b1565b600060405180830381600087803b15801561111757600080fd5b505af1158015610ee6573d6000803e3d6000fd5b6000611137601261049b565b90506000611145605d610eef565b60408051610100810182526001600160a01b0385168152734c9edd5852cd905f086c759e8383e09bff1e68b3602082015273dac17f958d2ee523a2206206994597c13d831ec7918101919091526001606082015260006080820181905261271060a083015260c0820181905260e0820152909150610fbb81612913565b60006111ce601061049b565b905060006111dc6060610eef565b905060006111ea605e610eef565b905060006111f8605f610eef565b60408051610100810182526001600160a01b038716815273657e8c867d8b37dcc18fa4caead9c45eb088c642602082015273cbb7c0000ab88b473b1f5afd9ef808440eed33bf918101919091526001606082015260006080820181905261271060a083015260c0820181905260e082015290915061127581612913565b604051630f18fc2760e31b81527391716c4eda1fb55e84bf8b4c7085f84285c19085906378c7e138906112c5908890734f6f977acdd1177dcd81ab83074855ecb9c2d49e906001906004016133b1565b600060405180830381600087803b1580156112df57600080fd5b505af11580156112f3573d6000803e3d6000fd5b505050505060006040518060e00160405280856001600160a01b0316815260200160016003811115611327576113276133d5565b8152600060208201819052732260fac5e5542a773aa44fbcfedf7c193bc2c59960408301526060820152611f40608082015261271060a090910152905061136d81612a7d565b604051637faa1d2160e01b81526000805160206135f783398151915290637faa1d21906113b7908790734f6f977acdd1177dcd81ab83074855ecb9c2d49e906001906004016133b1565b600060405180830381600087803b1580156113d157600080fd5b505af11580156113e5573d6000803e3d6000fd5b505050505060006040518060e00160405280836001600160a01b0316815260200160006003811115611419576114196133d5565b815273657e8c867d8b37dcc18fa4caead9c45eb088c642602082015273cbb7c0000ab88b473b1f5afd9ef808440eed33bf604082015261271060608201819052611f40608083015260a090910152905061147281612a7d565b604051637faa1d2160e01b81526000805160206135f783398151915290637faa1d21906114bc908590734f6f977acdd1177dcd81ab83074855ecb9c2d49e906001906004016133b1565b600060405180830381600087803b1580156114d657600080fd5b505af11580156114ea573d6000803e3d6000fd5b505050505060006040518060e00160405280846001600160a01b031681526020016000600381111561151e5761151e6133d5565b815273657e8c867d8b37dcc18fa4caead9c45eb088c6426020820152732260fac5e5542a773aa44fbcfedf7c193bc2c599604082015261271060608201819052611f40608083015260a090910152905061157781612a7d565b604051637faa1d2160e01b81526000805160206135f783398151915290637faa1d21906115c1908690734f6f977acdd1177dcd81ab83074855ecb9c2d49e906001906004016133b1565b600060405180830381600087803b1580156115db57600080fd5b505af11580156115ef573d6000803e3d6000fd5b505050505050505050565b6000611606601161049b565b905060006116146061610eef565b60408051610100810182526001600160a01b0385168152738236a87084f8b84306f72007f36f2618a5634494602082015273cbb7c0000ab88b473b1f5afd9ef808440eed33bf918101919091526001606082015260006080820181905261271060a083015260c0820181905260e082015290915061169181612913565b604051630f18fc2760e31b81527391716c4eda1fb55e84bf8b4c7085f84285c19085906378c7e138906116e1908690734f6f977acdd1177dcd81ab83074855ecb9c2d49e906001906004016133b1565b600060405180830381600087803b1580156116fb57600080fd5b505af115801561170f573d6000803e3d6000fd5b505050505060006040518060e00160405280836001600160a01b0316815260200160016003811115611743576117436133d5565b8152600060208201819052732260fac5e5542a773aa44fbcfedf7c193bc2c59960408301526060820152611f40608082015261271060a09091015290506110b381612a7d565b6000611795600261049b565b60408051610100810182526001600160a01b038316815273a0b86991c6218b36c1d19d4a2e9eb0ce3606eb48602082015273dac17f958d2ee523a2206206994597c13d831ec7918101919091526000606082018190526001608083015260a08201526298968060c0820152630280de8060e082015290915061181681612913565b506040516369482f6b60e11b81526a108b2a2c2802909400000060048201526001600160a01b0382169063d2905ed690602401600060405180830381600087803b15801561186357600080fd5b505af1158015611877573d6000803e3d6000fd5b505060405163e552a1e360e01b81526103e86004820181905260248201526202a30060448201526001600160a01b038416925063e552a1e391506064015b600060405180830381600087803b1580156118cf57600080fd5b505af11580156118e3573d6000803e3d6000fd5b5050505050565b60006118f6600161049b565b60408051610100810182526001600160a01b0383168152737f39c581f595b53c5cb19bd0b3f8da6c935e2ca0602082015273eeeeeeeeeeeeeeeeeeeeeeeeeeeeeeeeeeeeeeee9181019190915260016060820181905260808201526301312d0060a0820181905260c08201526303473bc060e082015290915061197881612913565b50604051632ce226fd60e21b81526901b1ae4d6e2ef500000060048201526001600160a01b0382169063b3889bf490602401600060405180830381600087803b1580156119c457600080fd5b505af11580156119d8573d6000803e3d6000fd5b50506040516369482f6b60e11b815269018650127cc3dc80000060048201526001600160a01b038416925063d2905ed69150602401600060405180830381600087803b158015611a2757600080fd5b505af1158015611a3b573d6000803e3d6000fd5b505060405163e552a1e360e01b8152600160048201526102586024820152600060448201526001600160a01b038416925063e552a1e391506064016118b5565b6040516308a892d960e01b8152732cc710218f2e3a82ccc77cc4b3b93ee6ba9451cd9073f4b87b0a2315534a8233724b87f2a8e3197ad649906000805160206135f7833981519152906308a892d990611adb9085906000906004016133eb565b600060405180830381600087803b158015611af557600080fd5b505af1158015611b09573d6000803e3d6000fd5b50506040516308a892d960e01b81526000805160206135f783398151915292506308a892d99150611b419084906001906004016133eb565b600060405180830381600087803b158015611b5b57600080fd5b505af1158015611b6f573d6000803e3d6000fd5b50506040516308a892d960e01b815273d4d748356d1c82a5565a15a1670d13fb505b018e945073f92b954d3b2f6497b580d799bf0907332af1f63b93506000805160206135f783398151915292506308a892d99150611bd59085906000906004016133eb565b600060405180830381600087803b158015611bef57600080fd5b505af1158015611c03573d6000803e3d6000fd5b50506040516308a892d960e01b81526000805160206135f783398151915292506308a892d99150611c3b9084906001906004016133eb565b600060405180830381600087803b158015611c5557600080fd5b505af1158015611c69573d6000803e3d6000fd5b50506040516308a892d960e01b81527384b2a41339ef51ffac89ffe69cad53cd92b82a28945073bc9c8528c66d1910cfb6bde2a8f1c2f1d38026c793506000805160206135f783398151915292506308a892d99150611ccf9085906000906004016133eb565b600060405180830381600087803b158015611ce957600080fd5b505af1158015611cfd573d6000803e3d6000fd5b50506040516308a892d960e01b81526000805160206135f783398151915292506308a892d99150611d359084906001906004016133eb565b600060405180830381600087803b158015611d4f57600080fd5b505af1158015611d63573d6000803e3d6000fd5b50506040516308a892d960e01b81527313472f00a43b59b644b301fed48651c0c889bdb4945073c292c87f3116cbbfb2186d4594dc48d55fca6e3493506000805160206135f783398151915292506308a892d99150611dc99085906000906004016133eb565b600060405180830381600087803b158015611de357600080fd5b505af1158015611df7573d6000803e3d6000fd5b50506040516308a892d960e01b81526000805160206135f783398151915292506308a892d99150611e2f9084906001906004016133eb565b600060405180830381600087803b158015611e4957600080fd5b505af1158015611e5d573d6000803e3d6000fd5b505050505050565b73f4f24cdd9a9929ce262735253badb03f959d208f6000611e866011610eef565b90506000611e946007610eef565b90506000611ea26042610eef565b604051637faa1d2160e01b81529091506000805160206135f783398151915290637faa1d2190611edb90869088906000906004016133b1565b600060405180830381600087803b158015611ef557600080fd5b505af1158015611f09573d6000803e3d6000fd5b50506040516307bd053f60e51b815261271060048201526001600160a01b038616925063f7a0a7e09150602401600060405180830381600087803b158015611f5057600080fd5b505af1158015611f64573d6000803e3d6000fd5b5050604051637faa1d2160e01b81526000805160206135f78339815191529250637faa1d219150611f9e90859088906000906004016133b1565b600060405180830381600087803b158015611fb857600080fd5b505af1158015611fcc573d6000803e3d6000fd5b50506040516307bd053f60e51b815261271060048201526001600160a01b038516925063f7a0a7e09150602401600060405180830381600087803b15801561201357600080fd5b505af1158015612027573d6000803e3d6000fd5b5050604051637faa1d2160e01b81526000805160206135f78339815191529250637faa1d21915061206190849088906000906004016133b1565b600060405180830381600087803b15801561207b57600080fd5b505af115801561208f573d6000803e3d6000fd5b50506040516307bd053f60e51b815261271060048201526001600160a01b038416925063f7a0a7e09150602401600060405180830381600087803b1580156120d657600080fd5b505af11580156120ea573d6000803e3d6000fd5b5050505050505050600073ca91be2077aad98a8b7ce82a665024c2fd7e74be905060006121176012610eef565b905060006121256008610eef565b905060006121336043610eef565b604051637faa1d2160e01b81529091506000805160206135f783398151915290637faa1d219061216c90869088906000906004016133b1565b600060405180830381600087803b15801561218657600080fd5b505af115801561219a573d6000803e3d6000fd5b50506040516307bd053f60e51b815261271060048201526001600160a01b038616925063f7a0a7e09150602401600060405180830381600087803b1580156121e157600080fd5b505af11580156121f5573d6000803e3d6000fd5b5050604051637faa1d2160e01b81526000805160206135f78339815191529250637faa1d21915061222f90859088906000906004016133b1565b600060405180830381600087803b15801561224957600080fd5b505af115801561225d573d6000803e3d6000fd5b50506040516307bd053f60e51b815261271060048201526001600160a01b038516925063f7a0a7e09150602401600060405180830381600087803b1580156122a457600080fd5b505af11580156122b8573d6000803e3d6000fd5b5050604051637faa1d2160e01b81526000805160206135f78339815191529250637faa1d2191506122f290849088906000906004016133b1565b600060405180830381600087803b15801561230c57600080fd5b505af1158015612320573d6000803e3d6000fd5b50506040516307bd053f60e51b815261271060048201526001600160a01b038416925063f7a0a7e09150602401600060405180830381600087803b15801561236757600080fd5b505af115801561237b573d6000803e3d6000fd5b50505050505050506000734acf39b8a63c744ce37594234ebebf5f99dfc710905060006123a86038610eef565b905060006123b66044610eef565b604051637faa1d2160e01b81529091506000805160206135f783398151915290637faa1d21906123ef90859087906000906004016133b1565b600060405180830381600087803b15801561240957600080fd5b505af115801561241d573d6000803e3d6000fd5b50506040516307bd053f60e51b815261271060048201526001600160a01b038516925063f7a0a7e09150602401600060405180830381600087803b15801561246457600080fd5b505af1158015612478573d6000803e3d6000fd5b5050604051637faa1d2160e01b81526000805160206135f78339815191529250637faa1d2191506124b290849087906000906004016133b1565b600060405180830381600087803b1580156124cc57600080fd5b505af11580156124e0573d6000803e3d6000fd5b50506040516307bd053f60e51b815261271060048201526001600160a01b038416925063f7a0a7e091506024016110fd565b604080516001808252818301909252600091816020015b6125646040518060a0016040528060006001600160a01b03168152602001600081526020016000815260200160008152602001600081525090565b8152602001906001900390816125295790505090506040518060a0016040528073a3931d71877c0e7a3148cb7eb4463524fec27fbd6001600160a01b03168152602001612328815260200160008152602001600081526020016103e8815250816000815181106125d6576125d66131e5565b6020908102919091010152604051630feb5dff60e21b81527352aa899454998be5b000ad077a46bbe360f4e49790633fad77fc906118b5908490600401613406565b6000612624600161049b565b90506000612632602c610eef565b905060006040518060c00160405280846001600160a01b03168152602001836001600160a01b031681526020016107d0815260200161a8c0815260200168a2a15d09519be00000815260200169018650127cc3dc800000815250905061269781612ba7565b505050565b60006126a8600261049b565b905060006126b66032610eef565b905060006040518060c00160405280846001600160a01b03168152602001836001600160a01b031681526020016107d0815260200161a8c081526020016a0422ca8b0a00a42500000081526020016a108b2a2c28029094000000815250905061269781612ba7565b67ffffffffffffffff605b82901c811690609b83901c16811580612740575080155b1561276357604051636a86ba8960e11b815262011171600482015260240161056b565b61ffff8316603a84901c6401ffffffff16428181039160ea87901c617fff1691148061278d575082155b806127985750806001145b156127a557505050915091565b64496cebb80084840283020484019350617fff60db87901c169250826001036127d057505050915091565b826001166001036128255760019290921c91826c7e37be2022c0914b2680000000816127fe576127fe6130bd565b049250612710601e87901c613fff166b033b2e3c9fd0803ce8000000850102049250612852565b60019290921c916305f5e100601e87901c613fff166127108501026b033b2e3c9fd0803ce8000000020492505b806001166001036128895760011c61271081016b033b2e3c9fd0803ce8000000820281612881576128816130bd565b0490506128bf565b60011c61271081016b033b2e3c9fd0803ce80000008202816128ad576128ad6130bd565b046b033b2e3c9fd0803ce80000000390505b760a70c3c40a64e6c51999090b65f67d92400000000000008382026127100261ffff881691900402601087901c613fff16612710030292506801b5a660ea44b8000085840283020485019450505050915091565b8060600151156129be5760006040518060a0016040528083600001516001600160a01b0316815260200183602001516001600160a01b031681526020016113888152602001610e1081526020018360a00151815250905061297381612c9f565b6040805160a0808201835284516001600160a01b0390811683528584015116602083015261138892820192909252610e1060608201529083015160808201526129bb81612c9f565b50505b806080015115612a7a5760006040518060c0016040528083600001516001600160a01b0316815260200183602001516001600160a01b031681526020016113888152602001610e1081526020018360c0015181526020018360e001518152509050612a2881612db7565b6040805160c0808201835284516001600160a01b0390811683528584015116602083015261138892820192909252610e10606082015290830151608082015260e083015160a082015261269781612db7565b50565b600281602001516003811115612a9557612a956133d5565b1480612ab65750600081602001516003811115612ab457612ab46133d5565b145b15612b05576040805160a08101825282516001600160a01b039081168252838301511660208201526109c49181019190915261a8c0606082015260808083015190820152612b0381612c9f565b505b600181602001516003811115612b1d57612b1d6133d5565b1480612b3e5750600081602001516003811115612b3c57612b3c6133d5565b145b15612a7a5760006040518060c0016040528083600001516001600160a01b0316815260200183606001516001600160a01b031681526020016107d0815260200161a8c081526020018360a0015181526020018360c001518152509050612ba381612db7565b5050565b604080516001808252818301909252600091816020015b612bf96040518060a0016040528060006001600160a01b03168152602001600081526020016000815260200160008152602001600081525090565b815260200190600190039081612bbe5790505090506040518060a0016040528083602001516001600160a01b031681526020018360400151815260200183606001518152602001836080015181526020018360a0015181525081600081518110612c6557612c656131e5565b6020908102919091010152815160405163ba9af1e360e01b81526001600160a01b039091169063ba9af1e390611e2f908490600401613485565b604080516001808252818301909252600091816020015b6040805160c08101825260008082526020808301829052928201819052606082018190526080820181905260a08201528252600019909201910181612cb65790505090506040518060c0016040528083600001516001600160a01b0316815260200183602001516001600160a01b03168152602001600160ff1681526020018360400151815260200183606001518152602001612d5f84602001516000866080015160016105ce565b81525081600081518110612d7557612d756131e5565b60209081029190910101526040516301635db560e11b81527352aa899454998be5b000ad077a46bbe360f4e497906302c6bb6a90611e2f9084906004016134f8565b604080516001808252818301909252600091816020015b612e236040518060e0016040528060006001600160a01b0316815260200160006001600160a01b03168152602001600060ff168152602001600081526020016000815260200160008152602001600081525090565b815260200190600190039081612dce5790505090506040518060e0016040528083600001516001600160a01b0316815260200183602001516001600160a01b03168152602001600160ff1681526020018360400151815260200183606001518152602001612e9d84602001516000866080015160006105ce565b8152602001612eb8846020015160008660a0015160006105ce565b81525081600081518110612ece57612ece6131e5565b602090810291909101015260405162dc47c360e11b81527352aa899454998be5b000ad077a46bbe360f4e497906301b88f8690611e2f908490600401613572565b600060208284031215612f2157600080fd5b5035919050565b6001600160a01b0381168114612a7a57600080fd5b60008060008060808587031215612f5357600080fd5b8435612f5e81612f28565b9350602085013592506040850135915060608501358015158114612f8157600080fd5b939692955090935050565b634e487b7160e01b600052604160045260246000fd5b600060208284031215612fb457600080fd5b813567ffffffffffffffff80821115612fcc57600080fd5b818401915084601f830112612fe057600080fd5b813581811115612ff257612ff2612f8c565b604051601f8201601f19908116603f0116810190838211818310171561301a5761301a612f8c565b8160405282815287602084870101111561303357600080fd5b826020860160208301376000928101602001929092525095945050505050565b60006020828403121561306557600080fd5b815161307081612f28565b9392505050565b60006020828403121561308957600080fd5b5051919050565b634e487b7160e01b600052601160045260246000fd5b808202811582820484141761051357610513613090565b634e487b7160e01b600052601260045260246000fd5b6000826130f057634e487b7160e01b600052601260045260246000fd5b500490565b600181815b8085111561313057816000190482111561311657613116613090565b8085161561312357918102915b93841c93908002906130fa565b509250929050565b60008261314757506001610513565b8161315457506000610513565b816001811461316a576002811461317457613190565b6001915050610513565b60ff84111561318557613185613090565b50506001821b610513565b5060208310610133831016604e8410600b84101617156131b3575081810a610513565b6131bd83836130f5565b80600019048211156131d1576131d1613090565b029392505050565b60006130708383613138565b634e487b7160e01b600052603260045260246000fd5b6000815180845260005b8181101561322157602081850181015186830182015201613205565b506000602082860101526020601f19601f83011685010191505092915050565b60018060a01b038316815260606020820152600960608201526865786563757465282960b81b608082015260a060408201526000610ae960a08301846131fb565b600081518084526020808501945080840160005b838110156132b257815187529582019590820190600101613296565b509495945050505050565b600081518084526020808501808196508360051b8101915082860160005b858110156133055782840389526132f38483516131fb565b988501989350908401906001016132db565b5091979650505050505050565b60a0808252865190820181905260009060209060c0840190828a01845b828110156133545781516001600160a01b03168452928401929084019060010161332f565b505050838103828501526133688189613282565b915050828103604084015261337d81876132bd565b9050828103606084015261339181866132bd565b905082810360808401526133a581856131fb565b98975050505050505050565b6001600160a01b039384168152919092166020820152901515604082015260600190565b634e487b7160e01b600052602160045260246000fd5b6001600160a01b039290921682521515602082015260400190565b6020808252825182820181905260009190848201906040850190845b818110156134795761346683855180516001600160a01b03168252602080820151908301526040808201519083015260608082015190830152608090810151910152565b9284019260a09290920191600101613422565b50909695505050505050565b6020808252825182820181905260009190848201906040850190845b81811015613479576134e583855180516001600160a01b03168252602080820151908301526040808201519083015260608082015190830152608090810151910152565b9284019260a092909201916001016134a1565b602080825282518282018190526000919060409081850190868401855b8281101561330557815180516001600160a01b0390811686528782015116878601528581015160ff1686860152606080820151908601526080808201519086015260a0908101519085015260c09093019290850190600101613515565b602080825282518282018190526000919060409081850190868401855b8281101561330557815180516001600160a01b0390811686528782015116878601528581015160ff1686860152606080820151908601526080808201519086015260a0808201519086015260c0908101519085015260e0909301929085019060010161358f56fe000000000000000000000000324c5dc1fc42c7a4d43d92df1eba58a54d13bf2d657865637574655061796c6f616428616464726573732c737472696e672c627974657329a2646970667358221220aaebb10e815665a5a27582f721dccae7db17774fddf7a0fd27d50a0e41e964eb64736f6c63430008150033","abi":[{"inputs":[{"internalType":"uint256","name":"errorId_","type":"uint256"}],"name":"FluidLiquidityCalcsError","type":"error"},{"inputs":[],"name":"ADDRESS_THIS","outputs":[{"internalType":"address","name":"","type":"address"}],"stateMutability":"view","type":"function"},{"inputs":[],"name":"BTC_USD_PRICE","outputs":[{"internalType":"uint256","name":"","type":"uint256"}],"stateMutability":"view","type":"function"},{"inputs":[],"name":"DEX_FACTORY","outputs":[{"internalType":"contract IFluidDexFactory","name":"","type":"address"}],"stateMutability":"view","type":"function"},{"inputs":[],"name":"ETH_USD_PRICE","outputs":[{"internalType":"uint256","name":"","type":"uint256"}],"stateMutability":"view","type":"function"},{"inputs":[],"name":"FLUID_RESERVE","outputs":[{"internalType":"contract IFluidReserveContract","name":"","type":"address"}],"stateMutability":"view","type":"function"},{"inputs":[],"name":"FLUID_USD_PRICE","outputs":[{"internalType":"uint256","name":"","type":"uint256"}],"stateMutability":"view","type":"function"},{"inputs":[],"name":"GOVERNOR","outputs":[{"internalType":"contract IGovernorBravo","name":"","type":"address"}],"stateMutability":"view","type":"function"},{"inputs":[],"name":"IETHV2","outputs":[{"internalType":"contract ILite","name":"","type":"address"}],"stateMutability":"view","type":"function"},{"inputs":[],"name":"LIQUIDITY","outputs":[{"internalType":"contract IFluidLiquidityAdmin","name":"","type":"address"}],"stateMutability":"view","type":"function"},{"inputs":[],"name":"PROPOSAL_ID","outputs":[{"internalType":"uint256","name":"","type":"uint256"}],"stateMutability":"view","type":"function"},{"inputs":[],"name":"PROPOSER","outputs":[{"internalType":"address","name":"","type":"address"}],"stateMutability":"view","type":"function"},{"inputs":[],"name":"PROPOSER_AVO_MULTISIG","outputs":[{"internalType":"address","name":"","type":"address"}],"stateMutability":"view","type":"function"},{"inputs":[],"name":"PROPOSER_AVO_MULTISIG_2","outputs":[{"internalType":"address","name":"","type":"address"}],"stateMutability":"view","type":"function"},{"inputs":[],"name":"PROPOSER_AVO_MULTISIG_3","outputs":[{"internalType":"address","name":"","type":"address"}],"stateMutability":"view","type":"function"},{"inputs":[],"name":"PROPOSER_AVO_MULTISIG_4","outputs":[{"internalType":"address","name":"","type":"address"}],"stateMutability":"view","type":"function"},{"inputs":[],"name":"PROPOSER_AVO_MULTISIG_5","outputs":[{"internalType":"address","name":"","type":"address"}],"stateMutability":"view","type":"function"},{"inputs":[],"name":"STABLE_USD_PRICE","outputs":[{"internalType":"uint256","name":"","type":"uint256"}],"stateMutability":"view","type":"function"},{"inputs":[],"name":"TEAM_MULTISIG","outputs":[{"internalType":"address","name":"","type":"address"}],"stateMutability":"view","type":"function"},{"inputs":[],"name":"TIMELOCK","outputs":[{"internalType":"contract ITimelock","name":"","type":"address"}],"stateMutability":"view","type":"function"},{"inputs":[],"name":"TREASURY","outputs":[{"internalType":"contract IDSAV2","name":"","type":"address"}],"stateMutability":"view","type":"function"},{"inputs":[],"name":"VAULT_FACTORY","outputs":[{"internalType":"contract IFluidVaultFactory","name":"","type":"address"}],"stateMutability":"view","type":"function"},{"inputs":[],"name":"execute","outputs":[],"stateMutability":"nonpayable","type":"function"},{"inputs":[{"internalType":"uint256","name":"dexId_","type":"uint256"}],"name":"getDexAddress","outputs":[{"internalType":"address","name":"","type":"address"}],"stateMutability":"view","type":"function"},{"inputs":[{"internalType":"address","name":"token","type":"address"},{"internalType":"uint256","name":"amount","type":"uint256"},{"internalType":"uint256","name":"amountInUSD","type":"uint256"},{"internalType":"bool","name":"isSupply","type":"bool"}],"name":"getRawAmount","outputs":[{"internalType":"uint256","name":"","type":"uint256"}],"stateMutability":"view","type":"function"},{"inputs":[{"internalType":"uint256","name":"vaultId_","type":"uint256"}],"name":"getVaultAddress","outputs":[{"internalType":"address","name":"","type":"address"}],"stateMutability":"view","type":"function"},{"inputs":[],"name":"mETH_USD_PRICE","outputs":[{"internalType":"uint256","name":"","type":"uint256"}],"stateMutability":"view","type":"function"},{"inputs":[{"internalType":"string","name":"description","type":"string"}],"name":"propose","outputs":[],"stateMutability":"nonpayable","type":"function"},{"inputs":[],"name":"rsETH_USD_PRICE","outputs":[{"internalType":"uint256","name":"","type":"uint256"}],"stateMutability":"view","type":"function"},{"inputs":[],"name":"sUSDe_USD_PRICE","outputs":[{"internalType":"uint256","name":"","type":"uint256"}],"stateMutability":"view","type":"function"},{"inputs":[],"name":"sUSDs_USD_PRICE","outputs":[{"internalType":"uint256","name":"","type":"uint256"}],"stateMutability":"view","type":"function"},{"inputs":[],"name":"weETH_USD_PRICE","outputs":[{"internalType":"uint256","name":"","type":"uint256"}],"stateMutability":"view","type":"function"},{"inputs":[],"name":"weETHs_USD_PRICE","outputs":[{"internalType":"uint256","name":"","type":"uint256"}],"stateMutability":"view","type":"function"},{"inputs":[],"name":"wstETH_USD_PRICE","outputs":[{"internalType":"uint256","name":"","type":"uint256"}],"stateMutability":"view","type":"function"}]}