{"address":"0x7F23ac2ab1D2757FAF94aD6EE5F5fdE7cd196356","bytecode":"0x60a060405234801561001057600080fd5b50306080526080516124936100376000396000818161033c0152610abd01526124936000f3fe608060405234801561001057600080fd5b50600436106101425760003560e01c806383ba27d8116100b8578063aae7ae071161007c578063aae7ae07146102cb578063b6966495146102e6578063b788f3a114610301578063bffa7f0f1461031c578063cc025f7c14610337578063e6bd26a21461035e57600080fd5b806383ba27d8146102545780638b0ab9221461026f57806397b87b4a1461028a5780639d3d2a78146102a5578063aa98df39146102b857600080fd5b8063588c77e61161010a578063588c77e6146101de57806361461954146101f957806366760d7d146102015780636dc0ae22146102035780637aadef8b1461021e5780637e2f35fa1461023957600080fd5b80630bc9136e14610147578063103f29071461016257806312e366aa1461019557806325ad7f4d146101a85780632861c7d1146101c3575b600080fd5b61014f603781565b6040519081526020015b60405180910390f35b61017d73324c5dc1fc42c7a4d43d92df1eba58a54d13bf2d81565b6040516001600160a01b039091168152602001610159565b61017d6101a3366004611ca7565b610371565b61017d739efde135ca4832abf0408c44c6f5f370eb0f35e881565b61017d7352aa899454998be5b000ad077a46bbe360f4e49781565b61017d735c43aac965ff230ac1cf63e924d0153291d78bad81565b6102016103ef565b005b61017d730204cd037b2ec03605cfdfe482d8e257c765fa1b81565b61017d732386dc45added673317ef068992f19421b481f4c81565b61017d73059a94a72451c0ae1cc1ce4bf0db52421bbe821081565b61017d739fb7b4477576fe5b32be4c1843afb1e55f251b3381565b61017d737af0c11f5c787632e567e6418d74e5832d8ffd4c81565b61017d7391716c4eda1fb55e84bf8b4c7085f84285c1908581565b61014f6102b3366004611cd5565b610464565b6102016102c6366004611d64565b61083b565b61017d735c20b550819128074fd538edf79791733ccedd1881565b61017d73264786ef916af64a1db19f513f24a3681734ce9281565b61017d734f6f977acdd1177dcd81ab83074855ecb9c2d49e81565b61017d73a45f7bd6a5ff45d31aace6bcd3d426d9328cea0181565b61017d7f000000000000000000000000000000000000000000000000000000000000000081565b61017d61036c366004611ca7565b610be8565b604051630971b35560e11b8152600481018290526000907391716c4eda1fb55e84bf8b4c7085f84285c19085906312e366aa906024015b602060405180830381865afa1580156103c5573d6000803e3d6000fd5b505050506040513d601f19601f820116820180604052508101906103e99190611e25565b92915050565b30732386dc45added673317ef068992f19421b481f4c1461044a5760405162461bcd60e51b815260206004820152601060248201526f3737ba16bb30b634b216b1b0b63632b960811b60448201526064015b60405180910390fd5b610452610c23565b61045a610ff1565b61046261131b565b565b600080841180156104755750600083115b156104c25760405162461bcd60e51b815260206004820181905260248201527f626f74682075736420616e6420616d6f756e7420617265206e6f74207a65726f6044820152606401610441565b604080516001600160a01b03871660208083019190915260058284015282518083038401815260608301938490528051910120632d71cdb960e21b90925260648101919091526000907352aa899454998be5b000ad077a46bbe360f4e4979063b5c736e490608401602060405180830381865afa158015610547573d6000803e3d6000fd5b505050506040513d601f19601f8201168201806040525081019061056b9190611e49565b90506000806105798361137f565b90925090506000601273eeeeeeeeeeeeeeeeeeeeeeeeeeeeeeeeeeeeeeed196001600160a01b038b16016105b557506204ce78905060126107bb565b737f39c581f595b53c5cb19bd0b3f8da6c935e2c9f196001600160a01b038b16016105e857506205b8d8905060126107bb565b73cd5fe23c85820f7b72d0926fc9b05b43e359b7ed196001600160a01b038b160161061b575062050910905060126107bb565b6001600160a01b038a1673cbb7c0000ab88b473b1f5afd9ef808440eed33bf148061066257506001600160a01b038a16732260fac5e5542a773aa44fbcfedf7c193bc2c599145b15610675575062895440905060086107bb565b6001600160a01b038a1673a0b86991c6218b36c1d19d4a2e9eb0ce3606eb4814806106bc57506001600160a01b038a1673dac17f958d2ee523a2206206994597c13d831ec7145b156106cd57506064905060066107bb565b739d39a5de30e57443bff2a8307a4256c8797a3496196001600160a01b038b16016106fe57506070905060126107bb565b73a3931d71877c0e7a3148cb7eb4463524fec27fbc196001600160a01b038b160161072f57506070905060126107bb565b6001600160a01b038a167340d16fc0246ad3160ccc09b8d0d3a2cd28ae6c2f148061077657506001600160a01b038a16734c9edd5852cd905f086c759e8383e09bff1e68b3145b1561078757506064905060126107bb565b60405162461bcd60e51b81526020600482015260096024820152681b9bdd0b599bdd5b9960ba1b6044820152606401610441565b6000876107c857836107ca565b845b905089156107f957806107e28b64e8d4a51000611e78565b6107ec9190611ea5565b9650505050505050610833565b60646108058285611e78565b61080f9190611ea5565b61081a83600a611fab565b6108298b64e8d4a51000611e78565b6107e29190611e78565b949350505050565b3373a45f7bd6a5ff45d31aace6bcd3d426d9328cea011480610870575033734f6f977acdd1177dcd81ab83074855ecb9c2d49e145b8061088e57503073059a94a72451c0ae1cc1ce4bf0db52421bbe8210145b806108ac575030739efde135ca4832abf0408c44c6f5f370eb0f35e8145b806108b5575060015b6108fa5760405162461bcd60e51b81526020600482015260166024820152751b5cd9cb9cd95b99195c8b5b9bdd0b585b1b1bddd95960521b6044820152606401610441565b604080516001808252818301909252600090826020808301908036833701905050905060008267ffffffffffffffff81111561093857610938611d24565b604051908082528060200260200182016040528015610961578160200160208202803683370190505b50905060008367ffffffffffffffff81111561097f5761097f611d24565b6040519080825280602002602001820160405280156109b257816020015b606081526020019060019003908161099d5790505b50905060008467ffffffffffffffff8111156109d0576109d0611d24565b604051908082528060200260200182016040528015610a0357816020015b60608152602001906001900390816109ee5790505b509050732386dc45added673317ef068992f19421b481f4c84600081518110610a2e57610a2e611fb7565b60200260200101906001600160a01b031690816001600160a01b031681525050600083600081518110610a6357610a63611fb7565b60200260200101818152505060405180606001604052806024815260200161243a6024913982600081518110610a9b57610a9b611fb7565b60209081029190910181019190915260408051600081529182018152610ae4917f0000000000000000000000000000000000000000000000000000000000000000918101612013565b60405160208183030381529060405281600081518110610b0657610b06611fb7565b6020908102919091010152604051636d4ab48d60e11b8152600090730204cd037b2ec03605cfdfe482d8e257c765fa1b9063da95691a90610b539088908890889088908e906004016120e4565b6020604051808303816000875af1158015610b72573d6000803e3d6000fd5b505050506040513d601f19601f82011682018060405250810190610b969190611e49565b905060378114610bdf5760405162461bcd60e51b815260206004820152601460248201527350524f504f53414c5f49535f4e4f545f53414d4560601b6044820152606401610441565b50505050505050565b60405163735e935160e11b81526004810182905260009073324c5dc1fc42c7a4d43d92df1eba58a54d13bf2d9063e6bd26a2906024016103a8565b6000610c2f6003610371565b60408051610100810182526001600160a01b038316815273cbb7c0000ab88b473b1f5afd9ef808440eed33bf6020820152732260fac5e5542a773aa44fbcfedf7c193bc2c5999181019190915260016060820181905260808201526301312d0060a0820181905260c08201526301e8480060e0820152909150610cb181611574565b50604051632ce226fd60e21b8152680ad78ebc5ac620000060048201526001600160a01b0382169063b3889bf490602401600060405180830381600087803b158015610cfc57600080fd5b505af1158015610d10573d6000803e3d6000fd5b50506040516369482f6b60e11b8152680821ab0d441498000060048201526001600160a01b038416925063d2905ed69150602401600060405180830381600087803b158015610d5e57600080fd5b505af1158015610d72573d6000803e3d6000fd5b506000925060019150610d829050565b604051908082528060200260200182016040528015610de757816020015b610dd4604051806080016040528060006001600160a01b031681526020016000815260200160008152602001600081525090565b815260200190600190039081610da05790505b5090506040518060800160405280610dff6033610be8565b6001600160a01b031681526020016109c4815260200161a8c08152602001680410d586a20a4c000081525081600081518110610e3d57610e3d611fb7565b602090810291909101015260405163137ed05b60e11b81526001600160a01b038316906326fda0b690610e74908490600401612183565b600060405180830381600087803b158015610e8e57600080fd5b505af1158015610ea2573d6000803e3d6000fd5b506000935060019250610eb3915050565b604051908082528060200260200182016040528015610f1f57816020015b610f0c6040518060a0016040528060006001600160a01b03168152602001600081526020016000815260200160008152602001600081525090565b815260200190600190039081610ed15790505b5090506040518060a00160405280610f376033610be8565b6001600160a01b031681526020016107d0815260200161a8c08152602001680410d586a20a4c00008152602001680821ab0d441498000081525081600081518110610f8457610f84611fb7565b602090810291909101015260405163ba9af1e360e01b81526001600160a01b0383169063ba9af1e390610fbb9084906004016121e3565b600060405180830381600087803b158015610fd557600080fd5b505af1158015610fe9573d6000803e3d6000fd5b505050505050565b60006040518060c001604052806110086011610be8565b6001600160a01b0316815273a0b86991c6218b36c1d19d4a2e9eb0ce3606eb4860208201526107d0604082015261a8c060608201526298968060808201526301c9c38060a090910152905061105c816116e1565b5060006040518060c001604052806110746012610be8565b6001600160a01b0316815273dac17f958d2ee523a2206206994597c13d831ec760208201526107d0604082015261a8c060608201526298968060808201526301c9c38060a09091015290506110c8816116e1565b5060006040518060c001604052806110e06013610be8565b6001600160a01b0316815273a0b86991c6218b36c1d19d4a2e9eb0ce3606eb4860208201526107d0604082015261a8c060608201526298968060808201526302faf08060a0909101529050611134816116e1565b5060006040518060c0016040528061114c6014610be8565b6001600160a01b0316815273dac17f958d2ee523a2206206994597c13d831ec760208201526107d0604082015261a8c060608201526298968060808201526302faf08060a09091015290506111a0816116e1565b50604080516001808252818301909252600091816020015b6111c0611c0a565b8152602001906001900390816111b85790505090506040518060e001604052806111ea601b610be8565b6001600160a01b03168152602001737f39c581f595b53c5cb19bd0b3f8da6c935e2ca06001600160a01b03168152602001600160ff1681526020016107d0815260200161a8c0815260200161125f737f39c581f595b53c5cb19bd0b3f8da6c935e2ca068a2a15d09519be00000600080610464565b815260200161128f737f39c581f595b53c5cb19bd0b3f8da6c935e2ca069021e19e0c9bab2400000600080610464565b815250816000815181106112a5576112a5611fb7565b602090810291909101015260405162dc47c360e11b81527352aa899454998be5b000ad077a46bbe360f4e497906301b88f86906112e690849060040161224d565b600060405180830381600087803b15801561130057600080fd5b505af1158015611314573d6000803e3d6000fd5b5050505050565b61132560016117ec565b61132f60026117ec565b61133960036117ec565b61134360046117ec565b61134d60056117ec565b61135760066117ec565b61136160076117ec565b61136b60086117ec565b61137560096117ec565b610462600a6117ec565b67ffffffffffffffff605b82901c811690609b83901c168115806113a1575080155b156113c457604051636a86ba8960e11b8152620111716004820152602401610441565b61ffff8316603a84901c6401ffffffff16428181039160ea87901c617fff169114806113ee575082155b806113f95750806001145b1561140657505050915091565b64496cebb80084840283020484019350617fff60db87901c1692508260010361143157505050915091565b826001166001036114865760019290921c91826c7e37be2022c0914b26800000008161145f5761145f611e8f565b049250612710601e87901c613fff166b033b2e3c9fd0803ce80000008501020492506114b3565b60019290921c916305f5e100601e87901c613fff166127108501026b033b2e3c9fd0803ce8000000020492505b806001166001036114ea5760011c61271081016b033b2e3c9fd0803ce80000008202816114e2576114e2611e8f565b049050611520565b60011c61271081016b033b2e3c9fd0803ce800000082028161150e5761150e611e8f565b046b033b2e3c9fd0803ce80000000390505b760a70c3c40a64e6c51999090b65f67d92400000000000008382026127100261ffff881691900402601087901c613fff16612710030292506801b5a660ea44b8000085840283020485019450505050915091565b80606001511561161f5760006040518060a0016040528083600001516001600160a01b0316815260200183602001516001600160a01b031681526020016113888152602001610e1081526020018360a0015181525090506115d481611b19565b6040805160a0808201835284516001600160a01b0390811683528584015116602083015261138892820192909252610e10606082015290830151608082015261161c81611b19565b50505b8060800151156116de5760006040518060c0016040528083600001516001600160a01b0316815260200183602001516001600160a01b031681526020016113888152602001610e1081526020018360c0015181526020018360e001518152509050611689816116e1565b6040805160c0808201835284516001600160a01b0390811683528584015116602083015261138892820192909252610e10606082015290830151608082015260e083015160a08201526116db816116e1565b50505b50565b604080516001808252818301909252600091816020015b611700611c0a565b8152602001906001900390816116f85790505090506040518060e0016040528083600001516001600160a01b0316815260200183602001516001600160a01b03168152602001600160ff168152602001836040015181526020018360600151815260200161177a8460200151600086608001516000610464565b8152602001611795846020015160008660a001516000610464565b815250816000815181106117ab576117ab611fb7565b602090810291909101015260405162dc47c360e11b81527352aa899454998be5b000ad077a46bbe360f4e497906301b88f8690610fbb90849060040161224d565b60405163735e935160e11b81526004810182905260009073324c5dc1fc42c7a4d43d92df1eba58a54d13bf2d9063e6bd26a290602401602060405180830381865afa15801561183f573d6000803e3d6000fd5b505050506040513d601f19601f820116820180604052508101906118639190611e25565b90506000816001600160a01b031663b7791bf26040518163ffffffff1660e01b81526004016101a060405180830381865afa1580156118a6573d6000803e3d6000fd5b505050506040513d601f19601f820116820180604052508101906118ca91906122e2565b60800151905060007352aa899454998be5b000ad077a46bbe360f4e49763b5c736e461195360088686604080516001600160a01b039384166020808301919091528183019590955281518082038301815260608201835280519086012092909316608084015260a0808401929092528051808403909201825260c0909201909152805191012090565b6040518263ffffffff1660e01b815260040161197191815260200190565b602060405180830381865afa15801561198e573d6000803e3d6000fd5b505050506040513d601f19601f820116820180604052508101906119b29190611e49565b9050600066ffffffffffffff600983901c1660ff600184901c161b905060006119e2846000627270e06001610464565b60408051600180825281830190925291925060009190816020015b611a05611c5c565b8152602001906001900390816119fd5790505090506040518060c00160405280876001600160a01b03168152602001866001600160a01b031681526020018560011660ff1681526020016109c4815260200161a8c08152602001848410611a84576103e8611a75866103e9611e78565b611a7f9190611ea5565b611a86565b835b81525081600081518110611a9c57611a9c611fb7565b60209081029190910101526040516301635db560e11b81527352aa899454998be5b000ad077a46bbe360f4e497906302c6bb6a90611ade9084906004016123bf565b600060405180830381600087803b158015611af857600080fd5b505af1158015611b0c573d6000803e3d6000fd5b5050505050505050505050565b604080516001808252818301909252600091816020015b611b38611c5c565b815260200190600190039081611b305790505090506040518060c0016040528083600001516001600160a01b0316815260200183602001516001600160a01b03168152602001600160ff1681526020018360400151815260200183606001518152602001611bb28460200151600086608001516001610464565b81525081600081518110611bc857611bc8611fb7565b60209081029190910101526040516301635db560e11b81527352aa899454998be5b000ad077a46bbe360f4e497906302c6bb6a90610fbb9084906004016123bf565b6040518060e0016040528060006001600160a01b0316815260200160006001600160a01b03168152602001600060ff168152602001600081526020016000815260200160008152602001600081525090565b6040518060c0016040528060006001600160a01b0316815260200160006001600160a01b03168152602001600060ff1681526020016000815260200160008152602001600081525090565b600060208284031215611cb957600080fd5b5035919050565b6001600160a01b03811681146116de57600080fd5b60008060008060808587031215611ceb57600080fd5b8435611cf681611cc0565b9350602085013592506040850135915060608501358015158114611d1957600080fd5b939692955090935050565b634e487b7160e01b600052604160045260246000fd5b6040516101a0810167ffffffffffffffff81118282101715611d5e57611d5e611d24565b60405290565b600060208284031215611d7657600080fd5b813567ffffffffffffffff80821115611d8e57600080fd5b818401915084601f830112611da257600080fd5b813581811115611db457611db4611d24565b604051601f8201601f19908116603f01168101908382118183101715611ddc57611ddc611d24565b81604052828152876020848701011115611df557600080fd5b826020860160208301376000928101602001929092525095945050505050565b8051611e2081611cc0565b919050565b600060208284031215611e3757600080fd5b8151611e4281611cc0565b9392505050565b600060208284031215611e5b57600080fd5b5051919050565b634e487b7160e01b600052601160045260246000fd5b80820281158282048414176103e9576103e9611e62565b634e487b7160e01b600052601260045260246000fd5b600082611ec257634e487b7160e01b600052601260045260246000fd5b500490565b600181815b80851115611f02578160001904821115611ee857611ee8611e62565b80851615611ef557918102915b93841c9390800290611ecc565b509250929050565b600082611f19575060016103e9565b81611f26575060006103e9565b8160018114611f3c5760028114611f4657611f62565b60019150506103e9565b60ff841115611f5757611f57611e62565b50506001821b6103e9565b5060208310610133831016604e8410600b8410161715611f85575081810a6103e9565b611f8f8383611ec7565b8060001904821115611fa357611fa3611e62565b029392505050565b6000611e428383611f0a565b634e487b7160e01b600052603260045260246000fd5b6000815180845260005b81811015611ff357602081850181015186830182015201611fd7565b506000602082860101526020601f19601f83011685010191505092915050565b60018060a01b038316815260606020820152600960608201526865786563757465282960b81b608082015260a06040820152600061083360a0830184611fcd565b600081518084526020808501945080840160005b8381101561208457815187529582019590820190600101612068565b509495945050505050565b600081518084526020808501808196508360051b8101915082860160005b858110156120d75782840389526120c5848351611fcd565b988501989350908401906001016120ad565b5091979650505050505050565b60a0808252865190820181905260009060209060c0840190828a01845b828110156121265781516001600160a01b031684529284019290840190600101612101565b5050508381038285015261213a8189612054565b915050828103604084015261214f818761208f565b90508281036060840152612163818661208f565b905082810360808401526121778185611fcd565b98975050505050505050565b602080825282518282018190526000919060409081850190868401855b828110156120d757815180516001600160a01b031685528681015187860152858101518686015260609081015190850152608090930192908501906001016121a0565b602080825282518282018190526000919060409081850190868401855b828110156120d757815180516001600160a01b0316855286810151878601528581015186860152606080820151908601526080908101519085015260a09093019290850190600101612200565b602080825282518282018190526000919060409081850190868401855b828110156120d757815180516001600160a01b0390811686528782015116878601528581015160ff1686860152606080820151908601526080808201519086015260a0808201519086015260c0908101519085015260e0909301929085019060010161226a565b805160ff81168114611e2057600080fd5b60006101a082840312156122f557600080fd5b6122fd611d3a565b61230683611e15565b815261231460208401611e15565b602082015261232560408401611e15565b604082015261233660608401611e15565b606082015261234760808401611e15565b608082015261235860a08401611e15565b60a082015261236960c084016122d1565b60c082015261237a60e084016122d1565b60e08201526101008381015190820152610120808401519082015261014080840151908201526101608084015190820152610180928301519281019290925250919050565b602080825282518282018190526000919060409081850190868401855b828110156120d757815180516001600160a01b0390811686528782015116878601528581015160ff1686860152606080820151908601526080808201519086015260a0908101519085015260c090930192908501906001016123dc56fe657865637574655061796c6f616428616464726573732c737472696e672c627974657329a2646970667358221220406fa217e642c3e9631225b440fe8c26f6ea2e12026b1790aabfd6af8b32da8b64736f6c63430008150033","abi":[{"inputs":[],"stateMutability":"nonpayable","type":"constructor"},{"inputs":[{"internalType":"uint256","name":"errorId_","type":"uint256"}],"name":"FluidLiquidityCalcsError","type":"error"},{"inputs":[],"name":"ADDRESS_THIS","outputs":[{"internalType":"address","name":"","type":"address"}],"stateMutability":"view","type":"function"},{"inputs":[],"name":"DEX_FACTORY","outputs":[{"internalType":"contract FluidDexFactory","name":"","type":"address"}],"stateMutability":"view","type":"function"},{"inputs":[],"name":"FLUID_DEX_RESOLVER","outputs":[{"internalType":"contract IFluidDexResolver","name":"","type":"address"}],"stateMutability":"view","type":"function"},{"inputs":[],"name":"FLUID_RESERVE","outputs":[{"internalType":"contract IFluidReserveContract","name":"","type":"address"}],"stateMutability":"view","type":"function"},{"inputs":[],"name":"F_USDC","outputs":[{"internalType":"address","name":"","type":"address"}],"stateMutability":"view","type":"function"},{"inputs":[],"name":"F_USDT","outputs":[{"internalType":"address","name":"","type":"address"}],"stateMutability":"view","type":"function"},{"inputs":[],"name":"GOVERNOR","outputs":[{"internalType":"contract IGovernorBravo","name":"","type":"address"}],"stateMutability":"view","type":"function"},{"inputs":[],"name":"LIQUIDITY","outputs":[{"internalType":"contract IFluidLiquidityAdmin","name":"","type":"address"}],"stateMutability":"view","type":"function"},{"inputs":[],"name":"PROPOSAL_ID","outputs":[{"internalType":"uint256","name":"","type":"uint256"}],"stateMutability":"view","type":"function"},{"inputs":[],"name":"PROPOSER","outputs":[{"internalType":"address","name":"","type":"address"}],"stateMutability":"view","type":"function"},{"inputs":[],"name":"PROPOSER_AVO_MULTISIG","outputs":[{"internalType":"address","name":"","type":"address"}],"stateMutability":"view","type":"function"},{"inputs":[],"name":"PROPOSER_AVO_MULTISIG_2","outputs":[{"internalType":"address","name":"","type":"address"}],"stateMutability":"view","type":"function"},{"inputs":[],"name":"PROPOSER_AVO_MULTISIG_3","outputs":[{"internalType":"address","name":"","type":"address"}],"stateMutability":"view","type":"function"},{"inputs":[],"name":"TEAM_MULTISIG","outputs":[{"internalType":"address","name":"","type":"address"}],"stateMutability":"view","type":"function"},{"inputs":[],"name":"TIMELOCK","outputs":[{"internalType":"contract ITimelock","name":"","type":"address"}],"stateMutability":"view","type":"function"},{"inputs":[],"name":"VAULT_FACTORY","outputs":[{"internalType":"contract FluidVaultFactory","name":"","type":"address"}],"stateMutability":"view","type":"function"},{"inputs":[],"name":"execute","outputs":[],"stateMutability":"nonpayable","type":"function"},{"inputs":[{"internalType":"uint256","name":"dexId_","type":"uint256"}],"name":"getDexAddress","outputs":[{"internalType":"address","name":"","type":"address"}],"stateMutability":"view","type":"function"},{"inputs":[{"internalType":"address","name":"token","type":"address"},{"internalType":"uint256","name":"amount","type":"uint256"},{"internalType":"uint256","name":"amountInUSD","type":"uint256"},{"internalType":"bool","name":"isSupply","type":"bool"}],"name":"getRawAmount","outputs":[{"internalType":"uint256","name":"","type":"uint256"}],"stateMutability":"view","type":"function"},{"inputs":[{"internalType":"uint256","name":"vaultId_","type":"uint256"}],"name":"getVaultAddress","outputs":[{"internalType":"address","name":"","type":"address"}],"stateMutability":"view","type":"function"},{"inputs":[{"internalType":"string","name":"description","type":"string"}],"name":"propose","outputs":[],"stateMutability":"nonpayable","type":"function"},{"inputs":[],"name":"verifyProposal","outputs":[],"stateMutability":"view","type":"function"}]}