{"address":"0xb7D42206cAef6a49E65637a06Bbb21142bb185AE","bytecode":"0x60c0604052732386dc45added673317ef068992f19421b481f4c60805234801561002857600080fd5b503060a05260805160a051613206610067600039600081816104cb0152610b7601526000818161031f0152818161052e0152610ab501526132066000f3fe608060405234801561001057600080fd5b50600436106101e55760003560e01c80638a1c73641161010f578063b6966495116100a2578063c189205811610071578063c1892058146104ab578063cc025f7c146104c6578063d45f9d95146104ed578063dca95fbf1461050857600080fd5b8063b69664951461043f578063b788f3a11461045a578063bb09d9b714610475578063bffa7f0f1461049057600080fd5b8063a734f06e116100de578063a734f06e146103db578063aa98df39146103f6578063aae7ae0714610409578063aaff04931461042457600080fd5b80638a1c7364146103775780639d3d2a7814610392578063a4485598146103a5578063a64f5693146103c057600080fd5b8063544dd383116101875780636dc0ae22116101565780636dc0ae22146102ff5780637aadef8b1461031a5780637e2f35fa1461034157806383ba27d81461035c57600080fd5b8063544dd383146102bf578063588c77e6146102da57806361461954146102f557806366760d7d146102fd57600080fd5b80632861c7d1116101c35780632861c7d1146102535780632d2c55651461026e578063308baf3314610289578063349fd186146102a457600080fd5b8063040141e5146101ea5780630bc9136e1461022257806325ad7f4d14610238575b600080fd5b61020573c02aaa39b223fe8d0a0e5c4f27ead9083c756cc281565b6040516001600160a01b0390911681526020015b60405180910390f35b61022a602981565b604051908152602001610219565b610205739efde135ca4832abf0408c44c6f5f370eb0f35e881565b6102057352aa899454998be5b000ad077a46bbe360f4e49781565b6102057328849d2b63fa8d361e5fc15cb8abb13019884d0981565b61020573ae7ab96520de3a18e5e111b5eaab095312d7fe8481565b6102057393dd426446b5370f094a1e31f19991aaa6ac0be081565b61020573cbb7c0000ab88b473b1f5afd9ef808440eed33bf81565b610205735c43aac965ff230ac1cf63e924d0153291d78bad81565b6102fd610523565b005b610205730204cd037b2ec03605cfdfe482d8e257c765fa1b81565b6102057f000000000000000000000000000000000000000000000000000000000000000081565b61020573059a94a72451c0ae1cc1ce4bf0db52421bbe821081565b610205739fb7b4477576fe5b32be4c1843afb1e55f251b3381565b61020573324c5dc1fc42c7a4d43d92df1eba58a54d13bf2d81565b61022a6103a0366004612964565b6105cd565b610205737f39c581f595b53c5cb19bd0b3f8da6c935e2ca081565b6102057397b0b3a8bdefe8cb9563a3c610019ad10db8ad1181565b61020573eeeeeeeeeeeeeeeeeeeeeeeeeeeeeeeeeeeeeeee81565b6102fd6104043660046129f3565b6108e8565b610205735c20b550819128074fd538edf79791733ccedd1881565b61020573cd5fe23c85820f7b72d0926fc9b05b43e359b7ee81565b61020573264786ef916af64a1db19f513f24a3681734ce9281565b610205734f6f977acdd1177dcd81ab83074855ecb9c2d49e81565b61020573a0b86991c6218b36c1d19d4a2e9eb0ce3606eb4881565b61020573a45f7bd6a5ff45d31aace6bcd3d426d9328cea0181565b61020573dac17f958d2ee523a2206206994597c13d831ec781565b6102057f000000000000000000000000000000000000000000000000000000000000000081565b610205732260fac5e5542a773aa44fbcfedf7c193bc2c59981565b610205739d39a5de30e57443bff2a8307a4256c8797a349781565b306001600160a01b037f000000000000000000000000000000000000000000000000000000000000000016146105935760405162461bcd60e51b815260206004820152601060248201526f3737ba16bb30b634b216b1b0b63632b960811b60448201526064015b60405180910390fd5b61059b610ca1565b6105a36112f6565b6105ab611449565b6105b361158b565b6105bb611a06565b6105c3611a56565b6105cb611aba565b565b600080841180156105de5750600083115b1561062b5760405162461bcd60e51b815260206004820181905260248201527f626f74682075736420616e6420616d6f756e7420617265206e6f74207a65726f604482015260640161058a565b60007352aa899454998be5b000ad077a46bbe360f4e49763b5c736e4610652600589611b7d565b6040518263ffffffff1660e01b815260040161067091815260200190565b602060405180830381865afa15801561068d573d6000803e3d6000fd5b505050506040513d601f19601f820116820180604052508101906106b19190612aa4565b90506000806106bf83611bbb565b90925090506000601273eeeeeeeeeeeeeeeeeeeeeeeeeeeeeeeeeeeeeeed196001600160a01b038b16016106fa575061092e90506012610874565b737f39c581f595b53c5cb19bd0b3f8da6c935e2c9f196001600160a01b038b160161072c5750610abe90506012610874565b73cd5fe23c85820f7b72d0926fc9b05b43e359b7ed196001600160a01b038b160161075e575061099290506012610874565b6001600160a01b038a1673cbb7c0000ab88b473b1f5afd9ef808440eed33bf14806107a557506001600160a01b038a16732260fac5e5542a773aa44fbcfedf7c193bc2c599145b156107b7575061ec5490506008610874565b6001600160a01b038a1673a0b86991c6218b36c1d19d4a2e9eb0ce3606eb4814806107fe57506001600160a01b038a1673dac17f958d2ee523a2206206994597c13d831ec7145b1561080f5750600190506006610874565b739d39a5de30e57443bff2a8307a4256c8797a3496196001600160a01b038b16016108405750600190506012610874565b60405162461bcd60e51b81526020600482015260096024820152681b9bdd0b599bdd5b9960ba1b604482015260640161058a565b6000876108815783610883565b845b905089156108b2578061089b8b64e8d4a51000612ad3565b6108a59190612b00565b96505050505050506108e0565b6108bc8184612ad3565b6108c783600a612c06565b6108d68b64e8d4a51000612ad3565b61089b9190612ad3565b949350505050565b3373a45f7bd6a5ff45d31aace6bcd3d426d9328cea01148061091d575033734f6f977acdd1177dcd81ab83074855ecb9c2d49e145b8061093b57503073059a94a72451c0ae1cc1ce4bf0db52421bbe8210145b80610959575030739efde135ca4832abf0408c44c6f5f370eb0f35e8145b80610962575060015b6109a75760405162461bcd60e51b81526020600482015260166024820152751b5cd9cb9cd95b99195c8b5b9bdd0b585b1b1bddd95960521b604482015260640161058a565b604080516001808252818301909252600090826020808301908036833701905050905060008267ffffffffffffffff8111156109e5576109e56129b3565b604051908082528060200260200182016040528015610a0e578160200160208202803683370190505b50905060008367ffffffffffffffff811115610a2c57610a2c6129b3565b604051908082528060200260200182016040528015610a5f57816020015b6060815260200190600190039081610a4a5790505b50905060008467ffffffffffffffff811115610a7d57610a7d6129b3565b604051908082528060200260200182016040528015610ab057816020015b6060815260200190600190039081610a9b5790505b5090507f000000000000000000000000000000000000000000000000000000000000000084600081518110610ae757610ae7612c19565b60200260200101906001600160a01b031690816001600160a01b031681525050600083600081518110610b1c57610b1c612c19565b6020026020010181815250506040518060600160405280602481526020016131ad6024913982600081518110610b5457610b54612c19565b60209081029190910181019190915260408051600081529182018152610b9d917f0000000000000000000000000000000000000000000000000000000000000000918101612c7f565b60405160208183030381529060405281600081518110610bbf57610bbf612c19565b6020908102919091010152604051636d4ab48d60e11b8152600090730204cd037b2ec03605cfdfe482d8e257c765fa1b9063da95691a90610c0c9088908890889088908e90600401612d89565b6020604051808303816000875af1158015610c2b573d6000803e3d6000fd5b505050506040513d601f19601f82011682018060405250810190610c4f9190612aa4565b905060298114610c985760405162461bcd60e51b815260206004820152601460248201527350524f504f53414c5f49535f4e4f545f53414d4560601b604482015260640161058a565b50505050505050565b60408051600480825260a082019092526000916020820160808036833701905050905073eeeeeeeeeeeeeeeeeeeeeeeeeeeeeeeeeeeeeeee81600081518110610cec57610cec612c19565b60200260200101906001600160a01b031690816001600160a01b031681525050737f39c581f595b53c5cb19bd0b3f8da6c935e2ca081600181518110610d3457610d34612c19565b60200260200101906001600160a01b031690816001600160a01b03168152505073a0b86991c6218b36c1d19d4a2e9eb0ce3606eb4881600281518110610d7c57610d7c612c19565b60200260200101906001600160a01b031690816001600160a01b03168152505073dac17f958d2ee523a2206206994597c13d831ec781600381518110610dc457610dc4612c19565b6001600160a01b039092166020928302919091019091015260405163564315fd60e11b81527352aa899454998be5b000ad077a46bbe360f4e4979063ac862bfa90610e13908490600401612df6565b600060405180830381600087803b158015610e2d57600080fd5b505af1158015610e41573d6000803e3d6000fd5b506000935060049250610e52915050565b604051908082528060200260200182016040528015610e8557816020015b6060815260200190600190039081610e705790505b5060408051600480825260a0820190925291925060009190816020015b6060815260200190600190039081610ea2579050509050600060405180606001604052806031815260200161317c6031913990506040518060400160405280600781526020016642415349432d4160c81b81525083600081518110610f0957610f09612c19565b60200260200101819052508073ae7ab96520de3a18e5e111b5eaab095312d7fe84600019734f6f977acdd1177dcd81ab83074855ecb9c2d49e600080604051602401610f59959493929190612e09565b60408051601f198184030181529082905291610f7491612e3f565b60405180910390206001600160e01b0319166020820180516001600160e01b03838183161783525050505082600081518110610fb257610fb2612c19565b60200260200101819052506040518060400160405280600781526020016642415349432d4160c81b81525083600181518110610ff057610ff0612c19565b602002602001018190525080737f39c581f595b53c5cb19bd0b3f8da6c935e2ca0600019734f6f977acdd1177dcd81ab83074855ecb9c2d49e600080604051602401611040959493929190612e09565b60408051601f19818403018152908290529161105b91612e3f565b60405180910390206001600160e01b0319166020820180516001600160e01b0383818316178352505050508260018151811061109957611099612c19565b60200260200101819052506040518060400160405280600781526020016642415349432d4160c81b815250836002815181106110d7576110d7612c19565b602002602001018190525080732260fac5e5542a773aa44fbcfedf7c193bc2c599600019734f6f977acdd1177dcd81ab83074855ecb9c2d49e600080604051602401611127959493929190612e09565b60408051601f19818403018152908290529161114291612e3f565b60405180910390206001600160e01b0319166020820180516001600160e01b0383818316178352505050508260028151811061118057611180612c19565b60200260200101819052506040518060400160405280600781526020016642415349432d4160c81b815250836003815181106111be576111be612c19565b60200260200101819052508073c02aaa39b223fe8d0a0e5c4f27ead9083c756cc2600019734f6f977acdd1177dcd81ab83074855ecb9c2d49e60008060405160240161120e959493929190612e09565b60408051601f19818403018152908290529161122991612e3f565b60405180910390206001600160e01b0319166020820180516001600160e01b0383818316178352505050508260038151811061126757611267612c19565b60209081029190910101526040516324c1324d60e21b81527328849d2b63fa8d361e5fc15cb8abb13019884d0990639304c934906112ad90869086903090600401612e5b565b6020604051808303816000875af11580156112cc573d6000803e3d6000fd5b505050506040513d601f19601f820116820180604052508101906112f09190612aa4565b50505050565b60408051600280825260608201909252600091816020015b604080518082019091526000808252602082015281526020019060019003908161130e579050509050604051806040016040528073b5af15a931da1b1a7b8dcf6e2cd31c8a3dd1e1346001600160a01b03168152602001600015158152508160008151811061137f5761137f612c19565b602002602001018190525060405180604001604052807382a2a351aae9c35e7ca17d05367cba533caa21d76001600160a01b0316815260200160011515815250816001815181106113d2576113d2612c19565b6020908102919091010152604051633f66feff60e01b81527352aa899454998be5b000ad077a46bbe360f4e49790633f66feff90611414908490600401612e99565b600060405180830381600087803b15801561142e57600080fd5b505af1158015611442573d6000803e3d6000fd5b5050505050565b73324c5dc1fc42c7a4d43d92df1eba58a54d13bf2d637faa1d2161146d6015611db0565b6040516001600160e01b031960e084901b1681526001600160a01b039091166004820152734605fc1e6a49d92d97179407e823023f06d5aa0e602482015260006044820152606401600060405180830381600087803b1580156114cf57600080fd5b505af11580156114e3573d6000803e3d6000fd5b5050505073324c5dc1fc42c7a4d43d92df1eba58a54d13bf2d6001600160a01b0316637faa1d216115146016611db0565b6040516001600160e01b031960e084901b1681526001600160a01b03909116600482015273ba379afc2829cbf5dea14b8bc135a820e144456d6024820152600060448201526064015b600060405180830381600087803b15801561157757600080fd5b505af11580156112f0573d6000803e3d6000fd5b60408051600280825260608201835260009260208301908036833750506040805160028082526060820183529394506000939092509060208301908036833750506040805160028082526060820183529394506000939092509060208301908036833701905050604051635fd6196560e01b815273512ac5b6cf04f042486a198edb3c28c6f2c6285a6004820152909150739fb7b4477576fe5b32be4c1843afb1e55f251b3390635fd6196590602401600060405180830381600087803b15801561165557600080fd5b505af1158015611669573d6000803e3d6000fd5b5050604051636eb1769f60e11b815273264786ef916af64a1db19f513f24a3681734ce926004820152739fb7b4477576fe5b32be4c1843afb1e55f251b3360248201526000925073a0b86991c6218b36c1d19d4a2e9eb0ce3606eb48915063dd62ed3e90604401602060405180830381865afa1580156116ed573d6000803e3d6000fd5b505050506040513d601f19601f820116820180604052508101906117119190612aa4565b9050739fb7b4477576fe5b32be4c1843afb1e55f251b338460008151811061173b5761173b612c19565b60200260200101906001600160a01b031690816001600160a01b03168152505073a0b86991c6218b36c1d19d4a2e9eb0ce3606eb488360008151811061178357611783612c19565b6001600160a01b03909216602092830291909101909101526117aa81643a35294400612ee6565b826000815181106117bd576117bd612c19565b602090810291909101015250604051635fd6196560e01b815273512ac5b6cf04f042486a198edb3c28c6f2c6285a6004820152735c20b550819128074fd538edf79791733ccedd1890635fd6196590602401600060405180830381600087803b15801561182957600080fd5b505af115801561183d573d6000803e3d6000fd5b5050604051636eb1769f60e11b815273264786ef916af64a1db19f513f24a3681734ce926004820152735c20b550819128074fd538edf79791733ccedd1860248201526000925073dac17f958d2ee523a2206206994597c13d831ec7915063dd62ed3e90604401602060405180830381865afa1580156118c1573d6000803e3d6000fd5b505050506040513d601f19601f820116820180604052508101906118e59190612aa4565b9050735c20b550819128074fd538edf79791733ccedd188460018151811061190f5761190f612c19565b60200260200101906001600160a01b031690816001600160a01b03168152505073dac17f958d2ee523a2206206994597c13d831ec78360018151811061195757611957612c19565b6001600160a01b039092166020928302919091019091015261197e81643a35294400612ee6565b8260018151811061199157611991612c19565b6020908102919091010152506040516303e8046160e01b815273264786ef916af64a1db19f513f24a3681734ce92906303e80461906119d890869086908690600401612ef9565b600060405180830381600087803b1580156119f257600080fd5b505af1158015610c98573d6000803e3d6000fd5b611a12601d6015611e27565b50611a1f601e6016611e27565b50611a2c601c6017611e27565b50611a39601f6018611e27565b50611a4660216019611e27565b50611a536020601a611e27565b50565b611a60600161244e565b611a6a600261244e565b611a74600361244e565b611a7e600461244e565b611a88600561244e565b611a92600661244e565b611a9c600761244e565b611aa6600861244e565b611ab0600961244e565b6105cb600a61244e565b60405163081607ff60e11b8152734f6f977acdd1177dcd81ab83074855ecb9c2d49e60048201527397b0b3a8bdefe8cb9563a3c610019ad10db8ad119063102c0ffe90602401600060405180830381600087803b158015611b1a57600080fd5b505af1158015611b2e573d6000803e3d6000fd5b505060405163081607ff60e11b815273a6aec494aa19dc910944e2374e9ea159dc919c5960048201527397b0b3a8bdefe8cb9563a3c610019ad10db8ad11925063102c0ffe915060240161155d565b604080516001600160a01b03831660208201529081018390526000906060016040516020818303038152906040528051906020012090505b92915050565b67ffffffffffffffff605b82901c811690609b83901c16811580611bdd575080155b15611c0057604051636a86ba8960e11b815262011171600482015260240161058a565b61ffff8316603a84901c6401ffffffff16428181039160ea87901c617fff16911480611c2a575082155b80611c355750806001145b15611c4257505050915091565b64496cebb80084840283020484019350617fff60db87901c16925082600103611c6d57505050915091565b82600116600103611cc25760019290921c91826c7e37be2022c0914b268000000081611c9b57611c9b612aea565b049250612710601e87901c613fff166b033b2e3c9fd0803ce8000000850102049250611cef565b60019290921c916305f5e100601e87901c613fff166127108501026b033b2e3c9fd0803ce8000000020492505b80600116600103611d265760011c61271081016b033b2e3c9fd0803ce8000000820281611d1e57611d1e612aea565b049050611d5c565b60011c61271081016b033b2e3c9fd0803ce8000000820281611d4a57611d4a612aea565b046b033b2e3c9fd0803ce80000000390505b760a70c3c40a64e6c51999090b65f67d92400000000000008382026127100261ffff881691900402601087901c613fff16612710030292506801b5a660ea44b8000085840283020485019450505050915091565b60405163735e935160e11b81526004810182905260009073324c5dc1fc42c7a4d43d92df1eba58a54d13bf2d9063e6bd26a290602401602060405180830381865afa158015611e03573d6000803e3d6000fd5b505050506040513d601f19601f82011682018060405250810190611bb59190612f4c565b60405163735e935160e11b81526004810183905260009073324c5dc1fc42c7a4d43d92df1eba58a54d13bf2d9063e6bd26a290602401602060405180830381865afa158015611e7a573d6000803e3d6000fd5b505050506040513d601f19601f82011682018060405250810190611e9e9190612f4c565b60405163735e935160e11b815260048101849052909150600090611f219073324c5dc1fc42c7a4d43d92df1eba58a54d13bf2d9063e6bd26a290602401602060405180830381865afa158015611ef8573d6000803e3d6000fd5b505050506040513d601f19601f82011682018060405250810190611f1c9190612f4c565b612740565b805160208201516040808401516060850151608086015160a087015160c088015160e089015195516354b04ef560e01b81526004810198909852602488019690965260448701939093526064860191909152608485015260a484015260c483019190915260e48201529091506001600160a01b038316906354b04ef59061010401600060405180830381600087803b158015611fbc57600080fd5b505af1158015611fd0573d6000803e3d6000fd5b505050506000826001600160a01b031663b7791bf26040518163ffffffff1660e01b81526004016101a060405180830381865afa158015612015573d6000803e3d6000fd5b505050506040513d601f19601f820116820180604052508101906120399190612f7a565b6080015190506000836001600160a01b031663b7791bf26040518163ffffffff1660e01b81526004016101a060405180830381865afa158015612080573d6000803e3d6000fd5b505050506040513d601f19601f820116820180604052508101906120a49190612f7a565b60a00151905060007352aa899454998be5b000ad077a46bbe360f4e49763b5c736e46120d26008888761289d565b6040518263ffffffff1660e01b81526004016120f091815260200190565b602060405180830381865afa15801561210d573d6000803e3d6000fd5b505050506040513d601f19601f820116820180604052508101906121319190612aa4565b60408051600180825281830190925291925060009190816020015b6040805160c08101825260008082526020808301829052928201819052606082018190526080820181905260a0820152825260001990920191018161214c5790505090506040518060c00160405280876001600160a01b03168152602001856001600160a01b031681526020018360011660ff168152602001613fff60a285901c16815260200162ffffff60b085901c1681526020016121f3866000627270e060016105cd565b8152508160008151811061220957612209612c19565b60209081029190910101526040516301635db560e11b81527352aa899454998be5b000ad077a46bbe360f4e497906302c6bb6a9061224b908490600401613057565b600060405180830381600087803b15801561226557600080fd5b505af1158015612279573d6000803e3d6000fd5b50505050505060007352aa899454998be5b000ad077a46bbe360f4e4976001600160a01b031663b5c736e46122b06009888661289d565b6040518263ffffffff1660e01b81526004016122ce91815260200190565b602060405180830381865afa1580156122eb573d6000803e3d6000fd5b505050506040513d601f19601f8201168201806040525081019061230f9190612aa4565b60408051600180825281830190925291925060009190816020015b6123326128fd565b81526020019060019003908161232a5750506040805160e0810182526001600160a01b03808a16825286166020820152600185169181019190915260a284901c613fff16606082015260b084901c62ffffff16608082015290915060a081016103ff60d085901c1660c885901c60ff161b81526020016123ba856000630bebc20060006105cd565b815250816000815181106123d0576123d0612c19565b602090810291909101015260405162dc47c360e11b81527352aa899454998be5b000ad077a46bbe360f4e497906301b88f86906124119084906004016130d1565b600060405180830381600087803b15801561242b57600080fd5b505af115801561243f573d6000803e3d6000fd5b50505050505050505092915050565b60405163735e935160e11b81526004810182905260009073324c5dc1fc42c7a4d43d92df1eba58a54d13bf2d9063e6bd26a290602401602060405180830381865afa1580156124a1573d6000803e3d6000fd5b505050506040513d601f19601f820116820180604052508101906124c59190612f4c565b90506000816001600160a01b031663b7791bf26040518163ffffffff1660e01b81526004016101a060405180830381865afa158015612508573d6000803e3d6000fd5b505050506040513d601f19601f8201168201806040525081019061252c9190612f7a565b60a00151905060007352aa899454998be5b000ad077a46bbe360f4e49763b5c736e461255a6009868661289d565b6040518263ffffffff1660e01b815260040161257891815260200190565b602060405180830381865afa158015612595573d6000803e3d6000fd5b505050506040513d601f19601f820116820180604052508101906125b99190612aa4565b9050600981901c66ffffffffffffff16600182901c60ff161b60006125e284826103e8816105cd565b60408051600180825281830190925291925060009190816020015b6126056128fd565b8152602001906001900390816125fd5790505090506040518060e00160405280876001600160a01b03168152602001866001600160a01b031681526020018560011660ff168152602001613fff60a287901c16815260200162ffffff60b087901c1681526020018385106126795783612692565b6103e8612688866103e9612ad3565b6126929190612b00565b815260200160646126a4866069612ad3565b6126ae9190612b00565b815250816000815181106126c4576126c4612c19565b602090810291909101015260405162dc47c360e11b81527352aa899454998be5b000ad077a46bbe360f4e497906301b88f86906127059084906004016130d1565b600060405180830381600087803b15801561271f57600080fd5b505af1158015612733573d6000803e3d6000fd5b5050505050505050505050565b61278860405180610100016040528060008152602001600081526020016000815260200160008152602001600081526020016000815260200160008152602001600081525090565b604051632d71cdb960e21b8152600160048201526000906001600160a01b0384169063b5c736e490602401602060405180830381865afa1580156127d0573d6000803e3d6000fd5b505050506040513d601f19601f820116820180604052508101906127f49190612aa4565b61ffff8082168452601082901c166020808501919091529091506128209082901c6103ff16600a613155565b61ffff16604083015261283c602a82901c6103ff16600a613155565b61ffff166060830152612858603482901c6103ff16600a613155565b61ffff166080830152612874603e82901c6103ff16600a613155565b61ffff1660a08301526103ff604882901c811660c084015260529190911c1660e0820152919050565b604080516001600160a01b039384166020808301919091528183019590955281518082038301815260608201835280519086012092909316608084015260a0808401929092528051808403909201825260c0909201909152805191012090565b6040518060e0016040528060006001600160a01b0316815260200160006001600160a01b03168152602001600060ff168152602001600081526020016000815260200160008152602001600081525090565b6001600160a01b0381168114611a5357600080fd5b6000806000806080858703121561297a57600080fd5b84356129858161294f565b93506020850135925060408501359150606085013580151581146129a857600080fd5b939692955090935050565b634e487b7160e01b600052604160045260246000fd5b6040516101a0810167ffffffffffffffff811182821017156129ed576129ed6129b3565b60405290565b600060208284031215612a0557600080fd5b813567ffffffffffffffff80821115612a1d57600080fd5b818401915084601f830112612a3157600080fd5b813581811115612a4357612a436129b3565b604051601f8201601f19908116603f01168101908382118183101715612a6b57612a6b6129b3565b81604052828152876020848701011115612a8457600080fd5b826020860160208301376000928101602001929092525095945050505050565b600060208284031215612ab657600080fd5b5051919050565b634e487b7160e01b600052601160045260246000fd5b8082028115828204841417611bb557611bb5612abd565b634e487b7160e01b600052601260045260246000fd5b600082612b1d57634e487b7160e01b600052601260045260246000fd5b500490565b600181815b80851115612b5d578160001904821115612b4357612b43612abd565b80851615612b5057918102915b93841c9390800290612b27565b509250929050565b600082612b7457506001611bb5565b81612b8157506000611bb5565b8160018114612b975760028114612ba157612bbd565b6001915050611bb5565b60ff841115612bb257612bb2612abd565b50506001821b611bb5565b5060208310610133831016604e8410600b8410161715612be0575081810a611bb5565b612bea8383612b22565b8060001904821115612bfe57612bfe612abd565b029392505050565b6000612c128383612b65565b9392505050565b634e487b7160e01b600052603260045260246000fd5b60005b83811015612c4a578181015183820152602001612c32565b50506000910152565b60008151808452612c6b816020860160208601612c2f565b601f01601f19169290920160200192915050565b60018060a01b038316815260606020820152600960608201526865786563757465282960b81b608082015260a0604082015260006108e060a0830184612c53565b600081518084526020808501945080840160005b83811015612cf95781516001600160a01b031687529582019590820190600101612cd4565b509495945050505050565b600081518084526020808501945080840160005b83811015612cf957815187529582019590820190600101612d18565b600081518084526020808501808196508360051b8101915082860160005b85811015612d7c578284038952612d6a848351612c53565b98850198935090840190600101612d52565b5091979650505050505050565b60a081526000612d9c60a0830188612cc0565b8281036020840152612dae8188612d04565b90508281036040840152612dc28187612d34565b90508281036060840152612dd68186612d34565b90508281036080840152612dea8185612c53565b98975050505050505050565b602081526000612c126020830184612cc0565b6001600160a01b039586168152602081019490945291909316604083015260ff9283166060830152909116608082015260a00190565b60008251612e51818460208701612c2f565b9190910192915050565b606081526000612e6e6060830186612d34565b8281036020840152612e808186612d34565b91505060018060a01b0383166040830152949350505050565b602080825282518282018190526000919060409081850190868401855b82811015612d7c57815180516001600160a01b031685528601511515868501529284019290850190600101612eb6565b80820180821115611bb557611bb5612abd565b606081526000612f0c6060830186612cc0565b8281036020840152612f1e8186612cc0565b90508281036040840152612f328185612d04565b9695505050505050565b8051612f478161294f565b919050565b600060208284031215612f5e57600080fd5b8151612c128161294f565b805160ff81168114612f4757600080fd5b60006101a08284031215612f8d57600080fd5b612f956129c9565b612f9e83612f3c565b8152612fac60208401612f3c565b6020820152612fbd60408401612f3c565b6040820152612fce60608401612f3c565b6060820152612fdf60808401612f3c565b6080820152612ff060a08401612f3c565b60a082015261300160c08401612f69565b60c082015261301260e08401612f69565b60e08201526101008381015190820152610120808401519082015261014080840151908201526101608084015190820152610180928301519281019290925250919050565b602080825282518282018190526000919060409081850190868401855b82811015612d7c57815180516001600160a01b0390811686528782015116878601528581015160ff1686860152606080820151908601526080808201519086015260a0908101519085015260c09093019290850190600101613074565b602080825282518282018190526000919060409081850190868401855b82811015612d7c57815180516001600160a01b0390811686528782015116878601528581015160ff1686860152606080820151908601526080808201519086015260a0808201519086015260c0908101519085015260e090930192908501906001016130ee565b61ffff81811683821602808216919082811461317357613173612abd565b50509291505056fe776974686472617728616464726573732c75696e743235362c616464726573732c75696e743235362c75696e7432353629657865637574655061796c6f616428616464726573732c737472696e672c627974657329a264697066735822122095e8096948d295d2b6b1486a16b3aa8d5e1944dd09adf2cf508fe539299ab5d864736f6c63430008150033","abi":[{"inputs":[],"stateMutability":"nonpayable","type":"constructor"},{"inputs":[{"internalType":"uint256","name":"errorId_","type":"uint256"}],"name":"FluidLiquidityCalcsError","type":"error"},{"inputs":[],"name":"ADDRESS_THIS","outputs":[{"internalType":"address","name":"","type":"address"}],"stateMutability":"view","type":"function"},{"inputs":[],"name":"DSA_CONNECTORS_V2","outputs":[{"internalType":"contract IDSAConnectorsV2","name":"","type":"address"}],"stateMutability":"view","type":"function"},{"inputs":[],"name":"ETH_ADDRESS","outputs":[{"internalType":"address","name":"","type":"address"}],"stateMutability":"view","type":"function"},{"inputs":[],"name":"FLUID_DEX_FACTORY","outputs":[{"internalType":"contract IFluidDexFactory","name":"","type":"address"}],"stateMutability":"view","type":"function"},{"inputs":[],"name":"FLUID_RESERVE","outputs":[{"internalType":"contract IFluidReserveContract","name":"","type":"address"}],"stateMutability":"view","type":"function"},{"inputs":[],"name":"F_USDC","outputs":[{"internalType":"address","name":"","type":"address"}],"stateMutability":"view","type":"function"},{"inputs":[],"name":"F_USDT","outputs":[{"internalType":"address","name":"","type":"address"}],"stateMutability":"view","type":"function"},{"inputs":[],"name":"GOVERNOR","outputs":[{"internalType":"contract IGovernorBravo","name":"","type":"address"}],"stateMutability":"view","type":"function"},{"inputs":[],"name":"LIQUIDITY","outputs":[{"internalType":"contract IFluidLiquidityAdmin","name":"","type":"address"}],"stateMutability":"view","type":"function"},{"inputs":[],"name":"PROPOSAL_ID","outputs":[{"internalType":"uint256","name":"","type":"uint256"}],"stateMutability":"view","type":"function"},{"inputs":[],"name":"PROPOSER","outputs":[{"internalType":"address","name":"","type":"address"}],"stateMutability":"view","type":"function"},{"inputs":[],"name":"PROPOSER_AVO_MULTISIG","outputs":[{"internalType":"address","name":"","type":"address"}],"stateMutability":"view","type":"function"},{"inputs":[],"name":"PROPOSER_AVO_MULTISIG_2","outputs":[{"internalType":"address","name":"","type":"address"}],"stateMutability":"view","type":"function"},{"inputs":[],"name":"PROPOSER_AVO_MULTISIG_3","outputs":[{"internalType":"address","name":"","type":"address"}],"stateMutability":"view","type":"function"},{"inputs":[],"name":"TEAM_MULTISIG","outputs":[{"internalType":"address","name":"","type":"address"}],"stateMutability":"view","type":"function"},{"inputs":[],"name":"TIMELOCK","outputs":[{"internalType":"contract ITimelock","name":"","type":"address"}],"stateMutability":"view","type":"function"},{"inputs":[],"name":"TREASURY","outputs":[{"internalType":"contract IDSAV2","name":"","type":"address"}],"stateMutability":"view","type":"function"},{"inputs":[],"name":"USDC_ADDRESS","outputs":[{"internalType":"address","name":"","type":"address"}],"stateMutability":"view","type":"function"},{"inputs":[],"name":"USDT_ADDRESS","outputs":[{"internalType":"address","name":"","type":"address"}],"stateMutability":"view","type":"function"},{"inputs":[],"name":"VAULT_T1_FACTORY","outputs":[{"internalType":"contract IFluidVaultT1Factory","name":"","type":"address"}],"stateMutability":"view","type":"function"},{"inputs":[],"name":"WETH_ADDRESS","outputs":[{"internalType":"address","name":"","type":"address"}],"stateMutability":"view","type":"function"},{"inputs":[],"name":"cbBTC_ADDRESS","outputs":[{"internalType":"address","name":"","type":"address"}],"stateMutability":"view","type":"function"},{"inputs":[],"name":"execute","outputs":[],"stateMutability":"nonpayable","type":"function"},{"inputs":[{"internalType":"address","name":"token","type":"address"},{"internalType":"uint256","name":"amount","type":"uint256"},{"internalType":"uint256","name":"amountInUSD","type":"uint256"},{"internalType":"bool","name":"isSupply","type":"bool"}],"name":"getRawAmount","outputs":[{"internalType":"uint256","name":"","type":"uint256"}],"stateMutability":"view","type":"function"},{"inputs":[{"internalType":"string","name":"description","type":"string"}],"name":"propose","outputs":[],"stateMutability":"nonpayable","type":"function"},{"inputs":[],"name":"sUSDe_ADDRESS","outputs":[{"internalType":"address","name":"","type":"address"}],"stateMutability":"view","type":"function"},{"inputs":[],"name":"stETH_ADDRESS","outputs":[{"internalType":"address","name":"","type":"address"}],"stateMutability":"view","type":"function"},{"inputs":[],"name":"verifyProposal","outputs":[],"stateMutability":"view","type":"function"},{"inputs":[],"name":"wBTC_ADDRESS","outputs":[{"internalType":"address","name":"","type":"address"}],"stateMutability":"view","type":"function"},{"inputs":[],"name":"weETH_ADDRESS","outputs":[{"internalType":"address","name":"","type":"address"}],"stateMutability":"view","type":"function"},{"inputs":[],"name":"wstETH_ADDRESS","outputs":[{"internalType":"address","name":"","type":"address"}],"stateMutability":"view","type":"function"}]}