{"address":"0x2194C7997e50710ABd25C7e9f85D50722aCC16DA","bytecode":"0x60c0604052732386dc45added673317ef068992f19421b481f4c60805234801561002857600080fd5b503060a05260805160a051611c0c610067600039600081816102c0015261061d0152600081816101ff01528181610308015261055c0152611c0c6000f3fe608060405234801561001057600080fd5b50600436106101165760003560e01c80637aadef8b116100a2578063b696649511610071578063b69664951461026a578063b788f3a114610285578063bffa7f0f146102a0578063cc025f7c146102bb578063d45f9d95146102e257600080fd5b80637aadef8b146101fa5780637e2f35fa146102215780638a1c73641461023c578063aa98df391461025757600080fd5b8063308baf33116100e9578063308baf331461019f578063588c77e6146101ba57806361461954146101d557806366760d7d146101dd5780636dc0ae22146101df57600080fd5b80630680f4171461011b5780630bc9136e1461015357806325ad7f4d146101695780632d2c556514610184575b600080fd5b61013673a0d3707c569ff8c87fa923d3823ec5d81c98be7881565b6040516001600160a01b0390911681526020015b60405180910390f35b61015b602281565b60405190815260200161014a565b610136739efde135ca4832abf0408c44c6f5f370eb0f35e881565b6101367328849d2b63fa8d361e5fc15cb8abb13019884d0981565b61013673ae7ab96520de3a18e5e111b5eaab095312d7fe8481565b610136735c43aac965ff230ac1cf63e924d0153291d78bad81565b6101dd6102fd565b005b610136730204cd037b2ec03605cfdfe482d8e257c765fa1b81565b6101367f000000000000000000000000000000000000000000000000000000000000000081565b61013673059a94a72951c0ae1cc1ce3bf0db52421bbe821081565b61013673324c5dc1fc42c7a4d43d92df1eba58a54d13bf2d81565b6101dd61026536600461175d565b61038f565b61013673264786ef916af64a1db19f513f24a3681734ce9281565b610136734f6f977acdd1177dcd81ab83074855ecb9c2d49e81565b61013673a45f7bd6a5ff45d31aace6bcd3d426d9328cea0181565b6101367f000000000000000000000000000000000000000000000000000000000000000081565b610136732260fac5e5542a773aa44fbcfedf7c193bc2c59981565b306001600160a01b037f0000000000000000000000000000000000000000000000000000000000000000161461036d5760405162461bcd60e51b815260206004820152601060248201526f3737ba16bb30b634b216b1b0b63632b960811b60448201526064015b60405180910390fd5b610375610748565b61037d61097f565b610385610d61565b61038d6111ef565b565b3373a45f7bd6a5ff45d31aace6bcd3d426d9328cea0114806103c4575033734f6f977acdd1177dcd81ab83074855ecb9c2d49e145b806103e257503073059a94a72951c0ae1cc1ce3bf0db52421bbe8210145b80610400575030739efde135ca4832abf0408c44c6f5f370eb0f35e8145b80610409575060015b61044e5760405162461bcd60e51b81526020600482015260166024820152751b5cd9cb9cd95b99195c8b5b9bdd0b585b1b1bddd95960521b6044820152606401610364565b604080516001808252818301909252600090826020808301908036833701905050905060008267ffffffffffffffff81111561048c5761048c611747565b6040519080825280602002602001820160405280156104b5578160200160208202803683370190505b50905060008367ffffffffffffffff8111156104d3576104d3611747565b60405190808252806020026020018201604052801561050657816020015b60608152602001906001900390816104f15790505b50905060008467ffffffffffffffff81111561052457610524611747565b60405190808252806020026020018201604052801561055757816020015b60608152602001906001900390816105425790505b5090507f00000000000000000000000000000000000000000000000000000000000000008460008151811061058e5761058e61180e565b60200260200101906001600160a01b031690816001600160a01b0316815250506000836000815181106105c3576105c361180e565b602002602001018181525050604051806060016040528060248152602001611bb360249139826000815181106105fb576105fb61180e565b60209081029190910181019190915260408051600081529182018152610644917f0000000000000000000000000000000000000000000000000000000000000000918101611874565b604051602081830303815290604052816000815181106106665761066661180e565b6020908102919091010152604051636d4ab48d60e11b8152600090730204cd037b2ec03605cfdfe482d8e257c765fa1b9063da95691a906106b39088908890889088908e90600401611986565b6020604051808303816000875af11580156106d2573d6000803e3d6000fd5b505050506040513d601f19601f820116820180604052508101906106f691906119f3565b90506022811461073f5760405162461bcd60e51b815260206004820152601460248201527350524f504f53414c5f49535f4e4f545f53414d4560601b6044820152606401610364565b50505050505050565b60405163c39aa07d60e01b81527335e7961be97ccba901cf14b73202d58f7a33d46d600482015273a0d3707c569ff8c87fa923d3823ec5d81c98be789063c39aa07d90602401600060405180830381600087803b1580156107a857600080fd5b505af11580156107bc573d6000803e3d6000fd5b5060009250600191506107cc9050565b6040519080825280602002602001820160405280156107f5578160200160208202803683370190505b5090507f3a9fb2894c229bf42ad0c0aac341b73181c0d91697a4b6eb9e87a2a21f04e9e78160008151811061082c5761082c61180e565b6001600160e01b0319909216602092830291909101909101526040516378600da160e11b815273a0d3707c569ff8c87fa923d3823ec5d81c98be789063f0c01b42906108929073c10a855055eb3939fcaa512253ec3f671c4ab839908590600401611a0c565b600060405180830381600087803b1580156108ac57600080fd5b505af11580156108c0573d6000803e3d6000fd5b5050505073a0d3707c569ff8c87fa923d3823ec5d81c98be786001600160a01b0316816000815181106108f5576108f561180e565b602002602001015160405160200161091d91906001600160e01b031991909116815260200190565b60408051601f198184030181529082905261093791611a6c565b6000604051808303816000865af19150503d8060008114610974576040519150601f19603f3d011682016040523d82523d6000602084013e610979565b606091505b50505050565b60408051600a8082526101608201909252600091816020015b6109ca6040518060a0016040528060008152602001600081526020016000815260200160008152602001600081525090565b81526020019060019003908161099857905050905060006040518060a00160405280600b81526020016121fc81526020016123f0815260200161251c81526020016064815250828280610a1c90611a9e565b935081518110610a2e57610a2e61180e565b60200260200101819052506040518060a00160405280600c81526020016121fc81526020016123f0815260200161251c815260200160c8815250828280610a7490611a9e565b935081518110610a8657610a8661180e565b60200260200101819052506040518060a00160405280600d815260200161251c81526020016125e481526020016126488152602001600a815250828280610acc90611a9e565b935081518110610ade57610ade61180e565b60200260200101819052506040518060a00160405280600e815260200161200881526020016122608152602001612422815260200160fa815250828280610b2490611a9e565b935081518110610b3657610b3661180e565b60200260200101819052506040518060a00160405280600f815260200161200881526020016122608152602001612422815260200161012c815250828280610b7d90611a9e565b935081518110610b8f57610b8f61180e565b60200260200101819052506040518060a00160405280601081526020016124b8815260200161258081526020016125e481526020016064815250828280610bd590611a9e565b935081518110610be757610be761180e565b60200260200101819052506040518060a001604052806011815260200161232881526020016123f0815260200161251c815260200160c8815250828280610c2d90611a9e565b935081518110610c3f57610c3f61180e565b60200260200101819052506040518060a001604052806012815260200161232881526020016123f0815260200161251c815260200160c8815250828280610c8590611a9e565b935081518110610c9757610c9761180e565b60200260200101819052506040518060a0016040528060138152602001611e1481526020016120088152602001612328815260200161012c815250828280610cde90611a9e565b935081518110610cf057610cf061180e565b60200260200101819052506040518060a0016040528060148152602001611e14815260200161200881526020016123288152602001610190815250828280610d3790611a9e565b935081518110610d4957610d4961180e565b6020026020010181905250610d5d826114e8565b5050565b60408051600280825260608201835260009260208301908036833750506040805160028082526060820183529394506000939092509060208301908036833750506040805160028082526060820183529394506000939092509060208301908036833701905050604051637faa1d2160e01b8152736f72895cf6904489bcd862c941c3d02a3ee4f03e60048201819052734605fc1e6a49d92d97179407e823023f06d5aa0e6024830181905260016044840152929350919073324c5dc1fc42c7a4d43d92df1eba58a54d13bf2d90637faa1d2190606401600060405180830381600087803b158015610e5257600080fd5b505af1158015610e66573d6000803e3d6000fd5b5050604051636eb1769f60e11b815273264786ef916af64a1db19f513f24a3681734ce9260048201526001600160a01b038516602482015260009250732260fac5e5542a773aa44fbcfedf7c193bc2c599915063dd62ed3e90604401602060405180830381865afa158015610edf573d6000803e3d6000fd5b505050506040513d601f19601f82011682018060405250810190610f0391906119f3565b90508286600081518110610f1957610f1961180e565b60200260200101906001600160a01b031690816001600160a01b031681525050732260fac5e5542a773aa44fbcfedf7c193bc2c59985600081518110610f6157610f6161180e565b6001600160a01b0390921660209283029190910190910152610f87816304c4b400611ab7565b84600081518110610f9a57610f9a61180e565b60209081029190910101525050604051637faa1d2160e01b8152733a0b7c8840d74d39552ef53f586dd8c3d1234c406004820181905273ba379afc2829cbf5dea14b8bc135a820e144456d60248301819052600160448401529092509073324c5dc1fc42c7a4d43d92df1eba58a54d13bf2d90637faa1d2190606401600060405180830381600087803b15801561103057600080fd5b505af1158015611044573d6000803e3d6000fd5b5050604051636eb1769f60e11b815273264786ef916af64a1db19f513f24a3681734ce9260048201526001600160a01b038516602482015260009250732260fac5e5542a773aa44fbcfedf7c193bc2c599915063dd62ed3e90604401602060405180830381865afa1580156110bd573d6000803e3d6000fd5b505050506040513d601f19601f820116820180604052508101906110e191906119f3565b905082866001815181106110f7576110f761180e565b60200260200101906001600160a01b031690816001600160a01b031681525050732260fac5e5542a773aa44fbcfedf7c193bc2c5998560018151811061113f5761113f61180e565b6001600160a01b0390921660209283029190910190910152611165816304c4b400611ab7565b846001815181106111785761117861180e565b602090810291909101015250506040516303e8046160e01b815273264786ef916af64a1db19f513f24a3681734ce9291506303e80461906111c190869086908690600401611ad0565b600060405180830381600087803b1580156111db57600080fd5b505af115801561073f573d6000803e3d6000fd5b60408051600280825260608201909252600091816020015b60608152602001906001900390816112075750506040805160028082526060820190925291925060009190602082015b60608152602001906001900390816112375790505090506000604051806060016040528060318152602001611b8260319139905060006306dac2c090506040518060400160405280600781526020016642415349432d4160c81b815250846000815181106112a7576112a761180e565b6020908102919091010152604051732260fac5e5542a773aa44fbcfedf7c193bc2c599602482015260448101829052734f6f977acdd1177dcd81ab83074855ecb9c2d49e606482015260006084820181905260a4820152829060c40160408051601f19818403018152908290529161131e91611a6c565b60405180910390206001600160e01b0319166020820180516001600160e01b0383818316178352505050508360008151811061135c5761135c61180e565b60200260200101819052505060006801a055690d9db8000090506040518060400160405280600781526020016642415349432d4160c81b815250846001815181106113a9576113a961180e565b602090810291909101015260405173ae7ab96520de3a18e5e111b5eaab095312d7fe84602482015260448101829052734f6f977acdd1177dcd81ab83074855ecb9c2d49e606482015260006084820181905260a4820152829060c40160408051601f19818403018152908290529161142091611a6c565b60405180910390206001600160e01b0319166020820180516001600160e01b0383818316178352505050508360018151811061145e5761145e61180e565b6020908102919091010152506040516324c1324d60e21b81527328849d2b63fa8d361e5fc15cb8abb13019884d0990639304c934906114a590869086903090600401611b13565b6020604051808303816000875af11580156114c4573d6000803e3d6000fd5b505050506040513d601f19601f8201168201806040525081019061097991906119f3565b60005b8151811015610d5d5760008282815181106115085761150861180e565b60200260200101519050600073324c5dc1fc42c7a4d43d92df1eba58a54d13bf2d6001600160a01b031663e6bd26a283600001516040518263ffffffff1660e01b815260040161155a91815260200190565b602060405180830381865afa158015611577573d6000803e3d6000fd5b505050506040513d601f19601f8201168201806040525081019061159b9190611b51565b6060830151604051631131d2c560e31b81529192506001600160a01b0383169163898e9628916115d19160040190815260200190565b600060405180830381600087803b1580156115eb57600080fd5b505af11580156115ff573d6000803e3d6000fd5b50505060408084015190516369dadf0d60e11b81526001600160a01b038416925063d3b5be1a916116369160040190815260200190565b600060405180830381600087803b15801561165057600080fd5b505af1158015611664573d6000803e3d6000fd5b5050506020830151604051631427086960e21b81526001600160a01b038416925063509c21a49161169b9160040190815260200190565b600060405180830381600087803b1580156116b557600080fd5b505af11580156116c9573d6000803e3d6000fd5b50505060808301516040516357917a1160e01b81526001600160a01b03841692506357917a11916117009160040190815260200190565b600060405180830381600087803b15801561171a57600080fd5b505af115801561172e573d6000803e3d6000fd5b505050505050808061173f90611a9e565b9150506114eb565b634e487b7160e01b600052604160045260246000fd5b60006020828403121561176f57600080fd5b813567ffffffffffffffff8082111561178757600080fd5b818401915084601f83011261179b57600080fd5b8135818111156117ad576117ad611747565b604051601f8201601f19908116603f011681019083821181831017156117d5576117d5611747565b816040528281528760208487010111156117ee57600080fd5b826020860160208301376000928101602001929092525095945050505050565b634e487b7160e01b600052603260045260246000fd5b60005b8381101561183f578181015183820152602001611827565b50506000910152565b60008151808452611860816020860160208601611824565b601f01601f19169290920160200192915050565b60018060a01b038316815260606020820152600960608201526865786563757465282960b81b608082015260a0604082015260006118b560a0830184611848565b949350505050565b600081518084526020808501945080840160005b838110156118f65781516001600160a01b0316875295820195908201906001016118d1565b509495945050505050565b600081518084526020808501945080840160005b838110156118f657815187529582019590820190600101611915565b600081518084526020808501808196508360051b8101915082860160005b85811015611979578284038952611967848351611848565b9885019893509084019060010161194f565b5091979650505050505050565b60a08152600061199960a08301886118bd565b82810360208401526119ab8188611901565b905082810360408401526119bf8187611931565b905082810360608401526119d38186611931565b905082810360808401526119e78185611848565b98975050505050505050565b600060208284031215611a0557600080fd5b5051919050565b6001600160a01b038316815260406020808301829052835191830182905260009184820191906060850190845b81811015611a5f5784516001600160e01b03191683529383019391830191600101611a39565b5090979650505050505050565b60008251611a7e818460208701611824565b9190910192915050565b634e487b7160e01b600052601160045260246000fd5b600060018201611ab057611ab0611a88565b5060010190565b80820180821115611aca57611aca611a88565b92915050565b606081526000611ae360608301866118bd565b8281036020840152611af581866118bd565b90508281036040840152611b098185611901565b9695505050505050565b606081526000611b266060830186611931565b8281036020840152611b388186611931565b91505060018060a01b0383166040830152949350505050565b600060208284031215611b6357600080fd5b81516001600160a01b0381168114611b7a57600080fd5b939250505056fe776974686472617728616464726573732c75696e743235362c616464726573732c75696e743235362c75696e7432353629657865637574655061796c6f616428616464726573732c737472696e672c627974657329a2646970667358221220ab1a1950b10f1745a90d2cce1262be155ab5171ed70b46e0e4e563670ecae17c64736f6c63430008150033","abi":[{"inputs":[],"stateMutability":"nonpayable","type":"constructor"},{"inputs":[],"name":"ADDRESS_THIS","outputs":[{"internalType":"address","name":"","type":"address"}],"stateMutability":"view","type":"function"},{"inputs":[],"name":"FLUID_RESERVE","outputs":[{"internalType":"contract IFluidReserveContract","name":"","type":"address"}],"stateMutability":"view","type":"function"},{"inputs":[],"name":"GOVERNOR","outputs":[{"internalType":"contract IGovernorBravo","name":"","type":"address"}],"stateMutability":"view","type":"function"},{"inputs":[],"name":"LITE","outputs":[{"internalType":"contract ILite","name":"","type":"address"}],"stateMutability":"view","type":"function"},{"inputs":[],"name":"PROPOSAL_ID","outputs":[{"internalType":"uint256","name":"","type":"uint256"}],"stateMutability":"view","type":"function"},{"inputs":[],"name":"PROPOSER","outputs":[{"internalType":"address","name":"","type":"address"}],"stateMutability":"view","type":"function"},{"inputs":[],"name":"PROPOSER_AVO_MULTISIG","outputs":[{"internalType":"address","name":"","type":"address"}],"stateMutability":"view","type":"function"},{"inputs":[],"name":"PROPOSER_AVO_MULTISIG_2","outputs":[{"internalType":"address","name":"","type":"address"}],"stateMutability":"view","type":"function"},{"inputs":[],"name":"PROPOSER_AVO_MULTISIG_3","outputs":[{"internalType":"address","name":"","type":"address"}],"stateMutability":"view","type":"function"},{"inputs":[],"name":"TEAM_MULTISIG","outputs":[{"internalType":"address","name":"","type":"address"}],"stateMutability":"view","type":"function"},{"inputs":[],"name":"TIMELOCK","outputs":[{"internalType":"contract ITimelock","name":"","type":"address"}],"stateMutability":"view","type":"function"},{"inputs":[],"name":"TREASURY","outputs":[{"internalType":"contract IDSAV2","name":"","type":"address"}],"stateMutability":"view","type":"function"},{"inputs":[],"name":"VAULT_T1_FACTORY","outputs":[{"internalType":"contract IFluidVaultT1Factory","name":"","type":"address"}],"stateMutability":"view","type":"function"},{"inputs":[],"name":"execute","outputs":[],"stateMutability":"nonpayable","type":"function"},{"inputs":[{"internalType":"string","name":"description","type":"string"}],"name":"propose","outputs":[],"stateMutability":"nonpayable","type":"function"},{"inputs":[],"name":"stETH_ADDRESS","outputs":[{"internalType":"address","name":"","type":"address"}],"stateMutability":"view","type":"function"},{"inputs":[],"name":"verifyProposal","outputs":[],"stateMutability":"view","type":"function"},{"inputs":[],"name":"wBTC_ADDRESS","outputs":[{"internalType":"address","name":"","type":"address"}],"stateMutability":"view","type":"function"}]}