{"address":"0x1eF805e8f79c3405ba9cE6532c262B5508F4ACc1","bytecode":"0x60c06040527f2386dc45added673317ef068992f19421b481f4c00000000000000000000000060805234801561003457600080fd5b5030606081811b60a052608051901c906118036100706000398061062f52806107b6525080610292528061033c528061058052506118036000f3fe608060405234801561001057600080fd5b506004361061014d5760003560e01c80638a951d6c116100c3578063aaff04931161007c578063aaff04931461020a578063b788f3a114610212578063bb09d9b71461021a578063bffa7f0f14610222578063c18920581461022a578063cc025f7c146102325761014d565b80638a951d6c146101cf57806396bac931146101d7578063a4485598146101df578063a734f06e146101e7578063a948f8d2146101ef578063aa98df39146101f75761014d565b806366760d7d1161011557806366760d7d1461019f57806369f55592146101a75780636dc0ae22146101af5780637aadef8b146101b75780637e2f35fa146101bf5780638a1c7364146101c75761014d565b80630b297739146101525780630bc9136e146101705780632861c7d1146101855780632fca5d4f1461018d5780636146195414610195575b600080fd5b61015a61023a565b6040516101679190611418565b60405180910390f35b610178610252565b6040516101679190611718565b61015a610257565b61015a61026f565b61019d610287565b005b61019d610308565b61015a61030a565b61015a610322565b61015a61033a565b61015a61035e565b61015a610376565b61015a61038e565b61015a6103a6565b61015a6103be565b61015a6103d6565b61015a6103ee565b61019d610205366004611247565b610406565b61015a61073c565b61015a610754565b61015a61076c565b61015a610784565b61015a61079c565b61015a6107b4565b731c2bb46f36561bc4f05a94bd50916496aa50107881565b601081565b7352aa899454998be5b000ad077a46bbe360f4e49781565b73eabbfca72f8a8bf14c4ac59e69ecb2eb69f0811c81565b306001600160a01b037f000000000000000000000000000000000000000000000000000000000000000016146102d85760405162461bcd60e51b81526004016102cf9061177f565b60405180910390fd5b6102e06107d8565b6102e86109ff565b6102f0610bae565b6102f8610c9f565b610300610d77565b610308610f47565b565b73bec491fef7b4f666b270f9d5e5c3f443cbf2099181565b730204cd037b2ec03605cfdfe482d8e257c765fa1b81565b7f000000000000000000000000000000000000000000000000000000000000000081565b73059a94a72951c0ae1cc1ce3bf0db52421bbe821081565b73324c5dc1fc42c7a4d43d92df1eba58a54d13bf2d81565b7340d9b8417e6e1dcd358f04e3328bced061018a8281565b7354b91a0d94cb471f37f949c60f7fa7935b551d0381565b737f39c581f595b53c5cb19bd0b3f8da6c935e2ca081565b73eeeeeeeeeeeeeeeeeeeeeeeeeeeeeeeeeeeeeeee81565b7351197586f6a9e2571868b6ffaef308f3bdfed3ae81565b3373a45f7bd6a5ff45d31aace6bcd3d426d9328cea01148061043b575033734f6f977acdd1177dcd81ab83074855ecb9c2d49e145b8061045957503073059a94a72951c0ae1cc1ce3bf0db52421bbe8210145b6104755760405162461bcd60e51b81526004016102cf90611721565b604080516001808252818301909252606090826020808301908036833701905050905060608267ffffffffffffffff811180156104b157600080fd5b506040519080825280602002602001820160405280156104db578160200160208202803683370190505b50905060608367ffffffffffffffff811180156104f757600080fd5b5060405190808252806020026020018201604052801561052b57816020015b60608152602001906001900390816105165790505b50905060608467ffffffffffffffff8111801561054757600080fd5b5060405190808252806020026020018201604052801561057b57816020015b60608152602001906001900390816105665790505b5090507f0000000000000000000000000000000000000000000000000000000000000000846000815181106105ac57fe5b60200260200101906001600160a01b031690816001600160a01b0316815250506000836000815181106105db57fe5b6020026020010181815250506040518060600160405280602481526020016117aa602491398260008151811061060d57fe5b60209081029190910181019190915260408051600081529182018152610656917f0000000000000000000000000000000000000000000000000000000000000000918101611489565b6040516020818303038152906040528160008151811061067257fe5b6020908102919091010152604051636d4ab48d60e11b8152600090730204cd037b2ec03605cfdfe482d8e257c765fa1b9063da95691a906106bf9088908890889088908e906004016114d2565b602060405180830381600087803b1580156106d957600080fd5b505af11580156106ed573d6000803e3d6000fd5b505050506040513d601f19601f8201168201806040525081019061071191906112dc565b9050601081146107335760405162461bcd60e51b81526004016102cf90611751565b50505050505050565b73cd5fe23c85820f7b72d0926fc9b05b43e359b7ee81565b734f6f977acdd1177dcd81ab83074855ecb9c2d49e81565b73a0b86991c6218b36c1d19d4a2e9eb0ce3606eb4881565b73a45f7bd6a5ff45d31aace6bcd3d426d9328cea0181565b73dac17f958d2ee523a2206206994597c13d831ec781565b7f000000000000000000000000000000000000000000000000000000000000000081565b604080516001808252818301909252606091816020015b6107f7611147565b8152602001906001900390816107ef5790505090506040518060e00160405280737f39c581f595b53c5cb19bd0b3f8da6c935e2ca06001600160a01b03168152602001611b5881526020016123288152602001600081526020016107d08152602001610fa08152602001613a988152508160008151811061087457fe5b6020908102919091010152604051639dde597760e01b81527352aa899454998be5b000ad077a46bbe360f4e49790639dde5977906108b69084906004016115cb565b600060405180830381600087803b1580156108d057600080fd5b505af11580156108e4573d6000803e3d6000fd5b50505050506060600167ffffffffffffffff8111801561090357600080fd5b5060405190808252806020026020018201604052801561093d57816020015b61092a61118d565b8152602001906001900390816109225790505b5090506040518060600160405280737f39c581f595b53c5cb19bd0b3f8da6c935e2ca06001600160a01b031681526020016103e88152602001601e8152508160008151811061098857fe5b60209081029190910101526040516338b7e8e760e01b81527352aa899454998be5b000ad077a46bbe360f4e497906338b7e8e7906109ca908490600401611649565b600060405180830381600087803b1580156109e457600080fd5b505af11580156109f8573d6000803e3d6000fd5b5050505050565b604080516001808252818301909252606091816020015b610a1e611147565b815260200190600190039081610a165790505090506040518060e0016040528073eeeeeeeeeeeeeeeeeeeeeeeeeeeeeeeeeeeeeeee6001600160a01b03168152602001611b5881526020016123288152602001600081526020016105dc81526020016109c48152602001613a9881525081600081518110610a9b57fe5b6020908102919091010152604051639dde597760e01b81527352aa899454998be5b000ad077a46bbe360f4e49790639dde597790610add9084906004016115cb565b600060405180830381600087803b158015610af757600080fd5b505af1158015610b0b573d6000803e3d6000fd5b50505050506060600167ffffffffffffffff81118015610b2a57600080fd5b50604051908082528060200260200182016040528015610b6457816020015b610b5161118d565b815260200190600190039081610b495790505b509050604051806060016040528073eeeeeeeeeeeeeeeeeeeeeeeeeeeeeeeeeeeeeeee6001600160a01b0316815260200160008152602001601e8152508160008151811061098857fe5b60408051600180825281830190925273133098588cdf2e35b9478a1f4979c4f7ccee3a069160609190816020015b610be46111b7565b815260200190600190039081610bdc5790505090506040518060400160405280836001600160a01b031681526020016001151581525081600081518110610c2757fe5b6020908102919091010152604051633f66feff60e01b81527352aa899454998be5b000ad077a46bbe360f4e49790633f66feff90610c69908490600401611571565b600060405180830381600087803b158015610c8357600080fd5b505af1158015610c97573d6000803e3d6000fd5b505050505050565b604051634a138a7160e01b81527351197586f6a9e2571868b6ffaef308f3bdfed3ae90634a138a7190610cd890611f4090600401611718565b600060405180830381600087803b158015610cf257600080fd5b505af1158015610d06573d6000803e3d6000fd5b5050604051634a138a7160e01b8152731c2bb46f36561bc4f05a94bd50916496aa5010789250634a138a719150610d4390611f4090600401611718565b600060405180830381600087803b158015610d5d57600080fd5b505af1158015610d71573d6000803e3d6000fd5b50505050565b604051634a138a7160e01b815273eabbfca72f8a8bf14c4ac59e69ecb2eb69f0811c90634a138a7190610db09061271090600401611718565b600060405180830381600087803b158015610dca57600080fd5b505af1158015610dde573d6000803e3d6000fd5b5050604051637faa1d2160e01b815273324c5dc1fc42c7a4d43d92df1eba58a54d13bf2d9250637faa1d219150610e469073eabbfca72f8a8bf14c4ac59e69ecb2eb69f0811c907358dc7894a7b1b9d065ce2e94a73f62686b439a2a9060009060040161142c565b600060405180830381600087803b158015610e6057600080fd5b505af1158015610e74573d6000803e3d6000fd5b5050604051634a138a7160e01b815273bec491fef7b4f666b270f9d5e5c3f443cbf209919250634a138a719150610eb19061271090600401611718565b600060405180830381600087803b158015610ecb57600080fd5b505af1158015610edf573d6000803e3d6000fd5b5050604051637faa1d2160e01b815273324c5dc1fc42c7a4d43d92df1eba58a54d13bf2d9250637faa1d219150610d439073bec491fef7b4f666b270f9d5e5c3f443cbf209919073b36db4dff978d2d552a5149e2fd0fbefa2a328099060009060040161142c565b6040516373c7024d60e11b81526000907354b91a0d94cb471f37f949c60f7fa7935b551d039063e78e049a90610f9790737f39c581f595b53c5cb19bd0b3f8da6c935e2ca0908590600401611450565b602060405180830381600087803b158015610fb157600080fd5b505af1158015610fc5573d6000803e3d6000fd5b505050506040513d601f19601f82011682018060405250810190610fe99190611219565b60408051600180825281830190925291925060609190816020015b61100c6111ce565b8152602001906001900390816110045790505090506040518060c00160405280836001600160a01b03168152602001737f39c581f595b53c5cb19bd0b3f8da6c935e2ca06001600160a01b03168152602001600160ff1681526020016109c4815260200161a8c0815260200168d8d726b7177a8000008152508160008151811061109257fe5b60209081029190910101526040516301635db560e11b81527352aa899454998be5b000ad077a46bbe360f4e497906302c6bb6a906110d490849060040161169e565b600060405180830381600087803b1580156110ee57600080fd5b505af1158015611102573d6000803e3d6000fd5b505060405163b046a44960e01b81526001600160a01b038516935063b046a44992506109ca915073264786ef916af64a1db19f513f24a3681734ce9290600401611418565b6040518060e0016040528060006001600160a01b031681526020016000815260200160008152602001600081526020016000815260200160008152602001600081525090565b604051806060016040528060006001600160a01b0316815260200160008152602001600081525090565b604080518082019091526000808252602082015290565b6040518060c0016040528060006001600160a01b0316815260200160006001600160a01b03168152602001600060ff1681526020016000815260200160008152602001600081525090565b60006020828403121561122a578081fd5b81516001600160a01b0381168114611240578182fd5b9392505050565b60006020808385031215611259578182fd5b823567ffffffffffffffff80821115611270578384fd5b818501915085601f830112611283578384fd5b81358181111561128f57fe5b604051601f8201601f19168101850183811182821017156112ac57fe5b60405281815283820185018810156112c2578586fd5b818585018683013790810190930193909352509392505050565b6000602082840312156112ed578081fd5b5051919050565b60008282518085526020808601955080818302840101818601855b8481101561133d57601f1986840301895261132b8383516113cd565b9884019892509083019060010161130f565b5090979650505050505050565b60008282518085526020808601955080818302840101818601855b8481101561133d57601f198684030189526113818383516113cd565b98840198925090830190600101611365565b6000815180845260208085019450808401835b838110156113c2578151875295820195908201906001016113a6565b509495945050505050565b60008151808452815b818110156113f2576020818501810151868301820152016113d6565b818111156114035782602083870101525b50601f01601f19169290920160200192915050565b6001600160a01b0391909116815260200190565b6001600160a01b039384168152919092166020820152901515604082015260600190565b6001600160a01b0392909216825260606020830181905260069083015265332a37b5b2b760d11b60808301521515604082015260a00190565b600060018060a01b038416825260606020830152600960608301526865786563757465282960b81b608083015260a060408301526114ca60a08301846113cd565b949350505050565b60a0808252865190820181905260009060209060c0840190828a01845b828110156115145781516001600160a01b0316845292840192908401906001016114ef565b505050838103828501526115288189611393565b915050828103604084015261153d818761134a565b9050828103606084015261155181866112f4565b9050828103608084015261156581856113cd565b98975050505050505050565b602080825282518282018190526000919060409081850190868401855b828110156115be57815180516001600160a01b03168552860151151586850152928401929085019060010161158e565b5091979650505050505050565b602080825282518282018190526000919060409081850190868401855b828110156115be57815180516001600160a01b0316855286810151878601528581015186860152606080820151908601526080808201519086015260a0808201519086015260c0908101519085015260e090930192908501906001016115e8565b602080825282518282018190526000919060409081850190868401855b828110156115be57815180516001600160a01b0316855286810151878601528501518585015260609093019290850190600101611666565b602080825282518282018190526000919060409081850190868401855b828110156115be57815180516001600160a01b0390811686528782015116878601528581015160ff1686860152606080820151908601526080808201519086015260a0908101519085015260c090930192908501906001016116bb565b90815260200190565b6020808252601690820152751b5cd9cb9cd95b99195c8b5b9bdd0b585b1b1bddd95960521b604082015260600190565b60208082526014908201527350524f504f53414c5f49535f4e4f545f53414d4560601b604082015260600190565b60208082526010908201526f3737ba16bb30b634b216b1b0b63632b960811b60408201526060019056fe657865637574655061796c6f616428616464726573732c737472696e672c627974657329a26469706673582212203e3b5acc81966044652b95ce3f5a13f0f601f582cf8e585e6c1fe03fcc4728c864736f6c63430007030033","abi":[{"inputs":[],"stateMutability":"nonpayable","type":"constructor"},{"inputs":[],"name":"ADDRESS_THIS","outputs":[{"internalType":"address","name":"","type":"address"}],"stateMutability":"view","type":"function"},{"inputs":[],"name":"ETH_ADDRESS","outputs":[{"internalType":"address","name":"","type":"address"}],"stateMutability":"view","type":"function"},{"inputs":[],"name":"GOVERNOR","outputs":[{"internalType":"contract IGovernorBravo","name":"","type":"address"}],"stateMutability":"view","type":"function"},{"inputs":[],"name":"LENDING_FACTORY","outputs":[{"internalType":"contract IFluidLendingFactory","name":"","type":"address"}],"stateMutability":"view","type":"function"},{"inputs":[],"name":"LIQUIDITY","outputs":[{"internalType":"contract IFluidLiquidityAdmin","name":"","type":"address"}],"stateMutability":"view","type":"function"},{"inputs":[],"name":"PROPOSAL_ID","outputs":[{"internalType":"uint256","name":"","type":"uint256"}],"stateMutability":"view","type":"function"},{"inputs":[],"name":"PROPOSER","outputs":[{"internalType":"address","name":"","type":"address"}],"stateMutability":"view","type":"function"},{"inputs":[],"name":"PROPOSER_AVO_MULTISIG","outputs":[{"internalType":"address","name":"","type":"address"}],"stateMutability":"view","type":"function"},{"inputs":[],"name":"TEAM_MULTISIG","outputs":[{"internalType":"address","name":"","type":"address"}],"stateMutability":"view","type":"function"},{"inputs":[],"name":"TIMELOCK","outputs":[{"internalType":"contract ITimelock","name":"","type":"address"}],"stateMutability":"view","type":"function"},{"inputs":[],"name":"USDC_ADDRESS","outputs":[{"internalType":"address","name":"","type":"address"}],"stateMutability":"view","type":"function"},{"inputs":[],"name":"USDT_ADDRESS","outputs":[{"internalType":"address","name":"","type":"address"}],"stateMutability":"view","type":"function"},{"inputs":[],"name":"VAULT_ETH_USDC","outputs":[{"internalType":"address","name":"","type":"address"}],"stateMutability":"view","type":"function"},{"inputs":[],"name":"VAULT_ETH_USDT","outputs":[{"internalType":"address","name":"","type":"address"}],"stateMutability":"view","type":"function"},{"inputs":[],"name":"VAULT_T1_FACTORY","outputs":[{"internalType":"contract IFluidVaultT1Factory","name":"","type":"address"}],"stateMutability":"view","type":"function"},{"inputs":[],"name":"VAULT_weETH_wstETH","outputs":[{"internalType":"address","name":"","type":"address"}],"stateMutability":"view","type":"function"},{"inputs":[],"name":"VAULT_wstETH_USDC","outputs":[{"internalType":"address","name":"","type":"address"}],"stateMutability":"view","type":"function"},{"inputs":[],"name":"VAULT_wstETH_USDT","outputs":[{"internalType":"address","name":"","type":"address"}],"stateMutability":"view","type":"function"},{"inputs":[],"name":"execute","outputs":[],"stateMutability":"nonpayable","type":"function"},{"inputs":[{"internalType":"string","name":"description","type":"string"}],"name":"propose","outputs":[],"stateMutability":"nonpayable","type":"function"},{"inputs":[],"name":"verifyProposal","outputs":[],"stateMutability":"view","type":"function"},{"inputs":[],"name":"weETH_ADDRESS","outputs":[{"internalType":"address","name":"","type":"address"}],"stateMutability":"view","type":"function"},{"inputs":[],"name":"wstETH_ADDRESS","outputs":[{"internalType":"address","name":"","type":"address"}],"stateMutability":"view","type":"function"}]}