{"address":"0x28F77ace85A83DaC98D8f9fC50e89A66Ac8f45B9","bytecode":"0x60a060405234801561001057600080fd5b5030608052608051611ca3610037600039600081816102a401526109940152611ca36000f3fe608060405234801561001057600080fd5b50600436106101165760003560e01c80637aadef8b116100a2578063aa98df3911610071578063aa98df3914610256578063b788f3a114610269578063bffa7f0f14610284578063cc025f7c1461029f578063e6bd26a2146102c657600080fd5b80637aadef8b146101f25780637e2f35fa1461020d57806397b87b4a146102285780639d3d2a781461024357600080fd5b80632861c7d1116100e95780632861c7d114610197578063588c77e6146101b257806361461954146101cd57806366760d7d146101d55780636dc0ae22146101d757600080fd5b80630bc9136e1461011b578063103f29071461013657806312e366aa1461016957806325ad7f4d1461017c575b600080fd5b610123602b81565b6040519081526020015b60405180910390f35b61015173324c5dc1fc42c7a4d43d92df1eba58a54d13bf2d81565b6040516001600160a01b03909116815260200161012d565b610151610177366004611693565b6102d9565b610151739efde135ca4832abf0408c44c6f5f370eb0f35e881565b6101517352aa899454998be5b000ad077a46bbe360f4e49781565b610151735c43aac965ff230ac1cf63e924d0153291d78bad81565b6101d5610357565b005b610151730204cd037b2ec03605cfdfe482d8e257c765fa1b81565b610151732386dc45added673317ef068992f19421b481f4c81565b61015173059a94a72451c0ae1cc1ce4bf0db52421bbe821081565b6101517393dd426446b5370f094a1e31f19991aaa6ac0be081565b6101236102513660046116c1565b6103c4565b6101d5610264366004611726565b610712565b610151734f6f977acdd1177dcd81ab83074855ecb9c2d49e81565b61015173a45f7bd6a5ff45d31aace6bcd3d426d9328cea0181565b6101517f000000000000000000000000000000000000000000000000000000000000000081565b6101516102d4366004611693565b610abf565b604051630971b35560e11b8152600481018290526000907393dd426446b5370f094a1e31f19991aaa6ac0be0906312e366aa906024015b602060405180830381865afa15801561032d573d6000803e3d6000fd5b505050506040513d601f19601f8201168201806040525081019061035191906117d7565b92915050565b30732386dc45added673317ef068992f19421b481f4c146103b25760405162461bcd60e51b815260206004820152601060248201526f3737ba16bb30b634b216b1b0b63632b960811b60448201526064015b60405180910390fd5b6103ba610afa565b6103c2610c4f565b565b600080841180156103d55750600083115b156104225760405162461bcd60e51b815260206004820181905260248201527f626f74682075736420616e6420616d6f756e7420617265206e6f74207a65726f60448201526064016103a9565b604080516001600160a01b03871660208083019190915260058284015282518083038401815260608301938490528051910120632d71cdb960e21b90925260648101919091526000907352aa899454998be5b000ad077a46bbe360f4e4979063b5c736e490608401602060405180830381865afa1580156104a7573d6000803e3d6000fd5b505050506040513d601f19601f820116820180604052508101906104cb91906117fb565b90506000806104d983610f91565b90925090506000601273eeeeeeeeeeeeeeeeeeeeeeeeeeeeeeeeeeeeeeed196001600160a01b038b160161051557506203bd0890506012610692565b737f39c581f595b53c5cb19bd0b3f8da6c935e2c9f196001600160a01b038b1601610548575062046cd090506012610692565b73cd5fe23c85820f7b72d0926fc9b05b43e359b7ed196001600160a01b038b160161057b57506203ebe890506012610692565b6001600160a01b038a1673cbb7c0000ab88b473b1f5afd9ef808440eed33bf14806105c257506001600160a01b038a16732260fac5e5542a773aa44fbcfedf7c193bc2c599145b156105d55750625f5e1090506008610692565b6001600160a01b038a1673a0b86991c6218b36c1d19d4a2e9eb0ce3606eb48148061061c57506001600160a01b038a1673dac17f958d2ee523a2206206994597c13d831ec7145b1561062d5750606490506006610692565b739d39a5de30e57443bff2a8307a4256c8797a3496196001600160a01b038b160161065e5750606e90506012610692565b60405162461bcd60e51b81526020600482015260096024820152681b9bdd0b599bdd5b9960ba1b60448201526064016103a9565b60008761069f57836106a1565b845b905089156106d057806106b98b64e8d4a5100061182a565b6106c39190611857565b965050505050505061070a565b60646106dc828561182a565b6106e69190611857565b6106f183600a61195d565b6107008b64e8d4a5100061182a565b6106b9919061182a565b949350505050565b3373a45f7bd6a5ff45d31aace6bcd3d426d9328cea011480610747575033734f6f977acdd1177dcd81ab83074855ecb9c2d49e145b8061076557503073059a94a72451c0ae1cc1ce4bf0db52421bbe8210145b80610783575030739efde135ca4832abf0408c44c6f5f370eb0f35e8145b8061078c575060015b6107d15760405162461bcd60e51b81526020600482015260166024820152751b5cd9cb9cd95b99195c8b5b9bdd0b585b1b1bddd95960521b60448201526064016103a9565b604080516001808252818301909252600090826020808301908036833701905050905060008267ffffffffffffffff81111561080f5761080f611710565b604051908082528060200260200182016040528015610838578160200160208202803683370190505b50905060008367ffffffffffffffff81111561085657610856611710565b60405190808252806020026020018201604052801561088957816020015b60608152602001906001900390816108745790505b50905060008467ffffffffffffffff8111156108a7576108a7611710565b6040519080825280602002602001820160405280156108da57816020015b60608152602001906001900390816108c55790505b509050732386dc45added673317ef068992f19421b481f4c8460008151811061090557610905611969565b60200260200101906001600160a01b031690816001600160a01b03168152505060008360008151811061093a5761093a611969565b602002602001018181525050604051806060016040528060248152602001611c4a602491398260008151811061097257610972611969565b602090810291909101810191909152604080516000815291820181526109bb917f00000000000000000000000000000000000000000000000000000000000000009181016119c5565b604051602081830303815290604052816000815181106109dd576109dd611969565b6020908102919091010152604051636d4ab48d60e11b8152600090730204cd037b2ec03605cfdfe482d8e257c765fa1b9063da95691a90610a2a9088908890889088908e90600401611a96565b6020604051808303816000875af1158015610a49573d6000803e3d6000fd5b505050506040513d601f19601f82011682018060405250810190610a6d91906117fb565b9050602b8114610ab65760405162461bcd60e51b815260206004820152601460248201527350524f504f53414c5f49535f4e4f545f53414d4560601b60448201526064016103a9565b50505050505050565b60405163735e935160e11b81526004810182905260009073324c5dc1fc42c7a4d43d92df1eba58a54d13bf2d9063e6bd26a290602401610310565b60006040518060a00160405280610b1160016102d9565b6001600160a01b03168152737f39c581f595b53c5cb19bd0b3f8da6c935e2ca0602082015273eeeeeeeeeeeeeeeeeeeeeeeeeeeeeeeeeeeeeeee60408201526001606082018190526080909101529050610b6a81611186565b60006040518060a00160405280610b8160026102d9565b6001600160a01b0316815273a0b86991c6218b36c1d19d4a2e9eb0ce3606eb48602082015273dac17f958d2ee523a2206206994597c13d831ec760408201526000606082015260016080909101529050610bda81611186565b60006040518060a00160405280610bf160036102d9565b6001600160a01b0316815273cbb7c0000ab88b473b1f5afd9ef808440eed33bf6020820152732260fac5e5542a773aa44fbcfedf7c193bc2c59960408201526001606082018190526080909101529050610c4a81611186565b505050565b60006040518060800160405280610c666022610abf565b6001600160a01b03168152602001600281526000602082018190526040909101529050610c92816112a1565b5060006040518060800160405280610caa6023610abf565b6001600160a01b031681526020016001815273eeeeeeeeeeeeeeeeeeeeeeeeeeeeeeeeeeeeeeee602082015260006040909101529050610ce9816112a1565b5060006040518060800160405280610d016024610abf565b6001600160a01b0316815260200160018152737f39c581f595b53c5cb19bd0b3f8da6c935e2ca0602082015260006040909101529050610d40816112a1565b5060006040518060800160405280610d586025610abf565b6001600160a01b031681526020016001815273cd5fe23c85820f7b72d0926fc9b05b43e359b7ee602082015260006040909101529050610d97816112a1565b5060006040518060800160405280610daf6026610abf565b6001600160a01b0316815260200160018152732260fac5e5542a773aa44fbcfedf7c193bc2c599602082015260006040909101529050610dee816112a1565b5060006040518060800160405280610e066027610abf565b6001600160a01b031681526020016001815273cbb7c0000ab88b473b1f5afd9ef808440eed33bf602082015260006040909101529050610e45816112a1565b5060006040518060800160405280610e5d6028610abf565b6001600160a01b0316815260200160018152739d39a5de30e57443bff2a8307a4256c8797a3497602082015260006040909101529050610e9c816112a1565b5060006040518060800160405280610eb46029610abf565b6001600160a01b03168152602001600281526000602082018190526040909101529050610ee0816112a1565b5060006040518060800160405280610ef8602a610abf565b6001600160a01b03168152602001600081526000602082015273a0b86991c6218b36c1d19d4a2e9eb0ce3606eb486040909101529050610f37816112a1565b5060006040518060800160405280610f4f602b610abf565b6001600160a01b03168152602001600081526000602082015273dac17f958d2ee523a2206206994597c13d831ec76040909101529050610f8e816112a1565b50565b67ffffffffffffffff605b82901c811690609b83901c16811580610fb3575080155b15610fd657604051636a86ba8960e11b81526201117160048201526024016103a9565b61ffff8316603a84901c6401ffffffff16428181039160ea87901c617fff16911480611000575082155b8061100b5750806001145b1561101857505050915091565b64496cebb80084840283020484019350617fff60db87901c1692508260010361104357505050915091565b826001166001036110985760019290921c91826c7e37be2022c0914b26800000008161107157611071611841565b049250612710601e87901c613fff166b033b2e3c9fd0803ce80000008501020492506110c5565b60019290921c916305f5e100601e87901c613fff166127108501026b033b2e3c9fd0803ce8000000020492505b806001166001036110fc5760011c61271081016b033b2e3c9fd0803ce80000008202816110f4576110f4611841565b049050611132565b60011c61271081016b033b2e3c9fd0803ce800000082028161112057611120611841565b046b033b2e3c9fd0803ce80000000390505b760a70c3c40a64e6c51999090b65f67d92400000000000008382026127100261ffff881691900402601087901c613fff16612710030292506801b5a660ea44b8000085840283020485019450505050915091565b80606001511561120d576000604051806060016040528083600001516001600160a01b0316815260200183602001516001600160a01b0316815260200161c35081525090506111d4816113f5565b6040805160608101825283516001600160a01b0390811682528483015116602082015261c3509181019190915261120a816113f5565b50505b806080015115610f8e576000604051806080016040528083600001516001600160a01b0316815260200183602001516001600160a01b03168152602001612710815260200161c35081525090506112638161153f565b6040805160808101825283516001600160a01b039081168252848301511660208201526127109181019190915261c3506060820152610c4a8161153f565b6001816020015160028111156112b9576112b9611b35565b036112f6576040805160608101825282516001600160a01b03908116825283830151166020820152619c40918101919091526112f4816113f5565b505b60008160200151600281111561130e5761130e611b35565b03611361576000604051806080016040528083600001516001600160a01b0316815260200183606001516001600160a01b03168152602001614e2081526020016161a8815250905061135f8161153f565b505b8051604051637faa1d2160e01b81526001600160a01b039091166004820152734f6f977acdd1177dcd81ab83074855ecb9c2d49e60248201526001604482015273324c5dc1fc42c7a4d43d92df1eba58a54d13bf2d90637faa1d2190606401600060405180830381600087803b1580156113da57600080fd5b505af11580156113ee573d6000803e3d6000fd5b5050505050565b604080516001808252818301909252600091816020015b6040805160c08101825260008082526020808301829052928201819052606082018190526080820181905260a0820152825260001990920191018161140c5790505090506040518060c0016040528083600001516001600160a01b0316815260200183602001516001600160a01b03168152602001600160ff1681526020016109c4815260200161a8c081526020016114b184602001516000866040015160016103c4565b815250816000815181106114c7576114c7611969565b60209081029190910101526040516301635db560e11b81527352aa899454998be5b000ad077a46bbe360f4e497906302c6bb6a90611509908490600401611b4b565b600060405180830381600087803b15801561152357600080fd5b505af1158015611537573d6000803e3d6000fd5b505050505050565b604080516001808252818301909252600091816020015b6115ab6040518060e0016040528060006001600160a01b0316815260200160006001600160a01b03168152602001600060ff168152602001600081526020016000815260200160008152602001600081525090565b8152602001906001900390816115565790505090506040518060e0016040528083600001516001600160a01b0316815260200183602001516001600160a01b03168152602001600160ff1681526020016107d0815260200161a8c0815260200161162184602001516000866040015160006103c4565b815260200161163c84602001516000866060015160006103c4565b8152508160008151811061165257611652611969565b602090810291909101015260405162dc47c360e11b81527352aa899454998be5b000ad077a46bbe360f4e497906301b88f8690611509908490600401611bc5565b6000602082840312156116a557600080fd5b5035919050565b6001600160a01b0381168114610f8e57600080fd5b600080600080608085870312156116d757600080fd5b84356116e2816116ac565b935060208501359250604085013591506060850135801515811461170557600080fd5b939692955090935050565b634e487b7160e01b600052604160045260246000fd5b60006020828403121561173857600080fd5b813567ffffffffffffffff8082111561175057600080fd5b818401915084601f83011261176457600080fd5b81358181111561177657611776611710565b604051601f8201601f19908116603f0116810190838211818310171561179e5761179e611710565b816040528281528760208487010111156117b757600080fd5b826020860160208301376000928101602001929092525095945050505050565b6000602082840312156117e957600080fd5b81516117f4816116ac565b9392505050565b60006020828403121561180d57600080fd5b5051919050565b634e487b7160e01b600052601160045260246000fd5b808202811582820484141761035157610351611814565b634e487b7160e01b600052601260045260246000fd5b60008261187457634e487b7160e01b600052601260045260246000fd5b500490565b600181815b808511156118b457816000190482111561189a5761189a611814565b808516156118a757918102915b93841c939080029061187e565b509250929050565b6000826118cb57506001610351565b816118d857506000610351565b81600181146118ee57600281146118f857611914565b6001915050610351565b60ff84111561190957611909611814565b50506001821b610351565b5060208310610133831016604e8410600b8410161715611937575081810a610351565b6119418383611879565b806000190482111561195557611955611814565b029392505050565b60006117f483836118bc565b634e487b7160e01b600052603260045260246000fd5b6000815180845260005b818110156119a557602081850181015186830182015201611989565b506000602082860101526020601f19601f83011685010191505092915050565b60018060a01b038316815260606020820152600960608201526865786563757465282960b81b608082015260a06040820152600061070a60a083018461197f565b600081518084526020808501945080840160005b83811015611a3657815187529582019590820190600101611a1a565b509495945050505050565b600081518084526020808501808196508360051b8101915082860160005b85811015611a89578284038952611a7784835161197f565b98850198935090840190600101611a5f565b5091979650505050505050565b60a0808252865190820181905260009060209060c0840190828a01845b82811015611ad85781516001600160a01b031684529284019290840190600101611ab3565b50505083810382850152611aec8189611a06565b9150508281036040840152611b018187611a41565b90508281036060840152611b158186611a41565b90508281036080840152611b29818561197f565b98975050505050505050565b634e487b7160e01b600052602160045260246000fd5b602080825282518282018190526000919060409081850190868401855b82811015611a8957815180516001600160a01b0390811686528782015116878601528581015160ff1686860152606080820151908601526080808201519086015260a0908101519085015260c09093019290850190600101611b68565b602080825282518282018190526000919060409081850190868401855b82811015611a8957815180516001600160a01b0390811686528782015116878601528581015160ff1686860152606080820151908601526080808201519086015260a0808201519086015260c0908101519085015260e09093019290850190600101611be256fe657865637574655061796c6f616428616464726573732c737472696e672c627974657329a2646970667358221220179a40f03f262de8eace33ead4108b5b5d6775f967b5688b39e6dd81b1bed51064736f6c63430008150033","abi":[{"inputs":[],"stateMutability":"nonpayable","type":"constructor"},{"inputs":[{"internalType":"uint256","name":"errorId_","type":"uint256"}],"name":"FluidLiquidityCalcsError","type":"error"},{"inputs":[],"name":"ADDRESS_THIS","outputs":[{"internalType":"address","name":"","type":"address"}],"stateMutability":"view","type":"function"},{"inputs":[],"name":"DEX_FACTORY","outputs":[{"internalType":"contract FluidDexFactory","name":"","type":"address"}],"stateMutability":"view","type":"function"},{"inputs":[],"name":"GOVERNOR","outputs":[{"internalType":"contract IGovernorBravo","name":"","type":"address"}],"stateMutability":"view","type":"function"},{"inputs":[],"name":"LIQUIDITY","outputs":[{"internalType":"contract IFluidLiquidityAdmin","name":"","type":"address"}],"stateMutability":"view","type":"function"},{"inputs":[],"name":"PROPOSAL_ID","outputs":[{"internalType":"uint256","name":"","type":"uint256"}],"stateMutability":"view","type":"function"},{"inputs":[],"name":"PROPOSER","outputs":[{"internalType":"address","name":"","type":"address"}],"stateMutability":"view","type":"function"},{"inputs":[],"name":"PROPOSER_AVO_MULTISIG","outputs":[{"internalType":"address","name":"","type":"address"}],"stateMutability":"view","type":"function"},{"inputs":[],"name":"PROPOSER_AVO_MULTISIG_2","outputs":[{"internalType":"address","name":"","type":"address"}],"stateMutability":"view","type":"function"},{"inputs":[],"name":"PROPOSER_AVO_MULTISIG_3","outputs":[{"internalType":"address","name":"","type":"address"}],"stateMutability":"view","type":"function"},{"inputs":[],"name":"TEAM_MULTISIG","outputs":[{"internalType":"address","name":"","type":"address"}],"stateMutability":"view","type":"function"},{"inputs":[],"name":"TIMELOCK","outputs":[{"internalType":"contract ITimelock","name":"","type":"address"}],"stateMutability":"view","type":"function"},{"inputs":[],"name":"VAULT_FACTORY","outputs":[{"internalType":"contract FluidVaultFactory","name":"","type":"address"}],"stateMutability":"view","type":"function"},{"inputs":[],"name":"execute","outputs":[],"stateMutability":"nonpayable","type":"function"},{"inputs":[{"internalType":"uint256","name":"dexId_","type":"uint256"}],"name":"getDexAddress","outputs":[{"internalType":"address","name":"","type":"address"}],"stateMutability":"view","type":"function"},{"inputs":[{"internalType":"address","name":"token","type":"address"},{"internalType":"uint256","name":"amount","type":"uint256"},{"internalType":"uint256","name":"amountInUSD","type":"uint256"},{"internalType":"bool","name":"isSupply","type":"bool"}],"name":"getRawAmount","outputs":[{"internalType":"uint256","name":"","type":"uint256"}],"stateMutability":"view","type":"function"},{"inputs":[{"internalType":"uint256","name":"vaultId_","type":"uint256"}],"name":"getVaultAddress","outputs":[{"internalType":"address","name":"","type":"address"}],"stateMutability":"view","type":"function"},{"inputs":[{"internalType":"string","name":"description","type":"string"}],"name":"propose","outputs":[],"stateMutability":"nonpayable","type":"function"},{"inputs":[],"name":"verifyProposal","outputs":[],"stateMutability":"view","type":"function"}]}