{"address":"0x50C49cd585809c2c5b554511880FFd56d9E9c441","bytecode":"0x60a060405234801561001057600080fd5b5030608052608051613895610076600039600081816105260152818161103c0152818161131d01528181611402015281816115cc015281816119b901528181611da2015281816120e20152818161226501528181612430015261258501526138956000f3fe608060405234801561001057600080fd5b50600436106102525760003560e01c80636dc0ae2211610146578063a5caf0f6116100c3578063bffa7f0f11610087578063bffa7f0f14610506578063cc025f7c14610521578063e4917d9f14610548578063e6bd26a21461055b578063f6370aa91461056e578063f88ed60c1461057857600080fd5b8063a5caf0f614610484578063a6549e54146104a7578063aa98df39146104bd578063b6966495146104d0578063b788f3a1146104eb57600080fd5b806396db7d5c1161010a57806396db7d5c146104295780639781a8ca1461043357806397b87b4a1461043d5780639d3d2a78146104585780639ef947371461046b57600080fd5b80636dc0ae22146103aa578063798d5ba3146103c55780637aadef8b146103d85780637e2f35fa146103f357806395861bd71461040e57600080fd5b80632861c7d1116101d457806361461954116101985780636146195414610384578063623007321461038e57806364e9d567146103985780636521e19f146103a057806366760d7d1461038c57600080fd5b80632861c7d11461031057806328787d001461032b5780632d2c55651461033357806348bbb5571461034e578063588c77e61461036957600080fd5b806311ae7a141161021b57806311ae7a14146102b857806312e366aa146102c05780631392d4ee146102d3578063194c0e18146102eb57806325ad7f4d146102f557600080fd5b8062623d7d146102575780630251eb11146102735780630b396e66146102735780630bc9136e1461027d578063103f290714610285575b600080fd5b6102606102d081565b6040519081526020015b60405180910390f35b6102606205b8d881565b610260605381565b6102a073324c5dc1fc42c7a4d43d92df1eba58a54d13bf2d81565b6040516001600160a01b03909116815260200161026a565b610260607381565b6102a06102ce366004613089565b610593565b6102db610611565b604051901515815260200161026a565b610260620606f881565b6102a0739efde135ca4832abf0408c44c6f5f370eb0f35e881565b6102a07352aa899454998be5b000ad077a46bbe360f4e49781565b610260606481565b6102a07328849d2b63fa8d361e5fc15cb8abb13019884d0981565b6102a073e7eb63a8b6392481a9fdebb108cfd580dc8664d381565b6102a0735c43aac965ff230ac1cf63e924d0153291d78bad81565b61038c610644565b005b610260620510e081565b610260606681565b610260620543a881565b6102a0730204cd037b2ec03605cfdfe482d8e257c765fa1b81565b61038c6103d33660046130a2565b61068e565b6102a0732386dc45added673317ef068992f19421b481f4c81565b6102a073059a94a72951c0ae1cc1ce3bf0db52421bbe821081565b6102a073a0d3707c569ff8c87fa923d3823ec5d81c98be7881565b6102606205dfe881565b610260629ba3c081565b6102a07391716c4eda1fb55e84bf8b4c7085f84285c1908581565b61026061046636600461313a565b610750565b60005460405164ffffffffff909116815260200161026a565b6102db610492366004613089565b60009081526001602052604090205460ff1690565b600054600160281b900464ffffffffff16610260565b61038c6104cb36600461319a565b610d69565b6102a073264786ef916af64a1db19f513f24a3681734ce9281565b6102a0734f6f977acdd1177dcd81ab83074855ecb9c2d49e81565b6102a073a45f7bd6a5ff45d31aace6bcd3d426d9328cea0181565b6102a07f000000000000000000000000000000000000000000000000000000000000000081565b61038c610556366004613089565b61117e565b6102a0610569366004613089565b61128a565b61026062051c9881565b6102a0733daff61fe5cfb1f1b4ea7fba8173a58532ef184181565b604051630971b35560e11b8152600481018290526000907391716c4eda1fb55e84bf8b4c7085f84285c19085906312e366aa906024015b602060405180830381865afa1580156105e7573d6000803e3d6000fd5b505050506040513d601f19601f8201168201806040525081019061060b919061324b565b92915050565b60008054600160281b900464ffffffffff164210158061063f5750600054600160281b900464ffffffffff16155b905090565b61064c6112c5565b6106546113e9565b61065c6115b3565b6106646119a0565b61066c611d8a565b6106746120c9565b61067c61224c565b610684612417565b61068c61256c565b565b33734f6f977acdd1177dcd81ab83074855ecb9c2d49e146106ea5760405162461bcd60e51b81526020600482015260116024820152706e6f742d7465616d2d6d756c746973696760781b60448201526064015b60405180910390fd5b60005b8181101561074b57600180600085858581811061070c5761070c61326f565b90506020020135815260200190815260200160002060006101000a81548160ff02191690831515021790555080806107439061329b565b9150506106ed565b505050565b600080841180156107615750600083115b156107ae5760405162461bcd60e51b815260206004820181905260248201527f626f74682075736420616e6420616d6f756e7420617265206e6f74207a65726f60448201526064016106e1565b604080516001600160a01b03871660208083019190915260058284015282518083038401815260608301938490528051910120632d71cdb960e21b90925260648101919091526000907352aa899454998be5b000ad077a46bbe360f4e4979063b5c736e490608401602060405180830381865afa158015610833573d6000803e3d6000fd5b505050506040513d601f19601f8201168201806040525081019061085791906132b4565b9050600080610865836128ef565b90925090506000601273eeeeeeeeeeeeeeeeeeeeeeeeeeeeeeeeeeeeeeed196001600160a01b038b16016108a15750620510e090506012610ce9565b737f39c581f595b53c5cb19bd0b3f8da6c935e2c9f196001600160a01b038b16016108d45750620606f890506012610ce9565b73cd5fe23c85820f7b72d0926fc9b05b43e359b7ed196001600160a01b038b1601610907575062051c9890506012610ce9565b73a1290d69c65a6fe4df752f95823fae25cb99e5a6196001600160a01b038b160161093a57506205b8d890506012610ce9565b73917cee801a67f933f2e6b33fc0cd1ed2d5909d87196001600160a01b038b160161096d57506205b8d890506012610ce9565b73d5f7838f5c461feff7fe49ea5ebaf7728bb0adf9196001600160a01b038b16016109a057506205dfe890506012610ce9565b73bf5495efe5db9ce00f80364c8b423567e58d210f196001600160a01b038b16016109d35750620543a890506012610ce9565b6001600160a01b038a1673cbb7c0000ab88b473b1f5afd9ef808440eed33bf1480610a1a57506001600160a01b038a16732260fac5e5542a773aa44fbcfedf7c193bc2c599145b80610a4157506001600160a01b038a1673657e8c867d8b37dcc18fa4caead9c45eb088c642145b80610a6857506001600160a01b038a16738236a87084f8b84306f72007f36f2618a5634494145b15610a7b5750629ba3c090506008610ce9565b7318084fba666a33d37592fa2633fd49a74dd93a87196001600160a01b038b1601610aae5750629ba3c090506012610ce9565b6001600160a01b038a1673a0b86991c6218b36c1d19d4a2e9eb0ce3606eb481480610af557506001600160a01b038a1673dac17f958d2ee523a2206206994597c13d831ec7145b15610b065750606490506006610ce9565b739d39a5de30e57443bff2a8307a4256c8797a3496196001600160a01b038b1601610b375750607390506012610ce9565b73a3931d71877c0e7a3148cb7eb4463524fec27fbc196001600160a01b038b1601610b685750606690506012610ce9565b6001600160a01b038a167340d16fc0246ad3160ccc09b8d0d3a2cd28ae6c2f1480610baf57506001600160a01b038a16734c9edd5852cd905f086c759e8383e09bff1e68b3145b80610bd657506001600160a01b038a167315700b564ca08d9439c58ca5053166e8317aa138145b80610bfd57506001600160a01b038a167366a1e37c9b0eaddca17d3662d6c05f4decf3e110145b80610c2457506001600160a01b038a167373a15fed60bf67631dc6cd7bc5b6e8da8190acf5145b80610c4b57506001600160a01b038a1673085780639cc2cacd35e474e71f4d000e2405d8f6145b80610c7257506001600160a01b038a1673b01dd87b29d187f3e3a4bf6cdaebfb97f3d9ab98145b15610c835750606490506012610ce9565b736f40d4a6237c257fff2db00fa0510deeecd303ea196001600160a01b038b1601610cb557506102d090506012610ce9565b60405162461bcd60e51b81526020600482015260096024820152681b9bdd0b599bdd5b9960ba1b60448201526064016106e1565b600087610cf65783610cf8565b845b90508915610d275780610d108b64e8d4a510006132cd565b610d1a91906132fa565b9650505050505050610d61565b6064610d3382856132cd565b610d3d91906132fa565b610d4883600a613400565b610d578b64e8d4a510006132cd565b610d1091906132cd565b949350505050565b3373a45f7bd6a5ff45d31aace6bcd3d426d9328cea011480610d9e575033734f6f977acdd1177dcd81ab83074855ecb9c2d49e145b80610dbc57503073059a94a72951c0ae1cc1ce3bf0db52421bbe8210145b80610dda575030739efde135ca4832abf0408c44c6f5f370eb0f35e8145b80610df8575030735c43aac965ff230ac1cf63e924d0153291d78bad145b80610e16575030733daff61fe5cfb1f1b4ea7fba8173a58532ef1841145b80610e3457503073e7eb63a8b6392481a9fdebb108cfd580dc8664d3145b610e795760405162461bcd60e51b81526020600482015260166024820152751b5cd9cb9cd95b99195c8b5b9bdd0b585b1b1bddd95960521b60448201526064016106e1565b604080516001808252818301909252600090826020808301908036833701905050905060008267ffffffffffffffff811115610eb757610eb7613184565b604051908082528060200260200182016040528015610ee0578160200160208202803683370190505b50905060008367ffffffffffffffff811115610efe57610efe613184565b604051908082528060200260200182016040528015610f3157816020015b6060815260200190600190039081610f1c5790505b50905060008467ffffffffffffffff811115610f4f57610f4f613184565b604051908082528060200260200182016040528015610f8257816020015b6060815260200190600190039081610f6d5790505b509050732386dc45added673317ef068992f19421b481f4c84600081518110610fad57610fad61326f565b60200260200101906001600160a01b031690816001600160a01b031681525050600083600081518110610fe257610fe261326f565b60200260200101818152505060405180606001604052806024815260200161383c602491398260008151811061101a5761101a61326f565b60209081029190910181019190915260408051600081529182018152611063917f0000000000000000000000000000000000000000000000000000000000000000918101613452565b604051602081830303815290604052816000815181106110855761108561326f565b6020908102919091010152604051636d4ab48d60e11b8152600090730204cd037b2ec03605cfdfe482d8e257c765fa1b9063da95691a906110d29088908890889088908e9060040161355c565b6020604051808303816000875af11580156110f1573d6000803e3d6000fd5b505050506040513d601f19601f8201168201806040525081019061111591906132b4565b90506053811461115e5760405162461bcd60e51b815260206004820152601460248201527350524f504f53414c5f49535f4e4f545f53414d4560601b60448201526064016106e1565b50506000805464ffffffffff19164264ffffffffff161790555050505050565b33734f6f977acdd1177dcd81ab83074855ecb9c2d49e146111d55760405162461bcd60e51b81526020600482015260116024820152706e6f742d7465616d2d6d756c746973696760781b60448201526064016106e1565b6000546111ec9064ffffffffff16620bdd8061360b565b64ffffffffff168111156112605760405162461bcd60e51b815260206004820152603560248201527f657865637574696f6e2064656c617920657863656564732039206461797320666044820152743937b690383937b837b9b0b61031b932b0ba34b7b760591b60648201526084016106e1565b6000805464ffffffffff909216600160281b0269ffffffffff000000000019909216919091179055565b60405163735e935160e11b81526004810182905260009073324c5dc1fc42c7a4d43d92df1eba58a54d13bf2d9063e6bd26a2906024016105ca565b30732386dc45added673317ef068992f19421b481f4c1461131b5760405162461bcd60e51b815260206004820152601060248201526f3737ba16bb30b634b216b1b0b63632b960811b60448201526064016106e1565b7f00000000000000000000000000000000000000000000000000000000000000006001600160a01b0316631392d4ee6040518163ffffffff1660e01b8152600401602060405180830381865afa158015611379573d6000803e3d6000fd5b505050506040513d601f19601f8201168201806040525081019061139d9190613630565b61068c5760405162461bcd60e51b815260206004820152601760248201527f70726f706f73616c2d6e6f742d65786563757461626c6500000000000000000060448201526064016106e1565b6040516352e5787b60e11b8152600160048201819052907f00000000000000000000000000000000000000000000000000000000000000006001600160a01b03169063a5caf0f690602401602060405180830381865afa158015611451573d6000803e3d6000fd5b505050506040513d601f19601f820116820180604052508101906114759190613630565b6115b0576000611485600f610593565b90506000611493605c61128a565b60408051600180825281830190925291925060009190816020015b6114e2604051806080016040528060006001600160a01b031681526020016000815260200160008152602001600081525090565b8152602001906001900390816114ae5790505090506040518060800160405280836001600160a01b03168152602001610dac815260200161546081526020016a084595161401484a000000815250816000815181106115435761154361326f565b602090810291909101015260405163137ed05b60e11b81526001600160a01b038416906326fda0b69061157a90849060040161364d565b600060405180830381600087803b15801561159457600080fd5b505af11580156115a8573d6000803e3d6000fd5b505050505050505b50565b6040516352e5787b60e11b8152600260048201819052907f00000000000000000000000000000000000000000000000000000000000000006001600160a01b03169063a5caf0f690602401602060405180830381865afa15801561161b573d6000803e3d6000fd5b505050506040513d601f19601f8201168201806040525081019061163f9190613630565b6115b05760408051600280825260608201835260009260208301908036833750506040805160028082526060820183529394506000939092509060208301908036833750506040805160028082526060820183529394506000939092509060208301908036833701905050604051636eb1769f60e11b815273264786ef916af64a1db19f513f24a3681734ce926004820152739fb7b4477576fe5b32be4c1843afb1e55f251b33602482015290915060009073a0b86991c6218b36c1d19d4a2e9eb0ce3606eb489063dd62ed3e90604401602060405180830381865afa15801561172d573d6000803e3d6000fd5b505050506040513d601f19601f8201168201806040525081019061175191906132b4565b9050739fb7b4477576fe5b32be4c1843afb1e55f251b338460008151811061177b5761177b61326f565b60200260200101906001600160a01b031690816001600160a01b03168152505073a0b86991c6218b36c1d19d4a2e9eb0ce3606eb48836000815181106117c3576117c361326f565b6001600160a01b03909216602092830291909101909101526117ea81645d21dba0006136ad565b826000815181106117fd576117fd61326f565b602090810291909101015250604051636eb1769f60e11b815273264786ef916af64a1db19f513f24a3681734ce926004820152735c20b550819128074fd538edf79791733ccedd18602482015260009073dac17f958d2ee523a2206206994597c13d831ec79063dd62ed3e90604401602060405180830381865afa158015611889573d6000803e3d6000fd5b505050506040513d601f19601f820116820180604052508101906118ad91906132b4565b9050735c20b550819128074fd538edf79791733ccedd18846001815181106118d7576118d761326f565b60200260200101906001600160a01b031690816001600160a01b03168152505073dac17f958d2ee523a2206206994597c13d831ec78360018151811061191f5761191f61326f565b6001600160a01b039092166020928302919091019091015261194681645d21dba0006136ad565b826001815181106119595761195961326f565b6020908102919091010152506040516303e8046160e01b815273264786ef916af64a1db19f513f24a3681734ce92906303e804619061157a908690869086906004016136c0565b6040516352e5787b60e11b8152600360048201819052907f00000000000000000000000000000000000000000000000000000000000000006001600160a01b03169063a5caf0f690602401602060405180830381865afa158015611a08573d6000803e3d6000fd5b505050506040513d601f19601f82011682018060405250810190611a2c9190613630565b6115b0576000611a3c606461128a565b905060006040518060e00160405280836001600160a01b0316815260200160006003811115611a6d57611a6d613703565b815273a0b86991c6218b36c1d19d4a2e9eb0ce3606eb48602082015273eeeeeeeeeeeeeeeeeeeeeeeeeeeeeeeeeeeeeeee6040820152627a1200606082018190526080820152630393870060a0909101529050611ac981612ae4565b604051637faa1d2160e01b815273324c5dc1fc42c7a4d43d92df1eba58a54d13bf2d90637faa1d2190611b19908590734f6f977acdd1177dcd81ab83074855ecb9c2d49e90600090600401613719565b600060405180830381600087803b158015611b3357600080fd5b505af1158015611b47573d6000803e3d6000fd5b5050505050506000611b59606561128a565b905060006040518060e00160405280836001600160a01b0316815260200160006003811115611b8a57611b8a613703565b815273a0b86991c6218b36c1d19d4a2e9eb0ce3606eb486020820152732260fac5e5542a773aa44fbcfedf7c193bc2c5996040820152627a12006060820181905260808201526301c9c38060a0909101529050611be681612ae4565b604051637faa1d2160e01b815273324c5dc1fc42c7a4d43d92df1eba58a54d13bf2d90637faa1d2190611c36908590734f6f977acdd1177dcd81ab83074855ecb9c2d49e90600090600401613719565b600060405180830381600087803b158015611c5057600080fd5b505af1158015611c64573d6000803e3d6000fd5b5050505050506000611c76606661128a565b905060006040518060e00160405280836001600160a01b0316815260200160006003811115611ca757611ca7613703565b815273a0b86991c6218b36c1d19d4a2e9eb0ce3606eb48602082015273cbb7c0000ab88b473b1f5afd9ef808440eed33bf6040820152627a12006060820181905260808201526301c9c38060a0909101529050611d0381612ae4565b604051637faa1d2160e01b815273324c5dc1fc42c7a4d43d92df1eba58a54d13bf2d90637faa1d2190611d53908590734f6f977acdd1177dcd81ab83074855ecb9c2d49e90600090600401613719565b600060405180830381600087803b158015611d6d57600080fd5b505af1158015611d81573d6000803e3d6000fd5b50505050505050565b6040516352e5787b60e11b81526004808201819052907f00000000000000000000000000000000000000000000000000000000000000006001600160a01b03169063a5caf0f690602401602060405180830381865afa158015611df1573d6000803e3d6000fd5b505050506040513d601f19601f82011682018060405250810190611e159190613630565b6115b0576000611e256015610593565b60408051610100810182526001600160a01b038316815273bf5495efe5db9ce00f80364c8b423567e58d2110602082015273eeeeeeeeeeeeeeeeeeeeeeeeeeeeeeeeeeeeeeee9181019190915260016060820152600060808201819052627270e060a083015260c0820181905260e0820152909150611ea381612cb2565b604051630f18fc2760e31b81527391716c4eda1fb55e84bf8b4c7085f84285c19085906378c7e13890611ef3908590734f6f977acdd1177dcd81ab83074855ecb9c2d49e90600090600401613719565b600060405180830381600087803b158015611f0d57600080fd5b505af1158015611f21573d6000803e3d6000fd5b5050505050506000611f33606761128a565b905060006040518060e00160405280836001600160a01b0316815260200160006003811115611f6457611f64613703565b815273bf5495efe5db9ce00f80364c8b423567e58d21106020820152737f39c581f595b53c5cb19bd0b3f8da6c935e2ca06040820152629896806060820181905260808201526301c9c38060a0909101529050611fc081612ae4565b604051637faa1d2160e01b815273324c5dc1fc42c7a4d43d92df1eba58a54d13bf2d90637faa1d2190612010908590734f6f977acdd1177dcd81ab83074855ecb9c2d49e90600090600401613719565b600060405180830381600087803b15801561202a57600080fd5b505af115801561203e573d6000803e3d6000fd5b5050505050506000612050606861128a565b905060006040518060e00160405280836001600160a01b031681526020016001600381111561208157612081613703565b8152600060208201819052737f39c581f595b53c5cb19bd0b3f8da6c935e2ca060408301526060820152627270e0608082015262e4e1c060a0909101529050611d0381612ae4565b6040516352e5787b60e11b8152600560048201819052907f00000000000000000000000000000000000000000000000000000000000000006001600160a01b03169063a5caf0f690602401602060405180830381865afa158015612131573d6000803e3d6000fd5b505050506040513d601f19601f820116820180604052508101906121559190613630565b6115b05760006121656003610593565b6040516328a5548760e21b815262030d40600482018190526024820152617e9060448201526201518060648201529091506001600160a01b0382169063a295521c90608401600060405180830381600087803b1580156121c457600080fd5b505af11580156121d8573d6000803e3d6000fd5b505060405163e552a1e360e01b81526109c46004820181905260248201526201518060448201526001600160a01b038416925063e552a1e391506064015b600060405180830381600087803b15801561223057600080fd5b505af1158015612244573d6000803e3d6000fd5b505050505050565b6040516352e5787b60e11b8152600660048201819052907f00000000000000000000000000000000000000000000000000000000000000006001600160a01b03169063a5caf0f690602401602060405180830381865afa1580156122b4573d6000803e3d6000fd5b505050506040513d601f19601f820116820180604052508101906122d89190613630565b6115b05760006122e86001610593565b905060006122f66009610593565b90506000612304600d610593565b60405163e552a1e360e01b8152610320600482015260016024820152600060448201529091506001600160a01b0384169063e552a1e390606401600060405180830381600087803b15801561235857600080fd5b505af115801561236c573d6000803e3d6000fd5b505060405163e552a1e360e01b8152610258600482015260016024820152600060448201526001600160a01b038516925063e552a1e39150606401600060405180830381600087803b1580156123c157600080fd5b505af11580156123d5573d6000803e3d6000fd5b505060405163e552a1e360e01b81526103e86004820152600160248201526206978060448201526001600160a01b038416925063e552a1e3915060640161157a565b6040516352e5787b60e11b8152600760048201819052907f00000000000000000000000000000000000000000000000000000000000000006001600160a01b03169063a5caf0f690602401602060405180830381865afa15801561247f573d6000803e3d6000fd5b505050506040513d601f19601f820116820180604052508101906124a39190613630565b6115b05760006124b36002610593565b60408051610100810182526001600160a01b038316815273a0b86991c6218b36c1d19d4a2e9eb0ce3606eb48602082015273dac17f958d2ee523a2206206994597c13d831ec7918101919091526000606082018190526001608083015260a08201526298968060c0820152630393870060e082015290915061253481612cb2565b506040516369482f6b60e11b81526a31a17e847807b1bc00000060048201526001600160a01b0382169063d2905ed690602401612216565b6040516352e5787b60e11b8152600860048201819052907f00000000000000000000000000000000000000000000000000000000000000006001600160a01b03169063a5caf0f690602401602060405180830381865afa1580156125d4573d6000803e3d6000fd5b505050506040513d601f19601f820116820180604052508101906125f89190613630565b6115b05760006126086017610593565b60408051610100810182526001600160a01b03831681527373a15fed60bf67631dc6cd7bc5b6e8da8190acf5602082015273a0b86991c6218b36c1d19d4a2e9eb0ce3606eb48918101919091526001606082015260006080820181905261271060a083015260c0820181905260e082015290915061268581612cb2565b604051630f18fc2760e31b81527391716c4eda1fb55e84bf8b4c7085f84285c19085906378c7e138906126d5908590734f6f977acdd1177dcd81ab83074855ecb9c2d49e90600190600401613719565b600060405180830381600087803b1580156126ef57600080fd5b505af1158015612703573d6000803e3d6000fd5b50505050505060006127156018610593565b60408051610100810182526001600160a01b038316815273085780639cc2cacd35e474e71f4d000e2405d8f6602082015273a0b86991c6218b36c1d19d4a2e9eb0ce3606eb48918101919091526001606082015260006080820181905261271060a083015260c0820181905260e082015290915061279281612cb2565b604051630f18fc2760e31b81527391716c4eda1fb55e84bf8b4c7085f84285c19085906378c7e138906127e2908590734f6f977acdd1177dcd81ab83074855ecb9c2d49e90600190600401613719565b600060405180830381600087803b1580156127fc57600080fd5b505af1158015612810573d6000803e3d6000fd5b50505050505060006128226019610593565b60408051610100810182526001600160a01b03831681527373a15fed60bf67631dc6cd7bc5b6e8da8190acf5602082015273a0b86991c6218b36c1d19d4a2e9eb0ce3606eb48918101919091526001606082015260006080820181905261271060a083015260c0820181905260e082015290915061289f81612cb2565b604051630f18fc2760e31b81527391716c4eda1fb55e84bf8b4c7085f84285c19085906378c7e13890611d53908590734f6f977acdd1177dcd81ab83074855ecb9c2d49e90600190600401613719565b67ffffffffffffffff605b82901c811690609b83901c16811580612911575080155b1561293457604051636a86ba8960e11b81526201117160048201526024016106e1565b61ffff8316603a84901c6401ffffffff16428181039160ea87901c617fff1691148061295e575082155b806129695750806001145b1561297657505050915091565b64496cebb80084840283020484019350617fff60db87901c169250826001036129a157505050915091565b826001166001036129f65760019290921c91826c7e37be2022c0914b2680000000816129cf576129cf6132e4565b049250612710601e87901c613fff166b033b2e3c9fd0803ce8000000850102049250612a23565b60019290921c916305f5e100601e87901c613fff166127108501026b033b2e3c9fd0803ce8000000020492505b80600116600103612a5a5760011c61271081016b033b2e3c9fd0803ce8000000820281612a5257612a526132e4565b049050612a90565b60011c61271081016b033b2e3c9fd0803ce8000000820281612a7e57612a7e6132e4565b046b033b2e3c9fd0803ce80000000390505b760a70c3c40a64e6c51999090b65f67d92400000000000008382026127100261ffff881691900402601087901c613fff16612710030292506801b5a660ea44b8000085840283020485019450505050915091565b600081602001516003811115612afc57612afc613703565b03612b4b576040805160a08101825282516001600160a01b0390811682528383015116602082015261138891810191909152615460606082015260808083015190820152612b4981612e19565b505b600081602001516003811115612b6357612b63613703565b03612bca5760006040518060c0016040528083600001516001600160a01b0316815260200183606001516001600160a01b03168152602001611388815260200161546081526020018360a0015181526020018360c001518152509050612bc881612f31565b505b600181602001516003811115612be257612be2613703565b03612c495760006040518060c0016040528083600001516001600160a01b0316815260200183606001516001600160a01b03168152602001610bb8815260200161546081526020018360a0015181526020018360c001518152509050612c4781612f31565b505b600281602001516003811115612c6157612c61613703565b036115b0576040805160a08101825282516001600160a01b03908116825283830151166020820152610dac91810191909152615460606082015260808083015190820152612cae81612e19565b5050565b806060015115612d5d5760006040518060a0016040528083600001516001600160a01b0316815260200183602001516001600160a01b031681526020016113888152602001610e1081526020018360a001518152509050612d1281612e19565b6040805160a0808201835284516001600160a01b0390811683528584015116602083015261138892820192909252610e106060820152908301516080820152612d5a81612e19565b50505b8060800151156115b05760006040518060c0016040528083600001516001600160a01b0316815260200183602001516001600160a01b031681526020016113888152602001610e1081526020018360c0015181526020018360e001518152509050612dc781612f31565b6040805160c0808201835284516001600160a01b0390811683528584015116602083015261138892820192909252610e10606082015290830151608082015260e083015160a082015261074b81612f31565b604080516001808252818301909252600091816020015b6040805160c08101825260008082526020808301829052928201819052606082018190526080820181905260a08201528252600019909201910181612e305790505090506040518060c0016040528083600001516001600160a01b0316815260200183602001516001600160a01b03168152602001600160ff1681526020018360400151815260200183606001518152602001612ed98460200151600086608001516001610750565b81525081600081518110612eef57612eef61326f565b60209081029190910101526040516301635db560e11b81527352aa899454998be5b000ad077a46bbe360f4e497906302c6bb6a9061221690849060040161373d565b604080516001808252818301909252600091816020015b612f9d6040518060e0016040528060006001600160a01b0316815260200160006001600160a01b03168152602001600060ff168152602001600081526020016000815260200160008152602001600081525090565b815260200190600190039081612f485790505090506040518060e0016040528083600001516001600160a01b0316815260200183602001516001600160a01b03168152602001600160ff16815260200183604001518152602001836060015181526020016130178460200151600086608001516000610750565b8152602001613032846020015160008660a001516000610750565b815250816000815181106130485761304861326f565b602090810291909101015260405162dc47c360e11b81527352aa899454998be5b000ad077a46bbe360f4e497906301b88f86906122169084906004016137b7565b60006020828403121561309b57600080fd5b5035919050565b600080602083850312156130b557600080fd5b823567ffffffffffffffff808211156130cd57600080fd5b818501915085601f8301126130e157600080fd5b8135818111156130f057600080fd5b8660208260051b850101111561310557600080fd5b60209290920196919550909350505050565b6001600160a01b03811681146115b057600080fd5b80151581146115b057600080fd5b6000806000806080858703121561315057600080fd5b843561315b81613117565b9350602085013592506040850135915060608501356131798161312c565b939692955090935050565b634e487b7160e01b600052604160045260246000fd5b6000602082840312156131ac57600080fd5b813567ffffffffffffffff808211156131c457600080fd5b818401915084601f8301126131d857600080fd5b8135818111156131ea576131ea613184565b604051601f8201601f19908116603f0116810190838211818310171561321257613212613184565b8160405282815287602084870101111561322b57600080fd5b826020860160208301376000928101602001929092525095945050505050565b60006020828403121561325d57600080fd5b815161326881613117565b9392505050565b634e487b7160e01b600052603260045260246000fd5b634e487b7160e01b600052601160045260246000fd5b6000600182016132ad576132ad613285565b5060010190565b6000602082840312156132c657600080fd5b5051919050565b808202811582820484141761060b5761060b613285565b634e487b7160e01b600052601260045260246000fd5b60008261331757634e487b7160e01b600052601260045260246000fd5b500490565b600181815b8085111561335757816000190482111561333d5761333d613285565b8085161561334a57918102915b93841c9390800290613321565b509250929050565b60008261336e5750600161060b565b8161337b5750600061060b565b8160018114613391576002811461339b576133b7565b600191505061060b565b60ff8411156133ac576133ac613285565b50506001821b61060b565b5060208310610133831016604e8410600b84101617156133da575081810a61060b565b6133e4838361331c565b80600019048211156133f8576133f8613285565b029392505050565b6000613268838361335f565b6000815180845260005b8181101561343257602081850181015186830182015201613416565b506000602082860101526020601f19601f83011685010191505092915050565b60018060a01b038316815260606020820152600960608201526865786563757465282960b81b608082015260a060408201526000610d6160a083018461340c565b600081518084526020808501945080840160005b838110156134cc5781516001600160a01b0316875295820195908201906001016134a7565b509495945050505050565b600081518084526020808501945080840160005b838110156134cc578151875295820195908201906001016134eb565b600081518084526020808501808196508360051b8101915082860160005b8581101561354f57828403895261353d84835161340c565b98850198935090840190600101613525565b5091979650505050505050565b60a08152600061356f60a0830188613493565b60208382038185015261358282896134d7565b915083820360408501528187518084528284019150828160051b850101838a0160005b838110156135d357601f198784030185526135c183835161340c565b948601949250908501906001016135a5565b505086810360608801526135e7818a613507565b94505050505082810360808401526135ff818561340c565b98975050505050505050565b64ffffffffff81811683821601908082111561362957613629613285565b5092915050565b60006020828403121561364257600080fd5b81516132688161312c565b602080825282518282018190526000919060409081850190868401855b8281101561354f57815180516001600160a01b0316855286810151878601528581015186860152606090810151908501526080909301929085019060010161366a565b8082018082111561060b5761060b613285565b6060815260006136d36060830186613493565b82810360208401526136e58186613493565b905082810360408401526136f981856134d7565b9695505050505050565b634e487b7160e01b600052602160045260246000fd5b6001600160a01b039384168152919092166020820152901515604082015260600190565b602080825282518282018190526000919060409081850190868401855b8281101561354f57815180516001600160a01b0390811686528782015116878601528581015160ff1686860152606080820151908601526080808201519086015260a0908101519085015260c0909301929085019060010161375a565b602080825282518282018190526000919060409081850190868401855b8281101561354f57815180516001600160a01b0390811686528782015116878601528581015160ff1686860152606080820151908601526080808201519086015260a0808201519086015260c0908101519085015260e090930192908501906001016137d456fe657865637574655061796c6f616428616464726573732c737472696e672c627974657329a2646970667358221220bc059ae0f0bdfa96689af3bee52206397dd14162fda2415656ad631947c45c9864736f6c63430008150033","abi":[{"inputs":[{"internalType":"uint256","name":"errorId_","type":"uint256"}],"name":"FluidLiquidityCalcsError","type":"error"},{"inputs":[],"name":"ADDRESS_THIS","outputs":[{"internalType":"address","name":"","type":"address"}],"stateMutability":"view","type":"function"},{"inputs":[],"name":"BTC_USD_PRICE","outputs":[{"internalType":"uint256","name":"","type":"uint256"}],"stateMutability":"view","type":"function"},{"inputs":[],"name":"DEX_FACTORY","outputs":[{"internalType":"contract IFluidDexFactory","name":"","type":"address"}],"stateMutability":"view","type":"function"},{"inputs":[],"name":"ETH_USD_PRICE","outputs":[{"internalType":"uint256","name":"","type":"uint256"}],"stateMutability":"view","type":"function"},{"inputs":[],"name":"FLUID_RESERVE","outputs":[{"internalType":"contract IFluidReserveContract","name":"","type":"address"}],"stateMutability":"view","type":"function"},{"inputs":[],"name":"FLUID_USD_PRICE","outputs":[{"internalType":"uint256","name":"","type":"uint256"}],"stateMutability":"view","type":"function"},{"inputs":[],"name":"GOVERNOR","outputs":[{"internalType":"contract IGovernorBravo","name":"","type":"address"}],"stateMutability":"view","type":"function"},{"inputs":[],"name":"IETHV2","outputs":[{"internalType":"contract ILite","name":"","type":"address"}],"stateMutability":"view","type":"function"},{"inputs":[],"name":"LIQUIDITY","outputs":[{"internalType":"contract IFluidLiquidityAdmin","name":"","type":"address"}],"stateMutability":"view","type":"function"},{"inputs":[],"name":"PROPOSAL_ID","outputs":[{"internalType":"uint256","name":"","type":"uint256"}],"stateMutability":"view","type":"function"},{"inputs":[],"name":"PROPOSER","outputs":[{"internalType":"address","name":"","type":"address"}],"stateMutability":"view","type":"function"},{"inputs":[],"name":"PROPOSER_AVO_MULTISIG","outputs":[{"internalType":"address","name":"","type":"address"}],"stateMutability":"view","type":"function"},{"inputs":[],"name":"PROPOSER_AVO_MULTISIG_2","outputs":[{"internalType":"address","name":"","type":"address"}],"stateMutability":"view","type":"function"},{"inputs":[],"name":"PROPOSER_AVO_MULTISIG_3","outputs":[{"internalType":"address","name":"","type":"address"}],"stateMutability":"view","type":"function"},{"inputs":[],"name":"PROPOSER_AVO_MULTISIG_4","outputs":[{"internalType":"address","name":"","type":"address"}],"stateMutability":"view","type":"function"},{"inputs":[],"name":"PROPOSER_AVO_MULTISIG_5","outputs":[{"internalType":"address","name":"","type":"address"}],"stateMutability":"view","type":"function"},{"inputs":[],"name":"STABLE_USD_PRICE","outputs":[{"internalType":"uint256","name":"","type":"uint256"}],"stateMutability":"view","type":"function"},{"inputs":[],"name":"TEAM_MULTISIG","outputs":[{"internalType":"address","name":"","type":"address"}],"stateMutability":"view","type":"function"},{"inputs":[],"name":"TIMELOCK","outputs":[{"internalType":"contract ITimelock","name":"","type":"address"}],"stateMutability":"view","type":"function"},{"inputs":[],"name":"TREASURY","outputs":[{"internalType":"contract IDSAV2","name":"","type":"address"}],"stateMutability":"view","type":"function"},{"inputs":[],"name":"VAULT_FACTORY","outputs":[{"internalType":"contract IFluidVaultFactory","name":"","type":"address"}],"stateMutability":"view","type":"function"},{"inputs":[{"internalType":"uint256","name":"action_","type":"uint256"}],"name":"actionStatus","outputs":[{"internalType":"bool","name":"","type":"bool"}],"stateMutability":"view","type":"function"},{"inputs":[],"name":"execute","outputs":[],"stateMutability":"nonpayable","type":"function"},{"inputs":[],"name":"ezETH_USD_PRICE","outputs":[{"internalType":"uint256","name":"","type":"uint256"}],"stateMutability":"view","type":"function"},{"inputs":[{"internalType":"uint256","name":"dexId_","type":"uint256"}],"name":"getDexAddress","outputs":[{"internalType":"address","name":"","type":"address"}],"stateMutability":"view","type":"function"},{"inputs":[],"name":"getExecutableTime","outputs":[{"internalType":"uint256","name":"","type":"uint256"}],"stateMutability":"view","type":"function"},{"inputs":[],"name":"getProposalCreationTime","outputs":[{"internalType":"uint40","name":"","type":"uint40"}],"stateMutability":"view","type":"function"},{"inputs":[{"internalType":"address","name":"token","type":"address"},{"internalType":"uint256","name":"amount","type":"uint256"},{"internalType":"uint256","name":"amountInUSD","type":"uint256"},{"internalType":"bool","name":"isSupply","type":"bool"}],"name":"getRawAmount","outputs":[{"internalType":"uint256","name":"","type":"uint256"}],"stateMutability":"view","type":"function"},{"inputs":[{"internalType":"uint256","name":"vaultId_","type":"uint256"}],"name":"getVaultAddress","outputs":[{"internalType":"address","name":"","type":"address"}],"stateMutability":"view","type":"function"},{"inputs":[],"name":"isProposalExecutable","outputs":[{"internalType":"bool","name":"","type":"bool"}],"stateMutability":"view","type":"function"},{"inputs":[],"name":"mETH_USD_PRICE","outputs":[{"internalType":"uint256","name":"","type":"uint256"}],"stateMutability":"view","type":"function"},{"inputs":[{"internalType":"string","name":"description","type":"string"}],"name":"propose","outputs":[],"stateMutability":"nonpayable","type":"function"},{"inputs":[],"name":"rsETH_USD_PRICE","outputs":[{"internalType":"uint256","name":"","type":"uint256"}],"stateMutability":"view","type":"function"},{"inputs":[],"name":"sUSDe_USD_PRICE","outputs":[{"internalType":"uint256","name":"","type":"uint256"}],"stateMutability":"view","type":"function"},{"inputs":[],"name":"sUSDs_USD_PRICE","outputs":[{"internalType":"uint256","name":"","type":"uint256"}],"stateMutability":"view","type":"function"},{"inputs":[{"internalType":"uint256[]","name":"actionsToSkip_","type":"uint256[]"}],"name":"setActionsToSkip","outputs":[],"stateMutability":"nonpayable","type":"function"},{"inputs":[{"internalType":"uint256","name":"executableUnixTime_","type":"uint256"}],"name":"setExecutionDelay","outputs":[],"stateMutability":"nonpayable","type":"function"},{"inputs":[],"name":"verifyProposal","outputs":[],"stateMutability":"view","type":"function"},{"inputs":[],"name":"weETH_USD_PRICE","outputs":[{"internalType":"uint256","name":"","type":"uint256"}],"stateMutability":"view","type":"function"},{"inputs":[],"name":"weETHs_USD_PRICE","outputs":[{"internalType":"uint256","name":"","type":"uint256"}],"stateMutability":"view","type":"function"},{"inputs":[],"name":"wstETH_USD_PRICE","outputs":[{"internalType":"uint256","name":"","type":"uint256"}],"stateMutability":"view","type":"function"}]}