{"address":"0xdc9beEE94733da3241075B968153f43ECbdC129c","bytecode":"0x60a060405260008055600060015560006002556000600355600060045534801561002857600080fd5b5030608052608051612d18610072600039600081816104b101528181610d690152818161150e015281816115940152818161161a015281816116a00152611d4f0152612d186000f3fe608060405234801561001057600080fd5b506004361061023d5760003560e01c806366760d7d1161013b578063aa98df39116100b8578063cc025f7c1161007c578063cc025f7c146104ac578063e6bd26a2146104d3578063f6370aa9146104e6578063f88ed60c146104f0578063f973f5791461050b57600080fd5b8063aa98df3914610435578063b696649514610448578063b788f3a114610463578063bffa7f0f1461047e578063c575a5351461049957600080fd5b8063817f072a116100ff578063817f072a146103d957806395861bd7146103e25780639781a8ca146103fd57806397b87b4a146104075780639d3d2a781461042257600080fd5b806366760d7d146103735780636dc0ae221461037f578063762dc5c21461039a5780637aadef8b146103a35780637e2f35fa146103be57600080fd5b80632861c7d1116101c9578063569353841161018d5780635693538414610347578063588c77e614610350578063614619541461036b578063623007321461037557806364e9d567146102ad57600080fd5b80632861c7d1146102ed57806328787d00146102ad5780632d2c55651461030857806348bbb5571461032357806353e688b31461033e57600080fd5b8063103f290711610210578063103f29071461027a57806311ae7a14146102ad57806312e366aa146102b5578063194c0e18146102c857806325ad7f4d146102d257600080fd5b806301353b36146102425780630251eb111461025e5780630b396e66146102685780630bc9136e14610272575b600080fd5b61024b60025481565b6040519081526020015b60405180910390f35b61024b620606f881565b61024b62062e0881565b61024b604381565b61029573324c5dc1fc42c7a4d43d92df1eba58a54d13bf2d81565b6040516001600160a01b039091168152602001610255565b61024b606481565b6102956102c33660046125e6565b610514565b61024b6207186881565b610295739efde135ca4832abf0408c44c6f5f370eb0f35e881565b6102957352aa899454998be5b000ad077a46bbe360f4e49781565b6102957328849d2b63fa8d361e5fc15cb8abb13019884d0981565b61029573e7eb63a8b6392481a9fdebb108cfd580dc8664d381565b61024b60035481565b61024b60005481565b610295735c43aac965ff230ac1cf63e924d0153291d78bad81565b610373610592565b005b61024b6205f37081565b610295730204cd037b2ec03605cfdfe482d8e257c765fa1b81565b61024b61035281565b610295732386dc45added673317ef068992f19421b481f4c81565b61029573059a94a72951c0ae1cc1ce3bf0db52421bbe821081565b61024b60015481565b61029573a0d3707c569ff8c87fa923d3823ec5d81c98be7881565b61024b629a1d2081565b6102957391716c4eda1fb55e84bf8b4c7085f84285c1908581565b61024b610430366004612614565b610627565b610373610443366004612679565b610a96565b61029573264786ef916af64a1db19f513f24a3681734ce9281565b610295734f6f977acdd1177dcd81ab83074855ecb9c2d49e81565b61029573a45f7bd6a5ff45d31aace6bcd3d426d9328cea0181565b6103736104a736600461272a565b610e94565b6102957f000000000000000000000000000000000000000000000000000000000000000081565b6102956104e13660046125e6565b610f02565b61024b6206551881565b610295733daff61fe5cfb1f1b4ea7fba8173a58532ef184181565b61024b60045481565b604051630971b35560e11b8152600481018290526000907391716c4eda1fb55e84bf8b4c7085f84285c19085906312e366aa906024015b602060405180830381865afa158015610568573d6000803e3d6000fd5b505050506040513d601f19601f8201168201806040525081019061058c9190612765565b92915050565b30732386dc45added673317ef068992f19421b481f4c146105ed5760405162461bcd60e51b815260206004820152601060248201526f3737ba16bb30b634b216b1b0b63632b960811b60448201526064015b60405180910390fd5b6105f5610f3d565b6105fd611165565b6106056113fb565b61060d61150a565b610615611977565b61061d6119d1565b610625611d3d565b565b600080841180156106385750600083115b156106855760405162461bcd60e51b815260206004820181905260248201527f626f74682075736420616e6420616d6f756e7420617265206e6f74207a65726f60448201526064016105e4565b604080516001600160a01b03871660208083019190915260058284015282518083038401815260608301938490528051910120632d71cdb960e21b90925260648101919091526000907352aa899454998be5b000ad077a46bbe360f4e4979063b5c736e490608401602060405180830381865afa15801561070a573d6000803e3d6000fd5b505050506040513d601f19601f8201168201806040525081019061072e9190612789565b905060008061073c83611eb4565b90925090506000601273eeeeeeeeeeeeeeeeeeeeeeeeeeeeeeeeeeeeeeed196001600160a01b038b160161077857506205f37090506012610a16565b737f39c581f595b53c5cb19bd0b3f8da6c935e2c9f196001600160a01b038b16016107ab57506207186890506012610a16565b73cd5fe23c85820f7b72d0926fc9b05b43e359b7ed196001600160a01b038b16016107de57506206551890506012610a16565b73a1290d69c65a6fe4df752f95823fae25cb99e5a6196001600160a01b038b1601610811575062062e0890506012610a16565b73917cee801a67f933f2e6b33fc0cd1ed2d5909d87196001600160a01b038b16016108445750620606f890506012610a16565b6001600160a01b038a1673cbb7c0000ab88b473b1f5afd9ef808440eed33bf148061088b57506001600160a01b038a16732260fac5e5542a773aa44fbcfedf7c193bc2c599145b1561089e5750629a1d2090506008610a16565b6001600160a01b038a1673a0b86991c6218b36c1d19d4a2e9eb0ce3606eb4814806108e557506001600160a01b038a1673dac17f958d2ee523a2206206994597c13d831ec7145b156108f65750606490506006610a16565b739d39a5de30e57443bff2a8307a4256c8797a3496196001600160a01b038b16016109275750606490506012610a16565b73a3931d71877c0e7a3148cb7eb4463524fec27fbc196001600160a01b038b16016109585750606490506012610a16565b6001600160a01b038a167340d16fc0246ad3160ccc09b8d0d3a2cd28ae6c2f148061099f57506001600160a01b038a16734c9edd5852cd905f086c759e8383e09bff1e68b3145b156109b05750606490506012610a16565b736f40d4a6237c257fff2db00fa0510deeecd303ea196001600160a01b038b16016109e2575061035290506012610a16565b60405162461bcd60e51b81526020600482015260096024820152681b9bdd0b599bdd5b9960ba1b60448201526064016105e4565b600087610a235783610a25565b845b90508915610a545780610a3d8b64e8d4a510006127b8565b610a4791906127e5565b9650505050505050610a8e565b6064610a6082856127b8565b610a6a91906127e5565b610a7583600a6128eb565b610a848b64e8d4a510006127b8565b610a3d91906127b8565b949350505050565b3373a45f7bd6a5ff45d31aace6bcd3d426d9328cea011480610acb575033734f6f977acdd1177dcd81ab83074855ecb9c2d49e145b80610ae957503073059a94a72951c0ae1cc1ce3bf0db52421bbe8210145b80610b07575030739efde135ca4832abf0408c44c6f5f370eb0f35e8145b80610b25575030735c43aac965ff230ac1cf63e924d0153291d78bad145b80610b43575030733daff61fe5cfb1f1b4ea7fba8173a58532ef1841145b80610b6157503073e7eb63a8b6392481a9fdebb108cfd580dc8664d3145b610ba65760405162461bcd60e51b81526020600482015260166024820152751b5cd9cb9cd95b99195c8b5b9bdd0b585b1b1bddd95960521b60448201526064016105e4565b604080516001808252818301909252600090826020808301908036833701905050905060008267ffffffffffffffff811115610be457610be4612663565b604051908082528060200260200182016040528015610c0d578160200160208202803683370190505b50905060008367ffffffffffffffff811115610c2b57610c2b612663565b604051908082528060200260200182016040528015610c5e57816020015b6060815260200190600190039081610c495790505b50905060008467ffffffffffffffff811115610c7c57610c7c612663565b604051908082528060200260200182016040528015610caf57816020015b6060815260200190600190039081610c9a5790505b509050732386dc45added673317ef068992f19421b481f4c84600081518110610cda57610cda6128f7565b60200260200101906001600160a01b031690816001600160a01b031681525050600083600081518110610d0f57610d0f6128f7565b602002602001018181525050604051806060016040528060248152602001612cbf6024913982600081518110610d4757610d476128f7565b60209081029190910181019190915260408051600081529182018152610d90917f0000000000000000000000000000000000000000000000000000000000000000918101612953565b60405160208183030381529060405281600081518110610db257610db26128f7565b6020908102919091010152604051636d4ab48d60e11b8152600090730204cd037b2ec03605cfdfe482d8e257c765fa1b9063da95691a90610dff9088908890889088908e90600401612a5d565b6020604051808303816000875af1158015610e1e573d6000803e3d6000fd5b505050506040513d601f19601f82011682018060405250810190610e429190612789565b905060438114610e8b5760405162461bcd60e51b815260206004820152601460248201527350524f504f53414c5f49535f4e4f545f53414d4560601b60448201526064016105e4565b50505050505050565b33734f6f977acdd1177dcd81ab83074855ecb9c2d49e14610eeb5760405162461bcd60e51b81526020600482015260116024820152706e6f742d7465616d2d6d756c746973696760781b60448201526064016105e4565b600194909455600092909255600255600355600455565b60405163735e935160e11b81526004810182905260009073324c5dc1fc42c7a4d43d92df1eba58a54d13bf2d9063e6bd26a29060240161054b565b6000604051806101000160405280610f55600d610514565b6001600160a01b0316815273a1290d69c65a6fe4df752f95823fae25cb99e5a7602082015273eeeeeeeeeeeeeeeeeeeeeeeeeeeeeeeeeeeeeeee60408201526001606082015260006080820181905261c35060a083015260c0820181905260e0909101529050610fc4816120a9565b7391716c4eda1fb55e84bf8b4c7085f84285c190856378c7e138610fe8600d610514565b734f6f977acdd1177dcd81ab83074855ecb9c2d49e60016040518463ffffffff1660e01b815260040161101d93929190612b0c565b600060405180830381600087803b15801561103757600080fd5b505af115801561104b573d6000803e3d6000fd5b50505050506000604051806101000160405280611068600e610514565b6001600160a01b0316815273917cee801a67f933f2e6b33fc0cd1ed2d5909d88602082015273eeeeeeeeeeeeeeeeeeeeeeeeeeeeeeeeeeeeeeee60408201526001606082015260006080820181905261c35060a083015260c0820181905260e09091015290506110d7816120a9565b7391716c4eda1fb55e84bf8b4c7085f84285c190856378c7e1386110fb600e610514565b734f6f977acdd1177dcd81ab83074855ecb9c2d49e60016040518463ffffffff1660e01b815260040161113093929190612b0c565b600060405180830381600087803b15801561114a57600080fd5b505af115801561115e573d6000803e3d6000fd5b5050505050565b60006040518060e0016040528061117c604e610f02565b6001600160a01b0316815260200160018152600060208201819052737f39c581f595b53c5cb19bd0b3f8da6c935e2ca060408301526060820152619c40608082015261c35060a09091015290506111d281612216565b73324c5dc1fc42c7a4d43d92df1eba58a54d13bf2d637faa1d216111f6604e610f02565b734f6f977acdd1177dcd81ab83074855ecb9c2d49e60016040518463ffffffff1660e01b815260040161122b93929190612b0c565b600060405180830381600087803b15801561124557600080fd5b505af1158015611259573d6000803e3d6000fd5b505050505060006040518060e00160405280611275604f610f02565b6001600160a01b031681526020016000815273a1290d69c65a6fe4df752f95823fae25cb99e5a76020820152737f39c581f595b53c5cb19bd0b3f8da6c935e2ca0604082015261c35060608201819052619c40608083015260a09091015290506112de81612216565b73324c5dc1fc42c7a4d43d92df1eba58a54d13bf2d637faa1d21611302604f610f02565b734f6f977acdd1177dcd81ab83074855ecb9c2d49e60016040518463ffffffff1660e01b815260040161133793929190612b0c565b600060405180830381600087803b15801561135157600080fd5b505af1158015611365573d6000803e3d6000fd5b505050505060006040518060e001604052806113816050610f02565b6001600160a01b0316815260200160018152600060208201819052737f39c581f595b53c5cb19bd0b3f8da6c935e2ca060408301526060820152619c40608082015261c35060a09091015290506113d781612216565b73324c5dc1fc42c7a4d43d92df1eba58a54d13bf2d637faa1d216110fb6050610f02565b600061142073eeeeeeeeeeeeeeeeeeeeeeeeeeeeeeeeeeeeeeee612710600080610627565b6040805160c081018252731f6b2bfdd5d1e6ade7b17027ff5300419a56ad6b815273eeeeeeeeeeeeeeeeeeeeeeeeeeeeeeeeeeeeeeee6020820152600091810182905260016060820152608081018390529192509060a081016103e8611488856103e96127b8565b61149291906127e5565b9052905061149f81612340565b50506040516351fa075360e11b815261251c6004820152731f6b2bfdd5d1e6ade7b17027ff5300419a56ad6b9063a3f40ea6906024015b600060405180830381600087803b1580156114f057600080fd5b505af1158015611504573d6000803e3d6000fd5b50505050565b60007f00000000000000000000000000000000000000000000000000000000000000006001600160a01b03166301353b366040518163ffffffff1660e01b8152600401602060405180830381865afa15801561156a573d6000803e3d6000fd5b505050506040513d601f19601f8201168201806040525081019061158e9190612789565b905060007f00000000000000000000000000000000000000000000000000000000000000006001600160a01b03166353e688b36040518163ffffffff1660e01b8152600401602060405180830381865afa1580156115f0573d6000803e3d6000fd5b505050506040513d601f19601f820116820180604052508101906116149190612789565b905060007f00000000000000000000000000000000000000000000000000000000000000006001600160a01b031663817f072a6040518163ffffffff1660e01b8152600401602060405180830381865afa158015611676573d6000803e3d6000fd5b505050506040513d601f19601f8201168201806040525081019061169a9190612789565b905060007f00000000000000000000000000000000000000000000000000000000000000006001600160a01b031663569353846040518163ffffffff1660e01b8152600401602060405180830381865afa1580156116fc573d6000803e3d6000fd5b505050506040513d601f19601f820116820180604052508101906117209190612789565b9050816101a4146117b6577391716c4eda1fb55e84bf8b4c7085f84285c190856378c7e13861174e84610514565b734f6f977acdd1177dcd81ab83074855ecb9c2d49e60006040518463ffffffff1660e01b815260040161178393929190612b0c565b600060405180830381600087803b15801561179d57600080fd5b505af11580156117b1573d6000803e3d6000fd5b505050505b836101a41461184a577391716c4eda1fb55e84bf8b4c7085f84285c190856378c7e1386117e286610514565b734f6f977acdd1177dcd81ab83074855ecb9c2d49e60006040518463ffffffff1660e01b815260040161181793929190612b0c565b600060405180830381600087803b15801561183157600080fd5b505af1158015611845573d6000803e3d6000fd5b505050505b806101a4146118de5773324c5dc1fc42c7a4d43d92df1eba58a54d13bf2d637faa1d2161187683610f02565b734f6f977acdd1177dcd81ab83074855ecb9c2d49e60006040518463ffffffff1660e01b81526004016118ab93929190612b0c565b600060405180830381600087803b1580156118c557600080fd5b505af11580156118d9573d6000803e3d6000fd5b505050505b826101a4146115045773324c5dc1fc42c7a4d43d92df1eba58a54d13bf2d637faa1d2161190a85610f02565b734f6f977acdd1177dcd81ab83074855ecb9c2d49e60006040518463ffffffff1660e01b815260040161193f93929190612b0c565b600060405180830381600087803b15801561195957600080fd5b505af115801561196d573d6000803e3d6000fd5b5050505050505050565b6040805160008152602081019182905263278f794360e11b90915273264786ef916af64a1db19f513f24a3681734ce9290634f1ef286906114d69073e2283cdec12c6af6c51557bb4640c640800d70609060248101612b46565b6040805160028082526060820183526000926020830190803683375050604080516002808252606082018352939450600093909250906020830190803683375050604080516002808252606082018352939450600093909250906020830190803683370190505090506000611a466015610f02565b604051636eb1769f60e11b815273264786ef916af64a1db19f513f24a3681734ce9260048201526001600160a01b038216602482015290915060009073a0b86991c6218b36c1d19d4a2e9eb0ce3606eb489063dd62ed3e90604401602060405180830381865afa158015611abe573d6000803e3d6000fd5b505050506040513d601f19601f82011682018060405250810190611ae29190612789565b90508185600081518110611af857611af86128f7565b60200260200101906001600160a01b031690816001600160a01b03168152505073a0b86991c6218b36c1d19d4a2e9eb0ce3606eb4884600081518110611b4057611b406128f7565b6001600160a01b0390921660209283029190910190910152611b6781640165a0bc00612b6a565b83600081518110611b7a57611b7a6128f7565b60200260200101818152505050506000611b94601d610f02565b604051636eb1769f60e11b815273264786ef916af64a1db19f513f24a3681734ce9260048201526001600160a01b038216602482015290915060009073a0b86991c6218b36c1d19d4a2e9eb0ce3606eb489063dd62ed3e90604401602060405180830381865afa158015611c0c573d6000803e3d6000fd5b505050506040513d601f19601f82011682018060405250810190611c309190612789565b90508185600181518110611c4657611c466128f7565b60200260200101906001600160a01b031690816001600160a01b03168152505073a0b86991c6218b36c1d19d4a2e9eb0ce3606eb4884600181518110611c8e57611c8e6128f7565b6001600160a01b0390921660209283029190910190910152611cb48163ee6b2800612b6a565b83600181518110611cc757611cc76128f7565b602090810291909101015250506040516303e8046160e01b815273264786ef916af64a1db19f513f24a3681734ce92906303e8046190611d0f90869086908690600401612b7d565b600060405180830381600087803b158015611d2957600080fd5b505af1158015610e8b573d6000803e3d6000fd5b6000611d496003610514565b905060007f00000000000000000000000000000000000000000000000000000000000000006001600160a01b031663f973f5796040518163ffffffff1660e01b8152600401602060405180830381865afa158015611dab573d6000803e3d6000fd5b505050506040513d601f19601f82011682018060405250810190611dcf9190612789565b9050806101a403611dde575050565b6103e581118015611df157506103e68111155b611e3d5760405162461bcd60e51b815260206004820152601c60248201527f6e65772d63656e7465722d70726963652d69732d746f6f2d686967680000000060448201526064016105e4565b60006103e8611e58836b033b2e3c9fd0803ce80000006127b8565b611e6291906127e5565b90506000611e7d836c0c9f2c9cd04674edea400000006127e5565b604051635a70f01960e11b815260048101829052602481018490529091506001600160a01b0385169063b4e1e0329060440161193f565b67ffffffffffffffff605b82901c811690609b83901c16811580611ed6575080155b15611ef957604051636a86ba8960e11b81526201117160048201526024016105e4565b61ffff8316603a84901c6401ffffffff16428181039160ea87901c617fff16911480611f23575082155b80611f2e5750806001145b15611f3b57505050915091565b64496cebb80084840283020484019350617fff60db87901c16925082600103611f6657505050915091565b82600116600103611fbb5760019290921c91826c7e37be2022c0914b268000000081611f9457611f946127cf565b049250612710601e87901c613fff166b033b2e3c9fd0803ce8000000850102049250611fe8565b60019290921c916305f5e100601e87901c613fff166127108501026b033b2e3c9fd0803ce8000000020492505b8060011660010361201f5760011c61271081016b033b2e3c9fd0803ce8000000820281612017576120176127cf565b049050612055565b60011c61271081016b033b2e3c9fd0803ce8000000820281612043576120436127cf565b046b033b2e3c9fd0803ce80000000390505b760a70c3c40a64e6c51999090b65f67d92400000000000008382026127100261ffff881691900402601087901c613fff16612710030292506801b5a660ea44b8000085840283020485019450505050915091565b8060600151156121545760006040518060a0016040528083600001516001600160a01b0316815260200183602001516001600160a01b031681526020016113888152602001610e1081526020018360a001518152509050612109816124ce565b6040805160a0808201835284516001600160a01b0390811683528584015116602083015261138892820192909252610e106060820152908301516080820152612151816124ce565b50505b8060800151156122135760006040518060c0016040528083600001516001600160a01b0316815260200183602001516001600160a01b031681526020016113888152602001610e1081526020018360c0015181526020018360e0015181525090506121be81612340565b6040805160c0808201835284516001600160a01b0390811683528584015116602083015261138892820192909252610e10606082015290830151608082015260e083015160a082015261221081612340565b50505b50565b60028160200151600381111561222e5761222e612b30565b148061224f575060008160200151600381111561224d5761224d612b30565b145b1561229e576040805160a08101825282516001600160a01b039081168252838301511660208201526109c49181019190915261a8c060608201526080808301519082015261229c816124ce565b505b6001816020015160038111156122b6576122b6612b30565b14806122d757506000816020015160038111156122d5576122d5612b30565b145b156122135760006040518060c0016040528083600001516001600160a01b0316815260200183606001516001600160a01b031681526020016107d0815260200161a8c081526020018360a0015181526020018360c00151815250905061233c81612340565b5050565b604080516001808252818301909252600091816020015b6123ac6040518060e0016040528060006001600160a01b0316815260200160006001600160a01b03168152602001600060ff168152602001600081526020016000815260200160008152602001600081525090565b8152602001906001900390816123575790505090506040518060e0016040528083600001516001600160a01b0316815260200183602001516001600160a01b03168152602001600160ff16815260200183604001518152602001836060015181526020016124268460200151600086608001516000610627565b8152602001612441846020015160008660a001516000610627565b81525081600081518110612457576124576128f7565b602090810291909101015260405162dc47c360e11b81527352aa899454998be5b000ad077a46bbe360f4e497906301b88f8690612498908490600401612bc0565b600060405180830381600087803b1580156124b257600080fd5b505af11580156124c6573d6000803e3d6000fd5b505050505050565b604080516001808252818301909252600091816020015b6040805160c08101825260008082526020808301829052928201819052606082018190526080820181905260a082015282526000199092019101816124e55790505090506040518060c0016040528083600001516001600160a01b0316815260200183602001516001600160a01b03168152602001600160ff168152602001836040015181526020018360600151815260200161258e8460200151600086608001516001610627565b815250816000815181106125a4576125a46128f7565b60209081029190910101526040516301635db560e11b81527352aa899454998be5b000ad077a46bbe360f4e497906302c6bb6a90612498908490600401612c44565b6000602082840312156125f857600080fd5b5035919050565b6001600160a01b038116811461221357600080fd5b6000806000806080858703121561262a57600080fd5b8435612635816125ff565b935060208501359250604085013591506060850135801515811461265857600080fd5b939692955090935050565b634e487b7160e01b600052604160045260246000fd5b60006020828403121561268b57600080fd5b813567ffffffffffffffff808211156126a357600080fd5b818401915084601f8301126126b757600080fd5b8135818111156126c9576126c9612663565b604051601f8201601f19908116603f011681019083821181831017156126f1576126f1612663565b8160405282815287602084870101111561270a57600080fd5b826020860160208301376000928101602001929092525095945050505050565b600080600080600060a0868803121561274257600080fd5b505083359560208501359550604085013594606081013594506080013592509050565b60006020828403121561277757600080fd5b8151612782816125ff565b9392505050565b60006020828403121561279b57600080fd5b5051919050565b634e487b7160e01b600052601160045260246000fd5b808202811582820484141761058c5761058c6127a2565b634e487b7160e01b600052601260045260246000fd5b60008261280257634e487b7160e01b600052601260045260246000fd5b500490565b600181815b80851115612842578160001904821115612828576128286127a2565b8085161561283557918102915b93841c939080029061280c565b509250929050565b6000826128595750600161058c565b816128665750600061058c565b816001811461287c5760028114612886576128a2565b600191505061058c565b60ff841115612897576128976127a2565b50506001821b61058c565b5060208310610133831016604e8410600b84101617156128c5575081810a61058c565b6128cf8383612807565b80600019048211156128e3576128e36127a2565b029392505050565b6000612782838361284a565b634e487b7160e01b600052603260045260246000fd5b6000815180845260005b8181101561293357602081850181015186830182015201612917565b506000602082860101526020601f19601f83011685010191505092915050565b60018060a01b038316815260606020820152600960608201526865786563757465282960b81b608082015260a060408201526000610a8e60a083018461290d565b600081518084526020808501945080840160005b838110156129cd5781516001600160a01b0316875295820195908201906001016129a8565b509495945050505050565b600081518084526020808501945080840160005b838110156129cd578151875295820195908201906001016129ec565b600081518084526020808501808196508360051b8101915082860160005b85811015612a50578284038952612a3e84835161290d565b98850198935090840190600101612a26565b5091979650505050505050565b60a081526000612a7060a0830188612994565b602083820381850152612a8382896129d8565b915083820360408501528187518084528284019150828160051b850101838a0160005b83811015612ad457601f19878403018552612ac283835161290d565b94860194925090850190600101612aa6565b50508681036060880152612ae8818a612a08565b9450505050508281036080840152612b00818561290d565b98975050505050505050565b6001600160a01b039384168152919092166020820152901515604082015260600190565b634e487b7160e01b600052602160045260246000fd5b6001600160a01b0383168152604060208201819052600090610a8e9083018461290d565b8082018082111561058c5761058c6127a2565b606081526000612b906060830186612994565b8281036020840152612ba28186612994565b90508281036040840152612bb681856129d8565b9695505050505050565b602080825282518282018190526000919060409081850190868401855b82811015612a5057815180516001600160a01b0390811686528782015116878601528581015160ff1686860152606080820151908601526080808201519086015260a0808201519086015260c0908101519085015260e09093019290850190600101612bdd565b602080825282518282018190526000919060409081850190868401855b82811015612a5057815180516001600160a01b0390811686528782015116878601528581015160ff1686860152606080820151908601526080808201519086015260a0908101519085015260c09093019290850190600101612c6156fe657865637574655061796c6f616428616464726573732c737472696e672c627974657329a2646970667358221220e0332a1012e09119ad25868ee022c34594ac7c8a0de7d018a9bc8ad7c39ce25064736f6c63430008150033","abi":[{"inputs":[{"internalType":"uint256","name":"errorId_","type":"uint256"}],"name":"FluidLiquidityCalcsError","type":"error"},{"inputs":[],"name":"ADDRESS_THIS","outputs":[{"internalType":"address","name":"","type":"address"}],"stateMutability":"view","type":"function"},{"inputs":[],"name":"BTC_USD_PRICE","outputs":[{"internalType":"uint256","name":"","type":"uint256"}],"stateMutability":"view","type":"function"},{"inputs":[],"name":"CBBTC_WBTC_NEW_CENTER_PRICE","outputs":[{"internalType":"uint256","name":"","type":"uint256"}],"stateMutability":"view","type":"function"},{"inputs":[],"name":"DEX_FACTORY","outputs":[{"internalType":"contract IFluidDexFactory","name":"","type":"address"}],"stateMutability":"view","type":"function"},{"inputs":[],"name":"ETH_USDC_DEX_ID","outputs":[{"internalType":"uint256","name":"","type":"uint256"}],"stateMutability":"view","type":"function"},{"inputs":[],"name":"ETH_USDC_VAULT_ID","outputs":[{"internalType":"uint256","name":"","type":"uint256"}],"stateMutability":"view","type":"function"},{"inputs":[],"name":"ETH_USD_PRICE","outputs":[{"internalType":"uint256","name":"","type":"uint256"}],"stateMutability":"view","type":"function"},{"inputs":[],"name":"FLUID_RESERVE","outputs":[{"internalType":"contract IFluidReserveContract","name":"","type":"address"}],"stateMutability":"view","type":"function"},{"inputs":[],"name":"GOVERNOR","outputs":[{"internalType":"contract IGovernorBravo","name":"","type":"address"}],"stateMutability":"view","type":"function"},{"inputs":[],"name":"IETHV2","outputs":[{"internalType":"contract ILite","name":"","type":"address"}],"stateMutability":"view","type":"function"},{"inputs":[],"name":"INST_ETH_DEX_ID","outputs":[{"internalType":"uint256","name":"","type":"uint256"}],"stateMutability":"view","type":"function"},{"inputs":[],"name":"INST_ETH_VAULT_ID","outputs":[{"internalType":"uint256","name":"","type":"uint256"}],"stateMutability":"view","type":"function"},{"inputs":[],"name":"INST_USD_PRICE","outputs":[{"internalType":"uint256","name":"","type":"uint256"}],"stateMutability":"view","type":"function"},{"inputs":[],"name":"LIQUIDITY","outputs":[{"internalType":"contract IFluidLiquidityAdmin","name":"","type":"address"}],"stateMutability":"view","type":"function"},{"inputs":[],"name":"PROPOSAL_ID","outputs":[{"internalType":"uint256","name":"","type":"uint256"}],"stateMutability":"view","type":"function"},{"inputs":[],"name":"PROPOSER","outputs":[{"internalType":"address","name":"","type":"address"}],"stateMutability":"view","type":"function"},{"inputs":[],"name":"PROPOSER_AVO_MULTISIG","outputs":[{"internalType":"address","name":"","type":"address"}],"stateMutability":"view","type":"function"},{"inputs":[],"name":"PROPOSER_AVO_MULTISIG_2","outputs":[{"internalType":"address","name":"","type":"address"}],"stateMutability":"view","type":"function"},{"inputs":[],"name":"PROPOSER_AVO_MULTISIG_3","outputs":[{"internalType":"address","name":"","type":"address"}],"stateMutability":"view","type":"function"},{"inputs":[],"name":"PROPOSER_AVO_MULTISIG_4","outputs":[{"internalType":"address","name":"","type":"address"}],"stateMutability":"view","type":"function"},{"inputs":[],"name":"PROPOSER_AVO_MULTISIG_5","outputs":[{"internalType":"address","name":"","type":"address"}],"stateMutability":"view","type":"function"},{"inputs":[],"name":"STABLE_USD_PRICE","outputs":[{"internalType":"uint256","name":"","type":"uint256"}],"stateMutability":"view","type":"function"},{"inputs":[],"name":"TEAM_MULTISIG","outputs":[{"internalType":"address","name":"","type":"address"}],"stateMutability":"view","type":"function"},{"inputs":[],"name":"TIMELOCK","outputs":[{"internalType":"contract ITimelock","name":"","type":"address"}],"stateMutability":"view","type":"function"},{"inputs":[],"name":"TREASURY","outputs":[{"internalType":"contract IDSAV2","name":"","type":"address"}],"stateMutability":"view","type":"function"},{"inputs":[],"name":"VAULT_FACTORY","outputs":[{"internalType":"contract IFluidVaultFactory","name":"","type":"address"}],"stateMutability":"view","type":"function"},{"inputs":[],"name":"execute","outputs":[],"stateMutability":"nonpayable","type":"function"},{"inputs":[{"internalType":"uint256","name":"dexId_","type":"uint256"}],"name":"getDexAddress","outputs":[{"internalType":"address","name":"","type":"address"}],"stateMutability":"view","type":"function"},{"inputs":[{"internalType":"address","name":"token","type":"address"},{"internalType":"uint256","name":"amount","type":"uint256"},{"internalType":"uint256","name":"amountInUSD","type":"uint256"},{"internalType":"bool","name":"isSupply","type":"bool"}],"name":"getRawAmount","outputs":[{"internalType":"uint256","name":"","type":"uint256"}],"stateMutability":"view","type":"function"},{"inputs":[{"internalType":"uint256","name":"vaultId_","type":"uint256"}],"name":"getVaultAddress","outputs":[{"internalType":"address","name":"","type":"address"}],"stateMutability":"view","type":"function"},{"inputs":[{"internalType":"string","name":"description","type":"string"}],"name":"propose","outputs":[],"stateMutability":"nonpayable","type":"function"},{"inputs":[],"name":"rsETH_USD_PRICE","outputs":[{"internalType":"uint256","name":"","type":"uint256"}],"stateMutability":"view","type":"function"},{"inputs":[],"name":"sUSDe_USD_PRICE","outputs":[{"internalType":"uint256","name":"","type":"uint256"}],"stateMutability":"view","type":"function"},{"inputs":[],"name":"sUSDs_USD_PRICE","outputs":[{"internalType":"uint256","name":"","type":"uint256"}],"stateMutability":"view","type":"function"},{"inputs":[{"internalType":"uint256","name":"inst_eth_dex_id","type":"uint256"},{"internalType":"uint256","name":"inst_eth_vault_id","type":"uint256"},{"internalType":"uint256","name":"eth_usdc_dex_id","type":"uint256"},{"internalType":"uint256","name":"eth_usdc_vault_id","type":"uint256"},{"internalType":"uint256","name":"cbBTC_wBTC_new_center_price","type":"uint256"}],"name":"setState","outputs":[],"stateMutability":"nonpayable","type":"function"},{"inputs":[],"name":"verifyProposal","outputs":[],"stateMutability":"view","type":"function"},{"inputs":[],"name":"weETH_USD_PRICE","outputs":[{"internalType":"uint256","name":"","type":"uint256"}],"stateMutability":"view","type":"function"},{"inputs":[],"name":"weETHs_USD_PRICE","outputs":[{"internalType":"uint256","name":"","type":"uint256"}],"stateMutability":"view","type":"function"},{"inputs":[],"name":"wstETH_USD_PRICE","outputs":[{"internalType":"uint256","name":"","type":"uint256"}],"stateMutability":"view","type":"function"}]}