{"address":"0xC4208fAf10283B0880436C79d000A93D5DBc5297","bytecode":"0x60a060405234801561001057600080fd5b5030608052608051611e8e610037600039600081816102a401526109cd0152611e8e6000f3fe608060405234801561001057600080fd5b50600436106101165760003560e01c80637aadef8b116100a2578063aa98df3911610071578063aa98df3914610256578063b788f3a114610269578063bffa7f0f14610284578063cc025f7c1461029f578063e6bd26a2146102c657600080fd5b80637aadef8b146101f25780637e2f35fa1461020d57806397b87b4a146102285780639d3d2a781461024357600080fd5b80632861c7d1116100e95780632861c7d114610197578063588c77e6146101b257806361461954146101cd57806366760d7d146101d55780636dc0ae22146101d757600080fd5b80630bc9136e1461011b578063103f29071461013657806312e366aa1461016957806325ad7f4d1461017c575b600080fd5b610123602e81565b6040519081526020015b60405180910390f35b61015173324c5dc1fc42c7a4d43d92df1eba58a54d13bf2d81565b6040516001600160a01b03909116815260200161012d565b61015161017736600461187e565b6102d9565b610151739efde135ca4832abf0408c44c6f5f370eb0f35e881565b6101517352aa899454998be5b000ad077a46bbe360f4e49781565b610151735c43aac965ff230ac1cf63e924d0153291d78bad81565b6101d5610357565b005b610151730204cd037b2ec03605cfdfe482d8e257c765fa1b81565b610151732386dc45added673317ef068992f19421b481f4c81565b61015173059a94a72451c0ae1cc1ce4bf0db52421bbe821081565b6101517391716c4eda1fb55e84bf8b4c7085f84285c1908581565b6101236102513660046118ac565b6103cc565b6101d5610264366004611911565b61074b565b610151734f6f977acdd1177dcd81ab83074855ecb9c2d49e81565b61015173a45f7bd6a5ff45d31aace6bcd3d426d9328cea0181565b6101517f000000000000000000000000000000000000000000000000000000000000000081565b6101516102d436600461187e565b610af8565b604051630971b35560e11b8152600481018290526000907391716c4eda1fb55e84bf8b4c7085f84285c19085906312e366aa906024015b602060405180830381865afa15801561032d573d6000803e3d6000fd5b505050506040513d601f19601f8201168201806040525081019061035191906119c2565b92915050565b30732386dc45added673317ef068992f19421b481f4c146103b25760405162461bcd60e51b815260206004820152601060248201526f3737ba16bb30b634b216b1b0b63632b960811b60448201526064015b60405180910390fd5b6103ba610b33565b6103c2610cd8565b6103ca611017565b565b600080841180156103dd5750600083115b1561042a5760405162461bcd60e51b815260206004820181905260248201527f626f74682075736420616e6420616d6f756e7420617265206e6f74207a65726f60448201526064016103a9565b604080516001600160a01b03871660208083019190915260058284015282518083038401815260608301938490528051910120632d71cdb960e21b90925260648101919091526000907352aa899454998be5b000ad077a46bbe360f4e4979063b5c736e490608401602060405180830381865afa1580156104af573d6000803e3d6000fd5b505050506040513d601f19601f820116820180604052508101906104d391906119e6565b90506000806104e1836110ff565b90925090506000601273eeeeeeeeeeeeeeeeeeeeeeeeeeeeeeeeeeeeeeed196001600160a01b038b160161051d57506203d860905060126106cb565b737f39c581f595b53c5cb19bd0b3f8da6c935e2c9f196001600160a01b038b1601610550575062048828905060126106cb565b73cd5fe23c85820f7b72d0926fc9b05b43e359b7ed196001600160a01b038b1601610583575062040b28905060126106cb565b6001600160a01b038a1673cbb7c0000ab88b473b1f5afd9ef808440eed33bf14806105ca57506001600160a01b038a16732260fac5e5542a773aa44fbcfedf7c193bc2c599145b156105dd575062657890905060086106cb565b6001600160a01b038a1673a0b86991c6218b36c1d19d4a2e9eb0ce3606eb48148061062457506001600160a01b038a1673dac17f958d2ee523a2206206994597c13d831ec7145b1561063557506064905060066106cb565b739d39a5de30e57443bff2a8307a4256c8797a3496196001600160a01b038b16016106665750606e905060126106cb565b7340d16fc0246ad3160ccc09b8d0d3a2cd28ae6c2e196001600160a01b038b160161069757506064905060126106cb565b60405162461bcd60e51b81526020600482015260096024820152681b9bdd0b599bdd5b9960ba1b60448201526064016103a9565b6000876106d857836106da565b845b9050891561070957806106f28b64e8d4a51000611a15565b6106fc9190611a42565b9650505050505050610743565b60646107158285611a15565b61071f9190611a42565b61072a83600a611b48565b6107398b64e8d4a51000611a15565b6106f29190611a15565b949350505050565b3373a45f7bd6a5ff45d31aace6bcd3d426d9328cea011480610780575033734f6f977acdd1177dcd81ab83074855ecb9c2d49e145b8061079e57503073059a94a72451c0ae1cc1ce4bf0db52421bbe8210145b806107bc575030739efde135ca4832abf0408c44c6f5f370eb0f35e8145b806107c5575060015b61080a5760405162461bcd60e51b81526020600482015260166024820152751b5cd9cb9cd95b99195c8b5b9bdd0b585b1b1bddd95960521b60448201526064016103a9565b604080516001808252818301909252600090826020808301908036833701905050905060008267ffffffffffffffff811115610848576108486118fb565b604051908082528060200260200182016040528015610871578160200160208202803683370190505b50905060008367ffffffffffffffff81111561088f5761088f6118fb565b6040519080825280602002602001820160405280156108c257816020015b60608152602001906001900390816108ad5790505b50905060008467ffffffffffffffff8111156108e0576108e06118fb565b60405190808252806020026020018201604052801561091357816020015b60608152602001906001900390816108fe5790505b509050732386dc45added673317ef068992f19421b481f4c8460008151811061093e5761093e611b54565b60200260200101906001600160a01b031690816001600160a01b03168152505060008360008151811061097357610973611b54565b602002602001018181525050604051806060016040528060248152602001611e3560249139826000815181106109ab576109ab611b54565b602090810291909101810191909152604080516000815291820181526109f4917f0000000000000000000000000000000000000000000000000000000000000000918101611bb0565b60405160208183030381529060405281600081518110610a1657610a16611b54565b6020908102919091010152604051636d4ab48d60e11b8152600090730204cd037b2ec03605cfdfe482d8e257c765fa1b9063da95691a90610a639088908890889088908e90600401611c81565b6020604051808303816000875af1158015610a82573d6000803e3d6000fd5b505050506040513d601f19601f82011682018060405250810190610aa691906119e6565b9050602e8114610aef5760405162461bcd60e51b815260206004820152601460248201527350524f504f53414c5f49535f4e4f545f53414d4560601b60448201526064016103a9565b50505050505050565b60405163735e935160e11b81526004810182905260009073324c5dc1fc42c7a4d43d92df1eba58a54d13bf2d9063e6bd26a290602401610310565b6000604051806101000160405280610b4b60016102d9565b6001600160a01b03168152737f39c581f595b53c5cb19bd0b3f8da6c935e2ca0602082015273eeeeeeeeeeeeeeeeeeeeeeeeeeeeeeeeeeeeeeee6040820152600160608201819052608082015262b71b0060a0820181905260c082015263017d784060e0909101529050610bbe816112f4565b506000604051806101000160405280610bd760026102d9565b6001600160a01b0316815273a0b86991c6218b36c1d19d4a2e9eb0ce3606eb48602082015273dac17f958d2ee523a2206206994597c13d831ec760408201526000606082018190526001608083015260a08201526298968060c08201526301312d0060e0909101529050610c4a816112f4565b506000604051806101000160405280610c6360036102d9565b6001600160a01b0316815273cbb7c0000ab88b473b1f5afd9ef808440eed33bf6020820152732260fac5e5542a773aa44fbcfedf7c193bc2c59960408201526001606082018190526080820152627270e060a0820181905260c08201526298968060e0909101529050610cd5816112f4565b50565b60006040518060800160405280610cef602c610af8565b6001600160a01b03168152602001600281526000602082018190526040909101529050610d1b81611460565b5060006040518060800160405280610d33602d610af8565b6001600160a01b031681526020016001815273eeeeeeeeeeeeeeeeeeeeeeeeeeeeeeeeeeeeeeee602082015260006040909101529050610d7281611460565b5060006040518060800160405280610d8a602e610af8565b6001600160a01b0316815260200160018152737f39c581f595b53c5cb19bd0b3f8da6c935e2ca0602082015260006040909101529050610dc981611460565b5060006040518060800160405280610de1602f610af8565b6001600160a01b031681526020016001815273cd5fe23c85820f7b72d0926fc9b05b43e359b7ee602082015260006040909101529050610e2081611460565b5060006040518060800160405280610e386030610af8565b6001600160a01b0316815260200160018152732260fac5e5542a773aa44fbcfedf7c193bc2c599602082015260006040909101529050610e7781611460565b5060006040518060800160405280610e8f6031610af8565b6001600160a01b031681526020016001815273cbb7c0000ab88b473b1f5afd9ef808440eed33bf602082015260006040909101529050610ece81611460565b5060006040518060800160405280610ee66032610af8565b6001600160a01b0316815260200160018152739d39a5de30e57443bff2a8307a4256c8797a3497602082015260006040909101529050610f2581611460565b5060006040518060800160405280610f3d6033610af8565b6001600160a01b03168152602001600281526000602082018190526040909101529050610f6981611460565b5060006040518060800160405280610f816034610af8565b6001600160a01b03168152602001600081526000602082015273a0b86991c6218b36c1d19d4a2e9eb0ce3606eb486040909101529050610fc081611460565b5060006040518060800160405280610fd86035610af8565b6001600160a01b03168152602001600081526000602082015273dac17f958d2ee523a2206206994597c13d831ec76040909101529050610cd581611460565b6040805160a081018252736a29a46e21c730dca1d8b23d637c101cec605c5b81527340d16fc0246ad3160ccc09b8d0d3a2cd28ae6c2f60208201526109c49181019190915261a8c06060820152627270e06080820152611076816115d8565b50600060405180610100016040528061108f60046102d9565b6001600160a01b031681527340d16fc0246ad3160ccc09b8d0d3a2cd28ae6c2f602082015273a0b86991c6218b36c1d19d4a2e9eb0ce3606eb486040820152600160608201819052608082015261c35060a08201819052619c4060c083015260e0909101529050610cd5816112f4565b67ffffffffffffffff605b82901c811690609b83901c16811580611121575080155b1561114457604051636a86ba8960e11b81526201117160048201526024016103a9565b61ffff8316603a84901c6401ffffffff16428181039160ea87901c617fff1691148061116e575082155b806111795750806001145b1561118657505050915091565b64496cebb80084840283020484019350617fff60db87901c169250826001036111b157505050915091565b826001166001036112065760019290921c91826c7e37be2022c0914b2680000000816111df576111df611a2c565b049250612710601e87901c613fff166b033b2e3c9fd0803ce8000000850102049250611233565b60019290921c916305f5e100601e87901c613fff166127108501026b033b2e3c9fd0803ce8000000020492505b8060011660010361126a5760011c61271081016b033b2e3c9fd0803ce800000082028161126257611262611a2c565b0490506112a0565b60011c61271081016b033b2e3c9fd0803ce800000082028161128e5761128e611a2c565b046b033b2e3c9fd0803ce80000000390505b760a70c3c40a64e6c51999090b65f67d92400000000000008382026127100261ffff881691900402601087901c613fff16612710030292506801b5a660ea44b8000085840283020485019450505050915091565b80606001511561139f5760006040518060a0016040528083600001516001600160a01b0316815260200183602001516001600160a01b031681526020016113888152602001610e1081526020018360a001518152509050611354816115d8565b6040805160a0808201835284516001600160a01b0390811683528584015116602083015261138892820192909252610e10606082015290830151608082015261139c816115d8565b50505b806080015115610cd55760006040518060c0016040528083600001516001600160a01b0316815260200183602001516001600160a01b031681526020016113888152602001610e1081526020018360c0015181526020018360e00151815250905061140981611726565b6040805160c0808201835284516001600160a01b0390811683528584015116602083015261138892820192909252610e10606082015290830151608082015260e083015160a082015261145b81611726565b505050565b60018160200151600281111561147857611478611d20565b036114c6576040805160a08101825282516001600160a01b039081168252838301511660208201526109c49181019190915261a8c06060820152627270e060808201526114c4816115d8565b505b6000816020015160028111156114de576114de611d20565b036115445760006040518060c0016040528083600001516001600160a01b0316815260200183606001516001600160a01b031681526020016107d0815260200161a8c08152602001627270e081526020016301312d00815250905061154281611726565b505b8051604051637faa1d2160e01b81526001600160a01b039091166004820152734f6f977acdd1177dcd81ab83074855ecb9c2d49e60248201526000604482015273324c5dc1fc42c7a4d43d92df1eba58a54d13bf2d90637faa1d2190606401600060405180830381600087803b1580156115bd57600080fd5b505af11580156115d1573d6000803e3d6000fd5b5050505050565b604080516001808252818301909252600091816020015b6040805160c08101825260008082526020808301829052928201819052606082018190526080820181905260a082015282526000199092019101816115ef5790505090506040518060c0016040528083600001516001600160a01b0316815260200183602001516001600160a01b03168152602001600160ff168152602001836040015181526020018360600151815260200161169884602001516000866080015160016103cc565b815250816000815181106116ae576116ae611b54565b60209081029190910101526040516301635db560e11b81527352aa899454998be5b000ad077a46bbe360f4e497906302c6bb6a906116f0908490600401611d36565b600060405180830381600087803b15801561170a57600080fd5b505af115801561171e573d6000803e3d6000fd5b505050505050565b604080516001808252818301909252600091816020015b6117926040518060e0016040528060006001600160a01b0316815260200160006001600160a01b03168152602001600060ff168152602001600081526020016000815260200160008152602001600081525090565b81526020019060019003908161173d5790505090506040518060e0016040528083600001516001600160a01b0316815260200183602001516001600160a01b03168152602001600160ff168152602001836040015181526020018360600151815260200161180c84602001516000866080015160006103cc565b8152602001611827846020015160008660a0015160006103cc565b8152508160008151811061183d5761183d611b54565b602090810291909101015260405162dc47c360e11b81527352aa899454998be5b000ad077a46bbe360f4e497906301b88f86906116f0908490600401611db0565b60006020828403121561189057600080fd5b5035919050565b6001600160a01b0381168114610cd557600080fd5b600080600080608085870312156118c257600080fd5b84356118cd81611897565b93506020850135925060408501359150606085013580151581146118f057600080fd5b939692955090935050565b634e487b7160e01b600052604160045260246000fd5b60006020828403121561192357600080fd5b813567ffffffffffffffff8082111561193b57600080fd5b818401915084601f83011261194f57600080fd5b813581811115611961576119616118fb565b604051601f8201601f19908116603f01168101908382118183101715611989576119896118fb565b816040528281528760208487010111156119a257600080fd5b826020860160208301376000928101602001929092525095945050505050565b6000602082840312156119d457600080fd5b81516119df81611897565b9392505050565b6000602082840312156119f857600080fd5b5051919050565b634e487b7160e01b600052601160045260246000fd5b8082028115828204841417610351576103516119ff565b634e487b7160e01b600052601260045260246000fd5b600082611a5f57634e487b7160e01b600052601260045260246000fd5b500490565b600181815b80851115611a9f578160001904821115611a8557611a856119ff565b80851615611a9257918102915b93841c9390800290611a69565b509250929050565b600082611ab657506001610351565b81611ac357506000610351565b8160018114611ad95760028114611ae357611aff565b6001915050610351565b60ff841115611af457611af46119ff565b50506001821b610351565b5060208310610133831016604e8410600b8410161715611b22575081810a610351565b611b2c8383611a64565b8060001904821115611b4057611b406119ff565b029392505050565b60006119df8383611aa7565b634e487b7160e01b600052603260045260246000fd5b6000815180845260005b81811015611b9057602081850181015186830182015201611b74565b506000602082860101526020601f19601f83011685010191505092915050565b60018060a01b038316815260606020820152600960608201526865786563757465282960b81b608082015260a06040820152600061074360a0830184611b6a565b600081518084526020808501945080840160005b83811015611c2157815187529582019590820190600101611c05565b509495945050505050565b600081518084526020808501808196508360051b8101915082860160005b85811015611c74578284038952611c62848351611b6a565b98850198935090840190600101611c4a565b5091979650505050505050565b60a0808252865190820181905260009060209060c0840190828a01845b82811015611cc35781516001600160a01b031684529284019290840190600101611c9e565b50505083810382850152611cd78189611bf1565b9150508281036040840152611cec8187611c2c565b90508281036060840152611d008186611c2c565b90508281036080840152611d148185611b6a565b98975050505050505050565b634e487b7160e01b600052602160045260246000fd5b602080825282518282018190526000919060409081850190868401855b82811015611c7457815180516001600160a01b0390811686528782015116878601528581015160ff1686860152606080820151908601526080808201519086015260a0908101519085015260c09093019290850190600101611d53565b602080825282518282018190526000919060409081850190868401855b82811015611c7457815180516001600160a01b0390811686528782015116878601528581015160ff1686860152606080820151908601526080808201519086015260a0808201519086015260c0908101519085015260e09093019290850190600101611dcd56fe657865637574655061796c6f616428616464726573732c737472696e672c627974657329a2646970667358221220b5bd37107d5eb8b2fb73a09498e97c5eec5e57bdd9428c9939c6fde4e0bbe2b964736f6c63430008150033","abi":[{"inputs":[],"stateMutability":"nonpayable","type":"constructor"},{"inputs":[{"internalType":"uint256","name":"errorId_","type":"uint256"}],"name":"FluidLiquidityCalcsError","type":"error"},{"inputs":[],"name":"ADDRESS_THIS","outputs":[{"internalType":"address","name":"","type":"address"}],"stateMutability":"view","type":"function"},{"inputs":[],"name":"DEX_FACTORY","outputs":[{"internalType":"contract FluidDexFactory","name":"","type":"address"}],"stateMutability":"view","type":"function"},{"inputs":[],"name":"GOVERNOR","outputs":[{"internalType":"contract IGovernorBravo","name":"","type":"address"}],"stateMutability":"view","type":"function"},{"inputs":[],"name":"LIQUIDITY","outputs":[{"internalType":"contract IFluidLiquidityAdmin","name":"","type":"address"}],"stateMutability":"view","type":"function"},{"inputs":[],"name":"PROPOSAL_ID","outputs":[{"internalType":"uint256","name":"","type":"uint256"}],"stateMutability":"view","type":"function"},{"inputs":[],"name":"PROPOSER","outputs":[{"internalType":"address","name":"","type":"address"}],"stateMutability":"view","type":"function"},{"inputs":[],"name":"PROPOSER_AVO_MULTISIG","outputs":[{"internalType":"address","name":"","type":"address"}],"stateMutability":"view","type":"function"},{"inputs":[],"name":"PROPOSER_AVO_MULTISIG_2","outputs":[{"internalType":"address","name":"","type":"address"}],"stateMutability":"view","type":"function"},{"inputs":[],"name":"PROPOSER_AVO_MULTISIG_3","outputs":[{"internalType":"address","name":"","type":"address"}],"stateMutability":"view","type":"function"},{"inputs":[],"name":"TEAM_MULTISIG","outputs":[{"internalType":"address","name":"","type":"address"}],"stateMutability":"view","type":"function"},{"inputs":[],"name":"TIMELOCK","outputs":[{"internalType":"contract ITimelock","name":"","type":"address"}],"stateMutability":"view","type":"function"},{"inputs":[],"name":"VAULT_FACTORY","outputs":[{"internalType":"contract FluidVaultFactory","name":"","type":"address"}],"stateMutability":"view","type":"function"},{"inputs":[],"name":"execute","outputs":[],"stateMutability":"nonpayable","type":"function"},{"inputs":[{"internalType":"uint256","name":"dexId_","type":"uint256"}],"name":"getDexAddress","outputs":[{"internalType":"address","name":"","type":"address"}],"stateMutability":"view","type":"function"},{"inputs":[{"internalType":"address","name":"token","type":"address"},{"internalType":"uint256","name":"amount","type":"uint256"},{"internalType":"uint256","name":"amountInUSD","type":"uint256"},{"internalType":"bool","name":"isSupply","type":"bool"}],"name":"getRawAmount","outputs":[{"internalType":"uint256","name":"","type":"uint256"}],"stateMutability":"view","type":"function"},{"inputs":[{"internalType":"uint256","name":"vaultId_","type":"uint256"}],"name":"getVaultAddress","outputs":[{"internalType":"address","name":"","type":"address"}],"stateMutability":"view","type":"function"},{"inputs":[{"internalType":"string","name":"description","type":"string"}],"name":"propose","outputs":[],"stateMutability":"nonpayable","type":"function"},{"inputs":[],"name":"verifyProposal","outputs":[],"stateMutability":"view","type":"function"}]}