{"address":"0x64ceA8CC910BA00bE95826E575CA4bfA3ab8eF80","bytecode":"0x60c0604052732386dc45added673317ef068992f19421b481f4c60805234801561002857600080fd5b503060a05260805160a05161242c610067600039600081816103ed01526109fa01526000818161025c0152818161041a0152610939015261242c6000f3fe608060405234801561001057600080fd5b50600436106101735760003560e01c80638a1c7364116100de578063aaff049311610097578063bb09d9b711610071578063bb09d9b714610397578063bffa7f0f146103b2578063c1892058146103cd578063cc025f7c146103e857600080fd5b8063aaff049314610346578063b696649514610361578063b788f3a11461037c57600080fd5b80638a1c7364146102b45780639d3d2a78146102cf578063a4485598146102e2578063a734f06e146102fd578063aa98df3914610318578063aae7ae071461032b57600080fd5b80636146195411610130578063614619541461023257806366760d7d1461023a5780636dc0ae221461023c5780637aadef8b146102575780637e2f35fa1461027e57806383ba27d81461029957600080fd5b80630bc9136e1461017857806325ad7f4d146101935780632861c7d1146101c6578063349fd186146101e1578063544dd383146101fc578063588c77e614610217575b600080fd5b610180602881565b6040519081526020015b60405180910390f35b6101ae739efde135ca4832abf0408c44c6f5f370eb0f35e881565b6040516001600160a01b03909116815260200161018a565b6101ae7352aa899454998be5b000ad077a46bbe360f4e49781565b6101ae7393dd426446b5370f094a1e31f19991aaa6ac0be081565b6101ae73cbb7c0000ab88b473b1f5afd9ef808440eed33bf81565b6101ae735c43aac965ff230ac1cf63e924d0153291d78bad81565b61023a61040f565b005b6101ae730204cd037b2ec03605cfdfe482d8e257c765fa1b81565b6101ae7f000000000000000000000000000000000000000000000000000000000000000081565b6101ae73059a94a72451c0ae1cc1ce4bf0db52421bbe821081565b6101ae739fb7b4477576fe5b32be4c1843afb1e55f251b3381565b6101ae73324c5dc1fc42c7a4d43d92df1eba58a54d13bf2d81565b6101806102dd366004611d2b565b6104a9565b6101ae737f39c581f595b53c5cb19bd0b3f8da6c935e2ca081565b6101ae73eeeeeeeeeeeeeeeeeeeeeeeeeeeeeeeeeeeeeeee81565b61023a610326366004611d90565b61076c565b6101ae735c20b550819128074fd538edf79791733ccedd1881565b6101ae73cd5fe23c85820f7b72d0926fc9b05b43e359b7ee81565b6101ae73264786ef916af64a1db19f513f24a3681734ce9281565b6101ae734f6f977acdd1177dcd81ab83074855ecb9c2d49e81565b6101ae73a0b86991c6218b36c1d19d4a2e9eb0ce3606eb4881565b6101ae73a45f7bd6a5ff45d31aace6bcd3d426d9328cea0181565b6101ae73dac17f958d2ee523a2206206994597c13d831ec781565b6101ae7f000000000000000000000000000000000000000000000000000000000000000081565b306001600160a01b037f0000000000000000000000000000000000000000000000000000000000000000161461047f5760405162461bcd60e51b815260206004820152601060248201526f3737ba16bb30b634b216b1b0b63632b960811b60448201526064015b60405180910390fd5b610487610b25565b61048f610c61565b610497610e2a565b61049f610fb7565b6104a761115e565b565b600080841180156104ba5750600083115b156105075760405162461bcd60e51b815260206004820181905260248201527f626f74682075736420616e6420616d6f756e7420617265206e6f74207a65726f6044820152606401610476565b60007352aa899454998be5b000ad077a46bbe360f4e49763b5c736e461052e6005896115d9565b6040518263ffffffff1660e01b815260040161054c91815260200190565b602060405180830381865afa158015610569573d6000803e3d6000fd5b505050506040513d601f19601f8201168201806040525081019061058d9190611e41565b905060008061059b83611617565b90925090506000601273eeeeeeeeeeeeeeeeeeeeeeeeeeeeeeeeeeeeeeed196001600160a01b038b16016105d6575061092e905060126106f8565b737f39c581f595b53c5cb19bd0b3f8da6c935e2c9f196001600160a01b038b16016106085750610abe905060126106f8565b73cd5fe23c85820f7b72d0926fc9b05b43e359b7ed196001600160a01b038b160161063a5750610992905060126106f8565b73cbb7c0000ab88b473b1f5afd9ef808440eed33be196001600160a01b038b160161066c575061e484905060086106f8565b6001600160a01b038a1673a0b86991c6218b36c1d19d4a2e9eb0ce3606eb4814806106b357506001600160a01b038a1673dac17f958d2ee523a2206206994597c13d831ec7145b156106c457506001905060066106f8565b60405162461bcd60e51b81526020600482015260096024820152681b9bdd0b599bdd5b9960ba1b6044820152606401610476565b6000876107055783610707565b845b90508915610736578061071f8b64e8d4a51000611e70565b6107299190611e9d565b9650505050505050610764565b6107408184611e70565b61074b83600a611fa3565b61075a8b64e8d4a51000611e70565b61071f9190611e70565b949350505050565b3373a45f7bd6a5ff45d31aace6bcd3d426d9328cea0114806107a1575033734f6f977acdd1177dcd81ab83074855ecb9c2d49e145b806107bf57503073059a94a72451c0ae1cc1ce4bf0db52421bbe8210145b806107dd575030739efde135ca4832abf0408c44c6f5f370eb0f35e8145b806107e6575060015b61082b5760405162461bcd60e51b81526020600482015260166024820152751b5cd9cb9cd95b99195c8b5b9bdd0b585b1b1bddd95960521b6044820152606401610476565b604080516001808252818301909252600090826020808301908036833701905050905060008267ffffffffffffffff81111561086957610869611d7a565b604051908082528060200260200182016040528015610892578160200160208202803683370190505b50905060008367ffffffffffffffff8111156108b0576108b0611d7a565b6040519080825280602002602001820160405280156108e357816020015b60608152602001906001900390816108ce5790505b50905060008467ffffffffffffffff81111561090157610901611d7a565b60405190808252806020026020018201604052801561093457816020015b606081526020019060019003908161091f5790505b5090507f00000000000000000000000000000000000000000000000000000000000000008460008151811061096b5761096b611fb6565b60200260200101906001600160a01b031690816001600160a01b0316815250506000836000815181106109a0576109a0611fb6565b6020026020010181815250506040518060600160405280602481526020016123d360249139826000815181106109d8576109d8611fb6565b60209081029190910181019190915260408051600081529182018152610a21917f0000000000000000000000000000000000000000000000000000000000000000918101612012565b60405160208183030381529060405281600081518110610a4357610a43611fb6565b6020908102919091010152604051636d4ab48d60e11b8152600090730204cd037b2ec03605cfdfe482d8e257c765fa1b9063da95691a90610a909088908890889088908e9060040161211c565b6020604051808303816000875af1158015610aaf573d6000803e3d6000fd5b505050506040513d601f19601f82011682018060405250810190610ad39190611e41565b905060288114610b1c5760405162461bcd60e51b815260206004820152601460248201527350524f504f53414c5f49535f4e4f545f53414d4560601b6044820152606401610476565b50505050505050565b604080516001808252818301909252600091816020015b610b776040518060a0016040528060006001600160a01b03168152602001600081526020016000815260200160008152602001600081525090565b815260200190600190039081610b3c5790505090506040518060a0016040528073cbb7c0000ab88b473b1f5afd9ef808440eed33bf6001600160a01b03168152602001611f408152602001600081526020016101f4815260200161271081525081600081518110610bea57610bea611fb6565b6020908102919091010152604051630feb5dff60e21b81527352aa899454998be5b000ad077a46bbe360f4e49790633fad77fc90610c2c9084906004016121cb565b600060405180830381600087803b158015610c4657600080fd5b505af1158015610c5a573d6000803e3d6000fd5b5050505050565b604080516103008101825260019181018290526109c4606082015261a8c060808201819052624c4b4060a0830152600060c083018190526101008301939093526107d0610120830152610140820152627270e061016082015261018081018290526301312d006101a08201526101c081018290526127106101e0820181905261020082015261226061022082015261238c6102408201526124b86102608201526101f461028082015260c86102a08201526102c08101829052601c815273cbb7c0000ab88b473b1f5afd9ef808440eed33bf602082015273eeeeeeeeeeeeeeeeeeeeeeeeeeeeeeeeeeeeeeee60e0820152735d9bf2026dc5c248b785ac760ab6d3cf7a6c93cc6102e082015290610d778261180c565b90506001600160a01b038116610d9f5760405162461bcd60e51b815260040161047690612235565b50601f815273eeeeeeeeeeeeeeeeeeeeeeeeeeeeeeeeeeeeeeee602082015273cbb7c0000ab88b473b1f5afd9ef808440eed33bf60e082015273db94dd822baaa80f8b339392bed994cdea72d7756102e08201526000610dfe8261180c565b90506001600160a01b038116610e265760405162461bcd60e51b815260040161047690612235565b5050565b604080516103008101825273cbb7c0000ab88b473b1f5afd9ef808440eed33bf602082015260019181018290526109c4606082015261a8c060808201819052624c4b4060a0830152600060c083018190526101008301939093526107d0610120830152610140820152627270e061016082015261018081018290526301312d006101a08201526101c081018290526127106101e08201819052610200820152611f406102208201526121346102408201526123286102608201526101f46102808201526102c08101829052601d815273a0b86991c6218b36c1d19d4a2e9eb0ce3606eb4860e082015261012c6102a082015273390421d1fe8e238ffd9ef86563cbf76f348cdd926102e082015290610f418261180c565b90506001600160a01b038116610f695760405162461bcd60e51b815260040161047690612235565b50601e815273dac17f958d2ee523a2206206994597c13d831ec760e08201526101906102a082015273f38776bfef1e2c395f80733045e4d2bcfe98f97a6102e08201526000610dfe8261180c565b604080516103008101825260019181018290526109c4606082015261a8c060808201819052624c4b4060a0830152600060c0830181905273cbb7c0000ab88b473b1f5afd9ef808440eed33bf60e08401526101008301939093526107d0610120830152610140820152627270e061016082015261018081018290526301312d006101a08201526101c081018290526127106101e082018190526102008201526101f46102808201526102c0810182905260218152737f39c581f595b53c5cb19bd0b3f8da6c935e2ca0602082015261226061022082015261232861024082015261245461026082015260c86102a082015273922c2d3ef36cc02d5053645309c924925c03c9026102e0820152906110cd8261180c565b90506001600160a01b0381166110f55760405162461bcd60e51b815260040161047690612235565b50602080825273cd5fe23c85820f7b72d0926fc9b05b43e359b7ee90820152611f406102208201526121346102408201526123286102608201526101f46102a0820152735ddc7e208958a9b8dc595e40859e6b611fdc44ca6102e08201526000610dfe8261180c565b60408051600280825260608201835260009260208301908036833750506040805160028082526060820183529394506000939092509060208301908036833750506040805160028082526060820183529394506000939092509060208301908036833701905050604051635fd6196560e01b8152736cb89f03c444af5de1a6d9665bbaacbffc3ebe836004820152909150739fb7b4477576fe5b32be4c1843afb1e55f251b3390635fd6196590602401600060405180830381600087803b15801561122857600080fd5b505af115801561123c573d6000803e3d6000fd5b5050604051636eb1769f60e11b815273264786ef916af64a1db19f513f24a3681734ce926004820152739fb7b4477576fe5b32be4c1843afb1e55f251b3360248201526000925073a0b86991c6218b36c1d19d4a2e9eb0ce3606eb48915063dd62ed3e90604401602060405180830381865afa1580156112c0573d6000803e3d6000fd5b505050506040513d601f19601f820116820180604052508101906112e49190611e41565b9050739fb7b4477576fe5b32be4c1843afb1e55f251b338460008151811061130e5761130e611fb6565b60200260200101906001600160a01b031690816001600160a01b03168152505073a0b86991c6218b36c1d19d4a2e9eb0ce3606eb488360008151811061135657611356611fb6565b6001600160a01b039092166020928302919091019091015261137d81642e90edd000612261565b8260008151811061139057611390611fb6565b602090810291909101015250604051635fd6196560e01b8152736cb89f03c444af5de1a6d9665bbaacbffc3ebe836004820152735c20b550819128074fd538edf79791733ccedd1890635fd6196590602401600060405180830381600087803b1580156113fc57600080fd5b505af1158015611410573d6000803e3d6000fd5b5050604051636eb1769f60e11b815273264786ef916af64a1db19f513f24a3681734ce926004820152735c20b550819128074fd538edf79791733ccedd1860248201526000925073dac17f958d2ee523a2206206994597c13d831ec7915063dd62ed3e90604401602060405180830381865afa158015611494573d6000803e3d6000fd5b505050506040513d601f19601f820116820180604052508101906114b89190611e41565b9050735c20b550819128074fd538edf79791733ccedd18846001815181106114e2576114e2611fb6565b60200260200101906001600160a01b031690816001600160a01b03168152505073dac17f958d2ee523a2206206994597c13d831ec78360018151811061152a5761152a611fb6565b6001600160a01b039092166020928302919091019091015261155181642e90edd000612261565b8260018151811061156457611564611fb6565b6020908102919091010152506040516303e8046160e01b815273264786ef916af64a1db19f513f24a3681734ce92906303e80461906115ab90869086908690600401612274565b600060405180830381600087803b1580156115c557600080fd5b505af1158015610b1c573d6000803e3d6000fd5b604080516001600160a01b03831660208201529081018390526000906060016040516020818303038152906040528051906020012090505b92915050565b67ffffffffffffffff605b82901c811690609b83901c16811580611639575080155b1561165c57604051636a86ba8960e11b8152620111716004820152602401610476565b61ffff8316603a84901c6401ffffffff16428181039160ea87901c617fff16911480611686575082155b806116915750806001145b1561169e57505050915091565b64496cebb80084840283020484019350617fff60db87901c169250826001036116c957505050915091565b8260011660010361171e5760019290921c91826c7e37be2022c0914b2680000000816116f7576116f7611e87565b049250612710601e87901c613fff166b033b2e3c9fd0803ce800000085010204925061174b565b60019290921c916305f5e100601e87901c613fff166127108501026b033b2e3c9fd0803ce8000000020492505b806001166001036117825760011c61271081016b033b2e3c9fd0803ce800000082028161177a5761177a611e87565b0490506117b8565b60011c61271081016b033b2e3c9fd0803ce80000008202816117a6576117a6611e87565b046b033b2e3c9fd0803ce80000000390505b760a70c3c40a64e6c51999090b65f67d92400000000000008382026127100261ffff881691900402601087901c613fff16612710030292506801b5a660ea44b8000085840283020485019450505050915091565b805160405163735e935160e11b815260009173324c5dc1fc42c7a4d43d92df1eba58a54d13bf2d9163e6bd26a29161184a9160040190815260200190565b602060405180830381865afa158015611867573d6000803e3d6000fd5b505050506040513d601f19601f8201168201806040525081019061188b91906122b7565b60408051600180825281830190925291925060009190816020015b6040805160c08101825260008082526020808301829052928201819052606082018190526080820181905260a082015282526000199092019101816118a65790505090506040518060c00160405280836001600160a01b0316815260200184602001516001600160a01b03168152602001846040015160ff168152602001846060015181526020018460800151815260200161195185602001518660c001518760a0015160016104a9565b8152508160008151811061196757611967611fb6565b60209081029190910101526040516301635db560e11b81527352aa899454998be5b000ad077a46bbe360f4e497906302c6bb6a906119a99084906004016122d4565b600060405180830381600087803b1580156119c357600080fd5b505af11580156119d7573d6000803e3d6000fd5b5060009350600192506119e8915050565b604051908082528060200260200182016040528015611a6e57816020015b611a5b6040518060e0016040528060006001600160a01b0316815260200160006001600160a01b03168152602001600060ff168152602001600081526020016000815260200160008152602001600081525090565b815260200190600190039081611a065790505b5090506040518060e00160405280836001600160a01b031681526020018460e001516001600160a01b0316815260200184610100015160ff16815260200184610120015181526020018461014001518152602001611add8560e0015186610180015187610160015160006104a9565b8152602001611afd8560e00151866101c00151876101a0015160006104a9565b81525081600081518110611b1357611b13611fb6565b602090810291909101015260405162dc47c360e11b81527352aa899454998be5b000ad077a46bbe360f4e497906301b88f8690611b5490849060040161234e565b600060405180830381600087803b158015611b6e57600080fd5b505af1158015611b82573d6000803e3d6000fd5b505050506101e08301516102008401516102208501516102408601516102608701516102808801516102a08901516102c08a01516040516354b04ef560e01b81526004810198909852602488019690965260448701949094526064860192909252608485015260a484015260c483015260e48201526001600160a01b03831691506354b04ef59061010401600060405180830381600087803b158015611c2757600080fd5b505af1158015611c3b573d6000803e3d6000fd5b505050506102e082015160405163072d137f60e21b81526001600160a01b03918216600482015290821690631cb44dfc90602401600060405180830381600087803b158015611c8957600080fd5b505af1158015611c9d573d6000803e3d6000fd5b505060405163b046a44960e01b815273264786ef916af64a1db19f513f24a3681734ce9260048201526001600160a01b038416925063b046a4499150602401600060405180830381600087803b158015611cf657600080fd5b505af1158015611d0a573d6000803e3d6000fd5b50505050919050565b6001600160a01b0381168114611d2857600080fd5b50565b60008060008060808587031215611d4157600080fd5b8435611d4c81611d13565b9350602085013592506040850135915060608501358015158114611d6f57600080fd5b939692955090935050565b634e487b7160e01b600052604160045260246000fd5b600060208284031215611da257600080fd5b813567ffffffffffffffff80821115611dba57600080fd5b818401915084601f830112611dce57600080fd5b813581811115611de057611de0611d7a565b604051601f8201601f19908116603f01168101908382118183101715611e0857611e08611d7a565b81604052828152876020848701011115611e2157600080fd5b826020860160208301376000928101602001929092525095945050505050565b600060208284031215611e5357600080fd5b5051919050565b634e487b7160e01b600052601160045260246000fd5b808202811582820484141761161157611611611e5a565b634e487b7160e01b600052601260045260246000fd5b600082611eba57634e487b7160e01b600052601260045260246000fd5b500490565b600181815b80851115611efa578160001904821115611ee057611ee0611e5a565b80851615611eed57918102915b93841c9390800290611ec4565b509250929050565b600082611f1157506001611611565b81611f1e57506000611611565b8160018114611f345760028114611f3e57611f5a565b6001915050611611565b60ff841115611f4f57611f4f611e5a565b50506001821b611611565b5060208310610133831016604e8410600b8410161715611f7d575081810a611611565b611f878383611ebf565b8060001904821115611f9b57611f9b611e5a565b029392505050565b6000611faf8383611f02565b9392505050565b634e487b7160e01b600052603260045260246000fd5b6000815180845260005b81811015611ff257602081850181015186830182015201611fd6565b506000602082860101526020601f19601f83011685010191505092915050565b60018060a01b038316815260606020820152600960608201526865786563757465282960b81b608082015260a06040820152600061076460a0830184611fcc565b600081518084526020808501945080840160005b8381101561208c5781516001600160a01b031687529582019590820190600101612067565b509495945050505050565b600081518084526020808501945080840160005b8381101561208c578151875295820195908201906001016120ab565b600081518084526020808501808196508360051b8101915082860160005b8581101561210f5782840389526120fd848351611fcc565b988501989350908401906001016120e5565b5091979650505050505050565b60a08152600061212f60a0830188612053565b6020838203818501526121428289612097565b915083820360408501528187518084528284019150828160051b850101838a0160005b8381101561219357601f19878403018552612181838351611fcc565b94860194925090850190600101612165565b505086810360608801526121a7818a6120c7565b94505050505082810360808401526121bf8185611fcc565b98975050505050505050565b602080825282518282018190526000919060409081850190868401855b8281101561210f57815180516001600160a01b0316855286810151878601528581015186860152606080820151908601526080908101519085015260a090930192908501906001016121e8565b6020808252601290820152711d985d5b1d0b5b9bdd0b59195c1b1bde595960721b604082015260600190565b8082018082111561161157611611611e5a565b6060815260006122876060830186612053565b82810360208401526122998186612053565b905082810360408401526122ad8185612097565b9695505050505050565b6000602082840312156122c957600080fd5b8151611faf81611d13565b602080825282518282018190526000919060409081850190868401855b8281101561210f57815180516001600160a01b0390811686528782015116878601528581015160ff1686860152606080820151908601526080808201519086015260a0908101519085015260c090930192908501906001016122f1565b602080825282518282018190526000919060409081850190868401855b8281101561210f57815180516001600160a01b0390811686528782015116878601528581015160ff1686860152606080820151908601526080808201519086015260a0808201519086015260c0908101519085015260e0909301929085019060010161236b56fe657865637574655061796c6f616428616464726573732c737472696e672c627974657329a2646970667358221220ed11a828e2dae6d662d2e36c8101a7392f7178f9b4bf3e16e444fb8b9a31d2d664736f6c63430008150033","abi":[{"inputs":[],"stateMutability":"nonpayable","type":"constructor"},{"inputs":[{"internalType":"uint256","name":"errorId_","type":"uint256"}],"name":"FluidLiquidityCalcsError","type":"error"},{"inputs":[],"name":"ADDRESS_THIS","outputs":[{"internalType":"address","name":"","type":"address"}],"stateMutability":"view","type":"function"},{"inputs":[],"name":"ETH_ADDRESS","outputs":[{"internalType":"address","name":"","type":"address"}],"stateMutability":"view","type":"function"},{"inputs":[],"name":"FLUID_DEX_FACTORY","outputs":[{"internalType":"contract IFluidDexFactory","name":"","type":"address"}],"stateMutability":"view","type":"function"},{"inputs":[],"name":"FLUID_RESERVE","outputs":[{"internalType":"contract IFluidReserveContract","name":"","type":"address"}],"stateMutability":"view","type":"function"},{"inputs":[],"name":"F_USDC","outputs":[{"internalType":"address","name":"","type":"address"}],"stateMutability":"view","type":"function"},{"inputs":[],"name":"F_USDT","outputs":[{"internalType":"address","name":"","type":"address"}],"stateMutability":"view","type":"function"},{"inputs":[],"name":"GOVERNOR","outputs":[{"internalType":"contract IGovernorBravo","name":"","type":"address"}],"stateMutability":"view","type":"function"},{"inputs":[],"name":"LIQUIDITY","outputs":[{"internalType":"contract IFluidLiquidityAdmin","name":"","type":"address"}],"stateMutability":"view","type":"function"},{"inputs":[],"name":"PROPOSAL_ID","outputs":[{"internalType":"uint256","name":"","type":"uint256"}],"stateMutability":"view","type":"function"},{"inputs":[],"name":"PROPOSER","outputs":[{"internalType":"address","name":"","type":"address"}],"stateMutability":"view","type":"function"},{"inputs":[],"name":"PROPOSER_AVO_MULTISIG","outputs":[{"internalType":"address","name":"","type":"address"}],"stateMutability":"view","type":"function"},{"inputs":[],"name":"PROPOSER_AVO_MULTISIG_2","outputs":[{"internalType":"address","name":"","type":"address"}],"stateMutability":"view","type":"function"},{"inputs":[],"name":"PROPOSER_AVO_MULTISIG_3","outputs":[{"internalType":"address","name":"","type":"address"}],"stateMutability":"view","type":"function"},{"inputs":[],"name":"TEAM_MULTISIG","outputs":[{"internalType":"address","name":"","type":"address"}],"stateMutability":"view","type":"function"},{"inputs":[],"name":"TIMELOCK","outputs":[{"internalType":"contract ITimelock","name":"","type":"address"}],"stateMutability":"view","type":"function"},{"inputs":[],"name":"USDC_ADDRESS","outputs":[{"internalType":"address","name":"","type":"address"}],"stateMutability":"view","type":"function"},{"inputs":[],"name":"USDT_ADDRESS","outputs":[{"internalType":"address","name":"","type":"address"}],"stateMutability":"view","type":"function"},{"inputs":[],"name":"VAULT_T1_FACTORY","outputs":[{"internalType":"contract IFluidVaultT1Factory","name":"","type":"address"}],"stateMutability":"view","type":"function"},{"inputs":[],"name":"cbBTC_ADDRESS","outputs":[{"internalType":"address","name":"","type":"address"}],"stateMutability":"view","type":"function"},{"inputs":[],"name":"execute","outputs":[],"stateMutability":"nonpayable","type":"function"},{"inputs":[{"internalType":"address","name":"token","type":"address"},{"internalType":"uint256","name":"amount","type":"uint256"},{"internalType":"uint256","name":"amountInUSD","type":"uint256"},{"internalType":"bool","name":"isSupply","type":"bool"}],"name":"getRawAmount","outputs":[{"internalType":"uint256","name":"","type":"uint256"}],"stateMutability":"view","type":"function"},{"inputs":[{"internalType":"string","name":"description","type":"string"}],"name":"propose","outputs":[],"stateMutability":"nonpayable","type":"function"},{"inputs":[],"name":"verifyProposal","outputs":[],"stateMutability":"view","type":"function"},{"inputs":[],"name":"weETH_ADDRESS","outputs":[{"internalType":"address","name":"","type":"address"}],"stateMutability":"view","type":"function"},{"inputs":[],"name":"wstETH_ADDRESS","outputs":[{"internalType":"address","name":"","type":"address"}],"stateMutability":"view","type":"function"}]}