{"address":"0xF1727EaB83906711D03b6ae78CEd0b4665bEd130","bytecode":"0x60c0604052732386dc45added673317ef068992f19421b481f4c60805234801561002857600080fd5b503060a05260805160a051611672610067600039600081816102f9015261082a01526000818161020a01528181610326015261076901526116726000f3fe608060405234801561001057600080fd5b50600436106101215760003560e01c80637aadef8b116100ad578063a734f06e11610071578063a734f06e14610290578063aa98df39146102ab578063b788f3a1146102be578063bffa7f0f146102d9578063cc025f7c146102f457600080fd5b80637aadef8b146102055780637e2f35fa1461022c5780638a1c7364146102475780639d3d2a7814610262578063a44855981461027557600080fd5b8063349fd186116100f4578063349fd186146101aa578063588c77e6146101c557806361461954146101e057806366760d7d146101e85780636dc0ae22146101ea57600080fd5b80630bc9136e1461012657806325ad7f4d146101415780632861c7d1146101745780632d2c55651461018f575b600080fd5b61012e602681565b6040519081526020015b60405180910390f35b61015c739efde135ca4832abf0408c44c6f5f370eb0f35e881565b6040516001600160a01b039091168152602001610138565b61015c7352aa899454998be5b000ad077a46bbe360f4e49781565b61015c7328849d2b63fa8d361e5fc15cb8abb13019884d0981565b61015c7393dd426446b5370f094a1e31f19991aaa6ac0be081565b61015c735c43aac965ff230ac1cf63e924d0153291d78bad81565b6101e861031b565b005b61015c730204cd037b2ec03605cfdfe482d8e257c765fa1b81565b61015c7f000000000000000000000000000000000000000000000000000000000000000081565b61015c73059a94a72951c0ae1cc1ce3bf0db52421bbe821081565b61015c73324c5dc1fc42c7a4d43d92df1eba58a54d13bf2d81565b61012e6102703660046110a6565b610395565b61015c737f39c581f595b53c5cb19bd0b3f8da6c935e2ca081565b61015c73eeeeeeeeeeeeeeeeeeeeeeeeeeeeeeeeeeeeeeee81565b6101e86102b936600461110b565b61059c565b61015c734f6f977acdd1177dcd81ab83074855ecb9c2d49e81565b61015c73a45f7bd6a5ff45d31aace6bcd3d426d9328cea0181565b61015c7f000000000000000000000000000000000000000000000000000000000000000081565b306001600160a01b037f0000000000000000000000000000000000000000000000000000000000000000161461038b5760405162461bcd60e51b815260206004820152601060248201526f3737ba16bb30b634b216b1b0b63632b960811b60448201526064015b60405180910390fd5b610393610955565b565b600080841180156103a65750600083115b156103f35760405162461bcd60e51b815260206004820181905260248201527f626f74682075736420616e6420616d6f756e7420617265206e6f74207a65726f6044820152606401610382565b60007352aa899454998be5b000ad077a46bbe360f4e49763b5c736e461041a600589610e5b565b6040518263ffffffff1660e01b815260040161043891815260200190565b602060405180830381865afa158015610455573d6000803e3d6000fd5b505050506040513d601f19601f8201168201806040525081019061047991906111bc565b905060008061048783610e99565b90925090506000601273eeeeeeeeeeeeeeeeeeeeeeeeeeeeeeeeeeeeeeed196001600160a01b038b16016104c257506109c490506012610528565b737f39c581f595b53c5cb19bd0b3f8da6c935e2c9f196001600160a01b038b16016104f45750610b5490506012610528565b60405162461bcd60e51b81526020600482015260096024820152681b9bdd0b599bdd5b9960ba1b6044820152606401610382565b6000876105355783610537565b845b90508915610566578061054f8b64e8d4a510006111eb565b6105599190611218565b9650505050505050610594565b61057081846111eb565b61057b83600a61131e565b61058a8b64e8d4a510006111eb565b61054f91906111eb565b949350505050565b3373a45f7bd6a5ff45d31aace6bcd3d426d9328cea0114806105d1575033734f6f977acdd1177dcd81ab83074855ecb9c2d49e145b806105ef57503073059a94a72951c0ae1cc1ce3bf0db52421bbe8210145b8061060d575030739efde135ca4832abf0408c44c6f5f370eb0f35e8145b80610616575060015b61065b5760405162461bcd60e51b81526020600482015260166024820152751b5cd9cb9cd95b99195c8b5b9bdd0b585b1b1bddd95960521b6044820152606401610382565b604080516001808252818301909252600090826020808301908036833701905050905060008267ffffffffffffffff811115610699576106996110f5565b6040519080825280602002602001820160405280156106c2578160200160208202803683370190505b50905060008367ffffffffffffffff8111156106e0576106e06110f5565b60405190808252806020026020018201604052801561071357816020015b60608152602001906001900390816106fe5790505b50905060008467ffffffffffffffff811115610731576107316110f5565b60405190808252806020026020018201604052801561076457816020015b606081526020019060019003908161074f5790505b5090507f00000000000000000000000000000000000000000000000000000000000000008460008151811061079b5761079b611331565b60200260200101906001600160a01b031690816001600160a01b0316815250506000836000815181106107d0576107d0611331565b602002602001018181525050604051806060016040528060248152602001611619602491398260008151811061080857610808611331565b60209081029190910181019190915260408051600081529182018152610851917f000000000000000000000000000000000000000000000000000000000000000091810161138d565b6040516020818303038152906040528160008151811061087357610873611331565b6020908102919091010152604051636d4ab48d60e11b8152600090730204cd037b2ec03605cfdfe482d8e257c765fa1b9063da95691a906108c09088908890889088908e9060040161145e565b6020604051808303816000875af11580156108df573d6000803e3d6000fd5b505050506040513d601f19601f8201168201806040525081019061090391906111bc565b90506026811461094c5760405162461bcd60e51b815260206004820152601460248201527350524f504f53414c5f49535f4e4f545f53414d4560601b6044820152606401610382565b50505050505050565b604051630971b35560e11b8152600160048201526000907393dd426446b5370f094a1e31f19991aaa6ac0be0906312e366aa90602401602060405180830381865afa1580156109a8573d6000803e3d6000fd5b505050506040513d601f19601f820116820180604052508101906109cc91906114fd565b6040805160028082526060820190925291925060009190816020015b6040805160c08101825260008082526020808301829052928201819052606082018190526080820181905260a082015282526000199092019101816109e85790505090506040518060c00160405280836001600160a01b0316815260200173eeeeeeeeeeeeeeeeeeeeeeeeeeeeeeeeeeeeeeee6001600160a01b03168152602001600160ff1681526020016109c48152602001611c208152602001610aa773eeeeeeeeeeeeeeeeeeeeeeeeeeeeeeeeeeeeeeee600061c3506001610395565b81525081600081518110610abd57610abd611331565b60200260200101819052506040518060c00160405280836001600160a01b03168152602001737f39c581f595b53c5cb19bd0b3f8da6c935e2ca06001600160a01b03168152602001600160ff1681526020016109c48152602001611c208152602001610b43737f39c581f595b53c5cb19bd0b3f8da6c935e2ca0600061c3506001610395565b81525081600181518110610b5957610b59611331565b60209081029190910101526040516301635db560e11b81527352aa899454998be5b000ad077a46bbe360f4e497906302c6bb6a90610b9b90849060040161151a565b600060405180830381600087803b158015610bb557600080fd5b505af1158015610bc9573d6000803e3d6000fd5b506000935060029250610bda915050565b604051908082528060200260200182016040528015610c6057816020015b610c4d6040518060e0016040528060006001600160a01b0316815260200160006001600160a01b03168152602001600060ff168152602001600081526020016000815260200160008152602001600081525090565b815260200190600190039081610bf85790505b5090506040518060e00160405280836001600160a01b0316815260200173eeeeeeeeeeeeeeeeeeeeeeeeeeeeeeeeeeeeeeee6001600160a01b03168152602001600160ff1681526020016107d08152602001611c208152602001610cde73eeeeeeeeeeeeeeeeeeeeeeeeeeeeeeeeeeeeeeee600061c3506000610395565b8152602001610d0873eeeeeeeeeeeeeeeeeeeeeeeeeeeeeeeeeeeeeeee6000620186a06000610395565b81525081600081518110610d1e57610d1e611331565b60200260200101819052506040518060e00160405280836001600160a01b03168152602001737f39c581f595b53c5cb19bd0b3f8da6c935e2ca06001600160a01b03168152602001600160ff1681526020016107d08152602001611c208152602001610da4737f39c581f595b53c5cb19bd0b3f8da6c935e2ca0600061c3506000610395565b8152602001610dce737f39c581f595b53c5cb19bd0b3f8da6c935e2ca06000620186a06000610395565b81525081600181518110610de457610de4611331565b602090810291909101015260405162dc47c360e11b81527352aa899454998be5b000ad077a46bbe360f4e497906301b88f8690610e25908490600401611594565b600060405180830381600087803b158015610e3f57600080fd5b505af1158015610e53573d6000803e3d6000fd5b505050505050565b604080516001600160a01b03831660208201529081018390526000906060016040516020818303038152906040528051906020012090505b92915050565b67ffffffffffffffff605b82901c811690609b83901c16811580610ebb575080155b15610ede57604051636a86ba8960e11b8152620111716004820152602401610382565b61ffff8316603a84901c6401ffffffff16428181039160ea87901c617fff16911480610f08575082155b80610f135750806001145b15610f2057505050915091565b64496cebb80084840283020484019350617fff60db87901c16925082600103610f4b57505050915091565b82600116600103610fa05760019290921c91826c7e37be2022c0914b268000000081610f7957610f79611202565b049250612710601e87901c613fff166b033b2e3c9fd0803ce8000000850102049250610fcd565b60019290921c916305f5e100601e87901c613fff166127108501026b033b2e3c9fd0803ce8000000020492505b806001166001036110045760011c61271081016b033b2e3c9fd0803ce8000000820281610ffc57610ffc611202565b04905061103a565b60011c61271081016b033b2e3c9fd0803ce800000082028161102857611028611202565b046b033b2e3c9fd0803ce80000000390505b760a70c3c40a64e6c51999090b65f67d92400000000000008382026127100261ffff881691900402601087901c613fff16612710030292506801b5a660ea44b8000085840283020485019450505050915091565b6001600160a01b03811681146110a357600080fd5b50565b600080600080608085870312156110bc57600080fd5b84356110c78161108e565b93506020850135925060408501359150606085013580151581146110ea57600080fd5b939692955090935050565b634e487b7160e01b600052604160045260246000fd5b60006020828403121561111d57600080fd5b813567ffffffffffffffff8082111561113557600080fd5b818401915084601f83011261114957600080fd5b81358181111561115b5761115b6110f5565b604051601f8201601f19908116603f01168101908382118183101715611183576111836110f5565b8160405282815287602084870101111561119c57600080fd5b826020860160208301376000928101602001929092525095945050505050565b6000602082840312156111ce57600080fd5b5051919050565b634e487b7160e01b600052601160045260246000fd5b8082028115828204841417610e9357610e936111d5565b634e487b7160e01b600052601260045260246000fd5b60008261123557634e487b7160e01b600052601260045260246000fd5b500490565b600181815b8085111561127557816000190482111561125b5761125b6111d5565b8085161561126857918102915b93841c939080029061123f565b509250929050565b60008261128c57506001610e93565b8161129957506000610e93565b81600181146112af57600281146112b9576112d5565b6001915050610e93565b60ff8411156112ca576112ca6111d5565b50506001821b610e93565b5060208310610133831016604e8410600b84101617156112f8575081810a610e93565b611302838361123a565b8060001904821115611316576113166111d5565b029392505050565b600061132a838361127d565b9392505050565b634e487b7160e01b600052603260045260246000fd5b6000815180845260005b8181101561136d57602081850181015186830182015201611351565b506000602082860101526020601f19601f83011685010191505092915050565b60018060a01b038316815260606020820152600960608201526865786563757465282960b81b608082015260a06040820152600061059460a0830184611347565b600081518084526020808501945080840160005b838110156113fe578151875295820195908201906001016113e2565b509495945050505050565b600081518084526020808501808196508360051b8101915082860160005b8581101561145157828403895261143f848351611347565b98850198935090840190600101611427565b5091979650505050505050565b60a0808252865190820181905260009060209060c0840190828a01845b828110156114a05781516001600160a01b03168452928401929084019060010161147b565b505050838103828501526114b481896113ce565b91505082810360408401526114c98187611409565b905082810360608401526114dd8186611409565b905082810360808401526114f18185611347565b98975050505050505050565b60006020828403121561150f57600080fd5b815161132a8161108e565b602080825282518282018190526000919060409081850190868401855b8281101561145157815180516001600160a01b0390811686528782015116878601528581015160ff1686860152606080820151908601526080808201519086015260a0908101519085015260c09093019290850190600101611537565b602080825282518282018190526000919060409081850190868401855b8281101561145157815180516001600160a01b0390811686528782015116878601528581015160ff1686860152606080820151908601526080808201519086015260a0808201519086015260c0908101519085015260e090930192908501906001016115b156fe657865637574655061796c6f616428616464726573732c737472696e672c627974657329a2646970667358221220b7925b3b6038396f9cc9ea7d32ae4e22ac56d119b8a79fc38dede1a40305086164736f6c63430008150033","abi":[{"inputs":[],"stateMutability":"nonpayable","type":"constructor"},{"inputs":[{"internalType":"uint256","name":"errorId_","type":"uint256"}],"name":"FluidLiquidityCalcsError","type":"error"},{"inputs":[],"name":"ADDRESS_THIS","outputs":[{"internalType":"address","name":"","type":"address"}],"stateMutability":"view","type":"function"},{"inputs":[],"name":"ETH_ADDRESS","outputs":[{"internalType":"address","name":"","type":"address"}],"stateMutability":"view","type":"function"},{"inputs":[],"name":"FLUID_DEX_FACTORY","outputs":[{"internalType":"contract IFluidDexFactory","name":"","type":"address"}],"stateMutability":"view","type":"function"},{"inputs":[],"name":"GOVERNOR","outputs":[{"internalType":"contract IGovernorBravo","name":"","type":"address"}],"stateMutability":"view","type":"function"},{"inputs":[],"name":"LIQUIDITY","outputs":[{"internalType":"contract IFluidLiquidityAdmin","name":"","type":"address"}],"stateMutability":"view","type":"function"},{"inputs":[],"name":"PROPOSAL_ID","outputs":[{"internalType":"uint256","name":"","type":"uint256"}],"stateMutability":"view","type":"function"},{"inputs":[],"name":"PROPOSER","outputs":[{"internalType":"address","name":"","type":"address"}],"stateMutability":"view","type":"function"},{"inputs":[],"name":"PROPOSER_AVO_MULTISIG","outputs":[{"internalType":"address","name":"","type":"address"}],"stateMutability":"view","type":"function"},{"inputs":[],"name":"PROPOSER_AVO_MULTISIG_2","outputs":[{"internalType":"address","name":"","type":"address"}],"stateMutability":"view","type":"function"},{"inputs":[],"name":"PROPOSER_AVO_MULTISIG_3","outputs":[{"internalType":"address","name":"","type":"address"}],"stateMutability":"view","type":"function"},{"inputs":[],"name":"TEAM_MULTISIG","outputs":[{"internalType":"address","name":"","type":"address"}],"stateMutability":"view","type":"function"},{"inputs":[],"name":"TIMELOCK","outputs":[{"internalType":"contract ITimelock","name":"","type":"address"}],"stateMutability":"view","type":"function"},{"inputs":[],"name":"TREASURY","outputs":[{"internalType":"contract IDSAV2","name":"","type":"address"}],"stateMutability":"view","type":"function"},{"inputs":[],"name":"VAULT_T1_FACTORY","outputs":[{"internalType":"contract IFluidVaultT1Factory","name":"","type":"address"}],"stateMutability":"view","type":"function"},{"inputs":[],"name":"execute","outputs":[],"stateMutability":"nonpayable","type":"function"},{"inputs":[{"internalType":"address","name":"token","type":"address"},{"internalType":"uint256","name":"amount","type":"uint256"},{"internalType":"uint256","name":"amountInUSD","type":"uint256"},{"internalType":"bool","name":"isSupply","type":"bool"}],"name":"getRawAmount","outputs":[{"internalType":"uint256","name":"","type":"uint256"}],"stateMutability":"view","type":"function"},{"inputs":[{"internalType":"string","name":"description","type":"string"}],"name":"propose","outputs":[],"stateMutability":"nonpayable","type":"function"},{"inputs":[],"name":"verifyProposal","outputs":[],"stateMutability":"view","type":"function"},{"inputs":[],"name":"wstETH_ADDRESS","outputs":[{"internalType":"address","name":"","type":"address"}],"stateMutability":"view","type":"function"}]}