{"address":"0x9751608F32ebD79D46326F108B9852CC3903e691","bytecode":"0x60a060405234801561001057600080fd5b50306080526080516118606100376000396000818161033c0152610aad01526118606000f3fe608060405234801561001057600080fd5b50600436106101425760003560e01c806383ba27d8116100b8578063aae7ae071161007c578063aae7ae07146102cb578063b6966495146102e6578063b788f3a114610301578063bffa7f0f1461031c578063cc025f7c14610337578063e6bd26a21461035e57600080fd5b806383ba27d8146102545780638b0ab9221461026f57806397b87b4a1461028a5780639d3d2a78146102a5578063aa98df39146102b857600080fd5b8063588c77e61161010a578063588c77e6146101de57806361461954146101f957806366760d7d146102015780636dc0ae22146102035780637aadef8b1461021e5780637e2f35fa1461023957600080fd5b80630bc9136e14610147578063103f29071461016257806312e366aa1461019557806325ad7f4d146101a85780632861c7d1146101c3575b600080fd5b61014f603681565b6040519081526020015b60405180910390f35b61017d73324c5dc1fc42c7a4d43d92df1eba58a54d13bf2d81565b6040516001600160a01b039091168152602001610159565b61017d6101a33660046111bf565b610371565b61017d739efde135ca4832abf0408c44c6f5f370eb0f35e881565b61017d7352aa899454998be5b000ad077a46bbe360f4e49781565b61017d735c43aac965ff230ac1cf63e924d0153291d78bad81565b6102016103ef565b005b61017d730204cd037b2ec03605cfdfe482d8e257c765fa1b81565b61017d732386dc45added673317ef068992f19421b481f4c81565b61017d73059a94a72451c0ae1cc1ce4bf0db52421bbe821081565b61017d739fb7b4477576fe5b32be4c1843afb1e55f251b3381565b61017d737af0c11f5c787632e567e6418d74e5832d8ffd4c81565b61017d7391716c4eda1fb55e84bf8b4c7085f84285c1908581565b61014f6102b33660046111f0565b610454565b6102016102c636600461127f565b61082b565b61017d735c20b550819128074fd538edf79791733ccedd1881565b61017d73264786ef916af64a1db19f513f24a3681734ce9281565b61017d734f6f977acdd1177dcd81ab83074855ecb9c2d49e81565b61017d73a45f7bd6a5ff45d31aace6bcd3d426d9328cea0181565b61017d7f000000000000000000000000000000000000000000000000000000000000000081565b61017d61036c3660046111bf565b610bd8565b604051630971b35560e11b8152600481018290526000907391716c4eda1fb55e84bf8b4c7085f84285c19085906312e366aa906024015b602060405180830381865afa1580156103c5573d6000803e3d6000fd5b505050506040513d601f19601f820116820180604052508101906103e99190611340565b92915050565b30732386dc45added673317ef068992f19421b481f4c1461044a5760405162461bcd60e51b815260206004820152601060248201526f3737ba16bb30b634b216b1b0b63632b960811b60448201526064015b60405180910390fd5b610452610c13565b565b600080841180156104655750600083115b156104b25760405162461bcd60e51b815260206004820181905260248201527f626f74682075736420616e6420616d6f756e7420617265206e6f74207a65726f6044820152606401610441565b604080516001600160a01b03871660208083019190915260058284015282518083038401815260608301938490528051910120632d71cdb960e21b90925260648101919091526000907352aa899454998be5b000ad077a46bbe360f4e4979063b5c736e490608401602060405180830381865afa158015610537573d6000803e3d6000fd5b505050506040513d601f19601f8201168201806040525081019061055b9190611364565b905060008061056983610c77565b90925090506000601273eeeeeeeeeeeeeeeeeeeeeeeeeeeeeeeeeeeeeeed196001600160a01b038b16016105a5575062051c98905060126107ab565b737f39c581f595b53c5cb19bd0b3f8da6c935e2c9f196001600160a01b038b16016105d85750620606f8905060126107ab565b73cd5fe23c85820f7b72d0926fc9b05b43e359b7ed196001600160a01b038b160161060b575062055730905060126107ab565b6001600160a01b038a1673cbb7c0000ab88b473b1f5afd9ef808440eed33bf148061065257506001600160a01b038a16732260fac5e5542a773aa44fbcfedf7c193bc2c599145b15610665575062958940905060086107ab565b6001600160a01b038a1673a0b86991c6218b36c1d19d4a2e9eb0ce3606eb4814806106ac57506001600160a01b038a1673dac17f958d2ee523a2206206994597c13d831ec7145b156106bd57506064905060066107ab565b739d39a5de30e57443bff2a8307a4256c8797a3496196001600160a01b038b16016106ee57506070905060126107ab565b73a3931d71877c0e7a3148cb7eb4463524fec27fbc196001600160a01b038b160161071f57506070905060126107ab565b6001600160a01b038a167340d16fc0246ad3160ccc09b8d0d3a2cd28ae6c2f148061076657506001600160a01b038a16734c9edd5852cd905f086c759e8383e09bff1e68b3145b1561077757506064905060126107ab565b60405162461bcd60e51b81526020600482015260096024820152681b9bdd0b599bdd5b9960ba1b6044820152606401610441565b6000876107b857836107ba565b845b905089156107e957806107d28b64e8d4a51000611393565b6107dc91906113c0565b9650505050505050610823565b60646107f58285611393565b6107ff91906113c0565b61080a83600a6114c6565b6108198b64e8d4a51000611393565b6107d29190611393565b949350505050565b3373a45f7bd6a5ff45d31aace6bcd3d426d9328cea011480610860575033734f6f977acdd1177dcd81ab83074855ecb9c2d49e145b8061087e57503073059a94a72451c0ae1cc1ce4bf0db52421bbe8210145b8061089c575030739efde135ca4832abf0408c44c6f5f370eb0f35e8145b806108a5575060015b6108ea5760405162461bcd60e51b81526020600482015260166024820152751b5cd9cb9cd95b99195c8b5b9bdd0b585b1b1bddd95960521b6044820152606401610441565b604080516001808252818301909252600090826020808301908036833701905050905060008267ffffffffffffffff8111156109285761092861123f565b604051908082528060200260200182016040528015610951578160200160208202803683370190505b50905060008367ffffffffffffffff81111561096f5761096f61123f565b6040519080825280602002602001820160405280156109a257816020015b606081526020019060019003908161098d5790505b50905060008467ffffffffffffffff8111156109c0576109c061123f565b6040519080825280602002602001820160405280156109f357816020015b60608152602001906001900390816109de5790505b509050732386dc45added673317ef068992f19421b481f4c84600081518110610a1e57610a1e6114d2565b60200260200101906001600160a01b031690816001600160a01b031681525050600083600081518110610a5357610a536114d2565b6020026020010181815250506040518060600160405280602481526020016118076024913982600081518110610a8b57610a8b6114d2565b60209081029190910181019190915260408051600081529182018152610ad4917f000000000000000000000000000000000000000000000000000000000000000091810161152e565b60405160208183030381529060405281600081518110610af657610af66114d2565b6020908102919091010152604051636d4ab48d60e11b8152600090730204cd037b2ec03605cfdfe482d8e257c765fa1b9063da95691a90610b439088908890889088908e906004016115ff565b6020604051808303816000875af1158015610b62573d6000803e3d6000fd5b505050506040513d601f19601f82011682018060405250810190610b869190611364565b905060368114610bcf5760405162461bcd60e51b815260206004820152601460248201527350524f504f53414c5f49535f4e4f545f53414d4560601b6044820152606401610441565b50505050505050565b60405163735e935160e11b81526004810182905260009073324c5dc1fc42c7a4d43d92df1eba58a54d13bf2d9063e6bd26a2906024016103a8565b610c1d6001610e6c565b610c276002610e6c565b610c316003610e6c565b610c3b6004610e6c565b610c456005610e6c565b610c4f6006610e6c565b610c596007610e6c565b610c636008610e6c565b610c6d6009610e6c565b610452600a610e6c565b67ffffffffffffffff605b82901c811690609b83901c16811580610c99575080155b15610cbc57604051636a86ba8960e11b8152620111716004820152602401610441565b61ffff8316603a84901c6401ffffffff16428181039160ea87901c617fff16911480610ce6575082155b80610cf15750806001145b15610cfe57505050915091565b64496cebb80084840283020484019350617fff60db87901c16925082600103610d2957505050915091565b82600116600103610d7e5760019290921c91826c7e37be2022c0914b268000000081610d5757610d576113aa565b049250612710601e87901c613fff166b033b2e3c9fd0803ce8000000850102049250610dab565b60019290921c916305f5e100601e87901c613fff166127108501026b033b2e3c9fd0803ce8000000020492505b80600116600103610de25760011c61271081016b033b2e3c9fd0803ce8000000820281610dda57610dda6113aa565b049050610e18565b60011c61271081016b033b2e3c9fd0803ce8000000820281610e0657610e066113aa565b046b033b2e3c9fd0803ce80000000390505b760a70c3c40a64e6c51999090b65f67d92400000000000008382026127100261ffff881691900402601087901c613fff16612710030292506801b5a660ea44b8000085840283020485019450505050915091565b60405163735e935160e11b81526004810182905260009073324c5dc1fc42c7a4d43d92df1eba58a54d13bf2d9063e6bd26a290602401602060405180830381865afa158015610ebf573d6000803e3d6000fd5b505050506040513d601f19601f82011682018060405250810190610ee39190611340565b90506000816001600160a01b031663b7791bf26040518163ffffffff1660e01b81526004016101a060405180830381865afa158015610f26573d6000803e3d6000fd5b505050506040513d601f19601f82011682018060405250810190610f4a91906116af565b60800151905060007352aa899454998be5b000ad077a46bbe360f4e49763b5c736e4610fd360088686604080516001600160a01b039384166020808301919091528183019590955281518082038301815260608201835280519086012092909316608084015260a0808401929092528051808403909201825260c0909201909152805191012090565b6040518263ffffffff1660e01b8152600401610ff191815260200190565b602060405180830381865afa15801561100e573d6000803e3d6000fd5b505050506040513d601f19601f820116820180604052508101906110329190611364565b9050600066ffffffffffffff600983901c1660ff600184901c161b90506000611062846000624c4b406001610454565b60408051600180825281830190925291925060009190816020015b6040805160c08101825260008082526020808301829052928201819052606082018190526080820181905260a0820152825260001990920191018161107d5790505090506040518060c00160405280876001600160a01b03168152602001866001600160a01b031681526020018560011660ff1681526020016109c4815260200161a8c08152602001838511611113578361112c565b6103e8611122866103e9611393565b61112c91906113c0565b81525081600081518110611142576111426114d2565b60209081029190910101526040516301635db560e11b81527352aa899454998be5b000ad077a46bbe360f4e497906302c6bb6a9061118490849060040161178c565b600060405180830381600087803b15801561119e57600080fd5b505af11580156111b2573d6000803e3d6000fd5b5050505050505050505050565b6000602082840312156111d157600080fd5b5035919050565b6001600160a01b03811681146111ed57600080fd5b50565b6000806000806080858703121561120657600080fd5b8435611211816111d8565b935060208501359250604085013591506060850135801515811461123457600080fd5b939692955090935050565b634e487b7160e01b600052604160045260246000fd5b6040516101a0810167ffffffffffffffff811182821017156112795761127961123f565b60405290565b60006020828403121561129157600080fd5b813567ffffffffffffffff808211156112a957600080fd5b818401915084601f8301126112bd57600080fd5b8135818111156112cf576112cf61123f565b604051601f8201601f19908116603f011681019083821181831017156112f7576112f761123f565b8160405282815287602084870101111561131057600080fd5b826020860160208301376000928101602001929092525095945050505050565b805161133b816111d8565b919050565b60006020828403121561135257600080fd5b815161135d816111d8565b9392505050565b60006020828403121561137657600080fd5b5051919050565b634e487b7160e01b600052601160045260246000fd5b80820281158282048414176103e9576103e961137d565b634e487b7160e01b600052601260045260246000fd5b6000826113dd57634e487b7160e01b600052601260045260246000fd5b500490565b600181815b8085111561141d5781600019048211156114035761140361137d565b8085161561141057918102915b93841c93908002906113e7565b509250929050565b600082611434575060016103e9565b81611441575060006103e9565b816001811461145757600281146114615761147d565b60019150506103e9565b60ff8411156114725761147261137d565b50506001821b6103e9565b5060208310610133831016604e8410600b84101617156114a0575081810a6103e9565b6114aa83836113e2565b80600019048211156114be576114be61137d565b029392505050565b600061135d8383611425565b634e487b7160e01b600052603260045260246000fd5b6000815180845260005b8181101561150e576020818501810151868301820152016114f2565b506000602082860101526020601f19601f83011685010191505092915050565b60018060a01b038316815260606020820152600960608201526865786563757465282960b81b608082015260a06040820152600061082360a08301846114e8565b600081518084526020808501945080840160005b8381101561159f57815187529582019590820190600101611583565b509495945050505050565b600081518084526020808501808196508360051b8101915082860160005b858110156115f25782840389526115e08483516114e8565b988501989350908401906001016115c8565b5091979650505050505050565b60a0808252865190820181905260009060209060c0840190828a01845b828110156116415781516001600160a01b03168452928401929084019060010161161c565b50505083810382850152611655818961156f565b915050828103604084015261166a81876115aa565b9050828103606084015261167e81866115aa565b9050828103608084015261169281856114e8565b98975050505050505050565b805160ff8116811461133b57600080fd5b60006101a082840312156116c257600080fd5b6116ca611255565b6116d383611330565b81526116e160208401611330565b60208201526116f260408401611330565b604082015261170360608401611330565b606082015261171460808401611330565b608082015261172560a08401611330565b60a082015261173660c0840161169e565b60c082015261174760e0840161169e565b60e08201526101008381015190820152610120808401519082015261014080840151908201526101608084015190820152610180928301519281019290925250919050565b602080825282518282018190526000919060409081850190868401855b828110156115f257815180516001600160a01b0390811686528782015116878601528581015160ff1686860152606080820151908601526080808201519086015260a0908101519085015260c090930192908501906001016117a956fe657865637574655061796c6f616428616464726573732c737472696e672c627974657329a2646970667358221220b1b2fba408489f9ff0f4ec7fdee2f5ee991151e3e52a70a62b032e84e53b755f64736f6c63430008150033","abi":[{"inputs":[],"stateMutability":"nonpayable","type":"constructor"},{"inputs":[{"internalType":"uint256","name":"errorId_","type":"uint256"}],"name":"FluidLiquidityCalcsError","type":"error"},{"inputs":[],"name":"ADDRESS_THIS","outputs":[{"internalType":"address","name":"","type":"address"}],"stateMutability":"view","type":"function"},{"inputs":[],"name":"DEX_FACTORY","outputs":[{"internalType":"contract FluidDexFactory","name":"","type":"address"}],"stateMutability":"view","type":"function"},{"inputs":[],"name":"FLUID_DEX_RESOLVER","outputs":[{"internalType":"contract IFluidDexResolver","name":"","type":"address"}],"stateMutability":"view","type":"function"},{"inputs":[],"name":"FLUID_RESERVE","outputs":[{"internalType":"contract IFluidReserveContract","name":"","type":"address"}],"stateMutability":"view","type":"function"},{"inputs":[],"name":"F_USDC","outputs":[{"internalType":"address","name":"","type":"address"}],"stateMutability":"view","type":"function"},{"inputs":[],"name":"F_USDT","outputs":[{"internalType":"address","name":"","type":"address"}],"stateMutability":"view","type":"function"},{"inputs":[],"name":"GOVERNOR","outputs":[{"internalType":"contract IGovernorBravo","name":"","type":"address"}],"stateMutability":"view","type":"function"},{"inputs":[],"name":"LIQUIDITY","outputs":[{"internalType":"contract IFluidLiquidityAdmin","name":"","type":"address"}],"stateMutability":"view","type":"function"},{"inputs":[],"name":"PROPOSAL_ID","outputs":[{"internalType":"uint256","name":"","type":"uint256"}],"stateMutability":"view","type":"function"},{"inputs":[],"name":"PROPOSER","outputs":[{"internalType":"address","name":"","type":"address"}],"stateMutability":"view","type":"function"},{"inputs":[],"name":"PROPOSER_AVO_MULTISIG","outputs":[{"internalType":"address","name":"","type":"address"}],"stateMutability":"view","type":"function"},{"inputs":[],"name":"PROPOSER_AVO_MULTISIG_2","outputs":[{"internalType":"address","name":"","type":"address"}],"stateMutability":"view","type":"function"},{"inputs":[],"name":"PROPOSER_AVO_MULTISIG_3","outputs":[{"internalType":"address","name":"","type":"address"}],"stateMutability":"view","type":"function"},{"inputs":[],"name":"TEAM_MULTISIG","outputs":[{"internalType":"address","name":"","type":"address"}],"stateMutability":"view","type":"function"},{"inputs":[],"name":"TIMELOCK","outputs":[{"internalType":"contract ITimelock","name":"","type":"address"}],"stateMutability":"view","type":"function"},{"inputs":[],"name":"VAULT_FACTORY","outputs":[{"internalType":"contract FluidVaultFactory","name":"","type":"address"}],"stateMutability":"view","type":"function"},{"inputs":[],"name":"execute","outputs":[],"stateMutability":"nonpayable","type":"function"},{"inputs":[{"internalType":"uint256","name":"dexId_","type":"uint256"}],"name":"getDexAddress","outputs":[{"internalType":"address","name":"","type":"address"}],"stateMutability":"view","type":"function"},{"inputs":[{"internalType":"address","name":"token","type":"address"},{"internalType":"uint256","name":"amount","type":"uint256"},{"internalType":"uint256","name":"amountInUSD","type":"uint256"},{"internalType":"bool","name":"isSupply","type":"bool"}],"name":"getRawAmount","outputs":[{"internalType":"uint256","name":"","type":"uint256"}],"stateMutability":"view","type":"function"},{"inputs":[{"internalType":"uint256","name":"vaultId_","type":"uint256"}],"name":"getVaultAddress","outputs":[{"internalType":"address","name":"","type":"address"}],"stateMutability":"view","type":"function"},{"inputs":[{"internalType":"string","name":"description","type":"string"}],"name":"propose","outputs":[],"stateMutability":"nonpayable","type":"function"},{"inputs":[],"name":"verifyProposal","outputs":[],"stateMutability":"view","type":"function"}]}