{"address":"0x4c3b5d6c108283A50b16dB52Aa5BC74F65B7b69a","bytecode":"0x60c0604052732386dc45added673317ef068992f19421b481f4c60805234801561002857600080fd5b503060a05260805160a051611c4061006760003960008181610345015261087e01526000818161023b0152818161037201526107bd0152611c406000f3fe608060405234801561001057600080fd5b50600436106101375760003560e01c80637aadef8b116100b8578063a734f06e1161007c578063a734f06e146102c1578063aa98df39146102dc578063b6966495146102ef578063b788f3a11461030a578063bffa7f0f14610325578063cc025f7c1461034057600080fd5b80637aadef8b146102365780637e2f35fa1461025d5780638a1c7364146102785780639d3d2a7814610293578063a4485598146102a657600080fd5b8063588c77e6116100ff578063588c77e6146101db57806361461954146101f657806366760d7d146101fe5780636dc0ae221461020057806375169e7e1461021b57600080fd5b80630bc9136e1461013c57806325ad7f4d146101575780632861c7d11461018a5780632d2c5565146101a5578063474585e2146101c0575b600080fd5b610144602481565b6040519081526020015b60405180910390f35b610172739efde135ca4832abf0408c44c6f5f370eb0f35e881565b6040516001600160a01b03909116815260200161014e565b6101727352aa899454998be5b000ad077a46bbe360f4e49781565b6101727328849d2b63fa8d361e5fc15cb8abb13019884d0981565b610172732cc710218f2e3a82ccc77cc4b3b93ee6ba9451cd81565b610172735c43aac965ff230ac1cf63e924d0153291d78bad81565b6101fe610367565b005b610172730204cd037b2ec03605cfdfe482d8e257c765fa1b81565b61017273917cee801a67f933f2e6b33fc0cd1ed2d5909d8881565b6101727f000000000000000000000000000000000000000000000000000000000000000081565b61017273059a94a72951c0ae1cc1ce3bf0db52421bbe821081565b61017273324c5dc1fc42c7a4d43d92df1eba58a54d13bf2d81565b6101446102a1366004611572565b6103e9565b610172737f39c581f595b53c5cb19bd0b3f8da6c935e2ca081565b61017273eeeeeeeeeeeeeeeeeeeeeeeeeeeeeeeeeeeeeeee81565b6101fe6102ea3660046115d7565b6105f0565b61017273264786ef916af64a1db19f513f24a3681734ce9281565b610172734f6f977acdd1177dcd81ab83074855ecb9c2d49e81565b61017273a45f7bd6a5ff45d31aace6bcd3d426d9328cea0181565b6101727f000000000000000000000000000000000000000000000000000000000000000081565b306001600160a01b037f000000000000000000000000000000000000000000000000000000000000000016146103d75760405162461bcd60e51b815260206004820152601060248201526f3737ba16bb30b634b216b1b0b63632b960811b60448201526064015b60405180910390fd5b6103df6109a9565b6103e7610c42565b565b600080841180156103fa5750600083115b156104475760405162461bcd60e51b815260206004820181905260248201527f626f74682075736420616e6420616d6f756e7420617265206e6f74207a65726f60448201526064016103ce565b60007352aa899454998be5b000ad077a46bbe360f4e49763b5c736e461046e600589610dbd565b6040518263ffffffff1660e01b815260040161048c91815260200190565b602060405180830381865afa1580156104a9573d6000803e3d6000fd5b505050506040513d601f19601f820116820180604052508101906104cd9190611688565b90506000806104db83610dfb565b90925090506000601273917cee801a67f933f2e6b33fc0cd1ed2d5909d87196001600160a01b038b16016105165750610af09050601261057c565b737f39c581f595b53c5cb19bd0b3f8da6c935e2c9f196001600160a01b038b16016105485750610bea9050601261057c565b60405162461bcd60e51b81526020600482015260096024820152681b9bdd0b599bdd5b9960ba1b60448201526064016103ce565b600087610589578361058b565b845b905089156105ba57806105a38b64e8d4a510006116b7565b6105ad91906116e4565b96505050505050506105e8565b6105c481846116b7565b6105cf83600a6117ea565b6105de8b64e8d4a510006116b7565b6105a391906116b7565b949350505050565b3373a45f7bd6a5ff45d31aace6bcd3d426d9328cea011480610625575033734f6f977acdd1177dcd81ab83074855ecb9c2d49e145b8061064357503073059a94a72951c0ae1cc1ce3bf0db52421bbe8210145b80610661575030739efde135ca4832abf0408c44c6f5f370eb0f35e8145b8061066a575060015b6106af5760405162461bcd60e51b81526020600482015260166024820152751b5cd9cb9cd95b99195c8b5b9bdd0b585b1b1bddd95960521b60448201526064016103ce565b604080516001808252818301909252600090826020808301908036833701905050905060008267ffffffffffffffff8111156106ed576106ed6115c1565b604051908082528060200260200182016040528015610716578160200160208202803683370190505b50905060008367ffffffffffffffff811115610734576107346115c1565b60405190808252806020026020018201604052801561076757816020015b60608152602001906001900390816107525790505b50905060008467ffffffffffffffff811115610785576107856115c1565b6040519080825280602002602001820160405280156107b857816020015b60608152602001906001900390816107a35790505b5090507f0000000000000000000000000000000000000000000000000000000000000000846000815181106107ef576107ef6117fd565b60200260200101906001600160a01b031690816001600160a01b031681525050600083600081518110610824576108246117fd565b602002602001018181525050604051806060016040528060248152602001611be7602491398260008151811061085c5761085c6117fd565b602090810291909101810191909152604080516000815291820181526108a5917f0000000000000000000000000000000000000000000000000000000000000000918101611859565b604051602081830303815290604052816000815181106108c7576108c76117fd565b6020908102919091010152604051636d4ab48d60e11b8152600090730204cd037b2ec03605cfdfe482d8e257c765fa1b9063da95691a906109149088908890889088908e9060040161192a565b6020604051808303816000875af1158015610933573d6000803e3d6000fd5b505050506040513d601f19601f820116820180604052508101906109579190611688565b9050602481146109a05760405162461bcd60e51b815260206004820152601460248201527350524f504f53414c5f49535f4e4f545f53414d4560601b60448201526064016103ce565b50505050505050565b604080516001808252818301909252600091816020015b610a096040518060e0016040528060006001600160a01b031681526020016000815260200160008152602001600081526020016000815260200160008152602001600081525090565b8152602001906001900390816109c05790505090506040518060e0016040528073917cee801a67f933f2e6b33fc0cd1ed2d5909d886001600160a01b031681526020016113888152602001611f408152602001600081526020016107d08152602001610fa0815260200161271081525081600081518110610a8c57610a8c6117fd565b6020908102919091010152604051639dde597760e01b81527352aa899454998be5b000ad077a46bbe360f4e49790639dde597790610ace9084906004016119c9565b600060405180830381600087803b158015610ae857600080fd5b505af1158015610afc573d6000803e3d6000fd5b506000935060019250610b0d915050565b604051908082528060200260200182016040528015610b7257816020015b610b5f604051806080016040528060006001600160a01b031681526020016000815260200160008152602001600081525090565b815260200190600190039081610b2b5790505b509050604051806080016040528073917cee801a67f933f2e6b33fc0cd1ed2d5909d886001600160a01b031681526020016103e88152602001601e815260200161271081525081600081518110610bcb57610bcb6117fd565b6020908102919091010152604051633fbdb00160e11b81527352aa899454998be5b000ad077a46bbe360f4e49790637f7b600290610c0d908490600401611a47565b600060405180830381600087803b158015610c2757600080fd5b505af1158015610c3b573d6000803e3d6000fd5b5050505050565b6000604051806102e0016040528073917cee801a67f933f2e6b33fc0cd1ed2d5909d886001600160a01b03168152602001600160ff1681526020016109c4815260200161a8c081526020016000815260200168a2a15d09519be000008152602001737f39c581f595b53c5cb19bd0b3f8da6c935e2ca06001600160a01b03168152602001600160ff1681526020016107d0815260200161a8c0815260200162970fe0815260200160008152602001629896808152602001600081526020016127108152602001612710815260200161238c8152602001612454815260200161251c81526020016101f481526020016064815260200160008152602001731d1130e8c310484ff2c0708b4e7cf1b07b0388736001600160a01b031681525090506000610d6c82610ff0565b90506001600160a01b038116610db95760405162461bcd60e51b81526020600482015260126024820152711d985d5b1d0b5b9bdd0b59195c1b1bde595960721b60448201526064016103ce565b5050565b604080516001600160a01b03831660208201529081018390526000906060016040516020818303038152906040528051906020012090505b92915050565b67ffffffffffffffff605b82901c811690609b83901c16811580610e1d575080155b15610e4057604051636a86ba8960e11b81526201117160048201526024016103ce565b61ffff8316603a84901c6401ffffffff16428181039160ea87901c617fff16911480610e6a575082155b80610e755750806001145b15610e8257505050915091565b64496cebb80084840283020484019350617fff60db87901c16925082600103610ead57505050915091565b82600116600103610f025760019290921c91826c7e37be2022c0914b268000000081610edb57610edb6116ce565b049250612710601e87901c613fff166b033b2e3c9fd0803ce8000000850102049250610f2f565b60019290921c916305f5e100601e87901c613fff166127108501026b033b2e3c9fd0803ce8000000020492505b80600116600103610f665760011c61271081016b033b2e3c9fd0803ce8000000820281610f5e57610f5e6116ce565b049050610f9c565b60011c61271081016b033b2e3c9fd0803ce8000000820281610f8a57610f8a6116ce565b046b033b2e3c9fd0803ce80000000390505b760a70c3c40a64e6c51999090b65f67d92400000000000008382026127100261ffff881691900402601087901c613fff16612710030292506801b5a660ea44b8000085840283020485019450505050915091565b805160c0820151604080516001600160a01b0393841660248201529290911660448084019190915281518084039091018152606490920181526020820180516001600160e01b031663f9f872f560e01b17905251634b465d6f60e11b815260009173324c5dc1fc42c7a4d43d92df1eba58a54d13bf2d9163968cbade9161109091732cc710218f2e3a82ccc77cc4b3b93ee6ba9451cd9190600401611aa7565b6020604051808303816000875af11580156110af573d6000803e3d6000fd5b505050506040513d601f19601f820116820180604052508101906110d39190611acb565b60408051600180825281830190925291925060009190816020015b6040805160c08101825260008082526020808301829052928201819052606082018190526080820181905260a082015282526000199092019101816110ee5790505090506040518060c00160405280836001600160a01b0316815260200184600001516001600160a01b03168152602001846020015160ff168152602001846040015181526020018460600151815260200161119985600001518660a00151876080015160016103e9565b815250816000815181106111af576111af6117fd565b60209081029190910101526040516301635db560e11b81527352aa899454998be5b000ad077a46bbe360f4e497906302c6bb6a906111f1908490600401611ae8565b600060405180830381600087803b15801561120b57600080fd5b505af115801561121f573d6000803e3d6000fd5b506000935060019250611230915050565b6040519080825280602002602001820160405280156112b657816020015b6112a36040518060e0016040528060006001600160a01b0316815260200160006001600160a01b03168152602001600060ff168152602001600081526020016000815260200160008152602001600081525090565b81526020019060019003908161124e5790505b5090506040518060e00160405280836001600160a01b031681526020018460c001516001600160a01b031681526020018460e0015160ff168152602001846101000151815260200184610120015181526020016113248560c0015186610160015187610140015160006103e9565b81526020016113448560c00151866101a0015187610180015160006103e9565b8152508160008151811061135a5761135a6117fd565b602090810291909101015260405162dc47c360e11b81527352aa899454998be5b000ad077a46bbe360f4e497906301b88f869061139b908490600401611b62565b600060405180830381600087803b1580156113b557600080fd5b505af11580156113c9573d6000803e3d6000fd5b505050506101c08301516101e08401516102008501516102208601516102408701516102608801516102808901516102a08a01516040516354b04ef560e01b81526004810198909852602488019690965260448701949094526064860192909252608485015260a484015260c483015260e48201526001600160a01b03831691506354b04ef59061010401600060405180830381600087803b15801561146e57600080fd5b505af1158015611482573d6000803e3d6000fd5b505050506102c082015160405163072d137f60e21b81526001600160a01b03918216600482015290821690631cb44dfc90602401600060405180830381600087803b1580156114d057600080fd5b505af11580156114e4573d6000803e3d6000fd5b505060405163b046a44960e01b815273264786ef916af64a1db19f513f24a3681734ce9260048201526001600160a01b038416925063b046a4499150602401600060405180830381600087803b15801561153d57600080fd5b505af1158015611551573d6000803e3d6000fd5b50505050919050565b6001600160a01b038116811461156f57600080fd5b50565b6000806000806080858703121561158857600080fd5b84356115938161155a565b93506020850135925060408501359150606085013580151581146115b657600080fd5b939692955090935050565b634e487b7160e01b600052604160045260246000fd5b6000602082840312156115e957600080fd5b813567ffffffffffffffff8082111561160157600080fd5b818401915084601f83011261161557600080fd5b813581811115611627576116276115c1565b604051601f8201601f19908116603f0116810190838211818310171561164f5761164f6115c1565b8160405282815287602084870101111561166857600080fd5b826020860160208301376000928101602001929092525095945050505050565b60006020828403121561169a57600080fd5b5051919050565b634e487b7160e01b600052601160045260246000fd5b8082028115828204841417610df557610df56116a1565b634e487b7160e01b600052601260045260246000fd5b60008261170157634e487b7160e01b600052601260045260246000fd5b500490565b600181815b80851115611741578160001904821115611727576117276116a1565b8085161561173457918102915b93841c939080029061170b565b509250929050565b60008261175857506001610df5565b8161176557506000610df5565b816001811461177b5760028114611785576117a1565b6001915050610df5565b60ff841115611796576117966116a1565b50506001821b610df5565b5060208310610133831016604e8410600b84101617156117c4575081810a610df5565b6117ce8383611706565b80600019048211156117e2576117e26116a1565b029392505050565b60006117f68383611749565b9392505050565b634e487b7160e01b600052603260045260246000fd5b6000815180845260005b818110156118395760208185018101518683018201520161181d565b506000602082860101526020601f19601f83011685010191505092915050565b60018060a01b038316815260606020820152600960608201526865786563757465282960b81b608082015260a0604082015260006105e860a0830184611813565b600081518084526020808501945080840160005b838110156118ca578151875295820195908201906001016118ae565b509495945050505050565b600081518084526020808501808196508360051b8101915082860160005b8581101561191d57828403895261190b848351611813565b988501989350908401906001016118f3565b5091979650505050505050565b60a0808252865190820181905260009060209060c0840190828a01845b8281101561196c5781516001600160a01b031684529284019290840190600101611947565b50505083810382850152611980818961189a565b915050828103604084015261199581876118d5565b905082810360608401526119a981866118d5565b905082810360808401526119bd8185611813565b98975050505050505050565b602080825282518282018190526000919060409081850190868401855b8281101561191d57815180516001600160a01b0316855286810151878601528581015186860152606080820151908601526080808201519086015260a0808201519086015260c0908101519085015260e090930192908501906001016119e6565b602080825282518282018190526000919060409081850190868401855b8281101561191d57815180516001600160a01b03168552868101518786015285810151868601526060908101519085015260809093019290850190600101611a64565b6001600160a01b03831681526040602082018190526000906105e890830184611813565b600060208284031215611add57600080fd5b81516117f68161155a565b602080825282518282018190526000919060409081850190868401855b8281101561191d57815180516001600160a01b0390811686528782015116878601528581015160ff1686860152606080820151908601526080808201519086015260a0908101519085015260c09093019290850190600101611b05565b602080825282518282018190526000919060409081850190868401855b8281101561191d57815180516001600160a01b0390811686528782015116878601528581015160ff1686860152606080820151908601526080808201519086015260a0808201519086015260c0908101519085015260e09093019290850190600101611b7f56fe657865637574655061796c6f616428616464726573732c737472696e672c627974657329a26469706673582212200036eaaa9a079c5f7b8df75dd37d18a4b4a59c5e97f14ba332c296f3a386951c64736f6c63430008150033","abi":[{"inputs":[],"stateMutability":"nonpayable","type":"constructor"},{"inputs":[{"internalType":"uint256","name":"errorId_","type":"uint256"}],"name":"FluidLiquidityCalcsError","type":"error"},{"inputs":[],"name":"ADDRESS_THIS","outputs":[{"internalType":"address","name":"","type":"address"}],"stateMutability":"view","type":"function"},{"inputs":[],"name":"ETH_ADDRESS","outputs":[{"internalType":"address","name":"","type":"address"}],"stateMutability":"view","type":"function"},{"inputs":[],"name":"FLUID_RESERVE","outputs":[{"internalType":"contract IFluidReserveContract","name":"","type":"address"}],"stateMutability":"view","type":"function"},{"inputs":[],"name":"GOVERNOR","outputs":[{"internalType":"contract IGovernorBravo","name":"","type":"address"}],"stateMutability":"view","type":"function"},{"inputs":[],"name":"LIQUIDITY","outputs":[{"internalType":"contract IFluidLiquidityAdmin","name":"","type":"address"}],"stateMutability":"view","type":"function"},{"inputs":[],"name":"PROPOSAL_ID","outputs":[{"internalType":"uint256","name":"","type":"uint256"}],"stateMutability":"view","type":"function"},{"inputs":[],"name":"PROPOSER","outputs":[{"internalType":"address","name":"","type":"address"}],"stateMutability":"view","type":"function"},{"inputs":[],"name":"PROPOSER_AVO_MULTISIG","outputs":[{"internalType":"address","name":"","type":"address"}],"stateMutability":"view","type":"function"},{"inputs":[],"name":"PROPOSER_AVO_MULTISIG_2","outputs":[{"internalType":"address","name":"","type":"address"}],"stateMutability":"view","type":"function"},{"inputs":[],"name":"PROPOSER_AVO_MULTISIG_3","outputs":[{"internalType":"address","name":"","type":"address"}],"stateMutability":"view","type":"function"},{"inputs":[],"name":"TEAM_MULTISIG","outputs":[{"internalType":"address","name":"","type":"address"}],"stateMutability":"view","type":"function"},{"inputs":[],"name":"TIMELOCK","outputs":[{"internalType":"contract ITimelock","name":"","type":"address"}],"stateMutability":"view","type":"function"},{"inputs":[],"name":"TREASURY","outputs":[{"internalType":"contract IDSAV2","name":"","type":"address"}],"stateMutability":"view","type":"function"},{"inputs":[],"name":"VAULT_T1_DEPLOYMENT_LOGIC","outputs":[{"internalType":"contract IFluidVaultT1DeploymentLogic","name":"","type":"address"}],"stateMutability":"view","type":"function"},{"inputs":[],"name":"VAULT_T1_FACTORY","outputs":[{"internalType":"contract IFluidVaultT1Factory","name":"","type":"address"}],"stateMutability":"view","type":"function"},{"inputs":[],"name":"execute","outputs":[],"stateMutability":"nonpayable","type":"function"},{"inputs":[{"internalType":"address","name":"token","type":"address"},{"internalType":"uint256","name":"amount","type":"uint256"},{"internalType":"uint256","name":"amountInUSD","type":"uint256"},{"internalType":"bool","name":"isSupply","type":"bool"}],"name":"getRawAmount","outputs":[{"internalType":"uint256","name":"","type":"uint256"}],"stateMutability":"view","type":"function"},{"inputs":[{"internalType":"string","name":"description","type":"string"}],"name":"propose","outputs":[],"stateMutability":"nonpayable","type":"function"},{"inputs":[],"name":"verifyProposal","outputs":[],"stateMutability":"view","type":"function"},{"inputs":[],"name":"weETHs_ADDRESS","outputs":[{"internalType":"address","name":"","type":"address"}],"stateMutability":"view","type":"function"},{"inputs":[],"name":"wstETH_ADDRESS","outputs":[{"internalType":"address","name":"","type":"address"}],"stateMutability":"view","type":"function"}]}