{"address":"0x956a9d64D8061aEDD43B5b63576Ae71a9B73AFb8","bytecode":"0x60c06040527f2386dc45added673317ef068992f19421b481f4c00000000000000000000000060805234801561003457600080fd5b5030606081811b60a052608051901c90610e0a61006b600039806105c7528061070652508061034352806105185250610e0a6000f3fe608060405234801561001057600080fd5b50600436106101165760003560e01c80637aadef8b116100a2578063b788f3a111610071578063b788f3a1146101c0578063bffa7f0f146101c8578063cc025f7c146101d0578063d9091d57146101d8578063f474d2fd146101e057610116565b80637aadef8b146101955780637be875ff1461019d5780637e2f35fa146101a5578063aa98df39146101ad57610116565b806353588752116100e9578063535887521461015e578063614619541461017357806366760d7d1461017d5780636dc0ae22146101855780637a54f8c91461018d57610116565b80630680f4171461011b5780630bc9136e146101395780633b1269bf1461014e5780635028197814610156575b600080fd5b6101236101e8565b6040516101309190610c0f565b60405180910390f35b610141610200565b6040516101309190610da7565b610123610205565b61012361021d565b610166610235565b6040516101309190610d2f565b61017b6102ef565b005b61017b61030f565b610123610311565b610123610329565b610123610341565b610123610365565b61012361037d565b61017b6101bb366004610a0b565b610395565b6101236106d4565b6101236106ec565b610123610704565b610166610728565b610123610818565b73a0d3707c569ff8c87fa923d3823ec5d81c98be7881565b600d81565b736a64a3e0af38279ac7455c85b2c683f5621ce2e781565b7340d9b8417e6e1dcd358f04e3328bced061018a8281565b60408051600280825260608083018452926020830190803683370190505090507f05e3b28207a8c944c4170e2b0569d4dbc2e9d800973f9b87a4250eb41de54b1a8160008151811061028357fe5b60200260200101906001600160e01b03191690816001600160e01b031916815250507f9b47a13a1e03c1e6a9d98f69e668da9fe74c9fcaf9adf62f6f218562444f79b6816001815181106102d357fe5b6001600160e01b03199092166020928302919091019091015290565b6102f7610830565b6102ff61093e565b610307610975565b61030f6109c0565b565b730204cd037b2ec03605cfdfe482d8e257c765fa1b81565b73322f7fcea001bebb63413f42b0028e5a81b933ef81565b7f000000000000000000000000000000000000000000000000000000000000000081565b730f1679fb1d5b2981423c757e8ea91979fabdb2d181565b73059a94a72951c0ae1cc1ce3bf0db52421bbe821081565b3373a45f7bd6a5ff45d31aace6bcd3d426d9328cea0114806103ca575033734f6f977acdd1177dcd81ab83074855ecb9c2d49e145b806103e857503073059a94a72951c0ae1cc1ce3bf0db52421bbe8210145b61040d5760405162461bcd60e51b815260040161040490610d49565b60405180910390fd5b604080516001808252818301909252606090826020808301908036833701905050905060608267ffffffffffffffff8111801561044957600080fd5b50604051908082528060200260200182016040528015610473578160200160208202803683370190505b50905060608367ffffffffffffffff8111801561048f57600080fd5b506040519080825280602002602001820160405280156104c357816020015b60608152602001906001900390816104ae5790505b50905060608467ffffffffffffffff811180156104df57600080fd5b5060405190808252806020026020018201604052801561051357816020015b60608152602001906001900390816104fe5790505b5090507f00000000000000000000000000000000000000000000000000000000000000008460008151811061054457fe5b60200260200101906001600160a01b031690816001600160a01b03168152505060008360008151811061057357fe5b602002602001018181525050604051806060016040528060248152602001610db160249139826000815181106105a557fe5b602090810291909101810191909152604080516000815291820181526105ee917f0000000000000000000000000000000000000000000000000000000000000000918101610c4f565b6040516020818303038152906040528160008151811061060a57fe5b6020908102919091010152604051636d4ab48d60e11b8152600090730204cd037b2ec03605cfdfe482d8e257c765fa1b9063da95691a906106579088908890889088908e90600401610c90565b602060405180830381600087803b15801561067157600080fd5b505af1158015610685573d6000803e3d6000fd5b505050506040513d601f19601f820116820180604052508101906106a99190610aa0565b9050600d81146106cb5760405162461bcd60e51b815260040161040490610d79565b50505050505050565b734f6f977acdd1177dcd81ab83074855ecb9c2d49e81565b73a45f7bd6a5ff45d31aace6bcd3d426d9328cea0181565b7f000000000000000000000000000000000000000000000000000000000000000081565b604080516003808252608082019092526060916020820183803683370190505090507f7e2efbf5549345e9287ad4b3e9ed98e31cc0a1a2efb79a2c44836b61d5dc71ca8160008151811061077857fe5b60200260200101906001600160e01b03191690816001600160e01b031916815250507ffcda7e942596b6c734b5ed4d6e314ee9596ade0715cf3a6e96da8846d160647d816001815181106107c857fe5b60200260200101906001600160e01b03191690816001600160e01b031916815250507fc74c80f15680b67804c2c5bc80162582406e268900c0466b1a16ded013bca611816002815181106102d357fe5b73d58ca26c8e888fb628753f08816bed4a07d0e4af81565b60405163110bad1960e11b815273a0d3707c569ff8c87fa923d3823ec5d81c98be78906322175a329061087b90736a64a3e0af38279ac7455c85b2c683f5621ce2e790600401610c0f565b600060405180830381600087803b15801561089557600080fd5b505af11580156108a9573d6000803e3d6000fd5b5050505073a0d3707c569ff8c87fa923d3823ec5d81c98be786001600160a01b031663f0c01b42736a64a3e0af38279ac7455c85b2c683f5621ce2e76108ed610235565b6040518363ffffffff1660e01b815260040161090a929190610c23565b600060405180830381600087803b15801561092457600080fd5b505af1158015610938573d6000803e3d6000fd5b50505050565b73a0d3707c569ff8c87fa923d3823ec5d81c98be7863f0c01b42730f1679fb1d5b2981423c757e8ea91979fabdb2d16108ed610728565b60405163c39aa07d60e01b815273a0d3707c569ff8c87fa923d3823ec5d81c98be789063c39aa07d9061090a9073d58ca26c8e888fb628753f08816bed4a07d0e4af90600401610c0f565b60405163072d137f60e21b81527340d9b8417e6e1dcd358f04e3328bced061018a8290631cb44dfc9061090a9073322f7fcea001bebb63413f42b0028e5a81b933ef90600401610c0f565b60006020808385031215610a1d578182fd5b823567ffffffffffffffff80821115610a34578384fd5b818501915085601f830112610a47578384fd5b813581811115610a5357fe5b604051601f8201601f1916810185018381118282101715610a7057fe5b6040528181528382018501881015610a86578586fd5b818585018683013790810190930193909352509392505050565b600060208284031215610ab1578081fd5b5051919050565b6000815180845260208085019450808401835b83811015610af15781516001600160e01b03191687529582019590820190600101610acb565b509495945050505050565b6000815180845260208085018081965082840281019150828601855b85811015610b42578284038952610b30848351610bc4565b98850198935090840190600101610b18565b5091979650505050505050565b6000815180845260208085018081965082840281019150828601855b85811015610b42578284038952610b83848351610bc4565b98850198935090840190600101610b6b565b6000815180845260208085019450808401835b83811015610af157815187529582019590820190600101610ba8565b60008151808452815b81811015610be957602081850181015186830182015201610bcd565b81811115610bfa5782602083870101525b50601f01601f19169290920160200192915050565b6001600160a01b0391909116815260200190565b6001600160a01b0383168152604060208201819052600090610c4790830184610ab8565b949350505050565b600060018060a01b038416825260606020830152600960608301526865786563757465282960b81b608083015260a06040830152610c4760a0830184610bc4565b60a0808252865190820181905260009060209060c0840190828a01845b82811015610cd25781516001600160a01b031684529284019290840190600101610cad565b50505083810382850152610ce68189610b95565b9150508281036040840152610cfb8187610b4f565b90508281036060840152610d0f8186610afc565b90508281036080840152610d238185610bc4565b98975050505050505050565b600060208252610d426020830184610ab8565b9392505050565b6020808252601690820152751b5cd9cb9cd95b99195c8b5b9bdd0b585b1b1bddd95960521b604082015260600190565b60208082526014908201527350524f504f53414c5f49535f4e4f545f53414d4560601b604082015260600190565b9081526020019056fe657865637574655061796c6f616428616464726573732c737472696e672c627974657329a264697066735822122093b05ba1fec7d1005cb7bd1ed3ae350dfa94a4a160bfd4d86d4e09c95ea9033b64736f6c63430007030033","abi":[{"inputs":[],"stateMutability":"nonpayable","type":"constructor"},{"inputs":[],"name":"ADDRESS_THIS","outputs":[{"internalType":"address","name":"","type":"address"}],"stateMutability":"view","type":"function"},{"inputs":[],"name":"DUMMY_IMPLEMENTATION","outputs":[{"internalType":"address","name":"","type":"address"}],"stateMutability":"view","type":"function"},{"inputs":[],"name":"FLUID_STETH_MODULE","outputs":[{"internalType":"address","name":"","type":"address"}],"stateMutability":"view","type":"function"},{"inputs":[],"name":"GOVERNOR","outputs":[{"internalType":"contract IGovernorBravo","name":"","type":"address"}],"stateMutability":"view","type":"function"},{"inputs":[],"name":"LITE","outputs":[{"internalType":"contract ILite","name":"","type":"address"}],"stateMutability":"view","type":"function"},{"inputs":[],"name":"PROPOSAL_ID","outputs":[{"internalType":"uint256","name":"","type":"uint256"}],"stateMutability":"view","type":"function"},{"inputs":[],"name":"PROPOSER","outputs":[{"internalType":"address","name":"","type":"address"}],"stateMutability":"view","type":"function"},{"inputs":[],"name":"PROPOSER_AVO_MULTISIG","outputs":[{"internalType":"address","name":"","type":"address"}],"stateMutability":"view","type":"function"},{"inputs":[],"name":"TEAM_MULTISIG","outputs":[{"internalType":"address","name":"","type":"address"}],"stateMutability":"view","type":"function"},{"inputs":[],"name":"TIMELOCK","outputs":[{"internalType":"contract ITimelock","name":"","type":"address"}],"stateMutability":"view","type":"function"},{"inputs":[],"name":"VAULT_WEETH_WSTETH","outputs":[{"internalType":"address","name":"","type":"address"}],"stateMutability":"view","type":"function"},{"inputs":[],"name":"VAULT_WEETH_WSTETH_ORACLE","outputs":[{"internalType":"address","name":"","type":"address"}],"stateMutability":"view","type":"function"},{"inputs":[],"name":"WITHDRAWALS_MODULE","outputs":[{"internalType":"address","name":"","type":"address"}],"stateMutability":"view","type":"function"},{"inputs":[],"name":"execute","outputs":[],"stateMutability":"nonpayable","type":"function"},{"inputs":[],"name":"fluidStETHSigs","outputs":[{"internalType":"bytes4[]","name":"sigs_","type":"bytes4[]"}],"stateMutability":"pure","type":"function"},{"inputs":[{"internalType":"string","name":"description","type":"string"}],"name":"propose","outputs":[],"stateMutability":"nonpayable","type":"function"},{"inputs":[],"name":"verifyProposal","outputs":[],"stateMutability":"view","type":"function"},{"inputs":[],"name":"withdrawalsSigs","outputs":[{"internalType":"bytes4[]","name":"sigs_","type":"bytes4[]"}],"stateMutability":"pure","type":"function"}]}