{"address":"0x8fc50bF713be6B8e7b19C687d60fC26EedA0FE48","bytecode":"0x60c06040527f2386dc45added673317ef068992f19421b481f4c00000000000000000000000060805234801561003457600080fd5b5030606081811b60a052608051901c90611ca96100706000398061055052806106d752508061021b52806102bd52806104a15250611ca96000f3fe608060405234801561001057600080fd5b50600436106101165760003560e01c80638a1c7364116100a2578063bb09d9b711610071578063bb09d9b7146101b3578063bffa7f0f146101bb578063c1892058146101c3578063cc025f7c146101cb578063dca95fbf146101d357610116565b80638a1c736414610188578063aa98df3914610190578063aae7ae07146101a3578063b788f3a1146101ab57610116565b806366760d7d116100e957806366760d7d146101605780636dc0ae22146101685780637aadef8b146101705780637e2f35fa1461017857806383ba27d81461018057610116565b80630bc9136e1461011b5780632861c7d114610139578063474585e21461014e5780636146195414610156575b600080fd5b6101236101db565b6040516101309190611c46565b60405180910390f35b6101416101e0565b604051610130919061184c565b6101416101f8565b61015e610210565b005b61015e6102a1565b6101416102a3565b6101416102bb565b6101416102df565b6101416102f7565b61014161030f565b61015e61019e36600461167b565b610327565b61014161065d565b610141610675565b61014161068d565b6101416106a5565b6101416106bd565b6101416106d5565b6101416106f9565b600f81565b7352aa899454998be5b000ad077a46bbe360f4e49781565b7315f6f562ae136240ab9f4905cb50aca54bcbeb5f81565b306001600160a01b037f000000000000000000000000000000000000000000000000000000000000000016146102615760405162461bcd60e51b815260040161025890611c1c565b60405180910390fd5b610269610711565b610271610824565b6102796108e2565b6102816108ea565b6102896108f2565b61029161098e565b610299610a2a565b6102a1610aa9565b565b730204cd037b2ec03605cfdfe482d8e257c765fa1b81565b7f000000000000000000000000000000000000000000000000000000000000000081565b73059a94a72951c0ae1cc1ce3bf0db52421bbe821081565b739fb7b4477576fe5b32be4c1843afb1e55f251b3381565b73324c5dc1fc42c7a4d43d92df1eba58a54d13bf2d81565b3373a45f7bd6a5ff45d31aace6bcd3d426d9328cea01148061035c575033734f6f977acdd1177dcd81ab83074855ecb9c2d49e145b8061037a57503073059a94a72951c0ae1cc1ce3bf0db52421bbe8210145b6103965760405162461bcd60e51b815260040161025890611bbe565b604080516001808252818301909252606090826020808301908036833701905050905060608267ffffffffffffffff811180156103d257600080fd5b506040519080825280602002602001820160405280156103fc578160200160208202803683370190505b50905060608367ffffffffffffffff8111801561041857600080fd5b5060405190808252806020026020018201604052801561044c57816020015b60608152602001906001900390816104375790505b50905060608467ffffffffffffffff8111801561046857600080fd5b5060405190808252806020026020018201604052801561049c57816020015b60608152602001906001900390816104875790505b5090507f0000000000000000000000000000000000000000000000000000000000000000846000815181106104cd57fe5b60200260200101906001600160a01b031690816001600160a01b0316815250506000836000815181106104fc57fe5b602002602001018181525050604051806060016040528060248152602001611c50602491398260008151811061052e57fe5b60209081029190910181019190915260408051600081529182018152610577917f00000000000000000000000000000000000000000000000000000000000000009181016118ca565b6040516020818303038152906040528160008151811061059357fe5b6020908102919091010152604051636d4ab48d60e11b8152600090730204cd037b2ec03605cfdfe482d8e257c765fa1b9063da95691a906105e09088908890889088908e9060040161190b565b602060405180830381600087803b1580156105fa57600080fd5b505af115801561060e573d6000803e3d6000fd5b505050506040513d601f19601f820116820180604052508101906106329190611710565b9050600f81146106545760405162461bcd60e51b815260040161025890611bee565b50505050505050565b735c20b550819128074fd538edf79791733ccedd1881565b734f6f977acdd1177dcd81ab83074855ecb9c2d49e81565b73a0b86991c6218b36c1d19d4a2e9eb0ce3606eb4881565b73a45f7bd6a5ff45d31aace6bcd3d426d9328cea0181565b73dac17f958d2ee523a2206206994597c13d831ec781565b7f000000000000000000000000000000000000000000000000000000000000000081565b739d39a5de30e57443bff2a8307a4256c8797a349781565b604080516001808252818301909252606091816020015b610730611540565b8152602001906001900390816107285790505090506040518060e00160405280739d39a5de30e57443bff2a8307a4256c8797a34976001600160a01b031681526020016113888152602001611f408152602001600081526020016107d08152602001610fa08152602001612710815250816000815181106107ad57fe5b6020908102919091010152604051639dde597760e01b81527352aa899454998be5b000ad077a46bbe360f4e49790639dde5977906107ef9084906004016119aa565b600060405180830381600087803b15801561080957600080fd5b505af115801561081d573d6000803e3d6000fd5b5050505050565b604080516001808252818301909252606091816020015b610843611586565b81526020019060019003908161083b5790505090506040518060600160405280739d39a5de30e57443bff2a8307a4256c8797a34976001600160a01b031681526020016103e88152602001601e815250816000815181106108a057fe5b60209081029190910101526040516338b7e8e760e01b81527352aa899454998be5b000ad077a46bbe360f4e497906338b7e8e7906107ef908490600401611a35565b6102a1610af4565b6102a161101a565b604080516001808252818301909252606091816020015b610911611540565b8152602001906001900390816109095790505090506040518060e0016040528073a0b86991c6218b36c1d19d4a2e9eb0ce3606eb486001600160a01b03168152602001611f4081526020016124548152602001600081526020016103e881526020016105dc81526020016109c4815250816000815181106107ad57fe5b604080516001808252818301909252606091816020015b6109ad611540565b8152602001906001900390816109a55790505090506040518060e0016040528073dac17f958d2ee523a2206206994597c13d831ec76001600160a01b03168152602001611f4081526020016124548152602001600081526020016103e881526020016105dc81526020016109c4815250816000815181106107ad57fe5b604051635fd6196560e01b8152739fb7b4477576fe5b32be4c1843afb1e55f251b3390635fd6196590610a7590736cc89782495a2162b2a4f5b206e2a06dc86750909060040161184c565b600060405180830381600087803b158015610a8f57600080fd5b505af1158015610aa3573d6000803e3d6000fd5b50505050565b604051635fd6196560e01b8152735c20b550819128074fd538edf79791733ccedd1890635fd6196590610a7590736cc89782495a2162b2a4f5b206e2a06dc86750909060040161184c565b600073324c5dc1fc42c7a4d43d92df1eba58a54d13bf2d6001600160a01b031663968cbade7315f6f562ae136240ab9f4905cb50aca54bcbeb5f63f9f872f560e01b739d39a5de30e57443bff2a8307a4256c8797a349773a0b86991c6218b36c1d19d4a2e9eb0ce3606eb48604051602401610b71929190611860565b60408051601f198184030181529181526020820180516001600160e01b03166001600160e01b03199485161790525160e085901b9092168252610bb7929160040161189e565b602060405180830381600087803b158015610bd157600080fd5b505af1158015610be5573d6000803e3d6000fd5b505050506040513d601f19601f82011682018060405250810190610c09919061164d565b60408051600180825281830190925291925060609190816020015b610c2c6115b0565b815260200190600190039081610c245790505090506040518060c00160405280836001600160a01b03168152602001739d39a5de30e57443bff2a8307a4256c8797a34976001600160a01b03168152602001600160ff1681526020016109c4815260200161a8c081526020016a06342fd08f00f63780000081525081600081518110610cb457fe5b60209081029190910101526040516301635db560e11b81527352aa899454998be5b000ad077a46bbe360f4e497906302c6bb6a90610cf6908490600401611b0e565b600060405180830381600087803b158015610d1057600080fd5b505af1158015610d24573d6000803e3d6000fd5b50505050506060600167ffffffffffffffff81118015610d4357600080fd5b50604051908082528060200260200182016040528015610d7d57816020015b610d6a6115fb565b815260200190600190039081610d625790505b5090506040518060e00160405280836001600160a01b0316815260200173a0b86991c6218b36c1d19d4a2e9eb0ce3606eb486001600160a01b03168152602001600160ff1681526020016107d0815260200161a8c081526020016506d23ad5f80081526020016512309ce5400081525081600081518110610dfa57fe5b602090810291909101015260405162dc47c360e11b81527352aa899454998be5b000ad077a46bbe360f4e497906301b88f8690610e3b908490600401611a8a565b600060405180830381600087803b158015610e5557600080fd5b505af1158015610e69573d6000803e3d6000fd5b50506040516354b04ef560e01b81526001600160a01b03851693506354b04ef59250610eb49150612710908190612260906123289061251c906101f49060c890600090600401611b88565b600060405180830381600087803b158015610ece57600080fd5b505af1158015610ee2573d6000803e3d6000fd5b505060405163072d137f60e21b81526001600160a01b0384169250631cb44dfc9150610f2690737779ec4694752a118580cc8ad28b9a11f7e3bb129060040161184c565b600060405180830381600087803b158015610f4057600080fd5b505af1158015610f54573d6000803e3d6000fd5b505060405163b046a44960e01b81526001600160a01b038416925063b046a4499150610f989073264786ef916af64a1db19f513f24a3681734ce929060040161184c565b600060405180830381600087803b158015610fb257600080fd5b505af1158015610fc6573d6000803e3d6000fd5b5050604051637faa1d2160e01b815273324c5dc1fc42c7a4d43d92df1eba58a54d13bf2d9250637faa1d2191506107ef9084907336639dad77ec858574aaf07a68bba62b7db19ffa9060019060040161187a565b600073324c5dc1fc42c7a4d43d92df1eba58a54d13bf2d6001600160a01b031663968cbade7315f6f562ae136240ab9f4905cb50aca54bcbeb5f63f9f872f560e01b739d39a5de30e57443bff2a8307a4256c8797a349773dac17f958d2ee523a2206206994597c13d831ec7604051602401611097929190611860565b60408051601f198184030181529181526020820180516001600160e01b03166001600160e01b03199485161790525160e085901b90921682526110dd929160040161189e565b602060405180830381600087803b1580156110f757600080fd5b505af115801561110b573d6000803e3d6000fd5b505050506040513d601f19601f8201168201806040525081019061112f919061164d565b60408051600180825281830190925291925060609190816020015b6111526115b0565b81526020019060019003908161114a5790505090506040518060c00160405280836001600160a01b03168152602001739d39a5de30e57443bff2a8307a4256c8797a34976001600160a01b03168152602001600160ff1681526020016109c4815260200161a8c081526020016a06342fd08f00f637800000815250816000815181106111da57fe5b60209081029190910101526040516301635db560e11b81527352aa899454998be5b000ad077a46bbe360f4e497906302c6bb6a9061121c908490600401611b0e565b600060405180830381600087803b15801561123657600080fd5b505af115801561124a573d6000803e3d6000fd5b50505050506060600167ffffffffffffffff8111801561126957600080fd5b506040519080825280602002602001820160405280156112a357816020015b6112906115fb565b8152602001906001900390816112885790505b5090506040518060e00160405280836001600160a01b0316815260200173dac17f958d2ee523a2206206994597c13d831ec76001600160a01b03168152602001600160ff1681526020016107d0815260200161a8c081526020016506d23ad5f80081526020016512309ce540008152508160008151811061132057fe5b602090810291909101015260405162dc47c360e11b81527352aa899454998be5b000ad077a46bbe360f4e497906301b88f8690611361908490600401611a8a565b600060405180830381600087803b15801561137b57600080fd5b505af115801561138f573d6000803e3d6000fd5b50506040516354b04ef560e01b81526001600160a01b03851693506354b04ef592506113da9150612710908190612260906123289061251c906101f49060c890600090600401611b88565b600060405180830381600087803b1580156113f457600080fd5b505af1158015611408573d6000803e3d6000fd5b505060405163072d137f60e21b81526001600160a01b0384169250631cb44dfc915061144c90737779ec4694752a118580cc8ad28b9a11f7e3bb129060040161184c565b600060405180830381600087803b15801561146657600080fd5b505af115801561147a573d6000803e3d6000fd5b505060405163b046a44960e01b81526001600160a01b038416925063b046a44991506114be9073264786ef916af64a1db19f513f24a3681734ce929060040161184c565b600060405180830381600087803b1580156114d857600080fd5b505af11580156114ec573d6000803e3d6000fd5b5050604051637faa1d2160e01b815273324c5dc1fc42c7a4d43d92df1eba58a54d13bf2d9250637faa1d2191506107ef90849073afe3974f4916140a093f1de7fc064a3da220dd419060019060040161187a565b6040518060e0016040528060006001600160a01b031681526020016000815260200160008152602001600081526020016000815260200160008152602001600081525090565b604051806060016040528060006001600160a01b0316815260200160008152602001600081525090565b6040518060c0016040528060006001600160a01b0316815260200160006001600160a01b03168152602001600060ff1681526020016000815260200160008152602001600081525090565b6040518060e0016040528060006001600160a01b0316815260200160006001600160a01b03168152602001600060ff168152602001600081526020016000815260200160008152602001600081525090565b60006020828403121561165e578081fd5b81516001600160a01b0381168114611674578182fd5b9392505050565b6000602080838503121561168d578182fd5b823567ffffffffffffffff808211156116a4578384fd5b818501915085601f8301126116b7578384fd5b8135818111156116c357fe5b604051601f8201601f19168101850183811182821017156116e057fe5b60405281815283820185018810156116f6578586fd5b818585018683013790810190930193909352509392505050565b600060208284031215611721578081fd5b5051919050565b60008282518085526020808601955080818302840101818601855b8481101561177157601f1986840301895261175f838351611801565b98840198925090830190600101611743565b5090979650505050505050565b60008282518085526020808601955080818302840101818601855b8481101561177157601f198684030189526117b5838351611801565b98840198925090830190600101611799565b6000815180845260208085019450808401835b838110156117f6578151875295820195908201906001016117da565b509495945050505050565b60008151808452815b818110156118265760208185018101518683018201520161180a565b818111156118375782602083870101525b50601f01601f19169290920160200192915050565b6001600160a01b0391909116815260200190565b6001600160a01b0392831681529116602082015260400190565b6001600160a01b039384168152919092166020820152901515604082015260600190565b6001600160a01b03831681526040602082018190526000906118c290830184611801565b949350505050565b600060018060a01b038416825260606020830152600960608301526865786563757465282960b81b608083015260a060408301526118c260a0830184611801565b60a0808252865190820181905260009060209060c0840190828a01845b8281101561194d5781516001600160a01b031684529284019290840190600101611928565b5050508381038285015261196181896117c7565b9150508281036040840152611976818761177e565b9050828103606084015261198a8186611728565b9050828103608084015261199e8185611801565b98975050505050505050565b602080825282518282018190526000919060409081850190868401855b82811015611a2857815180516001600160a01b0316855286810151878601528581015186860152606080820151908601526080808201519086015260a0808201519086015260c0908101519085015260e090930192908501906001016119c7565b5091979650505050505050565b602080825282518282018190526000919060409081850190868401855b82811015611a2857815180516001600160a01b0316855286810151878601528501518585015260609093019290850190600101611a52565b602080825282518282018190526000919060409081850190868401855b82811015611a2857815180516001600160a01b0390811686528782015116878601528581015160ff1686860152606080820151908601526080808201519086015260a0808201519086015260c0908101519085015260e09093019290850190600101611aa7565b602080825282518282018190526000919060409081850190868401855b82811015611a2857815180516001600160a01b0390811686528782015116878601528581015160ff1686860152606080820151908601526080808201519086015260a0908101519085015260c09093019290850190600101611b2b565b978852602088019690965260408701949094526060860192909252608085015260a084015260c083015260e08201526101000190565b6020808252601690820152751b5cd9cb9cd95b99195c8b5b9bdd0b585b1b1bddd95960521b604082015260600190565b60208082526014908201527350524f504f53414c5f49535f4e4f545f53414d4560601b604082015260600190565b60208082526010908201526f3737ba16bb30b634b216b1b0b63632b960811b604082015260600190565b9081526020019056fe657865637574655061796c6f616428616464726573732c737472696e672c627974657329a2646970667358221220a407bf8ff62a0c169f80d10df51a9d121add376da420b7887714e0680665a73f64736f6c63430007030033","abi":[{"inputs":[],"stateMutability":"nonpayable","type":"constructor"},{"inputs":[],"name":"ADDRESS_THIS","outputs":[{"internalType":"address","name":"","type":"address"}],"stateMutability":"view","type":"function"},{"inputs":[],"name":"F_USDC","outputs":[{"internalType":"address","name":"","type":"address"}],"stateMutability":"view","type":"function"},{"inputs":[],"name":"F_USDT","outputs":[{"internalType":"address","name":"","type":"address"}],"stateMutability":"view","type":"function"},{"inputs":[],"name":"GOVERNOR","outputs":[{"internalType":"contract IGovernorBravo","name":"","type":"address"}],"stateMutability":"view","type":"function"},{"inputs":[],"name":"LIQUIDITY","outputs":[{"internalType":"contract IFluidLiquidityAdmin","name":"","type":"address"}],"stateMutability":"view","type":"function"},{"inputs":[],"name":"PROPOSAL_ID","outputs":[{"internalType":"uint256","name":"","type":"uint256"}],"stateMutability":"view","type":"function"},{"inputs":[],"name":"PROPOSER","outputs":[{"internalType":"address","name":"","type":"address"}],"stateMutability":"view","type":"function"},{"inputs":[],"name":"PROPOSER_AVO_MULTISIG","outputs":[{"internalType":"address","name":"","type":"address"}],"stateMutability":"view","type":"function"},{"inputs":[],"name":"TEAM_MULTISIG","outputs":[{"internalType":"address","name":"","type":"address"}],"stateMutability":"view","type":"function"},{"inputs":[],"name":"TIMELOCK","outputs":[{"internalType":"contract ITimelock","name":"","type":"address"}],"stateMutability":"view","type":"function"},{"inputs":[],"name":"USDC_ADDRESS","outputs":[{"internalType":"address","name":"","type":"address"}],"stateMutability":"view","type":"function"},{"inputs":[],"name":"USDT_ADDRESS","outputs":[{"internalType":"address","name":"","type":"address"}],"stateMutability":"view","type":"function"},{"inputs":[],"name":"VAULT_T1_DEPLOYMENT_LOGIC","outputs":[{"internalType":"contract IFluidVaultT1DeploymentLogic","name":"","type":"address"}],"stateMutability":"view","type":"function"},{"inputs":[],"name":"VAULT_T1_FACTORY","outputs":[{"internalType":"contract IFluidVaultT1Factory","name":"","type":"address"}],"stateMutability":"view","type":"function"},{"inputs":[],"name":"execute","outputs":[],"stateMutability":"nonpayable","type":"function"},{"inputs":[{"internalType":"string","name":"description","type":"string"}],"name":"propose","outputs":[],"stateMutability":"nonpayable","type":"function"},{"inputs":[],"name":"sUSDe_ADDRESS","outputs":[{"internalType":"address","name":"","type":"address"}],"stateMutability":"view","type":"function"},{"inputs":[],"name":"verifyProposal","outputs":[],"stateMutability":"view","type":"function"}]}