{"address":"0x3eEEF7Df45b5F14141cB9172b41e5B06D0adAAE2","bytecode":"0x60a060405234801561001057600080fd5b5030608052608051612454610037600039600081816104390152610d0301526124546000f3fe608060405234801561001057600080fd5b50600436106102065760003560e01c80636dc0ae221161011a5780639d3d2a78116100ad578063bffa7f0f1161007c578063bffa7f0f14610419578063cc025f7c14610434578063e6bd26a21461045b578063f6370aa91461046e578063f88ed60c1461047857600080fd5b80639d3d2a78146103bd578063aa98df39146103d0578063b6966495146103e3578063b788f3a1146103fe57600080fd5b806395861bd7116100e957806395861bd71461037d57806396db7d5c146102285780639781a8ca1461039857806397b87b4a146103a257600080fd5b80636dc0ae2214610323578063762dc5c21461033e5780637aadef8b146103475780637e2f35fa1461036257600080fd5b80632861c7d11161019d578063588c77e61161016c578063588c77e6146102fe5780636146195414610319578063623007321461020b57806364e9d5671461026d57806366760d7d1461032157600080fd5b80632861c7d1146102ad57806328787d001461026d5780632d2c5565146102c857806348bbb557146102e357600080fd5b806311ae7a14116101d957806311ae7a141461026d57806312e366aa14610275578063194c0e181461028857806325ad7f4d1461029257600080fd5b80630251eb111461020b5780630b396e66146102285780630bc9136e14610232578063103f29071461023a575b600080fd5b6102156205b8d881565b6040519081526020015b60405180910390f35b6102156205dfe881565b610215604581565b61025573324c5dc1fc42c7a4d43d92df1eba58a54d13bf2d81565b6040516001600160a01b03909116815260200161021f565b610215606481565b610255610283366004611dc0565b610493565b6102156206ca4881565b610255739efde135ca4832abf0408c44c6f5f370eb0f35e881565b6102557352aa899454998be5b000ad077a46bbe360f4e49781565b6102557328849d2b63fa8d361e5fc15cb8abb13019884d0981565b61025573e7eb63a8b6392481a9fdebb108cfd580dc8664d381565b610255735c43aac965ff230ac1cf63e924d0153291d78bad81565b610321610511565b005b610255730204cd037b2ec03605cfdfe482d8e257c765fa1b81565b61021561032081565b610255732386dc45added673317ef068992f19421b481f4c81565b61025573059a94a72951c0ae1cc1ce3bf0db52421bbe821081565b61025573a0d3707c569ff8c87fa923d3823ec5d81c98be7881565b610215629ba3c081565b6102557391716c4eda1fb55e84bf8b4c7085f84285c1908581565b6102156103cb366004611dee565b61058e565b6103216103de366004611e53565b610a30565b61025573264786ef916af64a1db19f513f24a3681734ce9281565b610255734f6f977acdd1177dcd81ab83074855ecb9c2d49e81565b61025573a45f7bd6a5ff45d31aace6bcd3d426d9328cea0181565b6102557f000000000000000000000000000000000000000000000000000000000000000081565b610255610469366004611dc0565b610e2e565b610215620606f881565b610255733daff61fe5cfb1f1b4ea7fba8173a58532ef184181565b604051630971b35560e11b8152600481018290526000907391716c4eda1fb55e84bf8b4c7085f84285c19085906312e366aa906024015b602060405180830381865afa1580156104e7573d6000803e3d6000fd5b505050506040513d601f19601f8201168201806040525081019061050b9190611f04565b92915050565b30732386dc45added673317ef068992f19421b481f4c1461056c5760405162461bcd60e51b815260206004820152601060248201526f3737ba16bb30b634b216b1b0b63632b960811b60448201526064015b60405180910390fd5b610574610e69565b61057c610f80565b610584611123565b61058c611479565b565b6000808411801561059f5750600083115b156105ec5760405162461bcd60e51b815260206004820181905260248201527f626f74682075736420616e6420616d6f756e7420617265206e6f74207a65726f6044820152606401610563565b604080516001600160a01b03871660208083019190915260058284015282518083038401815260608301938490528051910120632d71cdb960e21b90925260648101919091526000907352aa899454998be5b000ad077a46bbe360f4e4979063b5c736e490608401602060405180830381865afa158015610671573d6000803e3d6000fd5b505050506040513d601f19601f820116820180604052508101906106959190611f28565b90506000806106a3836116c4565b90925090506000601273eeeeeeeeeeeeeeeeeeeeeeeeeeeeeeeeeeeeeeed196001600160a01b038b16016106df57506205b8d8905060126109b0565b737f39c581f595b53c5cb19bd0b3f8da6c935e2c9f196001600160a01b038b160161071257506206ca48905060126109b0565b73cd5fe23c85820f7b72d0926fc9b05b43e359b7ed196001600160a01b038b16016107455750620606f8905060126109b0565b73a1290d69c65a6fe4df752f95823fae25cb99e5a6196001600160a01b038b160161077857506205dfe8905060126109b0565b73917cee801a67f933f2e6b33fc0cd1ed2d5909d87196001600160a01b038b16016107ab57506205b8d8905060126109b0565b73d5f7838f5c461feff7fe49ea5ebaf7728bb0adf9196001600160a01b038b16016107de57506205dfe8905060126109b0565b6001600160a01b038a1673cbb7c0000ab88b473b1f5afd9ef808440eed33bf148061082557506001600160a01b038a16732260fac5e5542a773aa44fbcfedf7c193bc2c599145b156108385750629ba3c0905060086109b0565b6001600160a01b038a1673a0b86991c6218b36c1d19d4a2e9eb0ce3606eb48148061087f57506001600160a01b038a1673dac17f958d2ee523a2206206994597c13d831ec7145b1561089057506064905060066109b0565b739d39a5de30e57443bff2a8307a4256c8797a3496196001600160a01b038b16016108c157506064905060126109b0565b73a3931d71877c0e7a3148cb7eb4463524fec27fbc196001600160a01b038b16016108f257506064905060126109b0565b6001600160a01b038a167340d16fc0246ad3160ccc09b8d0d3a2cd28ae6c2f148061093957506001600160a01b038a16734c9edd5852cd905f086c759e8383e09bff1e68b3145b1561094a57506064905060126109b0565b736f40d4a6237c257fff2db00fa0510deeecd303ea196001600160a01b038b160161097c5750610320905060126109b0565b60405162461bcd60e51b81526020600482015260096024820152681b9bdd0b599bdd5b9960ba1b6044820152606401610563565b6000876109bd57836109bf565b845b905089156109ee57806109d78b64e8d4a51000611f57565b6109e19190611f84565b9650505050505050610a28565b60646109fa8285611f57565b610a049190611f84565b610a0f83600a61208a565b610a1e8b64e8d4a51000611f57565b6109d79190611f57565b949350505050565b3373a45f7bd6a5ff45d31aace6bcd3d426d9328cea011480610a65575033734f6f977acdd1177dcd81ab83074855ecb9c2d49e145b80610a8357503073059a94a72951c0ae1cc1ce3bf0db52421bbe8210145b80610aa1575030739efde135ca4832abf0408c44c6f5f370eb0f35e8145b80610abf575030735c43aac965ff230ac1cf63e924d0153291d78bad145b80610add575030733daff61fe5cfb1f1b4ea7fba8173a58532ef1841145b80610afb57503073e7eb63a8b6392481a9fdebb108cfd580dc8664d3145b610b405760405162461bcd60e51b81526020600482015260166024820152751b5cd9cb9cd95b99195c8b5b9bdd0b585b1b1bddd95960521b6044820152606401610563565b604080516001808252818301909252600090826020808301908036833701905050905060008267ffffffffffffffff811115610b7e57610b7e611e3d565b604051908082528060200260200182016040528015610ba7578160200160208202803683370190505b50905060008367ffffffffffffffff811115610bc557610bc5611e3d565b604051908082528060200260200182016040528015610bf857816020015b6060815260200190600190039081610be35790505b50905060008467ffffffffffffffff811115610c1657610c16611e3d565b604051908082528060200260200182016040528015610c4957816020015b6060815260200190600190039081610c345790505b509050732386dc45added673317ef068992f19421b481f4c84600081518110610c7457610c74612096565b60200260200101906001600160a01b031690816001600160a01b031681525050600083600081518110610ca957610ca9612096565b6020026020010181815250506040518060600160405280602481526020016123fb6024913982600081518110610ce157610ce1612096565b60209081029190910181019190915260408051600081529182018152610d2a917f00000000000000000000000000000000000000000000000000000000000000009181016120f2565b60405160208183030381529060405281600081518110610d4c57610d4c612096565b6020908102919091010152604051636d4ab48d60e11b8152600090730204cd037b2ec03605cfdfe482d8e257c765fa1b9063da95691a90610d999088908890889088908e906004016121cf565b6020604051808303816000875af1158015610db8573d6000803e3d6000fd5b505050506040513d601f19601f82011682018060405250810190610ddc9190611f28565b905060458114610e255760405162461bcd60e51b815260206004820152601460248201527350524f504f53414c5f49535f4e4f545f53414d4560601b6044820152606401610563565b50505050505050565b60405163735e935160e11b81526004810182905260009073324c5dc1fc42c7a4d43d92df1eba58a54d13bf2d9063e6bd26a2906024016104ca565b6000604051806101000160405280610e81600d610493565b6001600160a01b0316815273a1290d69c65a6fe4df752f95823fae25cb99e5a7602082015273eeeeeeeeeeeeeeeeeeeeeeeeeeeeeeeeeeeeeeee6040820152600160608201526000608082018190526301312d0060a083015260c0820181905260e0909101529050610ef2816118b9565b7391716c4eda1fb55e84bf8b4c7085f84285c190856378c7e138610f16600d610493565b734f6f977acdd1177dcd81ab83074855ecb9c2d49e60006040518463ffffffff1660e01b8152600401610f4b939291906122a2565b600060405180830381600087803b158015610f6557600080fd5b505af1158015610f79573d6000803e3d6000fd5b5050505050565b60006040518060e00160405280610f97604e610e2e565b6001600160a01b0316815260200160018152600060208201819052737f39c581f595b53c5cb19bd0b3f8da6c935e2ca060408301526060820152627270e06080820152630112a88060a0909101529050610ff081611a26565b73324c5dc1fc42c7a4d43d92df1eba58a54d13bf2d637faa1d21611014604e610e2e565b734f6f977acdd1177dcd81ab83074855ecb9c2d49e60006040518463ffffffff1660e01b8152600401611049939291906122a2565b600060405180830381600087803b15801561106357600080fd5b505af1158015611077573d6000803e3d6000fd5b505050505060006040518060e00160405280611093604f610e2e565b6001600160a01b031681526020016000815273a1290d69c65a6fe4df752f95823fae25cb99e5a76020820152737f39c581f595b53c5cb19bd0b3f8da6c935e2ca06040820152627270e0606082018190526080820152630112a88060a09091015290506110ff81611a26565b73324c5dc1fc42c7a4d43d92df1eba58a54d13bf2d637faa1d21610f16604f610e2e565b600061112f6051610e2e565b905060006040518060e00160405280836001600160a01b0316815260200160006003811115611160576111606122c6565b815273d5f7838f5c461feff7fe49ea5ebaf7728bb0adfa602082015273a0b86991c6218b36c1d19d4a2e9eb0ce3606eb486040820152627270e06060820181905260808201526298968060a09091015290506111bb81611a26565b604051637faa1d2160e01b815273324c5dc1fc42c7a4d43d92df1eba58a54d13bf2d90637faa1d219061120b908590734f6f977acdd1177dcd81ab83074855ecb9c2d49e906000906004016122a2565b600060405180830381600087803b15801561122557600080fd5b505af1158015611239573d6000803e3d6000fd5b505050505050600061124b6052610e2e565b905060006040518060e00160405280836001600160a01b031681526020016000600381111561127c5761127c6122c6565b815273d5f7838f5c461feff7fe49ea5ebaf7728bb0adfa602082015273dac17f958d2ee523a2206206994597c13d831ec76040820152627270e06060820181905260808201526298968060a09091015290506112d781611a26565b604051637faa1d2160e01b815273324c5dc1fc42c7a4d43d92df1eba58a54d13bf2d90637faa1d2190611327908590734f6f977acdd1177dcd81ab83074855ecb9c2d49e906000906004016122a2565b600060405180830381600087803b15801561134157600080fd5b505af1158015611355573d6000803e3d6000fd5b50505050505060006113676053610e2e565b905060006040518060e00160405280836001600160a01b0316815260200160006003811115611398576113986122c6565b815273d5f7838f5c461feff7fe49ea5ebaf7728bb0adfa60208201527340d16fc0246ad3160ccc09b8d0d3a2cd28ae6c2f6040820152627270e06060820181905260808201526298968060a09091015290506113f381611a26565b604051637faa1d2160e01b815273324c5dc1fc42c7a4d43d92df1eba58a54d13bf2d90637faa1d2190611443908590734f6f977acdd1177dcd81ab83074855ecb9c2d49e906000906004016122a2565b600060405180830381600087803b15801561145d57600080fd5b505af1158015611471573d6000803e3d6000fd5b505050505050565b60408051600780825261010082019092526000916020820160e08036833701905050905073eeeeeeeeeeeeeeeeeeeeeeeeeeeeeeeeeeeeeeee816000815181106114c5576114c5612096565b60200260200101906001600160a01b031690816001600160a01b031681525050737f39c581f595b53c5cb19bd0b3f8da6c935e2ca08160018151811061150d5761150d612096565b60200260200101906001600160a01b031690816001600160a01b03168152505073a0b86991c6218b36c1d19d4a2e9eb0ce3606eb488160028151811061155557611555612096565b60200260200101906001600160a01b031690816001600160a01b03168152505073dac17f958d2ee523a2206206994597c13d831ec78160038151811061159d5761159d612096565b60200260200101906001600160a01b031690816001600160a01b0316815250507340d16fc0246ad3160ccc09b8d0d3a2cd28ae6c2f816004815181106115e5576115e5612096565b60200260200101906001600160a01b031690816001600160a01b031681525050732260fac5e5542a773aa44fbcfedf7c193bc2c5998160058151811061162d5761162d612096565b60200260200101906001600160a01b031690816001600160a01b03168152505073cbb7c0000ab88b473b1f5afd9ef808440eed33bf8160068151811061167557611675612096565b6001600160a01b039092166020928302919091019091015260405163564315fd60e11b81527352aa899454998be5b000ad077a46bbe360f4e4979063ac862bfa90610f4b9084906004016122dc565b67ffffffffffffffff605b82901c811690609b83901c168115806116e6575080155b1561170957604051636a86ba8960e11b8152620111716004820152602401610563565b61ffff8316603a84901c6401ffffffff16428181039160ea87901c617fff16911480611733575082155b8061173e5750806001145b1561174b57505050915091565b64496cebb80084840283020484019350617fff60db87901c1692508260010361177657505050915091565b826001166001036117cb5760019290921c91826c7e37be2022c0914b2680000000816117a4576117a4611f6e565b049250612710601e87901c613fff166b033b2e3c9fd0803ce80000008501020492506117f8565b60019290921c916305f5e100601e87901c613fff166127108501026b033b2e3c9fd0803ce8000000020492505b8060011660010361182f5760011c61271081016b033b2e3c9fd0803ce800000082028161182757611827611f6e565b049050611865565b60011c61271081016b033b2e3c9fd0803ce800000082028161185357611853611f6e565b046b033b2e3c9fd0803ce80000000390505b760a70c3c40a64e6c51999090b65f67d92400000000000008382026127100261ffff881691900402601087901c613fff16612710030292506801b5a660ea44b8000085840283020485019450505050915091565b8060600151156119645760006040518060a0016040528083600001516001600160a01b0316815260200183602001516001600160a01b031681526020016113888152602001610e1081526020018360a00151815250905061191981611b50565b6040805160a0808201835284516001600160a01b0390811683528584015116602083015261138892820192909252610e10606082015290830151608082015261196181611b50565b50505b806080015115611a235760006040518060c0016040528083600001516001600160a01b0316815260200183602001516001600160a01b031681526020016113888152602001610e1081526020018360c0015181526020018360e0015181525090506119ce81611c68565b6040805160c0808201835284516001600160a01b0390811683528584015116602083015261138892820192909252610e10606082015290830151608082015260e083015160a0820152611a2081611c68565b50505b50565b600281602001516003811115611a3e57611a3e6122c6565b1480611a5f5750600081602001516003811115611a5d57611a5d6122c6565b145b15611aae576040805160a08101825282516001600160a01b039081168252838301511660208201526109c49181019190915261a8c0606082015260808083015190820152611aac81611b50565b505b600181602001516003811115611ac657611ac66122c6565b1480611ae75750600081602001516003811115611ae557611ae56122c6565b145b15611a235760006040518060c0016040528083600001516001600160a01b0316815260200183606001516001600160a01b031681526020016107d0815260200161a8c081526020018360a0015181526020018360c001518152509050611b4c81611c68565b5050565b604080516001808252818301909252600091816020015b6040805160c08101825260008082526020808301829052928201819052606082018190526080820181905260a08201528252600019909201910181611b675790505090506040518060c0016040528083600001516001600160a01b0316815260200183602001516001600160a01b03168152602001600160ff1681526020018360400151815260200183606001518152602001611c10846020015160008660800151600161058e565b81525081600081518110611c2657611c26612096565b60209081029190910101526040516301635db560e11b81527352aa899454998be5b000ad077a46bbe360f4e497906302c6bb6a906114439084906004016122ef565b604080516001808252818301909252600091816020015b611cd46040518060e0016040528060006001600160a01b0316815260200160006001600160a01b03168152602001600060ff168152602001600081526020016000815260200160008152602001600081525090565b815260200190600190039081611c7f5790505090506040518060e0016040528083600001516001600160a01b0316815260200183602001516001600160a01b03168152602001600160ff1681526020018360400151815260200183606001518152602001611d4e846020015160008660800151600061058e565b8152602001611d69846020015160008660a00151600061058e565b81525081600081518110611d7f57611d7f612096565b602090810291909101015260405162dc47c360e11b81527352aa899454998be5b000ad077a46bbe360f4e497906301b88f8690611443908490600401612376565b600060208284031215611dd257600080fd5b5035919050565b6001600160a01b0381168114611a2357600080fd5b60008060008060808587031215611e0457600080fd5b8435611e0f81611dd9565b9350602085013592506040850135915060608501358015158114611e3257600080fd5b939692955090935050565b634e487b7160e01b600052604160045260246000fd5b600060208284031215611e6557600080fd5b813567ffffffffffffffff80821115611e7d57600080fd5b818401915084601f830112611e9157600080fd5b813581811115611ea357611ea3611e3d565b604051601f8201601f19908116603f01168101908382118183101715611ecb57611ecb611e3d565b81604052828152876020848701011115611ee457600080fd5b826020860160208301376000928101602001929092525095945050505050565b600060208284031215611f1657600080fd5b8151611f2181611dd9565b9392505050565b600060208284031215611f3a57600080fd5b5051919050565b634e487b7160e01b600052601160045260246000fd5b808202811582820484141761050b5761050b611f41565b634e487b7160e01b600052601260045260246000fd5b600082611fa157634e487b7160e01b600052601260045260246000fd5b500490565b600181815b80851115611fe1578160001904821115611fc757611fc7611f41565b80851615611fd457918102915b93841c9390800290611fab565b509250929050565b600082611ff85750600161050b565b816120055750600061050b565b816001811461201b576002811461202557612041565b600191505061050b565b60ff84111561203657612036611f41565b50506001821b61050b565b5060208310610133831016604e8410600b8410161715612064575081810a61050b565b61206e8383611fa6565b806000190482111561208257612082611f41565b029392505050565b6000611f218383611fe9565b634e487b7160e01b600052603260045260246000fd5b6000815180845260005b818110156120d2576020818501810151868301820152016120b6565b506000602082860101526020601f19601f83011685010191505092915050565b60018060a01b038316815260606020820152600960608201526865786563757465282960b81b608082015260a060408201526000610a2860a08301846120ac565b600081518084526020808501945080840160005b8381101561216c5781516001600160a01b031687529582019590820190600101612147565b509495945050505050565b600082825180855260208086019550808260051b84010181860160005b848110156121c257601f198684030189526121b08383516120ac565b98840198925090830190600101612194565b5090979650505050505050565b60a0815260006121e260a0830188612133565b82810360208481019190915287518083528882019282019060005b81811015612219578451835293830193918301916001016121fd565b5050848103604086015287518082528282019350600581901b82018301838a0160005b8381101561226a57601f198584030187526122588383516120ac565b9686019692509085019060010161223c565b5050868103606088015261227e818a612177565b945050505050828103608084015261229681856120ac565b98975050505050505050565b6001600160a01b039384168152919092166020820152901515604082015260600190565b634e487b7160e01b600052602160045260246000fd5b602081526000611f216020830184612133565b602080825282518282018190526000919060409081850190868401855b8281101561236957815180516001600160a01b0390811686528782015116878601528581015160ff1686860152606080820151908601526080808201519086015260a0908101519085015260c0909301929085019060010161230c565b5091979650505050505050565b602080825282518282018190526000919060409081850190868401855b8281101561236957815180516001600160a01b0390811686528782015116878601528581015160ff1686860152606080820151908601526080808201519086015260a0808201519086015260c0908101519085015260e0909301929085019060010161239356fe657865637574655061796c6f616428616464726573732c737472696e672c627974657329a2646970667358221220c1e53f22591996a19a039bfb7cc3a257d152d491919296a4cca173531f7b777664736f6c63430008150033","abi":[{"inputs":[{"internalType":"uint256","name":"errorId_","type":"uint256"}],"name":"FluidLiquidityCalcsError","type":"error"},{"inputs":[],"name":"ADDRESS_THIS","outputs":[{"internalType":"address","name":"","type":"address"}],"stateMutability":"view","type":"function"},{"inputs":[],"name":"BTC_USD_PRICE","outputs":[{"internalType":"uint256","name":"","type":"uint256"}],"stateMutability":"view","type":"function"},{"inputs":[],"name":"DEX_FACTORY","outputs":[{"internalType":"contract IFluidDexFactory","name":"","type":"address"}],"stateMutability":"view","type":"function"},{"inputs":[],"name":"ETH_USD_PRICE","outputs":[{"internalType":"uint256","name":"","type":"uint256"}],"stateMutability":"view","type":"function"},{"inputs":[],"name":"FLUID_RESERVE","outputs":[{"internalType":"contract IFluidReserveContract","name":"","type":"address"}],"stateMutability":"view","type":"function"},{"inputs":[],"name":"GOVERNOR","outputs":[{"internalType":"contract IGovernorBravo","name":"","type":"address"}],"stateMutability":"view","type":"function"},{"inputs":[],"name":"IETHV2","outputs":[{"internalType":"contract ILite","name":"","type":"address"}],"stateMutability":"view","type":"function"},{"inputs":[],"name":"INST_USD_PRICE","outputs":[{"internalType":"uint256","name":"","type":"uint256"}],"stateMutability":"view","type":"function"},{"inputs":[],"name":"LIQUIDITY","outputs":[{"internalType":"contract IFluidLiquidityAdmin","name":"","type":"address"}],"stateMutability":"view","type":"function"},{"inputs":[],"name":"PROPOSAL_ID","outputs":[{"internalType":"uint256","name":"","type":"uint256"}],"stateMutability":"view","type":"function"},{"inputs":[],"name":"PROPOSER","outputs":[{"internalType":"address","name":"","type":"address"}],"stateMutability":"view","type":"function"},{"inputs":[],"name":"PROPOSER_AVO_MULTISIG","outputs":[{"internalType":"address","name":"","type":"address"}],"stateMutability":"view","type":"function"},{"inputs":[],"name":"PROPOSER_AVO_MULTISIG_2","outputs":[{"internalType":"address","name":"","type":"address"}],"stateMutability":"view","type":"function"},{"inputs":[],"name":"PROPOSER_AVO_MULTISIG_3","outputs":[{"internalType":"address","name":"","type":"address"}],"stateMutability":"view","type":"function"},{"inputs":[],"name":"PROPOSER_AVO_MULTISIG_4","outputs":[{"internalType":"address","name":"","type":"address"}],"stateMutability":"view","type":"function"},{"inputs":[],"name":"PROPOSER_AVO_MULTISIG_5","outputs":[{"internalType":"address","name":"","type":"address"}],"stateMutability":"view","type":"function"},{"inputs":[],"name":"STABLE_USD_PRICE","outputs":[{"internalType":"uint256","name":"","type":"uint256"}],"stateMutability":"view","type":"function"},{"inputs":[],"name":"TEAM_MULTISIG","outputs":[{"internalType":"address","name":"","type":"address"}],"stateMutability":"view","type":"function"},{"inputs":[],"name":"TIMELOCK","outputs":[{"internalType":"contract ITimelock","name":"","type":"address"}],"stateMutability":"view","type":"function"},{"inputs":[],"name":"TREASURY","outputs":[{"internalType":"contract IDSAV2","name":"","type":"address"}],"stateMutability":"view","type":"function"},{"inputs":[],"name":"VAULT_FACTORY","outputs":[{"internalType":"contract IFluidVaultFactory","name":"","type":"address"}],"stateMutability":"view","type":"function"},{"inputs":[],"name":"execute","outputs":[],"stateMutability":"nonpayable","type":"function"},{"inputs":[{"internalType":"uint256","name":"dexId_","type":"uint256"}],"name":"getDexAddress","outputs":[{"internalType":"address","name":"","type":"address"}],"stateMutability":"view","type":"function"},{"inputs":[{"internalType":"address","name":"token","type":"address"},{"internalType":"uint256","name":"amount","type":"uint256"},{"internalType":"uint256","name":"amountInUSD","type":"uint256"},{"internalType":"bool","name":"isSupply","type":"bool"}],"name":"getRawAmount","outputs":[{"internalType":"uint256","name":"","type":"uint256"}],"stateMutability":"view","type":"function"},{"inputs":[{"internalType":"uint256","name":"vaultId_","type":"uint256"}],"name":"getVaultAddress","outputs":[{"internalType":"address","name":"","type":"address"}],"stateMutability":"view","type":"function"},{"inputs":[],"name":"mETH_USD_PRICE","outputs":[{"internalType":"uint256","name":"","type":"uint256"}],"stateMutability":"view","type":"function"},{"inputs":[{"internalType":"string","name":"description","type":"string"}],"name":"propose","outputs":[],"stateMutability":"nonpayable","type":"function"},{"inputs":[],"name":"rsETH_USD_PRICE","outputs":[{"internalType":"uint256","name":"","type":"uint256"}],"stateMutability":"view","type":"function"},{"inputs":[],"name":"sUSDe_USD_PRICE","outputs":[{"internalType":"uint256","name":"","type":"uint256"}],"stateMutability":"view","type":"function"},{"inputs":[],"name":"sUSDs_USD_PRICE","outputs":[{"internalType":"uint256","name":"","type":"uint256"}],"stateMutability":"view","type":"function"},{"inputs":[],"name":"verifyProposal","outputs":[],"stateMutability":"view","type":"function"},{"inputs":[],"name":"weETH_USD_PRICE","outputs":[{"internalType":"uint256","name":"","type":"uint256"}],"stateMutability":"view","type":"function"},{"inputs":[],"name":"weETHs_USD_PRICE","outputs":[{"internalType":"uint256","name":"","type":"uint256"}],"stateMutability":"view","type":"function"},{"inputs":[],"name":"wstETH_USD_PRICE","outputs":[{"internalType":"uint256","name":"","type":"uint256"}],"stateMutability":"view","type":"function"}]}