{"address":"0xbFE9bC2bf2830211aEE7DC026F0ef65574676e62","bytecode":"0x60c06040527f2386dc45added673317ef068992f19421b481f4c00000000000000000000000060805234801561003457600080fd5b5030606081811b60a052608051901c9061108761007060003980610584528061072352508061024152806102bb52806104d552506110876000f3fe608060405234801561001057600080fd5b506004361061012c5760003560e01c8063a734f06e116100ad578063bb09d9b711610071578063bb09d9b7146101d9578063bffa7f0f146101e1578063c1892058146101e9578063cc025f7c146101f1578063dca95fbf146101f95761012c565b8063a734f06e146101a6578063aa98df39146101ae578063aae7ae07146101c1578063aaff0493146101c9578063b788f3a1146101d15761012c565b80636dc0ae22116100f45780636dc0ae221461017e5780637aadef8b146101865780637e2f35fa1461018e57806383ba27d814610196578063a44855981461019e5761012c565b80630bc9136e1461013157806325ad7f4d1461014f5780632861c7d114610164578063614619541461016c57806366760d7d14610176575b600080fd5b610139610201565b6040516101469190611024565b60405180910390f35b610157610206565b6040516101469190610db5565b61015761021e565b610174610236565b005b61017461029f565b6101576102a1565b6101576102b9565b6101576102dd565b6101576102f5565b61015761030d565b610157610325565b6101746101bc366004610bea565b61033d565b610157610691565b6101576106a9565b6101576106c1565b6101576106d9565b6101576106f1565b610157610709565b610157610721565b610157610745565b601b81565b739efde135ca4832abf0408c44c6f5f370eb0f35e881565b7352aa899454998be5b000ad077a46bbe360f4e49781565b306001600160a01b037f000000000000000000000000000000000000000000000000000000000000000016146102875760405162461bcd60e51b815260040161027e90610ffa565b60405180910390fd5b61028f61075d565b610297610859565b61029f610a53565b565b730204cd037b2ec03605cfdfe482d8e257c765fa1b81565b7f000000000000000000000000000000000000000000000000000000000000000081565b73059a94a72951c0ae1cc1ce3bf0db52421bbe821081565b739fb7b4477576fe5b32be4c1843afb1e55f251b3381565b737f39c581f595b53c5cb19bd0b3f8da6c935e2ca081565b73eeeeeeeeeeeeeeeeeeeeeeeeeeeeeeeeeeeeeeee81565b3373a45f7bd6a5ff45d31aace6bcd3d426d9328cea011480610372575033734f6f977acdd1177dcd81ab83074855ecb9c2d49e145b8061039057503073059a94a72951c0ae1cc1ce3bf0db52421bbe8210145b806103ae575030739efde135ca4832abf0408c44c6f5f370eb0f35e8145b6103ca5760405162461bcd60e51b815260040161027e90610f9c565b604080516001808252818301909252606090826020808301908036833701905050905060608267ffffffffffffffff8111801561040657600080fd5b50604051908082528060200260200182016040528015610430578160200160208202803683370190505b50905060608367ffffffffffffffff8111801561044c57600080fd5b5060405190808252806020026020018201604052801561048057816020015b606081526020019060019003908161046b5790505b50905060608467ffffffffffffffff8111801561049c57600080fd5b506040519080825280602002602001820160405280156104d057816020015b60608152602001906001900390816104bb5790505b5090507f00000000000000000000000000000000000000000000000000000000000000008460008151811061050157fe5b60200260200101906001600160a01b031690816001600160a01b03168152505060008360008151811061053057fe5b60200260200101818152505060405180606001604052806024815260200161102e602491398260008151811061056257fe5b602090810291909101810191909152604080516000815291820181526105ab917f0000000000000000000000000000000000000000000000000000000000000000918101610dc9565b604051602081830303815290604052816000815181106105c757fe5b6020908102919091010152604051636d4ab48d60e11b8152600090730204cd037b2ec03605cfdfe482d8e257c765fa1b9063da95691a906106149088908890889088908e90600401610e12565b602060405180830381600087803b15801561062e57600080fd5b505af1158015610642573d6000803e3d6000fd5b505050506040513d601f19601f820116820180604052508101906106669190610c7f565b9050601b81146106885760405162461bcd60e51b815260040161027e90610fcc565b50505050505050565b735c20b550819128074fd538edf79791733ccedd1881565b73cd5fe23c85820f7b72d0926fc9b05b43e359b7ee81565b734f6f977acdd1177dcd81ab83074855ecb9c2d49e81565b73a0b86991c6218b36c1d19d4a2e9eb0ce3606eb4881565b73a45f7bd6a5ff45d31aace6bcd3d426d9328cea0181565b73dac17f958d2ee523a2206206994597c13d831ec781565b7f000000000000000000000000000000000000000000000000000000000000000081565b739d39a5de30e57443bff2a8307a4256c8797a349781565b604051635fd6196560e01b8152739fb7b4477576fe5b32be4c1843afb1e55f251b3390635fd61965906107a89073f6109ad48f5cf9e28938774ad4069c90f81d648e90600401610db5565b600060405180830381600087803b1580156107c257600080fd5b505af11580156107d6573d6000803e3d6000fd5b5050604051635fd6196560e01b8152735c20b550819128074fd538edf79791733ccedd189250635fd6196591506108259073f6109ad48f5cf9e28938774ad4069c90f81d648e90600401610db5565b600060405180830381600087803b15801561083f57600080fd5b505af1158015610853573d6000803e3d6000fd5b50505050565b60408051600380825260808201909252606091816020015b610879610b73565b8152602001906001900390816108715790505090506040518060e0016040528073a0b86991c6218b36c1d19d4a2e9eb0ce3606eb486001600160a01b03168152602001611f4081526020016124548152602001600081526020016103e881526020016105dc81526020016109c4815250816000815181106108f657fe5b60200260200101819052506040518060e0016040528073dac17f958d2ee523a2206206994597c13d831ec76001600160a01b03168152602001611f4081526020016124548152602001600081526020016103e881526020016105dc81526020016109c48152508160018151811061096957fe5b60200260200101819052506040518060e00160405280737f39c581f595b53c5cb19bd0b3f8da6c935e2ca06001600160a01b0316815260200161138881526020016124548152602001600081526020016105dc81526020016104b08152602001612710815250816002815181106109dc57fe5b6020908102919091010152604051639dde597760e01b81527352aa899454998be5b000ad077a46bbe360f4e49790639dde597790610a1e908490600401610eb1565b600060405180830381600087803b158015610a3857600080fd5b505af1158015610a4c573d6000803e3d6000fd5b5050505050565b6040805160028082526060828101909352816020015b610a71610bb9565b815260200190600190039081610a695790505090506040518060800160405280737f39c581f595b53c5cb19bd0b3f8da6c935e2ca06001600160a01b031681526020016103e88152602001601e815260200161226081525081600081518110610ad657fe5b6020026020010181905250604051806080016040528073eeeeeeeeeeeeeeeeeeeeeeeeeeeeeeeeeeeeeeee6001600160a01b031681526020016103e88152602001601e815260200161271081525081600181518110610b3157fe5b6020908102919091010152604051633fbdb00160e11b81527352aa899454998be5b000ad077a46bbe360f4e49790637f7b600290610a1e908490600401610f3c565b6040518060e0016040528060006001600160a01b031681526020016000815260200160008152602001600081526020016000815260200160008152602001600081525090565b604051806080016040528060006001600160a01b031681526020016000815260200160008152602001600081525090565b60006020808385031215610bfc578182fd5b823567ffffffffffffffff80821115610c13578384fd5b818501915085601f830112610c26578384fd5b813581811115610c3257fe5b604051601f8201601f1916810185018381118282101715610c4f57fe5b6040528181528382018501881015610c65578586fd5b818585018683013790810190930193909352509392505050565b600060208284031215610c90578081fd5b5051919050565b6000815180845260208085019450848183028601828601855b85811015610cda578383038952610cc8838351610d6a565b98850198925090840190600101610cb0565b5090979650505050505050565b60008282518085526020808601955080818302840101818601855b84811015610cda57601f19868403018952610d1e838351610d6a565b98840198925090830190600101610d02565b6000815180845260208085019450808401835b83811015610d5f57815187529582019590820190600101610d43565b509495945050505050565b60008151808452815b81811015610d8f57602081850181015186830182015201610d73565b81811115610da05782602083870101525b50601f01601f19169290920160200192915050565b6001600160a01b0391909116815260200190565b600060018060a01b038416825260606020830152600960608301526865786563757465282960b81b608083015260a06040830152610e0a60a0830184610d6a565b949350505050565b60a0808252865190820181905260009060209060c0840190828a01845b82811015610e545781516001600160a01b031684529284019290840190600101610e2f565b50505083810382850152610e688189610d30565b9150508281036040840152610e7d8187610ce7565b90508281036060840152610e918186610c97565b90508281036080840152610ea58185610d6a565b98975050505050505050565b602080825282518282018190526000919060409081850190868401855b82811015610f2f57815180516001600160a01b0316855286810151878601528581015186860152606080820151908601526080808201519086015260a0808201519086015260c0908101519085015260e09093019290850190600101610ece565b5091979650505050505050565b602080825282518282018190526000919060409081850190868401855b82811015610f2f57815180516001600160a01b03168552868101518786015285810151868601526060908101519085015260809093019290850190600101610f59565b6020808252601690820152751b5cd9cb9cd95b99195c8b5b9bdd0b585b1b1bddd95960521b604082015260600190565b60208082526014908201527350524f504f53414c5f49535f4e4f545f53414d4560601b604082015260600190565b60208082526010908201526f3737ba16bb30b634b216b1b0b63632b960811b604082015260600190565b9081526020019056fe657865637574655061796c6f616428616464726573732c737472696e672c627974657329a26469706673582212203f64b74ebcb49fba882cec777f0354489dfd85c5c1a634d8e5bbf93eb908b0d664736f6c63430007030033","abi":[{"inputs":[],"stateMutability":"nonpayable","type":"constructor"},{"inputs":[],"name":"ADDRESS_THIS","outputs":[{"internalType":"address","name":"","type":"address"}],"stateMutability":"view","type":"function"},{"inputs":[],"name":"ETH_ADDRESS","outputs":[{"internalType":"address","name":"","type":"address"}],"stateMutability":"view","type":"function"},{"inputs":[],"name":"F_USDC","outputs":[{"internalType":"address","name":"","type":"address"}],"stateMutability":"view","type":"function"},{"inputs":[],"name":"F_USDT","outputs":[{"internalType":"address","name":"","type":"address"}],"stateMutability":"view","type":"function"},{"inputs":[],"name":"GOVERNOR","outputs":[{"internalType":"contract IGovernorBravo","name":"","type":"address"}],"stateMutability":"view","type":"function"},{"inputs":[],"name":"LIQUIDITY","outputs":[{"internalType":"contract IFluidLiquidityAdmin","name":"","type":"address"}],"stateMutability":"view","type":"function"},{"inputs":[],"name":"PROPOSAL_ID","outputs":[{"internalType":"uint256","name":"","type":"uint256"}],"stateMutability":"view","type":"function"},{"inputs":[],"name":"PROPOSER","outputs":[{"internalType":"address","name":"","type":"address"}],"stateMutability":"view","type":"function"},{"inputs":[],"name":"PROPOSER_AVO_MULTISIG","outputs":[{"internalType":"address","name":"","type":"address"}],"stateMutability":"view","type":"function"},{"inputs":[],"name":"PROPOSER_AVO_MULTISIG_2","outputs":[{"internalType":"address","name":"","type":"address"}],"stateMutability":"view","type":"function"},{"inputs":[],"name":"TEAM_MULTISIG","outputs":[{"internalType":"address","name":"","type":"address"}],"stateMutability":"view","type":"function"},{"inputs":[],"name":"TIMELOCK","outputs":[{"internalType":"contract ITimelock","name":"","type":"address"}],"stateMutability":"view","type":"function"},{"inputs":[],"name":"USDC_ADDRESS","outputs":[{"internalType":"address","name":"","type":"address"}],"stateMutability":"view","type":"function"},{"inputs":[],"name":"USDT_ADDRESS","outputs":[{"internalType":"address","name":"","type":"address"}],"stateMutability":"view","type":"function"},{"inputs":[],"name":"execute","outputs":[],"stateMutability":"nonpayable","type":"function"},{"inputs":[{"internalType":"string","name":"description","type":"string"}],"name":"propose","outputs":[],"stateMutability":"nonpayable","type":"function"},{"inputs":[],"name":"sUSDe_ADDRESS","outputs":[{"internalType":"address","name":"","type":"address"}],"stateMutability":"view","type":"function"},{"inputs":[],"name":"verifyProposal","outputs":[],"stateMutability":"view","type":"function"},{"inputs":[],"name":"weETH_ADDRESS","outputs":[{"internalType":"address","name":"","type":"address"}],"stateMutability":"view","type":"function"},{"inputs":[],"name":"wstETH_ADDRESS","outputs":[{"internalType":"address","name":"","type":"address"}],"stateMutability":"view","type":"function"}]}