{"address":"0xee9D547aEEf6af4eB5Cd3e3A6f558afC6c2389E0","bytecode":"0x60a060405234801561001057600080fd5b5030606081901b6080526115e0610036600039806104f0528061064752506115e06000f3fe608060405234801561001057600080fd5b50600436106100f55760003560e01c80638a1c736411610097578063aaff049311610066578063aaff049314610182578063b788f3a11461018a578063bffa7f0f14610192578063cc025f7c1461019a576100f5565b80638a1c736414610157578063a44855981461015f578063a734f06e14610167578063aa98df391461016f576100f5565b806361461954116100d3578063614619541461013557806366760d7d1461013f5780636dc0ae22146101475780637aadef8b1461014f576100f5565b80630bc9136e146100fa5780632861c7d114610118578063474585e21461012d575b600080fd5b6101026101a2565b60405161010f91906114ac565b60405180910390f35b6101206101a7565b60405161010f9190611194565b6101206101bf565b61013d6101d7565b005b61013d610277565b610120610279565b610120610291565b6101206102a9565b6101206102c1565b6101206102d9565b61013d61017d366004610fc3565b6102f1565b6101206105fd565b610120610615565b61012061062d565b610120610645565b600b81565b7352aa899454998be5b000ad077a46bbe360f4e49781565b7315f6f562ae136240ab9f4905cb50aca54bcbeb5f81565b30732386dc45added673317ef068992f19421b481f4c146102135760405162461bcd60e51b815260040161020a9061155c565b60405180910390fd5b61021b610669565b61022361077c565b600061022d61083a565b905061023881610954565b61024181610a71565b61024a81610b67565b61025381610bad565b61025c81610bed565b610264610c2d565b61026c610d70565b610274610e0c565b50565b565b730204cd037b2ec03605cfdfe482d8e257c765fa1b81565b732386dc45added673317ef068992f19421b481f4c81565b73324c5dc1fc42c7a4d43d92df1eba58a54d13bf2d81565b737f39c581f595b53c5cb19bd0b3f8da6c935e2ca081565b73eeeeeeeeeeeeeeeeeeeeeeeeeeeeeeeeeeeeeeee81565b3373a45f7bd6a5ff45d31aace6bcd3d426d9328cea011480610326575033734f6f977acdd1177dcd81ab83074855ecb9c2d49e145b6103425760405162461bcd60e51b815260040161020a906114eb565b604080516001808252818301909252606090826020808301908036833701905050905060608267ffffffffffffffff8111801561037e57600080fd5b506040519080825280602002602001820160405280156103a8578160200160208202803683370190505b50905060608367ffffffffffffffff811180156103c457600080fd5b506040519080825280602002602001820160405280156103f857816020015b60608152602001906001900390816103e35790505b50905060608467ffffffffffffffff8111801561041457600080fd5b5060405190808252806020026020018201604052801561044857816020015b60608152602001906001900390816104335790505b509050732386dc45added673317ef068992f19421b481f4c8460008151811061046d57fe5b60200260200101906001600160a01b031690816001600160a01b03168152505060008360008151811061049c57fe5b60200260200101818152505060405180606001604052806024815260200161158760249139826000815181106104ce57fe5b60209081029190910181019190915260408051600081529182018152610517917f00000000000000000000000000000000000000000000000000000000000000009181016111ee565b6040516020818303038152906040528160008151811061053357fe5b6020908102919091010152604051636d4ab48d60e11b8152600090730204cd037b2ec03605cfdfe482d8e257c765fa1b9063da95691a906105809088908890889088908e9060040161122f565b602060405180830381600087803b15801561059a57600080fd5b505af11580156105ae573d6000803e3d6000fd5b505050506040513d601f19601f820116820180604052508101906105d29190611058565b9050600b81146105f45760405162461bcd60e51b815260040161020a9061152e565b50505050505050565b73cd5fe23c85820f7b72d0926fc9b05b43e359b7ee81565b734f6f977acdd1177dcd81ab83074855ecb9c2d49e81565b73a45f7bd6a5ff45d31aace6bcd3d426d9328cea0181565b7f000000000000000000000000000000000000000000000000000000000000000081565b604080516001808252818301909252606091816020015b610688610e88565b8152602001906001900390816106805790505090506040518060e0016040528073cd5fe23c85820f7b72d0926fc9b05b43e359b7ee6001600160a01b031681526020016113888152602001611f408152602001600081526020016107d08152602001610fa081526020016127108152508160008151811061070557fe5b6020908102919091010152604051639dde597760e01b81527352aa899454998be5b000ad077a46bbe360f4e49790639dde5977906107479084906004016112ce565b600060405180830381600087803b15801561076157600080fd5b505af1158015610775573d6000803e3d6000fd5b5050505050565b604080516001808252818301909252606091816020015b61079b610ece565b815260200190600190039081610793579050509050604051806060016040528073cd5fe23c85820f7b72d0926fc9b05b43e359b7ee6001600160a01b031681526020016103e88152602001601e815250816000815181106107f857fe5b60209081029190910101526040516338b7e8e760e01b81527352aa899454998be5b000ad077a46bbe360f4e497906338b7e8e790610747908490600401611359565b600073324c5dc1fc42c7a4d43d92df1eba58a54d13bf2d6001600160a01b031663968cbade7315f6f562ae136240ab9f4905cb50aca54bcbeb5f63f9f872f560e01b73cd5fe23c85820f7b72d0926fc9b05b43e359b7ee737f39c581f595b53c5cb19bd0b3f8da6c935e2ca06040516024016108b79291906111a8565b60408051601f198184030181529181526020820180516001600160e01b03166001600160e01b03199485161790525160e085901b90921682526108fd92916004016111c2565b602060405180830381600087803b15801561091757600080fd5b505af115801561092b573d6000803e3d6000fd5b505050506040513d601f19601f8201168201806040525081019061094f9190610f95565b905090565b604080516001808252818301909252606091816020015b610973610ef8565b81526020019060019003908161096b5790505090506040518060c00160405280836001600160a01b0316815260200173cd5fe23c85820f7b72d0926fc9b05b43e359b7ee6001600160a01b03168152602001600160ff1681526020016109c4815260200161a8c0815260200168d8d726b7177a800000815250816000815181106109f957fe5b60209081029190910101526040516301635db560e11b81527352aa899454998be5b000ad077a46bbe360f4e497906302c6bb6a90610a3b908490600401611432565b600060405180830381600087803b158015610a5557600080fd5b505af1158015610a69573d6000803e3d6000fd5b505050505050565b604080516001808252818301909252606091816020015b610a90610f43565b815260200190600190039081610a885790505090506040518060e00160405280836001600160a01b03168152602001737f39c581f595b53c5cb19bd0b3f8da6c935e2ca06001600160a01b03168152602001600160ff1681526020016109c4815260200161a8c0815260200168d8d726b7177a800000815260200169021e19e0c9bab240000081525081600081518110610b2657fe5b602090810291909101015260405162dc47c360e11b81527352aa899454998be5b000ad077a46bbe360f4e497906301b88f8690610a3b9084906004016113ae565b6040516354b04ef560e01b81526001600160a01b038216906354b04ef5906107479061271090819061235a906124549061251c906101f4906064906000906004016114b5565b60405163072d137f60e21b81526001600160a01b03821690631cb44dfc9061074790739ec721a12b6005af8c6e8cfa9c86b5f12ff473e490600401611194565b60405163b046a44960e01b81526001600160a01b0382169063b046a449906107479073264786ef916af64a1db19f513f24a3681734ce9290600401611194565b604051634a138a7160e01b815273a0f83fc5885cebc0420ce7c7b139adc80c4f4d9190634a138a7190610c6690612710906004016114ac565b600060405180830381600087803b158015610c8057600080fd5b505af1158015610c94573d6000803e3d6000fd5b5050604051634a138a7160e01b81527351197586f6a9e2571868b6ffaef308f3bdfed3ae9250634a138a719150610cd190612710906004016114ac565b600060405180830381600087803b158015610ceb57600080fd5b505af1158015610cff573d6000803e3d6000fd5b5050604051634a138a7160e01b8152731c2bb46f36561bc4f05a94bd50916496aa5010789250634a138a719150610d3c90612710906004016114ac565b600060405180830381600087803b158015610d5657600080fd5b505af1158015610d6a573d6000803e3d6000fd5b50505050565b604080516001808252818301909252606091816020015b610d8f610e88565b815260200190600190039081610d875790505090506040518060e00160405280737f39c581f595b53c5cb19bd0b3f8da6c935e2ca06001600160a01b031681526020016113888152602001611f408152602001600081526020016105dc8152602001610bb88152602001613a988152508160008151811061070557fe5b604080516001808252818301909252606091816020015b610e2b610ece565b815260200190600190039081610e235790505090506040518060600160405280737f39c581f595b53c5cb19bd0b3f8da6c935e2ca06001600160a01b03168152602001611b588152602001601e815250816000815181106107f857fe5b6040518060e0016040528060006001600160a01b031681526020016000815260200160008152602001600081526020016000815260200160008152602001600081525090565b604051806060016040528060006001600160a01b0316815260200160008152602001600081525090565b6040518060c0016040528060006001600160a01b0316815260200160006001600160a01b03168152602001600060ff1681526020016000815260200160008152602001600081525090565b6040518060e0016040528060006001600160a01b0316815260200160006001600160a01b03168152602001600060ff168152602001600081526020016000815260200160008152602001600081525090565b600060208284031215610fa6578081fd5b81516001600160a01b0381168114610fbc578182fd5b9392505050565b60006020808385031215610fd5578182fd5b823567ffffffffffffffff80821115610fec578384fd5b818501915085601f830112610fff578384fd5b81358181111561100b57fe5b604051601f8201601f191681018501838111828210171561102857fe5b604052818152838201850188101561103e578586fd5b818585018683013790810190930193909352509392505050565b600060208284031215611069578081fd5b5051919050565b60008282518085526020808601955080818302840101818601855b848110156110b957601f198684030189526110a7838351611149565b9884019892509083019060010161108b565b5090979650505050505050565b60008282518085526020808601955080818302840101818601855b848110156110b957601f198684030189526110fd838351611149565b988401989250908301906001016110e1565b6000815180845260208085019450808401835b8381101561113e57815187529582019590820190600101611122565b509495945050505050565b60008151808452815b8181101561116e57602081850181015186830182015201611152565b8181111561117f5782602083870101525b50601f01601f19169290920160200192915050565b6001600160a01b0391909116815260200190565b6001600160a01b0392831681529116602082015260400190565b6001600160a01b03831681526040602082018190526000906111e690830184611149565b949350505050565b600060018060a01b038416825260606020830152600960608301526865786563757465282960b81b608083015260a060408301526111e660a0830184611149565b60a0808252865190820181905260009060209060c0840190828a01845b828110156112715781516001600160a01b03168452928401929084019060010161124c565b50505083810382850152611285818961110f565b915050828103604084015261129a81876110c6565b905082810360608401526112ae8186611070565b905082810360808401526112c28185611149565b98975050505050505050565b602080825282518282018190526000919060409081850190868401855b8281101561134c57815180516001600160a01b0316855286810151878601528581015186860152606080820151908601526080808201519086015260a0808201519086015260c0908101519085015260e090930192908501906001016112eb565b5091979650505050505050565b602080825282518282018190526000919060409081850190868401855b8281101561134c57815180516001600160a01b0316855286810151878601528501518585015260609093019290850190600101611376565b602080825282518282018190526000919060409081850190868401855b8281101561134c57815180516001600160a01b0390811686528782015116878601528581015160ff1686860152606080820151908601526080808201519086015260a0808201519086015260c0908101519085015260e090930192908501906001016113cb565b602080825282518282018190526000919060409081850190868401855b8281101561134c57815180516001600160a01b0390811686528782015116878601528581015160ff1686860152606080820151908601526080808201519086015260a0908101519085015260c0909301929085019060010161144f565b90815260200190565b978852602088019690965260408701949094526060860192909252608085015260a084015260c083015260e08201526101000190565b60208082526023908201527f6d73672e73656e6465722d6e6f742d70726f706f7365722d6f722d6d756c746960408201526273696760e81b606082015260800190565b60208082526014908201527350524f504f53414c5f49535f4e4f545f53414d4560601b604082015260600190565b60208082526010908201526f3737ba16bb30b634b216b1b0b63632b960811b60408201526060019056fe657865637574655061796c6f616428616464726573732c737472696e672c627974657329a2646970667358221220266c23bafbbdcae4c1dc0d6befca0fcdb32ec262a36695bf13f476353647ab6f64736f6c63430007030033","abi":[{"inputs":[],"stateMutability":"nonpayable","type":"constructor"},{"inputs":[],"name":"ADDRESS_THIS","outputs":[{"internalType":"address","name":"","type":"address"}],"stateMutability":"view","type":"function"},{"inputs":[],"name":"ETH_ADDRESS","outputs":[{"internalType":"address","name":"","type":"address"}],"stateMutability":"view","type":"function"},{"inputs":[],"name":"GOVERNOR","outputs":[{"internalType":"contract IGovernorBravo","name":"","type":"address"}],"stateMutability":"view","type":"function"},{"inputs":[],"name":"LIQUIDITY","outputs":[{"internalType":"contract IFluidLiquidityAdmin","name":"","type":"address"}],"stateMutability":"view","type":"function"},{"inputs":[],"name":"PROPOSAL_ID","outputs":[{"internalType":"uint256","name":"","type":"uint256"}],"stateMutability":"view","type":"function"},{"inputs":[],"name":"PROPOSER","outputs":[{"internalType":"address","name":"","type":"address"}],"stateMutability":"view","type":"function"},{"inputs":[],"name":"TEAM_MULTISIG","outputs":[{"internalType":"address","name":"","type":"address"}],"stateMutability":"view","type":"function"},{"inputs":[],"name":"TIMELOCK","outputs":[{"internalType":"contract ITimelock","name":"","type":"address"}],"stateMutability":"view","type":"function"},{"inputs":[],"name":"VAULT_T1_DEPLOYMENT_LOGIC","outputs":[{"internalType":"contract IFluidVaultT1DeploymentLogic","name":"","type":"address"}],"stateMutability":"view","type":"function"},{"inputs":[],"name":"VAULT_T1_FACTORY","outputs":[{"internalType":"contract IFluidVaultT1Factory","name":"","type":"address"}],"stateMutability":"view","type":"function"},{"inputs":[],"name":"execute","outputs":[],"stateMutability":"nonpayable","type":"function"},{"inputs":[{"internalType":"string","name":"description","type":"string"}],"name":"propose","outputs":[],"stateMutability":"nonpayable","type":"function"},{"inputs":[],"name":"verifyProposal","outputs":[],"stateMutability":"view","type":"function"},{"inputs":[],"name":"weETH_ADDRESS","outputs":[{"internalType":"address","name":"","type":"address"}],"stateMutability":"view","type":"function"},{"inputs":[],"name":"wstETH_ADDRESS","outputs":[{"internalType":"address","name":"","type":"address"}],"stateMutability":"view","type":"function"}]}