{"address":"0x5c380EC6B29e26Da77110f828638e145E495677B","bytecode":"0x60c0604052732386dc45added673317ef068992f19421b481f4c60805234801561002857600080fd5b503060a05260805160a0516126d56100676000396000818161030101526106450152600081816101b901528181610349015261058401526126d56000f3fe608060405234801561001057600080fd5b50600436106101215760003560e01c8063a734f06e116100ad578063bb09d9b711610071578063bb09d9b7146102ab578063bffa7f0f146102c6578063c1892058146102e1578063cc025f7c146102fc578063dca95fbf1461032357600080fd5b8063a734f06e1461022c578063aa98df3914610247578063aaff04931461025a578063b696649514610275578063b788f3a11461029057600080fd5b80636dc0ae22116100f45780636dc0ae22146101995780637aadef8b146101b45780637e2f35fa146101db5780638a1c7364146101f6578063a44855981461021157600080fd5b80630bc9136e1461012657806325ad7f4d146101415780632861c7d114610174578063614619541461018f575b600080fd5b61012e601a81565b6040519081526020015b60405180910390f35b61015c739efde135ca4832abf0408c44c6f5f370eb0f35e881565b6040516001600160a01b039091168152602001610138565b61015c7352aa899454998be5b000ad077a46bbe360f4e49781565b61019761033e565b005b61015c730204cd037b2ec03605cfdfe482d8e257c765fa1b81565b61015c7f000000000000000000000000000000000000000000000000000000000000000081565b61015c73059a94a72951c0ae1cc1ce3bf0db52421bbe821081565b61015c73324c5dc1fc42c7a4d43d92df1eba58a54d13bf2d81565b61015c737f39c581f595b53c5cb19bd0b3f8da6c935e2ca081565b61015c73eeeeeeeeeeeeeeeeeeeeeeeeeeeeeeeeeeeeeeee81565b610197610255366004612062565b6103c0565b61015c73cd5fe23c85820f7b72d0926fc9b05b43e359b7ee81565b61015c73264786ef916af64a1db19f513f24a3681734ce9281565b61015c734f6f977acdd1177dcd81ab83074855ecb9c2d49e81565b61015c73a0b86991c6218b36c1d19d4a2e9eb0ce3606eb4881565b61015c73a45f7bd6a5ff45d31aace6bcd3d426d9328cea0181565b61015c73dac17f958d2ee523a2206206994597c13d831ec781565b61015c7f000000000000000000000000000000000000000000000000000000000000000081565b61015c739d39a5de30e57443bff2a8307a4256c8797a349781565b306001600160a01b037f000000000000000000000000000000000000000000000000000000000000000016146103ae5760405162461bcd60e51b815260206004820152601060248201526f3737ba16bb30b634b216b1b0b63632b960811b60448201526064015b60405180910390fd5b6103b6610770565b6103be610799565b565b3373a45f7bd6a5ff45d31aace6bcd3d426d9328cea0114806103f5575033734f6f977acdd1177dcd81ab83074855ecb9c2d49e145b8061041357503073059a94a72951c0ae1cc1ce3bf0db52421bbe8210145b80610431575030739efde135ca4832abf0408c44c6f5f370eb0f35e8145b6104765760405162461bcd60e51b81526020600482015260166024820152751b5cd9cb9cd95b99195c8b5b9bdd0b585b1b1bddd95960521b60448201526064016103a5565b604080516001808252818301909252600090826020808301908036833701905050905060008267ffffffffffffffff8111156104b4576104b4612022565b6040519080825280602002602001820160405280156104dd578160200160208202803683370190505b50905060008367ffffffffffffffff8111156104fb576104fb612022565b60405190808252806020026020018201604052801561052e57816020015b60608152602001906001900390816105195790505b50905060008467ffffffffffffffff81111561054c5761054c612022565b60405190808252806020026020018201604052801561057f57816020015b606081526020019060019003908161056a5790505b5090507f0000000000000000000000000000000000000000000000000000000000000000846000815181106105b6576105b6612113565b60200260200101906001600160a01b031690816001600160a01b0316815250506000836000815181106105eb576105eb612113565b60200260200101818152505060405180606001604052806024815260200161267c602491398260008151811061062357610623612113565b6020908102919091018101919091526040805160008152918201815261066c917f000000000000000000000000000000000000000000000000000000000000000091810161216f565b6040516020818303038152906040528160008151811061068e5761068e612113565b6020908102919091010152604051636d4ab48d60e11b8152600090730204cd037b2ec03605cfdfe482d8e257c765fa1b9063da95691a906106db9088908890889088908e90600401612281565b6020604051808303816000875af11580156106fa573d6000803e3d6000fd5b505050506040513d601f19601f8201168201806040525081019061071e9190612330565b9050601a81146107675760405162461bcd60e51b815260206004820152601460248201527350524f504f53414c5f49535f4e4f545f53414d4560601b60448201526064016103a5565b50505050505050565b60015b600a81116107965761078481610940565b8061078e8161235f565b915050610773565b50565b60408051600480825260a082019092526000916020820160808036833701905050905073eeeeeeeeeeeeeeeeeeeeeeeeeeeeeeeeeeeeeeee816000815181106107e4576107e4612113565b60200260200101906001600160a01b031690816001600160a01b031681525050737f39c581f595b53c5cb19bd0b3f8da6c935e2ca08160018151811061082c5761082c612113565b60200260200101906001600160a01b031690816001600160a01b03168152505073a0b86991c6218b36c1d19d4a2e9eb0ce3606eb488160028151811061087457610874612113565b60200260200101906001600160a01b031690816001600160a01b03168152505073dac17f958d2ee523a2206206994597c13d831ec7816003815181106108bc576108bc612113565b6001600160a01b039092166020928302919091019091015260405163564315fd60e11b81527352aa899454998be5b000ad077a46bbe360f4e4979063ac862bfa9061090b908490600401612378565b600060405180830381600087803b15801561092557600080fd5b505af1158015610939573d6000803e3d6000fd5b5050505050565b6109b860405180610160016040528060006001600160a01b0316815260200160006001600160a01b0316815260200160006001600160a01b0316815260200160608152602001606081526020016060815260200160008152602001600081526020016000815260200160008152602001600081525090565b60405163735e935160e11b81526004810183905273324c5dc1fc42c7a4d43d92df1eba58a54d13bf2d9063e6bd26a290602401602060405180830381865afa158015610a08573d6000803e3d6000fd5b505050506040513d601f19601f82011682018060405250810190610a2c91906123a9565b6001600160a01b0316815273324c5dc1fc42c7a4d43d92df1eba58a54d13bf2d63e6bd26a2610a5c84600a6123c4565b6040518263ffffffff1660e01b8152600401610a7a91815260200190565b602060405180830381865afa158015610a97573d6000803e3d6000fd5b505050506040513d601f19601f82011682018060405250810190610abb91906123a9565b81602001906001600160a01b031690816001600160a01b031681525050600081600001516001600160a01b031663b7791bf26040518163ffffffff1660e01b81526004016101a060405180830381865afa158015610b1d573d6000803e3d6000fd5b505050506040513d601f19601f82011682018060405250810190610b4191906123e8565b9050600082602001516001600160a01b031663b7791bf26040518163ffffffff1660e01b81526004016101a060405180830381865afa158015610b88573d6000803e3d6000fd5b505050506040513d601f19601f82011682018060405250810190610bac91906123e8565b9050610bc1610bbc85600a6123c4565b61150a565b6001600160a01b031660408401526080810151610bdd906116ab565b60e08601525060c084015260a0810151610bf6906116ab565b610140860152610120850152610100840152608080820151908301516001600160a01b03908116911614610c645760405162461bcd60e51b81526020600482015260156024820152743737ba16b9b0b6b296b9bab838363c96ba37b5b2b760591b60448201526064016103a5565b8060a001516001600160a01b03168260a001516001600160a01b031614610cc55760405162461bcd60e51b81526020600482015260156024820152743737ba16b9b0b6b296b137b93937bb96ba37b5b2b760591b60448201526064016103a5565b604080516001808252818301909252600091816020015b610ce4611f85565b815260200190600190039081610cdc57505060808301518551602087015160c0880151939450610d139361187e565b81600081518110610d2657610d26612113565b60209081029190910101526040516301635db560e11b81527352aa899454998be5b000ad077a46bbe360f4e497906302c6bb6a90610d689084906004016124c5565b600060405180830381600087803b158015610d8257600080fd5b505af1158015610d96573d6000803e3d6000fd5b506000935060019250610da7915050565b604051908082528060200260200182016040528015610de057816020015b610dcd611fd0565b815260200190600190039081610dc55790505b509050610e068260a0015185600001518660200151876101000151886101200151611a1b565b81600081518110610e1957610e19612113565b602090810291909101015260405162dc47c360e11b81527352aa899454998be5b000ad077a46bbe360f4e497906301b88f8690610e5a90849060040161253f565b600060405180830381600087803b158015610e7457600080fd5b505af1158015610e88573d6000803e3d6000fd5b50505050506000610e9c8460000151611b74565b905083604001516001600160a01b0316638e7bfbc06040518163ffffffff1660e01b8152600401602060405180830381865afa158015610ee0573d6000803e3d6000fd5b505050506040513d601f19601f82011682018060405250810190610f049190612330565b8161010001516001600160a01b031663e6aa216c6040518163ffffffff1660e01b8152600401602060405180830381865afa158015610f47573d6000803e3d6000fd5b505050506040513d601f19601f82011682018060405250810190610f6b9190612330565b148015611041575083604001516001600160a01b031663f3190c896040518163ffffffff1660e01b8152600401602060405180830381865afa158015610fb5573d6000803e3d6000fd5b505050506040513d601f19601f82011682018060405250810190610fd99190612330565b84604001516001600160a01b0316638e7bfbc06040518163ffffffff1660e01b8152600401602060405180830381865afa15801561101b573d6000803e3d6000fd5b505050506040513d601f19601f8201168201806040525081019061103f9190612330565b145b61108d5760405162461bcd60e51b815260206004820181905260248201527f6f7261636c652065786368616e67655072696365206973206e6f742073616d6560448201526064016103a5565b6020808501518251918301516040808501516060860151608087015160a088015160c089015160e08a015195516354b04ef560e01b815261ffff998a16600482015296891660248801529388166044870152918716606486015286166084850152851660a4840152841660c48301529290921660e48301526001600160a01b0316906354b04ef59061010401600060405180830381600087803b15801561113357600080fd5b505af1158015611147573d6000803e3d6000fd5b5050506020850151604080870151905163072d137f60e21b81526001600160a01b03918216600482015291169250631cb44dfc9150602401600060405180830381600087803b15801561119957600080fd5b505af11580156111ad573d6000803e3d6000fd5b505050602084015160405163b046a44960e01b815273264786ef916af64a1db19f513f24a3681734ce9260048201526001600160a01b03909116915063b046a44990602401600060405180830381600087803b15801561120c57600080fd5b505af1158015611220573d6000803e3d6000fd5b5050505060008360e001516000148061123c5750610140840151155b61124757600261124a565b60015b60ff16905060008167ffffffffffffffff81111561126a5761126a612022565b604051908082528060200260200182016040528015611293578160200160208202803683370190505b5060608601528167ffffffffffffffff8111156112b2576112b2612022565b6040519080825280602002602001820160405280156112db578160200160208202803683370190505b5060808601528167ffffffffffffffff8111156112fa576112fa612022565b604051908082528060200260200182016040528015611323578160200160208202803683370190505b5060a086015260e0850151156113dd5784602001518560600151828151811061134e5761134e612113565b60200260200101906001600160a01b031690816001600160a01b03168152505082608001518560800151828151811061138957611389612113565b60200260200101906001600160a01b031690816001600160a01b0316815250508460e001518560a0015182815181106113c4576113c4612113565b6020908102919091010152806113d98161235f565b9150505b610140850151156114875784602001518560600151828151811061140357611403612113565b60200260200101906001600160a01b031690816001600160a01b0316815250508260a001518560800151828151811061143e5761143e612113565b60200260200101906001600160a01b031690816001600160a01b0316815250508461014001518560a00151828151811061147a5761147a612113565b6020026020010181815250505b6060850151608086015160a08701516040516303e8046160e01b815273264786ef916af64a1db19f513f24a3681734ce92936303e80461936114d09391929091906004016125c3565b600060405180830381600087803b1580156114ea57600080fd5b505af11580156114fe573d6000803e3d6000fd5b50505050505050505050565b600081600b0361152f5750735b2860c6d6f888319c752aacdaf8165c21095e3a919050565b81600c036115525750737ea20e1fb456af31c6425813bffd4ef6e0a4c86e919050565b81600d03611575575073ade0948e2431defb87e75760e94f190cbf35e95b919050565b81600e03611598575073c5911fa3917c507fbebab910c8b47cbdd3ce147e919050565b81600f036115bb57507338ae6fa3d6376d86d1ee591364cd4b45c99ade22919050565b816010036115de575073ea0c58be3133cb7f035facf45cb1d4f84cf178b4919050565b8160110361160157507372db9b7bd2b0bc282708e85e16123023b32de6a9919050565b8160120361162457507372db9b7bd2b0bc282708e85e16123023b32de6a9919050565b81601303611647575073da8a70b9533debe425f8a3b2b33bc09c0415e5fe919050565b8160140361166a57507332ee0cb3587c6e9f8ad2a0cf83b6cf326848b7c6919050565b60405162461bcd60e51b81526020600482015260116024820152706e6f206f7261636c65206164647265737360781b60448201526064016103a5565b919050565b6000808073eeeeeeeeeeeeeeeeeeeeeeeeeeeeeeeeeeeeeeed196001600160a01b038516016116f257506729a2241af62c00009150673782dace9d90000090506000611877565b737f39c581f595b53c5cb19bd0b3f8da6c935e2c9f196001600160a01b0385160161173b5750672055d2a7b6a9000091506730927f74c9de00009050666a94d74f430000611877565b73cd5fe23c85820f7b72d0926fc9b05b43e359b7ed196001600160a01b0385160161178457506724150e398004000091506736d138126ecb00009050666a94d74f430000611877565b6001600160a01b03841673a0b86991c6218b36c1d19d4a2e9eb0ce3606eb4814806117cb57506001600160a01b03841673dac17f958d2ee523a2206206994597c13d831ec7145b156117eb57506402540be400915064037e11d60090506305f5e100611877565b739d39a5de30e57443bff2a8307a4256c8797a3496196001600160a01b0385160161183a57506901f2bba5d84f99c0000091506902f1854022a4c9b00000905068056bc75e2d63100000611877565b60405162461bcd60e51b81526020600482015260126024820152711b9bc8185b1b1bddd85b98d948199bdd5b9960721b60448201526064016103a5565b9193909250565b611886611f85565b60007352aa899454998be5b000ad077a46bbe360f4e49763b5c736e46118ae6008888a611cf2565b6040518263ffffffff1660e01b81526004016118cc91815260200190565b602060405180830381865afa1580156118e9573d6000803e3d6000fd5b505050506040513d601f19601f8201168201806040525081019061190d9190612330565b9050600061199d7352aa899454998be5b000ad077a46bbe360f4e49763b5c736e461193960058b611d52565b6040518263ffffffff1660e01b815260040161195791815260200190565b602060405180830381865afa158015611974573d6000803e3d6000fd5b505050506040513d601f19601f820116820180604052508101906119989190612330565b611d90565b5090506040518060c00160405280866001600160a01b03168152602001886001600160a01b031681526020018360011660ff168152602001613fff60a285901c16815260200162ffffff60b085901c168152602001828664e8d4a51000611a049190612606565b611a0e9190612633565b9052979650505050505050565b611a23611fd0565b60007352aa899454998be5b000ad077a46bbe360f4e49763b5c736e4611a4b6009898b611cf2565b6040518263ffffffff1660e01b8152600401611a6991815260200190565b602060405180830381865afa158015611a86573d6000803e3d6000fd5b505050506040513d601f19601f82011682018060405250810190611aaa9190612330565b90506000611ad67352aa899454998be5b000ad077a46bbe360f4e49763b5c736e461193960058c611d52565b9150506040518060e00160405280876001600160a01b03168152602001896001600160a01b031681526020018360011660ff168152602001613fff60a285901c16815260200162ffffff60b085901c168152602001828764e8d4a51000611b3d9190612606565b611b479190612633565b815260200182611b5c8764e8d4a51000612606565b611b669190612633565b905298975050505050505050565b6040805161018081018252600080825260208201819052918101829052606081018290526080810182905260a0810182905260c0810182905260e08101829052610100810182905261012081018290526101408101829052610160810191909152604051632d71cdb960e21b8152600160048201526000906001600160a01b0384169063b5c736e490602401602060405180830381865afa158015611c1d573d6000803e3d6000fd5b505050506040513d601f19601f82011682018060405250810190611c419190612330565b61ffff8082168452601082901c16602080850191909152909150611c6d9082901c6103ff16600a612655565b61ffff166040830152611c89602a82901c6103ff16600a612655565b61ffff166060830152611ca5603482901c6103ff16600a612655565b61ffff166080830152611cc1603e82901c6103ff16600a612655565b61ffff1660a08301526103ff604882901c811660c0840152605282901c1660e083015260601c610100820152919050565b604080516001600160a01b039384166020808301919091528183019590955281518082038301815260608201835280519086012092909316608084015260a0808401929092528051808403909201825260c0909201909152805191012090565b604080516001600160a01b03831660208201529081018390526000906060016040516020818303038152906040528051906020012090505b92915050565b67ffffffffffffffff605b82901c811690609b83901c16811580611db2575080155b15611dd557604051636a86ba8960e11b81526201117160048201526024016103a5565b61ffff8316603a84901c6401ffffffff16428181039160ea87901c617fff16911480611dff575082155b80611e0a5750806001145b15611e1757505050915091565b64496cebb80084840283020484019350617fff60db87901c16925082600103611e4257505050915091565b82600116600103611e975760019290921c91826c7e37be2022c0914b268000000081611e7057611e7061261d565b049250612710601e87901c613fff166b033b2e3c9fd0803ce8000000850102049250611ec4565b60019290921c916305f5e100601e87901c613fff166127108501026b033b2e3c9fd0803ce8000000020492505b80600116600103611efb5760011c61271081016b033b2e3c9fd0803ce8000000820281611ef357611ef361261d565b049050611f31565b60011c61271081016b033b2e3c9fd0803ce8000000820281611f1f57611f1f61261d565b046b033b2e3c9fd0803ce80000000390505b760a70c3c40a64e6c51999090b65f67d92400000000000008382026127100261ffff881691900402601087901c613fff16612710030292506801b5a660ea44b8000085840283020485019450505050915091565b6040518060c0016040528060006001600160a01b0316815260200160006001600160a01b03168152602001600060ff1681526020016000815260200160008152602001600081525090565b6040518060e0016040528060006001600160a01b0316815260200160006001600160a01b03168152602001600060ff168152602001600081526020016000815260200160008152602001600081525090565b634e487b7160e01b600052604160045260246000fd5b6040516101a0810167ffffffffffffffff8111828210171561205c5761205c612022565b60405290565b60006020828403121561207457600080fd5b813567ffffffffffffffff8082111561208c57600080fd5b818401915084601f8301126120a057600080fd5b8135818111156120b2576120b2612022565b604051601f8201601f19908116603f011681019083821181831017156120da576120da612022565b816040528281528760208487010111156120f357600080fd5b826020860160208301376000928101602001929092525095945050505050565b634e487b7160e01b600052603260045260246000fd5b6000815180845260005b8181101561214f57602081850181015186830182015201612133565b506000602082860101526020601f19601f83011685010191505092915050565b60018060a01b038316815260606020820152600960608201526865786563757465282960b81b608082015260a0604082015260006121b060a0830184612129565b949350505050565b600081518084526020808501945080840160005b838110156121f15781516001600160a01b0316875295820195908201906001016121cc565b509495945050505050565b600081518084526020808501945080840160005b838110156121f157815187529582019590820190600101612210565b600081518084526020808501808196508360051b8101915082860160005b85811015612274578284038952612262848351612129565b9885019893509084019060010161224a565b5091979650505050505050565b60a08152600061229460a08301886121b8565b6020838203818501526122a782896121fc565b915083820360408501528187518084528284019150828160051b850101838a0160005b838110156122f857601f198784030185526122e6838351612129565b948601949250908501906001016122ca565b5050868103606088015261230c818a61222c565b94505050505082810360808401526123248185612129565b98975050505050505050565b60006020828403121561234257600080fd5b5051919050565b634e487b7160e01b600052601160045260246000fd5b60006001820161237157612371612349565b5060010190565b60208152600061238b60208301846121b8565b9392505050565b80516001600160a01b03811681146116a657600080fd5b6000602082840312156123bb57600080fd5b61238b82612392565b80820180821115611d8a57611d8a612349565b805160ff811681146116a657600080fd5b60006101a082840312156123fb57600080fd5b612403612038565b61240c83612392565b815261241a60208401612392565b602082015261242b60408401612392565b604082015261243c60608401612392565b606082015261244d60808401612392565b608082015261245e60a08401612392565b60a082015261246f60c084016123d7565b60c082015261248060e084016123d7565b60e08201526101008381015190820152610120808401519082015261014080840151908201526101608084015190820152610180928301519281019290925250919050565b602080825282518282018190526000919060409081850190868401855b8281101561227457815180516001600160a01b0390811686528782015116878601528581015160ff1686860152606080820151908601526080808201519086015260a0908101519085015260c090930192908501906001016124e2565b602080825282518282018190526000919060409081850190868401855b8281101561227457815180516001600160a01b0390811686528782015116878601528581015160ff1686860152606080820151908601526080808201519086015260a0808201519086015260c0908101519085015260e0909301929085019060010161255c565b6060815260006125d660608301866121b8565b82810360208401526125e881866121b8565b905082810360408401526125fc81856121fc565b9695505050505050565b8082028115828204841417611d8a57611d8a612349565b634e487b7160e01b600052601260045260246000fd5b60008261265057634e487b7160e01b600052601260045260246000fd5b500490565b61ffff81811683821602808216919082811461267357612673612349565b50509291505056fe657865637574655061796c6f616428616464726573732c737472696e672c627974657329a2646970667358221220a3358fded563927772adc2665fd55b3790da905ed935e28d5dc85f8aad9c0d0664736f6c63430008150033","abi":[{"inputs":[],"stateMutability":"nonpayable","type":"constructor"},{"inputs":[{"internalType":"uint256","name":"errorId_","type":"uint256"}],"name":"FluidLiquidityCalcsError","type":"error"},{"inputs":[],"name":"ADDRESS_THIS","outputs":[{"internalType":"address","name":"","type":"address"}],"stateMutability":"view","type":"function"},{"inputs":[],"name":"ETH_ADDRESS","outputs":[{"internalType":"address","name":"","type":"address"}],"stateMutability":"view","type":"function"},{"inputs":[],"name":"FLUID_RESERVE","outputs":[{"internalType":"contract IFluidReserveContract","name":"","type":"address"}],"stateMutability":"view","type":"function"},{"inputs":[],"name":"GOVERNOR","outputs":[{"internalType":"contract IGovernorBravo","name":"","type":"address"}],"stateMutability":"view","type":"function"},{"inputs":[],"name":"LIQUIDITY","outputs":[{"internalType":"contract IFluidLiquidityAdmin","name":"","type":"address"}],"stateMutability":"view","type":"function"},{"inputs":[],"name":"PROPOSAL_ID","outputs":[{"internalType":"uint256","name":"","type":"uint256"}],"stateMutability":"view","type":"function"},{"inputs":[],"name":"PROPOSER","outputs":[{"internalType":"address","name":"","type":"address"}],"stateMutability":"view","type":"function"},{"inputs":[],"name":"PROPOSER_AVO_MULTISIG","outputs":[{"internalType":"address","name":"","type":"address"}],"stateMutability":"view","type":"function"},{"inputs":[],"name":"PROPOSER_AVO_MULTISIG_2","outputs":[{"internalType":"address","name":"","type":"address"}],"stateMutability":"view","type":"function"},{"inputs":[],"name":"TEAM_MULTISIG","outputs":[{"internalType":"address","name":"","type":"address"}],"stateMutability":"view","type":"function"},{"inputs":[],"name":"TIMELOCK","outputs":[{"internalType":"contract ITimelock","name":"","type":"address"}],"stateMutability":"view","type":"function"},{"inputs":[],"name":"USDC_ADDRESS","outputs":[{"internalType":"address","name":"","type":"address"}],"stateMutability":"view","type":"function"},{"inputs":[],"name":"USDT_ADDRESS","outputs":[{"internalType":"address","name":"","type":"address"}],"stateMutability":"view","type":"function"},{"inputs":[],"name":"VAULT_T1_FACTORY","outputs":[{"internalType":"contract IFluidVaultT1Factory","name":"","type":"address"}],"stateMutability":"view","type":"function"},{"inputs":[],"name":"execute","outputs":[],"stateMutability":"nonpayable","type":"function"},{"inputs":[{"internalType":"string","name":"description","type":"string"}],"name":"propose","outputs":[],"stateMutability":"nonpayable","type":"function"},{"inputs":[],"name":"sUSDe_ADDRESS","outputs":[{"internalType":"address","name":"","type":"address"}],"stateMutability":"view","type":"function"},{"inputs":[],"name":"weETH_ADDRESS","outputs":[{"internalType":"address","name":"","type":"address"}],"stateMutability":"view","type":"function"},{"inputs":[],"name":"wstETH_ADDRESS","outputs":[{"internalType":"address","name":"","type":"address"}],"stateMutability":"view","type":"function"}]}