{"address":"0xA6bDD37a28cd97289669aba8D314b05D411d90DD","bytecode":"0x60a060405234801561001057600080fd5b503060805260805161258f610037600039600081816102f00152610a71015261258f6000f3fe608060405234801561001057600080fd5b506004361061012c5760003560e01c80637e2f35fa116100ad578063b696649511610071578063b69664951461029a578063b788f3a1146102b5578063bffa7f0f146102d0578063cc025f7c146102eb578063e6bd26a21461031257600080fd5b80637e2f35fa146102235780638b0ab9221461023e57806397b87b4a146102595780639d3d2a7814610274578063aa98df391461028757600080fd5b8063588c77e6116100f4578063588c77e6146101c857806361461954146101e357806366760d7d146101eb5780636dc0ae22146101ed5780637aadef8b1461020857600080fd5b80630bc9136e14610131578063103f29071461014c57806312e366aa1461017f57806325ad7f4d146101925780632861c7d1146101ad575b600080fd5b610139603181565b6040519081526020015b60405180910390f35b61016773324c5dc1fc42c7a4d43d92df1eba58a54d13bf2d81565b6040516001600160a01b039091168152602001610143565b61016761018d366004611f66565b610325565b610167739efde135ca4832abf0408c44c6f5f370eb0f35e881565b6101677352aa899454998be5b000ad077a46bbe360f4e49781565b610167735c43aac965ff230ac1cf63e924d0153291d78bad81565b6101eb6103a3565b005b610167730204cd037b2ec03605cfdfe482d8e257c765fa1b81565b610167732386dc45added673317ef068992f19421b481f4c81565b61016773059a94a72451c0ae1cc1ce4bf0db52421bbe821081565b610167737af0c11f5c787632e567e6418d74e5832d8ffd4c81565b6101677391716c4eda1fb55e84bf8b4c7085f84285c1908581565b610139610282366004611f97565b610418565b6101eb610295366004611ffc565b6107ef565b61016773264786ef916af64a1db19f513f24a3681734ce9281565b610167734f6f977acdd1177dcd81ab83074855ecb9c2d49e81565b61016773a45f7bd6a5ff45d31aace6bcd3d426d9328cea0181565b6101677f000000000000000000000000000000000000000000000000000000000000000081565b610167610320366004611f66565b610b9c565b604051630971b35560e11b8152600481018290526000907391716c4eda1fb55e84bf8b4c7085f84285c19085906312e366aa906024015b602060405180830381865afa158015610379573d6000803e3d6000fd5b505050506040513d601f19601f8201168201806040525081019061039d91906120ad565b92915050565b30732386dc45added673317ef068992f19421b481f4c146103fe5760405162461bcd60e51b815260206004820152601060248201526f3737ba16bb30b634b216b1b0b63632b960811b60448201526064015b60405180910390fd5b610406610bd7565b61040e610cee565b610416610e1b565b565b600080841180156104295750600083115b156104765760405162461bcd60e51b815260206004820181905260248201527f626f74682075736420616e6420616d6f756e7420617265206e6f74207a65726f60448201526064016103f5565b604080516001600160a01b03871660208083019190915260058284015282518083038401815260608301938490528051910120632d71cdb960e21b90925260648101919091526000907352aa899454998be5b000ad077a46bbe360f4e4979063b5c736e490608401602060405180830381865afa1580156104fb573d6000803e3d6000fd5b505050506040513d601f19601f8201168201806040525081019061051f91906120d1565b905060008061052d83611447565b90925090506000601273eeeeeeeeeeeeeeeeeeeeeeeeeeeeeeeeeeeeeeed196001600160a01b038b160161056957506203d0909050601261076f565b737f39c581f595b53c5cb19bd0b3f8da6c935e2c9f196001600160a01b038b160161059c5750620488289050601261076f565b73cd5fe23c85820f7b72d0926fc9b05b43e359b7ed196001600160a01b038b16016105cf575062040b289050601261076f565b6001600160a01b038a1673cbb7c0000ab88b473b1f5afd9ef808440eed33bf148061061657506001600160a01b038a16732260fac5e5542a773aa44fbcfedf7c193bc2c599145b156106295750626760d89050600861076f565b6001600160a01b038a1673a0b86991c6218b36c1d19d4a2e9eb0ce3606eb48148061067057506001600160a01b038a1673dac17f958d2ee523a2206206994597c13d831ec7145b15610681575060649050600661076f565b739d39a5de30e57443bff2a8307a4256c8797a3496196001600160a01b038b16016106b25750606f9050601261076f565b73a3931d71877c0e7a3148cb7eb4463524fec27fbc196001600160a01b038b16016106e3575060709050601261076f565b6001600160a01b038a167340d16fc0246ad3160ccc09b8d0d3a2cd28ae6c2f148061072a57506001600160a01b038a16734c9edd5852cd905f086c759e8383e09bff1e68b3145b1561073b575060649050601261076f565b60405162461bcd60e51b81526020600482015260096024820152681b9bdd0b599bdd5b9960ba1b60448201526064016103f5565b60008761077c578361077e565b845b905089156107ad57806107968b64e8d4a51000612100565b6107a0919061212d565b96505050505050506107e7565b60646107b98285612100565b6107c3919061212d565b6107ce83600a612233565b6107dd8b64e8d4a51000612100565b6107969190612100565b949350505050565b3373a45f7bd6a5ff45d31aace6bcd3d426d9328cea011480610824575033734f6f977acdd1177dcd81ab83074855ecb9c2d49e145b8061084257503073059a94a72451c0ae1cc1ce4bf0db52421bbe8210145b80610860575030739efde135ca4832abf0408c44c6f5f370eb0f35e8145b80610869575060015b6108ae5760405162461bcd60e51b81526020600482015260166024820152751b5cd9cb9cd95b99195c8b5b9bdd0b585b1b1bddd95960521b60448201526064016103f5565b604080516001808252818301909252600090826020808301908036833701905050905060008267ffffffffffffffff8111156108ec576108ec611fe6565b604051908082528060200260200182016040528015610915578160200160208202803683370190505b50905060008367ffffffffffffffff81111561093357610933611fe6565b60405190808252806020026020018201604052801561096657816020015b60608152602001906001900390816109515790505b50905060008467ffffffffffffffff81111561098457610984611fe6565b6040519080825280602002602001820160405280156109b757816020015b60608152602001906001900390816109a25790505b509050732386dc45added673317ef068992f19421b481f4c846000815181106109e2576109e261223f565b60200260200101906001600160a01b031690816001600160a01b031681525050600083600081518110610a1757610a1761223f565b6020026020010181815250506040518060600160405280602481526020016125366024913982600081518110610a4f57610a4f61223f565b60209081029190910181019190915260408051600081529182018152610a98917f000000000000000000000000000000000000000000000000000000000000000091810161229b565b60405160208183030381529060405281600081518110610aba57610aba61223f565b6020908102919091010152604051636d4ab48d60e11b8152600090730204cd037b2ec03605cfdfe482d8e257c765fa1b9063da95691a90610b079088908890889088908e9060040161236c565b6020604051808303816000875af1158015610b26573d6000803e3d6000fd5b505050506040513d601f19601f82011682018060405250810190610b4a91906120d1565b905060318114610b935760405162461bcd60e51b815260206004820152601460248201527350524f504f53414c5f49535f4e4f545f53414d4560601b60448201526064016103f5565b50505050505050565b60405163735e935160e11b81526004810182905260009073324c5dc1fc42c7a4d43d92df1eba58a54d13bf2d9063e6bd26a29060240161035c565b6000610be36002610325565b90506b033ac45b91e919c6178000006000610c0d61270b6c7e37be2022c0914b268000000061212d565b604051635a70f01960e11b815260048101829052602481018490529091506001600160a01b0384169063b4e1e03290604401600060405180830381600087803b158015610c5957600080fd5b505af1158015610c6d573d6000803e3d6000fd5b50506040516328a5548760e21b8152620c35006004820181905260248201819052612a3060448301819052606483015294506001600160a01b038616935063a295521c925060840190505b600060405180830381600087803b158015610cd257600080fd5b505af1158015610ce6573d6000803e3d6000fd5b505050505050565b6000604051806101000160405280610d066005610325565b6001600160a01b0316815273eeeeeeeeeeeeeeeeeeeeeeeeeeeeeeeeeeeeeeee602082015273a0b86991c6218b36c1d19d4a2e9eb0ce3606eb486040820152600160608201819052608082015262e4e1c060a08201526298968060c082015262b71b0060e0909101529050610d7a8161163c565b5073324c5dc1fc42c7a4d43d92df1eba58a54d13bf2d637faa1d21610d9f603e610b9c565b6040516001600160e01b031960e084901b1681526001600160a01b039091166004820152734f6f977acdd1177dcd81ab83074855ecb9c2d49e602482015260006044820152606401600060405180830381600087803b158015610e0157600080fd5b505af1158015610e15573d6000803e3d6000fd5b50505050565b604080516103008101825260019181018290526109c4606082015261a8c060808201819052627270e060a08301819052600060c084018190526101008401949094526107d061012084015261014083019190915261016082015261018081018290526301312d006101a08201526101c081018290526127106101e082018190526102008201526102c0810182905260428152734c9edd5852cd905f086c759e8383e09bff1e68b3602082015273a0b86991c6218b36c1d19d4a2e9eb0ce3606eb4860e08201526123286102208201526123f061024082015261251c6102608201526101f461028082015260c86102a0820152738e5fa052ee010bcbac7d00d859100b48a6a409676102e082015290610f328261183a565b90506001600160a01b038116610f5a5760405162461bcd60e51b81526004016103f59061240b565b5060438152734c9edd5852cd905f086c759e8383e09bff1e68b3602082015273dac17f958d2ee523a2206206994597c13d831ec760e08201526123286102208201526123f061024082015261251c6102608201526101f461028082015260c86102a0820152738e5fa052ee010bcbac7d00d859100b48a6a409676102e08201526000610fe58261183a565b90506001600160a01b03811661100d5760405162461bcd60e51b81526004016103f59061240b565b5060448152734c9edd5852cd905f086c759e8383e09bff1e68b360208201527340d16fc0246ad3160ccc09b8d0d3a2cd28ae6c2f60e08201526123286102208201526123f061024082015261251c6102608201526101f461028082015260c86102a082015273ad3feae8c608681e989d393b48faee71e664050a6102e082015260006110988261183a565b90506001600160a01b0381166110c05760405162461bcd60e51b81526004016103f59061240b565b506045815273eeeeeeeeeeeeeeeeeeeeeeeeeeeeeeeeeeeeeeee6020820152734c9edd5852cd905f086c759e8383e09bff1e68b360e08201526121346102208201526123286102408201526124546102608201526101f461028082015260fa6102a0820152734a67e941ccd89806ba2397ba336d791759d512ca6102e0820152600061114b8261183a565b90506001600160a01b0381166111735760405162461bcd60e51b81526004016103f59061240b565b5060468152737f39c581f595b53c5cb19bd0b3f8da6c935e2ca06020820152734c9edd5852cd905f086c759e8383e09bff1e68b360e08201526120086102208201526122606102408201526124226102608201526101f461028082015261012c6102a0820152734908422a87111394c05751dffae4a64be18b05e36102e082015260006111ff8261183a565b90506001600160a01b0381166112275760405162461bcd60e51b81526004016103f59061240b565b506047815273cd5fe23c85820f7b72d0926fc9b05b43e359b7ee6020820152734c9edd5852cd905f086c759e8383e09bff1e68b360e0820152611e146102208201526120086102408201526123286102608201526101f461028082015261012c6102a082015273743fb38fd621fc836f3383531fb576e8a35059e16102e082015260006112b38261183a565b90506001600160a01b0381166112db5760405162461bcd60e51b81526004016103f59061240b565b5060488152732260fac5e5542a773aa44fbcfedf7c193bc2c5996020820152734c9edd5852cd905f086c759e8383e09bff1e68b360e08201526121346102208201526122606102408201526124226102608201526101f461028082015261012c6102a082015273538fec4b539ad20b55ba2f08b58bc28bc669adc36102e082015260006113678261183a565b90506001600160a01b03811661138f5760405162461bcd60e51b81526004016103f59061240b565b506049815273cbb7c0000ab88b473b1f5afd9ef808440eed33bf6020820152734c9edd5852cd905f086c759e8383e09bff1e68b360e08201526121346102208201526122606102408201526124226102608201526101f461028082015261012c6102a0820152730e701afc1fef3e963a42cc1ccf81beae0febf20a6102e0820152600061141b8261183a565b90506001600160a01b0381166114435760405162461bcd60e51b81526004016103f59061240b565b5050565b67ffffffffffffffff605b82901c811690609b83901c16811580611469575080155b1561148c57604051636a86ba8960e11b81526201117160048201526024016103f5565b61ffff8316603a84901c6401ffffffff16428181039160ea87901c617fff169114806114b6575082155b806114c15750806001145b156114ce57505050915091565b64496cebb80084840283020484019350617fff60db87901c169250826001036114f957505050915091565b8260011660010361154e5760019290921c91826c7e37be2022c0914b26800000008161152757611527612117565b049250612710601e87901c613fff166b033b2e3c9fd0803ce800000085010204925061157b565b60019290921c916305f5e100601e87901c613fff166127108501026b033b2e3c9fd0803ce8000000020492505b806001166001036115b25760011c61271081016b033b2e3c9fd0803ce80000008202816115aa576115aa612117565b0490506115e8565b60011c61271081016b033b2e3c9fd0803ce80000008202816115d6576115d6612117565b046b033b2e3c9fd0803ce80000000390505b760a70c3c40a64e6c51999090b65f67d92400000000000008382026127100261ffff881691900402601087901c613fff16612710030292506801b5a660ea44b8000085840283020485019450505050915091565b8060600151156116e75760006040518060a0016040528083600001516001600160a01b0316815260200183602001516001600160a01b031681526020016113888152602001610e1081526020018360a00151815250905061169c81611ccd565b6040805160a0808201835284516001600160a01b0390811683528584015116602083015261138892820192909252610e1060608201529083015160808201526116e481611ccd565b50505b8060800151156117a65760006040518060c0016040528083600001516001600160a01b0316815260200183602001516001600160a01b031681526020016113888152602001610e1081526020018360c0015181526020018360e00151815250905061175181611dbe565b6040805160c0808201835284516001600160a01b0390811683528584015116602083015261138892820192909252610e10606082015290830151608082015260e083015160a08201526117a381611dbe565b50505b8051604051630f18fc2760e31b81526001600160a01b039091166004820152734f6f977acdd1177dcd81ab83074855ecb9c2d49e6024820152600060448201527391716c4eda1fb55e84bf8b4c7085f84285c19085906378c7e13890606401600060405180830381600087803b15801561181f57600080fd5b505af1158015611833573d6000803e3d6000fd5b5050505050565b805160405163735e935160e11b815260009173324c5dc1fc42c7a4d43d92df1eba58a54d13bf2d9163e6bd26a2916118789160040190815260200190565b602060405180830381865afa158015611895573d6000803e3d6000fd5b505050506040513d601f19601f820116820180604052508101906118b991906120ad565b60408051600180825281830190925291925060009190816020015b6118dc611ec9565b8152602001906001900390816118d45790505090506040518060c00160405280836001600160a01b0316815260200184602001516001600160a01b03168152602001846040015160ff168152602001846060015181526020018460800151815260200161195885602001518660c001518760a001516001610418565b8152508160008151811061196e5761196e61223f565b60209081029190910101526040516301635db560e11b81527352aa899454998be5b000ad077a46bbe360f4e497906302c6bb6a906119b0908490600401612437565b600060405180830381600087803b1580156119ca57600080fd5b505af11580156119de573d6000803e3d6000fd5b5060009350600192506119ef915050565b604051908082528060200260200182016040528015611a2857816020015b611a15611f14565b815260200190600190039081611a0d5790505b5090506040518060e00160405280836001600160a01b031681526020018460e001516001600160a01b0316815260200184610100015160ff16815260200184610120015181526020018461014001518152602001611a978560e001518661018001518761016001516000610418565b8152602001611ab78560e00151866101c00151876101a001516000610418565b81525081600081518110611acd57611acd61223f565b602090810291909101015260405162dc47c360e11b81527352aa899454998be5b000ad077a46bbe360f4e497906301b88f8690611b0e9084906004016124b1565b600060405180830381600087803b158015611b2857600080fd5b505af1158015611b3c573d6000803e3d6000fd5b505050506101e08301516102008401516102208501516102408601516102608701516102808801516102a08901516102c08a01516040516354b04ef560e01b81526004810198909852602488019690965260448701949094526064860192909252608485015260a484015260c483015260e48201526001600160a01b03831691506354b04ef59061010401600060405180830381600087803b158015611be157600080fd5b505af1158015611bf5573d6000803e3d6000fd5b505050506102e082015160405163072d137f60e21b81526001600160a01b03918216600482015290821690631cb44dfc90602401600060405180830381600087803b158015611c4357600080fd5b505af1158015611c57573d6000803e3d6000fd5b505060405163b046a44960e01b815273264786ef916af64a1db19f513f24a3681734ce9260048201526001600160a01b038416925063b046a4499150602401600060405180830381600087803b158015611cb057600080fd5b505af1158015611cc4573d6000803e3d6000fd5b50505050919050565b604080516001808252818301909252600091816020015b611cec611ec9565b815260200190600190039081611ce45790505090506040518060c0016040528083600001516001600160a01b0316815260200183602001516001600160a01b03168152602001600160ff1681526020018360400151815260200183606001518152602001611d668460200151600086608001516001610418565b81525081600081518110611d7c57611d7c61223f565b60209081029190910101526040516301635db560e11b81527352aa899454998be5b000ad077a46bbe360f4e497906302c6bb6a90610cb8908490600401612437565b604080516001808252818301909252600091816020015b611ddd611f14565b815260200190600190039081611dd55790505090506040518060e0016040528083600001516001600160a01b0316815260200183602001516001600160a01b03168152602001600160ff1681526020018360400151815260200183606001518152602001611e578460200151600086608001516000610418565b8152602001611e72846020015160008660a001516000610418565b81525081600081518110611e8857611e8861223f565b602090810291909101015260405162dc47c360e11b81527352aa899454998be5b000ad077a46bbe360f4e497906301b88f8690610cb89084906004016124b1565b6040518060c0016040528060006001600160a01b0316815260200160006001600160a01b03168152602001600060ff1681526020016000815260200160008152602001600081525090565b6040518060e0016040528060006001600160a01b0316815260200160006001600160a01b03168152602001600060ff168152602001600081526020016000815260200160008152602001600081525090565b600060208284031215611f7857600080fd5b5035919050565b6001600160a01b0381168114611f9457600080fd5b50565b60008060008060808587031215611fad57600080fd5b8435611fb881611f7f565b9350602085013592506040850135915060608501358015158114611fdb57600080fd5b939692955090935050565b634e487b7160e01b600052604160045260246000fd5b60006020828403121561200e57600080fd5b813567ffffffffffffffff8082111561202657600080fd5b818401915084601f83011261203a57600080fd5b81358181111561204c5761204c611fe6565b604051601f8201601f19908116603f0116810190838211818310171561207457612074611fe6565b8160405282815287602084870101111561208d57600080fd5b826020860160208301376000928101602001929092525095945050505050565b6000602082840312156120bf57600080fd5b81516120ca81611f7f565b9392505050565b6000602082840312156120e357600080fd5b5051919050565b634e487b7160e01b600052601160045260246000fd5b808202811582820484141761039d5761039d6120ea565b634e487b7160e01b600052601260045260246000fd5b60008261214a57634e487b7160e01b600052601260045260246000fd5b500490565b600181815b8085111561218a578160001904821115612170576121706120ea565b8085161561217d57918102915b93841c9390800290612154565b509250929050565b6000826121a15750600161039d565b816121ae5750600061039d565b81600181146121c457600281146121ce576121ea565b600191505061039d565b60ff8411156121df576121df6120ea565b50506001821b61039d565b5060208310610133831016604e8410600b841016171561220d575081810a61039d565b612217838361214f565b806000190482111561222b5761222b6120ea565b029392505050565b60006120ca8383612192565b634e487b7160e01b600052603260045260246000fd5b6000815180845260005b8181101561227b5760208185018101518683018201520161225f565b506000602082860101526020601f19601f83011685010191505092915050565b60018060a01b038316815260606020820152600960608201526865786563757465282960b81b608082015260a0604082015260006107e760a0830184612255565b600081518084526020808501945080840160005b8381101561230c578151875295820195908201906001016122f0565b509495945050505050565b600081518084526020808501808196508360051b8101915082860160005b8581101561235f57828403895261234d848351612255565b98850198935090840190600101612335565b5091979650505050505050565b60a0808252865190820181905260009060209060c0840190828a01845b828110156123ae5781516001600160a01b031684529284019290840190600101612389565b505050838103828501526123c281896122dc565b91505082810360408401526123d78187612317565b905082810360608401526123eb8186612317565b905082810360808401526123ff8185612255565b98975050505050505050565b6020808252601290820152711d985d5b1d0b5b9bdd0b59195c1b1bde595960721b604082015260600190565b602080825282518282018190526000919060409081850190868401855b8281101561235f57815180516001600160a01b0390811686528782015116878601528581015160ff1686860152606080820151908601526080808201519086015260a0908101519085015260c09093019290850190600101612454565b602080825282518282018190526000919060409081850190868401855b8281101561235f57815180516001600160a01b0390811686528782015116878601528581015160ff1686860152606080820151908601526080808201519086015260a0808201519086015260c0908101519085015260e090930192908501906001016124ce56fe657865637574655061796c6f616428616464726573732c737472696e672c627974657329a26469706673582212207fe9dc815004a3f6c16035dfdd432afb088c626f66828be3f0e794accd4d8dca64736f6c63430008150033","abi":[{"inputs":[],"stateMutability":"nonpayable","type":"constructor"},{"inputs":[{"internalType":"uint256","name":"errorId_","type":"uint256"}],"name":"FluidLiquidityCalcsError","type":"error"},{"inputs":[],"name":"ADDRESS_THIS","outputs":[{"internalType":"address","name":"","type":"address"}],"stateMutability":"view","type":"function"},{"inputs":[],"name":"DEX_FACTORY","outputs":[{"internalType":"contract FluidDexFactory","name":"","type":"address"}],"stateMutability":"view","type":"function"},{"inputs":[],"name":"FLUID_DEX_RESOLVER","outputs":[{"internalType":"contract IFluidDexResolver","name":"","type":"address"}],"stateMutability":"view","type":"function"},{"inputs":[],"name":"FLUID_RESERVE","outputs":[{"internalType":"contract IFluidReserveContract","name":"","type":"address"}],"stateMutability":"view","type":"function"},{"inputs":[],"name":"GOVERNOR","outputs":[{"internalType":"contract IGovernorBravo","name":"","type":"address"}],"stateMutability":"view","type":"function"},{"inputs":[],"name":"LIQUIDITY","outputs":[{"internalType":"contract IFluidLiquidityAdmin","name":"","type":"address"}],"stateMutability":"view","type":"function"},{"inputs":[],"name":"PROPOSAL_ID","outputs":[{"internalType":"uint256","name":"","type":"uint256"}],"stateMutability":"view","type":"function"},{"inputs":[],"name":"PROPOSER","outputs":[{"internalType":"address","name":"","type":"address"}],"stateMutability":"view","type":"function"},{"inputs":[],"name":"PROPOSER_AVO_MULTISIG","outputs":[{"internalType":"address","name":"","type":"address"}],"stateMutability":"view","type":"function"},{"inputs":[],"name":"PROPOSER_AVO_MULTISIG_2","outputs":[{"internalType":"address","name":"","type":"address"}],"stateMutability":"view","type":"function"},{"inputs":[],"name":"PROPOSER_AVO_MULTISIG_3","outputs":[{"internalType":"address","name":"","type":"address"}],"stateMutability":"view","type":"function"},{"inputs":[],"name":"TEAM_MULTISIG","outputs":[{"internalType":"address","name":"","type":"address"}],"stateMutability":"view","type":"function"},{"inputs":[],"name":"TIMELOCK","outputs":[{"internalType":"contract ITimelock","name":"","type":"address"}],"stateMutability":"view","type":"function"},{"inputs":[],"name":"VAULT_FACTORY","outputs":[{"internalType":"contract FluidVaultFactory","name":"","type":"address"}],"stateMutability":"view","type":"function"},{"inputs":[],"name":"execute","outputs":[],"stateMutability":"nonpayable","type":"function"},{"inputs":[{"internalType":"uint256","name":"dexId_","type":"uint256"}],"name":"getDexAddress","outputs":[{"internalType":"address","name":"","type":"address"}],"stateMutability":"view","type":"function"},{"inputs":[{"internalType":"address","name":"token","type":"address"},{"internalType":"uint256","name":"amount","type":"uint256"},{"internalType":"uint256","name":"amountInUSD","type":"uint256"},{"internalType":"bool","name":"isSupply","type":"bool"}],"name":"getRawAmount","outputs":[{"internalType":"uint256","name":"","type":"uint256"}],"stateMutability":"view","type":"function"},{"inputs":[{"internalType":"uint256","name":"vaultId_","type":"uint256"}],"name":"getVaultAddress","outputs":[{"internalType":"address","name":"","type":"address"}],"stateMutability":"view","type":"function"},{"inputs":[{"internalType":"string","name":"description","type":"string"}],"name":"propose","outputs":[],"stateMutability":"nonpayable","type":"function"},{"inputs":[],"name":"verifyProposal","outputs":[],"stateMutability":"view","type":"function"}]}