{"address":"0x3e243C07eDa53f90f4EbdA41bA12946E07B8ff80","bytecode":"0x60c06040527f2386dc45added673317ef068992f19421b481f4c00000000000000000000000060805234801561003457600080fd5b5030606081811b60a052608051901c90610bad61006b6000398061046152806105a05250806101f552806103b25250610bad6000f3fe608060405234801561001057600080fd5b50600436106100cf5760003560e01c80636dc0ae221161008c578063aa98df3911610066578063aa98df3914610141578063b788f3a114610154578063bffa7f0f1461015c578063cc025f7c14610164576100cf565b80636dc0ae22146101295780637aadef8b146101315780637e2f35fa14610139576100cf565b80630680f417146100d45780630bc9136e146100f25780631e4a1a8c1461010757806353e568201461010f578063614619541461011757806366760d7d14610121575b600080fd5b6100dc61016c565b6040516100e9919061097b565b60405180910390f35b6100fa610184565b6040516100e99190610aec565b6100dc610189565b6100dc6101a1565b61011f6101b9565b005b61011f6101d9565b6100dc6101db565b6100dc6101f3565b6100dc610217565b61011f61014f3660046107aa565b61022f565b6100dc61056e565b6100dc610586565b6100dc61059e565b73a0d3707c569ff8c87fa923d3823ec5d81c98be7881565b600e81565b731f6b2bfdd5d1e6ade7b17027ff5300419a56ad6b81565b73a0f83fc5885cebc0420ce7c7b139adc80c4f4d9181565b6101c16105c2565b6101c961062f565b6101d1610722565b6101d961075c565b565b730204cd037b2ec03605cfdfe482d8e257c765fa1b81565b7f000000000000000000000000000000000000000000000000000000000000000081565b73059a94a72951c0ae1cc1ce3bf0db52421bbe821081565b3373a45f7bd6a5ff45d31aace6bcd3d426d9328cea011480610264575033734f6f977acdd1177dcd81ab83074855ecb9c2d49e145b8061028257503073059a94a72951c0ae1cc1ce3bf0db52421bbe8210145b6102a75760405162461bcd60e51b815260040161029e90610af5565b60405180910390fd5b604080516001808252818301909252606090826020808301908036833701905050905060608267ffffffffffffffff811180156102e357600080fd5b5060405190808252806020026020018201604052801561030d578160200160208202803683370190505b50905060608367ffffffffffffffff8111801561032957600080fd5b5060405190808252806020026020018201604052801561035d57816020015b60608152602001906001900390816103485790505b50905060608467ffffffffffffffff8111801561037957600080fd5b506040519080825280602002602001820160405280156103ad57816020015b60608152602001906001900390816103985790505b5090507f0000000000000000000000000000000000000000000000000000000000000000846000815181106103de57fe5b60200260200101906001600160a01b031690816001600160a01b03168152505060008360008151811061040d57fe5b602002602001018181525050604051806060016040528060248152602001610b54602491398260008151811061043f57fe5b60209081029190910181019190915260408051600081529182018152610488917f00000000000000000000000000000000000000000000000000000000000000009181016109aa565b604051602081830303815290604052816000815181106104a457fe5b6020908102919091010152604051636d4ab48d60e11b8152600090730204cd037b2ec03605cfdfe482d8e257c765fa1b9063da95691a906104f19088908890889088908e906004016109f3565b602060405180830381600087803b15801561050b57600080fd5b505af115801561051f573d6000803e3d6000fd5b505050506040513d601f19601f82011682018060405250810190610543919061083f565b9050600e81146105655760405162461bcd60e51b815260040161029e90610b25565b50505050505050565b734f6f977acdd1177dcd81ab83074855ecb9c2d49e81565b73a45f7bd6a5ff45d31aace6bcd3d426d9328cea0181565b7f000000000000000000000000000000000000000000000000000000000000000081565b604051631427086960e21b815273a0f83fc5885cebc0420ce7c7b139adc80c4f4d919063509c21a4906105fb9061245490600401610aec565b600060405180830381600087803b15801561061557600080fd5b505af1158015610629573d6000803e3d6000fd5b50505050565b60408051600180825281830190925260609160208083019080368337505060408051600180825281830190925292935060609291506020808301908036833701905050905060088260008151811061068357fe5b602002602001019060ff16908160ff1681525050620e1d48816000815181106106a857fe5b60209081029190910101526040516307ac73b360e31b815273a0d3707c569ff8c87fa923d3823ec5d81c98be7890633d639d98906106ec9085908590600401610a92565b600060405180830381600087803b15801561070657600080fd5b505af115801561071a573d6000803e3d6000fd5b505050505050565b604051637dc7b23960e01b815273a0d3707c569ff8c87fa923d3823ec5d81c98be7890637dc7b239906105fb90620dbba090600401610aec565b60405163d1a81a8d60e01b8152731f6b2bfdd5d1e6ade7b17027ff5300419a56ad6b9063d1a81a8d906105fb9073a02744dc2245e84ff3e309badfb4e54bb0ec2cf89060019060040161098f565b600060208083850312156107bc578182fd5b823567ffffffffffffffff808211156107d3578384fd5b818501915085601f8301126107e6578384fd5b8135818111156107f257fe5b604051601f8201601f191681018501838111828210171561080f57fe5b6040528181528382018501881015610825578586fd5b818585018683013790810190930193909352509392505050565b600060208284031215610850578081fd5b5051919050565b60008282518085526020808601955080818302840101818601855b848110156108a057601f1986840301895261088e838351610930565b98840198925090830190600101610872565b5090979650505050505050565b60008282518085526020808601955080818302840101818601855b848110156108a057601f198684030189526108e4838351610930565b988401989250908301906001016108c8565b6000815180845260208085019450808401835b8381101561092557815187529582019590820190600101610909565b509495945050505050565b60008151808452815b8181101561095557602081850181015186830182015201610939565b818111156109665782602083870101525b50601f01601f19169290920160200192915050565b6001600160a01b0391909116815260200190565b6001600160a01b039290921682521515602082015260400190565b600060018060a01b038416825260606020830152600960608301526865786563757465282960b81b608083015260a060408301526109eb60a0830184610930565b949350505050565b60a0808252865190820181905260009060209060c0840190828a01845b82811015610a355781516001600160a01b031684529284019290840190600101610a10565b50505083810382850152610a4981896108f6565b9150508281036040840152610a5e81876108ad565b90508281036060840152610a728186610857565b90508281036080840152610a868185610930565b98975050505050505050565b604080825283519082018190526000906020906060840190828701845b82811015610ace57815160ff1684529284019290840190600101610aaf565b50505083810382850152610ae281866108f6565b9695505050505050565b90815260200190565b6020808252601690820152751b5cd9cb9cd95b99195c8b5b9bdd0b585b1b1bddd95960521b604082015260600190565b60208082526014908201527350524f504f53414c5f49535f4e4f545f53414d4560601b60408201526060019056fe657865637574655061796c6f616428616464726573732c737472696e672c627974657329a2646970667358221220c33224cbd4165928c471bb1726d9836b733ca5c730e73cd30f8c8195b5ab2e9d64736f6c63430007030033","abi":[{"inputs":[],"stateMutability":"nonpayable","type":"constructor"},{"inputs":[],"name":"ADDRESS_THIS","outputs":[{"internalType":"address","name":"","type":"address"}],"stateMutability":"view","type":"function"},{"inputs":[],"name":"GOVERNOR","outputs":[{"internalType":"contract IGovernorBravo","name":"","type":"address"}],"stateMutability":"view","type":"function"},{"inputs":[],"name":"LITE","outputs":[{"internalType":"contract ILite","name":"","type":"address"}],"stateMutability":"view","type":"function"},{"inputs":[],"name":"PROPOSAL_ID","outputs":[{"internalType":"uint256","name":"","type":"uint256"}],"stateMutability":"view","type":"function"},{"inputs":[],"name":"PROPOSER","outputs":[{"internalType":"address","name":"","type":"address"}],"stateMutability":"view","type":"function"},{"inputs":[],"name":"PROPOSER_AVO_MULTISIG","outputs":[{"internalType":"address","name":"","type":"address"}],"stateMutability":"view","type":"function"},{"inputs":[],"name":"STETH_PROTOCOL","outputs":[{"internalType":"contract IstETHProtocol","name":"","type":"address"}],"stateMutability":"view","type":"function"},{"inputs":[],"name":"TEAM_MULTISIG","outputs":[{"internalType":"address","name":"","type":"address"}],"stateMutability":"view","type":"function"},{"inputs":[],"name":"TIMELOCK","outputs":[{"internalType":"contract ITimelock","name":"","type":"address"}],"stateMutability":"view","type":"function"},{"inputs":[],"name":"VAULT_WSTETH_ETH","outputs":[{"internalType":"address","name":"","type":"address"}],"stateMutability":"view","type":"function"},{"inputs":[],"name":"execute","outputs":[],"stateMutability":"nonpayable","type":"function"},{"inputs":[{"internalType":"string","name":"description","type":"string"}],"name":"propose","outputs":[],"stateMutability":"nonpayable","type":"function"},{"inputs":[],"name":"verifyProposal","outputs":[],"stateMutability":"view","type":"function"}]}