{"address":"0x236c86cFe8F8997DBac9138096bceB03807b09cc","bytecode":"0x60a060405234801561001057600080fd5b5030608052608051612998610037600039600081816102ca01526109d201526129986000f3fe608060405234801561001057600080fd5b50600436106101215760003560e01c80636dc0ae22116100ad578063aa98df3911610071578063aa98df391461027c578063b788f3a11461028f578063bffa7f0f146102aa578063cc025f7c146102c5578063e6bd26a2146102ec57600080fd5b80636dc0ae22146101fd5780637aadef8b146102185780637e2f35fa1461023357806397b87b4a1461024e5780639d3d2a781461026957600080fd5b806325ad7f4d116100f457806325ad7f4d146101a25780632861c7d1146101bd578063588c77e6146101d857806361461954146101f357806366760d7d146101fb57600080fd5b80630680f417146101265780630bc9136e1461015e578063103f29071461017457806312e366aa1461018f575b600080fd5b61014173a0d3707c569ff8c87fa923d3823ec5d81c98be7881565b6040516001600160a01b0390911681526020015b60405180910390f35b610166602c81565b604051908152602001610155565b61014173324c5dc1fc42c7a4d43d92df1eba58a54d13bf2d81565b61014161019d36600461215b565b6102ff565b610141739efde135ca4832abf0408c44c6f5f370eb0f35e881565b6101417352aa899454998be5b000ad077a46bbe360f4e49781565b610141735c43aac965ff230ac1cf63e924d0153291d78bad81565b6101fb61037d565b005b610141730204cd037b2ec03605cfdfe482d8e257c765fa1b81565b610141732386dc45added673317ef068992f19421b481f4c81565b61014173059a94a72451c0ae1cc1ce4bf0db52421bbe821081565b61014173f9b539cd37fc81bbea1f078240d16b988bbae07381565b610166610277366004612189565b610402565b6101fb61028a36600461221f565b610750565b610141734f6f977acdd1177dcd81ab83074855ecb9c2d49e81565b61014173a45f7bd6a5ff45d31aace6bcd3d426d9328cea0181565b6101417f000000000000000000000000000000000000000000000000000000000000000081565b6101416102fa36600461215b565b610afd565b604051630971b35560e11b81526004810182905260009073f9b539cd37fc81bbea1f078240d16b988bbae073906312e366aa906024015b602060405180830381865afa158015610353573d6000803e3d6000fd5b505050506040513d601f19601f8201168201806040525081019061037791906122b4565b92915050565b30732386dc45added673317ef068992f19421b481f4c146103d85760405162461bcd60e51b815260206004820152601060248201526f3737ba16bb30b634b216b1b0b63632b960811b60448201526064015b60405180910390fd5b6103e0610b38565b6103e8610cdd565b6103f061101c565b6103f861119a565b6104006113e6565b565b600080841180156104135750600083115b156104605760405162461bcd60e51b815260206004820181905260248201527f626f74682075736420616e6420616d6f756e7420617265206e6f74207a65726f60448201526064016103cf565b604080516001600160a01b03871660208083019190915260058284015282518083038401815260608301938490528051910120632d71cdb960e21b90925260648101919091526000907352aa899454998be5b000ad077a46bbe360f4e4979063b5c736e490608401602060405180830381865afa1580156104e5573d6000803e3d6000fd5b505050506040513d601f19601f8201168201806040525081019061050991906122d8565b90506000806105178361177c565b90925090506000601273eeeeeeeeeeeeeeeeeeeeeeeeeeeeeeeeeeeeeeed196001600160a01b038b1601610553575062040b28905060126106d0565b737f39c581f595b53c5cb19bd0b3f8da6c935e2c9f196001600160a01b038b160161058657506204ce78905060126106d0565b73cd5fe23c85820f7b72d0926fc9b05b43e359b7ed196001600160a01b038b16016105b9575062043bfc905060126106d0565b6001600160a01b038a1673cbb7c0000ab88b473b1f5afd9ef808440eed33bf148061060057506001600160a01b038a16732260fac5e5542a773aa44fbcfedf7c193bc2c599145b1561061357506267e990905060086106d0565b6001600160a01b038a1673a0b86991c6218b36c1d19d4a2e9eb0ce3606eb48148061065a57506001600160a01b038a1673dac17f958d2ee523a2206206994597c13d831ec7145b1561066b57506064905060066106d0565b739d39a5de30e57443bff2a8307a4256c8797a3496196001600160a01b038b160161069c5750606e905060126106d0565b60405162461bcd60e51b81526020600482015260096024820152681b9bdd0b599bdd5b9960ba1b60448201526064016103cf565b6000876106dd57836106df565b845b9050891561070e57806106f78b64e8d4a51000612307565b6107019190612334565b9650505050505050610748565b606461071a8285612307565b6107249190612334565b61072f83600a61243a565b61073e8b64e8d4a51000612307565b6106f79190612307565b949350505050565b3373a45f7bd6a5ff45d31aace6bcd3d426d9328cea011480610785575033734f6f977acdd1177dcd81ab83074855ecb9c2d49e145b806107a357503073059a94a72451c0ae1cc1ce4bf0db52421bbe8210145b806107c1575030739efde135ca4832abf0408c44c6f5f370eb0f35e8145b806107ca575060015b61080f5760405162461bcd60e51b81526020600482015260166024820152751b5cd9cb9cd95b99195c8b5b9bdd0b585b1b1bddd95960521b60448201526064016103cf565b604080516001808252818301909252600090826020808301908036833701905050905060008267ffffffffffffffff81111561084d5761084d6121d8565b604051908082528060200260200182016040528015610876578160200160208202803683370190505b50905060008367ffffffffffffffff811115610894576108946121d8565b6040519080825280602002602001820160405280156108c757816020015b60608152602001906001900390816108b25790505b50905060008467ffffffffffffffff8111156108e5576108e56121d8565b60405190808252806020026020018201604052801561091857816020015b60608152602001906001900390816109035790505b509050732386dc45added673317ef068992f19421b481f4c8460008151811061094357610943612446565b60200260200101906001600160a01b031690816001600160a01b03168152505060008360008151811061097857610978612446565b60200260200101818152505060405180606001604052806024815260200161293f60249139826000815181106109b0576109b0612446565b602090810291909101810191909152604080516000815291820181526109f9917f00000000000000000000000000000000000000000000000000000000000000009181016124a2565b60405160208183030381529060405281600081518110610a1b57610a1b612446565b6020908102919091010152604051636d4ab48d60e11b8152600090730204cd037b2ec03605cfdfe482d8e257c765fa1b9063da95691a90610a689088908890889088908e90600401612573565b6020604051808303816000875af1158015610a87573d6000803e3d6000fd5b505050506040513d601f19601f82011682018060405250810190610aab91906122d8565b9050602c8114610af45760405162461bcd60e51b815260206004820152601460248201527350524f504f53414c5f49535f4e4f545f53414d4560601b60448201526064016103cf565b50505050505050565b60405163735e935160e11b81526004810182905260009073324c5dc1fc42c7a4d43d92df1eba58a54d13bf2d9063e6bd26a290602401610336565b6000604051806101000160405280610b5060016102ff565b6001600160a01b03168152737f39c581f595b53c5cb19bd0b3f8da6c935e2ca0602082015273eeeeeeeeeeeeeeeeeeeeeeeeeeeeeeeeeeeeeeee6040820152600160608201819052608082015262b71b0060a0820181905260c082015263017d784060e0909101529050610bc381611971565b506000604051806101000160405280610bdc60026102ff565b6001600160a01b0316815273a0b86991c6218b36c1d19d4a2e9eb0ce3606eb48602082015273dac17f958d2ee523a2206206994597c13d831ec760408201526000606082018190526001608083015260a08201526298968060c08201526301312d0060e0909101529050610c4f81611971565b506000604051806101000160405280610c6860036102ff565b6001600160a01b0316815273cbb7c0000ab88b473b1f5afd9ef808440eed33bf6020820152732260fac5e5542a773aa44fbcfedf7c193bc2c59960408201526001606082018190526080820152627270e060a0820181905260c08201526298968060e0909101529050610cda81611971565b50565b60006040518060800160405280610cf46022610afd565b6001600160a01b03168152602001600281526000602082018190526040909101529050610d2081611add565b5060006040518060800160405280610d386023610afd565b6001600160a01b031681526020016001815273eeeeeeeeeeeeeeeeeeeeeeeeeeeeeeeeeeeeeeee602082015260006040909101529050610d7781611add565b5060006040518060800160405280610d8f6024610afd565b6001600160a01b0316815260200160018152737f39c581f595b53c5cb19bd0b3f8da6c935e2ca0602082015260006040909101529050610dce81611add565b5060006040518060800160405280610de66025610afd565b6001600160a01b031681526020016001815273cd5fe23c85820f7b72d0926fc9b05b43e359b7ee602082015260006040909101529050610e2581611add565b5060006040518060800160405280610e3d6026610afd565b6001600160a01b0316815260200160018152732260fac5e5542a773aa44fbcfedf7c193bc2c599602082015260006040909101529050610e7c81611add565b5060006040518060800160405280610e946027610afd565b6001600160a01b031681526020016001815273cbb7c0000ab88b473b1f5afd9ef808440eed33bf602082015260006040909101529050610ed381611add565b5060006040518060800160405280610eeb6028610afd565b6001600160a01b0316815260200160018152739d39a5de30e57443bff2a8307a4256c8797a3497602082015260006040909101529050610f2a81611add565b5060006040518060800160405280610f426029610afd565b6001600160a01b03168152602001600281526000602082018190526040909101529050610f6e81611add565b5060006040518060800160405280610f86602a610afd565b6001600160a01b03168152602001600081526000602082015273a0b86991c6218b36c1d19d4a2e9eb0ce3606eb486040909101529050610fc581611add565b5060006040518060800160405280610fdd602b610afd565b6001600160a01b03168152602001600081526000602082015273dac17f958d2ee523a2206206994597c13d831ec76040909101529050610cda81611add565b6040516311272db960e31b8152738ec5e29ea39b2f64b21e32cb9ff11d5059982f8c6004820181905290736967e68f7f9b3921181f27e66aa9c3ac7e13dbc0906000907352aa899454998be5b000ad077a46bbe360f4e497906389396dc890602401600060405180830381865afa15801561109b573d6000803e3d6000fd5b505050506040513d6000823e601f3d908101601f191682016040526110c39190810190612628565b60405163110bad1960e11b81526001600160a01b03851660048201529091507352aa899454998be5b000ad077a46bbe360f4e497906322175a3290602401600060405180830381600087803b15801561111b57600080fd5b505af115801561112f573d6000803e3d6000fd5b50506040516378600da160e11b81527352aa899454998be5b000ad077a46bbe360f4e497925063f0c01b42915061116c90859085906004016126dc565b600060405180830381600087803b15801561118657600080fd5b505af1158015610af4573d6000803e3d6000fd5b60408051600380825260808201909252600091816020015b6111fb6040518060e0016040528060006001600160a01b031681526020016000815260200160008152602001600081526020016000815260200160008152602001600081525090565b8152602001906001900390816111b25790505090506040518060e00160405280737f39c581f595b53c5cb19bd0b3f8da6c935e2ca06001600160a01b03168152602001611f408152602001612328815260200160328152602001606481526020016101f481526020016127108152508160008151811061127d5761127d612446565b60200260200101819052506040518060e0016040528073cbb7c0000ab88b473b1f5afd9ef808440eed33bf6001600160a01b03168152602001611f40815260200161232881526020016064815260200161012c81526020016103e88152602001612710815250816001815181106112f6576112f6612446565b60200260200101819052506040518060e00160405280732260fac5e5542a773aa44fbcfedf7c193bc2c5996001600160a01b03168152602001611f40815260200161232881526020016064815260200161012c81526020016103e881526020016127108152508160028151811061136f5761136f612446565b6020908102919091010152604051639dde597760e01b81527352aa899454998be5b000ad077a46bbe360f4e49790639dde5977906113b190849060040161273c565b600060405180830381600087803b1580156113cb57600080fd5b505af11580156113df573d6000803e3d6000fd5b5050505050565b6040805160018082528183019092526000916020808301908036833701905050905063ec0684cd60e01b8160008151811061142357611423612446565b6001600160e01b03199092166020928302919091019091015261147173c10a855055eb3939fcaa512253ec3f671c4ab83973b00df786d3611ace29d19de744b4147f378715f4836000611c25565b506040805160018082528183019092526000916020808301908036833701905050905063b4cd87e860e01b816000815181106114af576114af612446565b6001600160e01b0319909216602092830291909101909101526114e960007388ebad0f40ae93ea196b0094362525fae28ae3268382611c25565b506040805160018082528183019092526000916020808301908036833701905050905063abe09ee960e01b8160008151811061152757611527612446565b6001600160e01b031990921660209283029190910190910152611561600073a82bd4a64644054d85fa0d7a7643caf5a15f534b8382611c25565b5060408051600180825281830190925260009160208083019080368337019050509050635fe9e5b860e01b8160008151811061159f5761159f612446565b6001600160e01b0319909216602092830291909101909101526115ed7324d58fcfa6d74c5acc1e4b6814bf5703e1cdd8a873952cf2869dc2c59aaaf2311ec6c7c0a43f9cb6cf836000611c25565b5060405163c39aa07d60e01b815273ba15a31c8f9cc3cb1b6e08755d8b22a6af18d83d600482015273a0d3707c569ff8c87fa923d3823ec5d81c98be789063c39aa07d90602401600060405180830381600087803b15801561164e57600080fd5b505af1158015611662573d6000803e3d6000fd5b5060009250600191506116729050565b60405190808252806020026020018201604052801561169b578160200160208202803683370190505b506040805160018082528183019092529192506000919060208083019080368337019050509050600b826000815181106116d7576116d7612446565b602002602001019060ff16908160ff1681525050620e7ef08160008151811061170257611702612446565b60209081029190910101526040516307ac73b360e31b815273a0d3707c569ff8c87fa923d3823ec5d81c98be7890633d639d989061174690859085906004016127ba565b600060405180830381600087803b15801561176057600080fd5b505af1158015611774573d6000803e3d6000fd5b505050505050565b67ffffffffffffffff605b82901c811690609b83901c1681158061179e575080155b156117c157604051636a86ba8960e11b81526201117160048201526024016103cf565b61ffff8316603a84901c6401ffffffff16428181039160ea87901c617fff169114806117eb575082155b806117f65750806001145b1561180357505050915091565b64496cebb80084840283020484019350617fff60db87901c1692508260010361182e57505050915091565b826001166001036118835760019290921c91826c7e37be2022c0914b26800000008161185c5761185c61231e565b049250612710601e87901c613fff166b033b2e3c9fd0803ce80000008501020492506118b0565b60019290921c916305f5e100601e87901c613fff166127108501026b033b2e3c9fd0803ce8000000020492505b806001166001036118e75760011c61271081016b033b2e3c9fd0803ce80000008202816118df576118df61231e565b04905061191d565b60011c61271081016b033b2e3c9fd0803ce800000082028161190b5761190b61231e565b046b033b2e3c9fd0803ce80000000390505b760a70c3c40a64e6c51999090b65f67d92400000000000008382026127100261ffff881691900402601087901c613fff16612710030292506801b5a660ea44b8000085840283020485019450505050915091565b806060015115611a1c5760006040518060a0016040528083600001516001600160a01b0316815260200183602001516001600160a01b031681526020016113888152602001610e1081526020018360a0015181525090506119d181611eeb565b6040805160a0808201835284516001600160a01b0390811683528584015116602083015261138892820192909252610e106060820152908301516080820152611a1981611eeb565b50505b806080015115610cda5760006040518060c0016040528083600001516001600160a01b0316815260200183602001516001600160a01b031681526020016113888152602001610e1081526020018360c0015181526020018360e001518152509050611a8681612003565b6040805160c0808201835284516001600160a01b0390811683528584015116602083015261138892820192909252610e10606082015290830151608082015260e083015160a0820152611ad881612003565b505050565b600181602001516002811115611af557611af5612612565b03611b43576040805160a08101825282516001600160a01b039081168252838301511660208201526109c49181019190915261a8c06060820152627270e06080820152611b4181611eeb565b505b600081602001516002811115611b5b57611b5b612612565b03611bc15760006040518060c0016040528083600001516001600160a01b0316815260200183606001516001600160a01b031681526020016107d0815260200161a8c08152602001627270e081526020016301312d008152509050611bbf81612003565b505b8051604051637faa1d2160e01b81526001600160a01b039091166004820152734f6f977acdd1177dcd81ab83074855ecb9c2d49e60248201526000604482015273324c5dc1fc42c7a4d43d92df1eba58a54d13bf2d90637faa1d21906064016113b1565b60606001600160a01b03851615801590611c3d575081155b15611cc5576040516311272db960e31b81526001600160a01b038616600482015273a0d3707c569ff8c87fa923d3823ec5d81c98be78906389396dc890602401600060405180830381865afa158015611c9a573d6000803e3d6000fd5b505050506040513d6000823e601f3d908101601f19168201604052611cc29190810190612628565b90505b600083518251611cd59190612814565b67ffffffffffffffff811115611ced57611ced6121d8565b604051908082528060200260200182016040528015611d16578160200160208202803683370190505b5090506000805b8351811015611d8957838181518110611d3857611d38612446565b6020026020010151838380611d4c90612827565b945081518110611d5e57611d5e612446565b6001600160e01b03199092166020928302919091019091015280611d8181612827565b915050611d1d565b5060005b8551811015611df957858181518110611da857611da8612446565b6020026020010151838380611dbc90612827565b945081518110611dce57611dce612446565b6001600160e01b03199092166020928302919091019091015280611df181612827565b915050611d8d565b506001600160a01b03871615611e775760405163110bad1960e11b81526001600160a01b038816600482015273a0d3707c569ff8c87fa923d3823ec5d81c98be78906322175a3290602401600060405180830381600087803b158015611e5e57600080fd5b505af1158015611e72573d6000803e3d6000fd5b505050505b6040516378600da160e11b815273a0d3707c569ff8c87fa923d3823ec5d81c98be789063f0c01b4290611eb090899086906004016126dc565b600060405180830381600087803b158015611eca57600080fd5b505af1158015611ede573d6000803e3d6000fd5b5050505050505050505050565b604080516001808252818301909252600091816020015b6040805160c08101825260008082526020808301829052928201819052606082018190526080820181905260a08201528252600019909201910181611f025790505090506040518060c0016040528083600001516001600160a01b0316815260200183602001516001600160a01b03168152602001600160ff1681526020018360400151815260200183606001518152602001611fab8460200151600086608001516001610402565b81525081600081518110611fc157611fc1612446565b60209081029190910101526040516301635db560e11b81527352aa899454998be5b000ad077a46bbe360f4e497906302c6bb6a90611746908490600401612840565b604080516001808252818301909252600091816020015b61206f6040518060e0016040528060006001600160a01b0316815260200160006001600160a01b03168152602001600060ff168152602001600081526020016000815260200160008152602001600081525090565b81526020019060019003908161201a5790505090506040518060e0016040528083600001516001600160a01b0316815260200183602001516001600160a01b03168152602001600160ff16815260200183604001518152602001836060015181526020016120e98460200151600086608001516000610402565b8152602001612104846020015160008660a001516000610402565b8152508160008151811061211a5761211a612446565b602090810291909101015260405162dc47c360e11b81527352aa899454998be5b000ad077a46bbe360f4e497906301b88f86906117469084906004016128ba565b60006020828403121561216d57600080fd5b5035919050565b6001600160a01b0381168114610cda57600080fd5b6000806000806080858703121561219f57600080fd5b84356121aa81612174565b93506020850135925060408501359150606085013580151581146121cd57600080fd5b939692955090935050565b634e487b7160e01b600052604160045260246000fd5b604051601f8201601f1916810167ffffffffffffffff81118282101715612217576122176121d8565b604052919050565b6000602080838503121561223257600080fd5b823567ffffffffffffffff8082111561224a57600080fd5b818501915085601f83011261225e57600080fd5b813581811115612270576122706121d8565b612282601f8201601f191685016121ee565b9150808252868482850101111561229857600080fd5b8084840185840137600090820190930192909252509392505050565b6000602082840312156122c657600080fd5b81516122d181612174565b9392505050565b6000602082840312156122ea57600080fd5b5051919050565b634e487b7160e01b600052601160045260246000fd5b8082028115828204841417610377576103776122f1565b634e487b7160e01b600052601260045260246000fd5b60008261235157634e487b7160e01b600052601260045260246000fd5b500490565b600181815b80851115612391578160001904821115612377576123776122f1565b8085161561238457918102915b93841c939080029061235b565b509250929050565b6000826123a857506001610377565b816123b557506000610377565b81600181146123cb57600281146123d5576123f1565b6001915050610377565b60ff8411156123e6576123e66122f1565b50506001821b610377565b5060208310610133831016604e8410600b8410161715612414575081810a610377565b61241e8383612356565b8060001904821115612432576124326122f1565b029392505050565b60006122d18383612399565b634e487b7160e01b600052603260045260246000fd5b6000815180845260005b8181101561248257602081850181015186830182015201612466565b506000602082860101526020601f19601f83011685010191505092915050565b60018060a01b038316815260606020820152600960608201526865786563757465282960b81b608082015260a06040820152600061074860a083018461245c565b600081518084526020808501945080840160005b83811015612513578151875295820195908201906001016124f7565b509495945050505050565b600081518084526020808501808196508360051b8101915082860160005b8581101561256657828403895261255484835161245c565b9885019893509084019060010161253c565b5091979650505050505050565b60a0808252865190820181905260009060209060c0840190828a01845b828110156125b55781516001600160a01b031684529284019290840190600101612590565b505050838103828501526125c981896124e3565b91505082810360408401526125de818761251e565b905082810360608401526125f2818661251e565b90508281036080840152612606818561245c565b98975050505050505050565b634e487b7160e01b600052602160045260246000fd5b6000602080838503121561263b57600080fd5b825167ffffffffffffffff8082111561265357600080fd5b818501915085601f83011261266757600080fd5b815181811115612679576126796121d8565b8060051b915061268a8483016121ee565b81815291830184019184810190888411156126a457600080fd5b938501935b8385101561260657845192506001600160e01b0319831683146126cc5760008081fd5b82825293850193908501906126a9565b6001600160a01b038316815260406020808301829052835191830182905260009184820191906060850190845b8181101561272f5784516001600160e01b03191683529383019391830191600101612709565b5090979650505050505050565b602080825282518282018190526000919060409081850190868401855b8281101561256657815180516001600160a01b0316855286810151878601528581015186860152606080820151908601526080808201519086015260a0808201519086015260c0908101519085015260e09093019290850190600101612759565b604080825283519082018190526000906020906060840190828701845b828110156127f657815160ff16845292840192908401906001016127d7565b5050508381038285015261280a81866124e3565b9695505050505050565b80820180821115610377576103776122f1565b600060018201612839576128396122f1565b5060010190565b602080825282518282018190526000919060409081850190868401855b8281101561256657815180516001600160a01b0390811686528782015116878601528581015160ff1686860152606080820151908601526080808201519086015260a0908101519085015260c0909301929085019060010161285d565b602080825282518282018190526000919060409081850190868401855b8281101561256657815180516001600160a01b0390811686528782015116878601528581015160ff1686860152606080820151908601526080808201519086015260a0808201519086015260c0908101519085015260e090930192908501906001016128d756fe657865637574655061796c6f616428616464726573732c737472696e672c627974657329a264697066735822122084b767f521f39f32665878d6794924b1721fae6d1d472d287f11d0386c3c109864736f6c63430008150033","abi":[{"inputs":[],"stateMutability":"nonpayable","type":"constructor"},{"inputs":[{"internalType":"uint256","name":"errorId_","type":"uint256"}],"name":"FluidLiquidityCalcsError","type":"error"},{"inputs":[],"name":"ADDRESS_THIS","outputs":[{"internalType":"address","name":"","type":"address"}],"stateMutability":"view","type":"function"},{"inputs":[],"name":"DEX_FACTORY","outputs":[{"internalType":"contract FluidDexFactory","name":"","type":"address"}],"stateMutability":"view","type":"function"},{"inputs":[],"name":"GOVERNOR","outputs":[{"internalType":"contract IGovernorBravo","name":"","type":"address"}],"stateMutability":"view","type":"function"},{"inputs":[],"name":"LIQUIDITY","outputs":[{"internalType":"contract IFluidLiquidityAdmin","name":"","type":"address"}],"stateMutability":"view","type":"function"},{"inputs":[],"name":"LITE","outputs":[{"internalType":"contract ILite","name":"","type":"address"}],"stateMutability":"view","type":"function"},{"inputs":[],"name":"PROPOSAL_ID","outputs":[{"internalType":"uint256","name":"","type":"uint256"}],"stateMutability":"view","type":"function"},{"inputs":[],"name":"PROPOSER","outputs":[{"internalType":"address","name":"","type":"address"}],"stateMutability":"view","type":"function"},{"inputs":[],"name":"PROPOSER_AVO_MULTISIG","outputs":[{"internalType":"address","name":"","type":"address"}],"stateMutability":"view","type":"function"},{"inputs":[],"name":"PROPOSER_AVO_MULTISIG_2","outputs":[{"internalType":"address","name":"","type":"address"}],"stateMutability":"view","type":"function"},{"inputs":[],"name":"PROPOSER_AVO_MULTISIG_3","outputs":[{"internalType":"address","name":"","type":"address"}],"stateMutability":"view","type":"function"},{"inputs":[],"name":"TEAM_MULTISIG","outputs":[{"internalType":"address","name":"","type":"address"}],"stateMutability":"view","type":"function"},{"inputs":[],"name":"TIMELOCK","outputs":[{"internalType":"contract ITimelock","name":"","type":"address"}],"stateMutability":"view","type":"function"},{"inputs":[],"name":"VAULT_FACTORY","outputs":[{"internalType":"contract FluidVaultFactory","name":"","type":"address"}],"stateMutability":"view","type":"function"},{"inputs":[],"name":"execute","outputs":[],"stateMutability":"nonpayable","type":"function"},{"inputs":[{"internalType":"uint256","name":"dexId_","type":"uint256"}],"name":"getDexAddress","outputs":[{"internalType":"address","name":"","type":"address"}],"stateMutability":"view","type":"function"},{"inputs":[{"internalType":"address","name":"token","type":"address"},{"internalType":"uint256","name":"amount","type":"uint256"},{"internalType":"uint256","name":"amountInUSD","type":"uint256"},{"internalType":"bool","name":"isSupply","type":"bool"}],"name":"getRawAmount","outputs":[{"internalType":"uint256","name":"","type":"uint256"}],"stateMutability":"view","type":"function"},{"inputs":[{"internalType":"uint256","name":"vaultId_","type":"uint256"}],"name":"getVaultAddress","outputs":[{"internalType":"address","name":"","type":"address"}],"stateMutability":"view","type":"function"},{"inputs":[{"internalType":"string","name":"description","type":"string"}],"name":"propose","outputs":[],"stateMutability":"nonpayable","type":"function"},{"inputs":[],"name":"verifyProposal","outputs":[],"stateMutability":"view","type":"function"}]}