{"address":"0x7e74cC01fa0ceF9E4CE0FcCA4A84A42a3e20AF59","bytecode":"0x60a060405234801561001057600080fd5b5030606081901b608052610d426100366000398061048352806105c25250610d426000f3fe608060405234801561001057600080fd5b50600436106100ea5760003560e01c80636dc0ae221161008c578063aa98df3911610066578063aa98df3914610164578063b788f3a114610177578063bffa7f0f1461017f578063cc025f7c14610187576100ea565b80636dc0ae221461014c5780637aadef8b14610154578063a734f06e1461015c576100ea565b80631e4a1a8c116100c85780631e4a1a8c1461012a5780632861c7d114610132578063614619541461013a57806366760d7d14610144576100ea565b80630680f417146100ef5780630bc9136e1461010d5780631cbd367e14610122575b600080fd5b6100f761018f565b6040516101049190610a99565b60405180910390f35b6101156101a7565b6040516101049190610cdf565b6100f76101ac565b6100f76101c4565b6100f76101dc565b6101426101f4565b005b610142610258565b6100f761025a565b6100f7610272565b6100f761028a565b6101426101723660046108c8565b6102a2565b6100f7610590565b6100f76105a8565b6100f76105c0565b73a0d3707c569ff8c87fa923d3823ec5d81c98be7881565b600981565b739600a48ed0f931d0c422d574e3275a90d8b2274581565b731f6b2bfdd5d1e6ade7b17027ff5300419a56ad6b81565b7352aa899454998be5b000ad077a46bbe360f4e49781565b30732386dc45added673317ef068992f19421b481f4c146102305760405162461bcd60e51b815260040161022790610cb5565b60405180910390fd5b6102386105e4565b610240610722565b6102486107a1565b6102506107da565b610258610828565b565b730204cd037b2ec03605cfdfe482d8e257c765fa1b81565b732386dc45added673317ef068992f19421b481f4c81565b73eeeeeeeeeeeeeeeeeeeeeeeeeeeeeeeeeeeeeeee81565b3373a45f7bd6a5ff45d31aace6bcd3d426d9328cea01146102d55760405162461bcd60e51b815260040161022790610c50565b604080516001808252818301909252606090826020808301908036833701905050905060608267ffffffffffffffff8111801561031157600080fd5b5060405190808252806020026020018201604052801561033b578160200160208202803683370190505b50905060608367ffffffffffffffff8111801561035757600080fd5b5060405190808252806020026020018201604052801561038b57816020015b60608152602001906001900390816103765790505b50905060608467ffffffffffffffff811180156103a757600080fd5b506040519080825280602002602001820160405280156103db57816020015b60608152602001906001900390816103c65790505b509050732386dc45added673317ef068992f19421b481f4c8460008151811061040057fe5b60200260200101906001600160a01b031690816001600160a01b03168152505060008360008151811061042f57fe5b602002602001018181525050604051806060016040528060248152602001610ce9602491398260008151811061046157fe5b602090810291909101810191909152604080516000815291820181526104aa917f0000000000000000000000000000000000000000000000000000000000000000918101610ac8565b604051602081830303815290604052816000815181106104c657fe5b6020908102919091010152604051636d4ab48d60e11b8152600090730204cd037b2ec03605cfdfe482d8e257c765fa1b9063da95691a906105139088908890889088908e90600401610b11565b602060405180830381600087803b15801561052d57600080fd5b505af1158015610541573d6000803e3d6000fd5b505050506040513d601f19601f82011682018060405250810190610565919061095d565b9050600981146105875760405162461bcd60e51b815260040161022790610c87565b50505050505050565b734f6f977acdd1177dcd81ab83074855ecb9c2d49e81565b73a45f7bd6a5ff45d31aace6bcd3d426d9328cea0181565b7f000000000000000000000000000000000000000000000000000000000000000081565b604080516001808252818301909252606091816020015b610603610876565b8152602001906001900390816105fb5790505090506040518060e00160405280731f6b2bfdd5d1e6ade7b17027ff5300419a56ad6b6001600160a01b0316815260200173eeeeeeeeeeeeeeeeeeeeeeeeeeeeeeeeeeeeeeee6001600160a01b03168152602001600160ff168152602001600081526020016001815260200169010f0cf064dd59200000815260200169010f0cf064dd59200000815250816000815181106106ac57fe5b602090810291909101015260405162dc47c360e11b81527352aa899454998be5b000ad077a46bbe360f4e497906301b88f86906106ed908490600401610bb0565b600060405180830381600087803b15801561070757600080fd5b505af115801561071b573d6000803e3d6000fd5b5050505050565b60405163189acdbd60e31b8152731f6b2bfdd5d1e6ade7b17027ff5300419a56ad6b9063c4d66de89061076d90732386dc45added673317ef068992f19421b481f4c90600401610a99565b600060405180830381600087803b15801561078757600080fd5b505af115801561079b573d6000803e3d6000fd5b50505050565b6040516351fa075360e11b8152731f6b2bfdd5d1e6ade7b17027ff5300419a56ad6b9063a3f40ea69061076d9061245490600401610c41565b60405163d1a81a8d60e01b8152731f6b2bfdd5d1e6ade7b17027ff5300419a56ad6b9063d1a81a8d9061076d90739600a48ed0f931d0c422d574e3275a90d8b2274590600190600401610aad565b6040516315c50e2d60e11b8152731f6b2bfdd5d1e6ade7b17027ff5300419a56ad6b90632b8a1c5a9061076d90734f6f977acdd1177dcd81ab83074855ecb9c2d49e90600190600401610aad565b6040518060e0016040528060006001600160a01b0316815260200160006001600160a01b03168152602001600060ff168152602001600081526020016000815260200160008152602001600081525090565b600060208083850312156108da578182fd5b823567ffffffffffffffff808211156108f1578384fd5b818501915085601f830112610904578384fd5b81358181111561091057fe5b604051601f8201601f191681018501838111828210171561092d57fe5b6040528181528382018501881015610943578586fd5b818585018683013790810190930193909352509392505050565b60006020828403121561096e578081fd5b5051919050565b60008282518085526020808601955080818302840101818601855b848110156109be57601f198684030189526109ac838351610a4e565b98840198925090830190600101610990565b5090979650505050505050565b60008282518085526020808601955080818302840101818601855b848110156109be57601f19868403018952610a02838351610a4e565b988401989250908301906001016109e6565b6000815180845260208085019450808401835b83811015610a4357815187529582019590820190600101610a27565b509495945050505050565b60008151808452815b81811015610a7357602081850181015186830182015201610a57565b81811115610a845782602083870101525b50601f01601f19169290920160200192915050565b6001600160a01b0391909116815260200190565b6001600160a01b039290921682521515602082015260400190565b600060018060a01b038416825260606020830152600960608301526865786563757465282960b81b608083015260a06040830152610b0960a0830184610a4e565b949350505050565b60a0808252865190820181905260009060209060c0840190828a01845b82811015610b535781516001600160a01b031684529284019290840190600101610b2e565b50505083810382850152610b678189610a14565b9150508281036040840152610b7c81876109cb565b90508281036060840152610b908186610975565b90508281036080840152610ba48185610a4e565b98975050505050505050565b602080825282518282018190526000919060409081850190868401855b82811015610c3457815180516001600160a01b0390811686528782015116878601528581015160ff1686860152606080820151908601526080808201519086015260a0808201519086015260c0908101519085015260e09093019290850190600101610bcd565b5091979650505050505050565b61ffff91909116815260200190565b60208082526017908201527f6d73672e73656e6465722d6e6f742d70726f706f736572000000000000000000604082015260600190565b60208082526014908201527350524f504f53414c5f49535f4e4f545f53414d4560601b604082015260600190565b60208082526010908201526f3737ba16bb30b634b216b1b0b63632b960811b604082015260600190565b9081526020019056fe657865637574655061796c6f616428616464726573732c737472696e672c627974657329a264697066735822122085213f38434f843209a9ba0a2faa85045f2b4d423042a10e0d0733d7c79db9a564736f6c63430007030033","abi":[{"inputs":[],"stateMutability":"nonpayable","type":"constructor"},{"inputs":[],"name":"ADDRESS_THIS","outputs":[{"internalType":"address","name":"","type":"address"}],"stateMutability":"view","type":"function"},{"inputs":[],"name":"ETH_ADDRESS","outputs":[{"internalType":"address","name":"","type":"address"}],"stateMutability":"view","type":"function"},{"inputs":[],"name":"GOVERNOR","outputs":[{"internalType":"contract IGovernorBravo","name":"","type":"address"}],"stateMutability":"view","type":"function"},{"inputs":[],"name":"LIQUIDITY","outputs":[{"internalType":"contract IFluidLiquidityAdmin","name":"","type":"address"}],"stateMutability":"view","type":"function"},{"inputs":[],"name":"LITE","outputs":[{"internalType":"address","name":"","type":"address"}],"stateMutability":"view","type":"function"},{"inputs":[],"name":"LITE_DSA","outputs":[{"internalType":"address","name":"","type":"address"}],"stateMutability":"view","type":"function"},{"inputs":[],"name":"PROPOSAL_ID","outputs":[{"internalType":"uint256","name":"","type":"uint256"}],"stateMutability":"view","type":"function"},{"inputs":[],"name":"PROPOSER","outputs":[{"internalType":"address","name":"","type":"address"}],"stateMutability":"view","type":"function"},{"inputs":[],"name":"STETH_PROTOCOL","outputs":[{"internalType":"contract IstETHProtocol","name":"","type":"address"}],"stateMutability":"view","type":"function"},{"inputs":[],"name":"TEAM_MULTISIG","outputs":[{"internalType":"address","name":"","type":"address"}],"stateMutability":"view","type":"function"},{"inputs":[],"name":"TIMELOCK","outputs":[{"internalType":"contract ITimelock","name":"","type":"address"}],"stateMutability":"view","type":"function"},{"inputs":[],"name":"execute","outputs":[],"stateMutability":"nonpayable","type":"function"},{"inputs":[{"internalType":"string","name":"description","type":"string"}],"name":"propose","outputs":[],"stateMutability":"nonpayable","type":"function"},{"inputs":[],"name":"verifyProposal","outputs":[],"stateMutability":"view","type":"function"}]}