{"address":"0x2D281c5A1F662235c9E6dAB3578C63Fa858731F0","bytecode":"0x60a060405234801561001057600080fd5b50306080526080516117fd610037600039600081816103ce015261071101526117fd6000f3fe608060405234801561001057600080fd5b506004361061018e5760003560e01c806383ba27d8116100de578063bb09d9b711610097578063cc025f7c11610071578063cc025f7c146103c9578063d62bce54146103f0578063ecd77d951461040b578063ef81d23b1461042657600080fd5b8063bb09d9b714610378578063bffa7f0f14610393578063c1892058146103ae57600080fd5b806383ba27d8146102de5780638a1c7364146102f9578063a734f06e14610314578063aa98df391461032f578063aae7ae0714610342578063b788f3a11461035d57600080fd5b806353e568201161014b57806369f555921161012557806369f55592146102725780636dc0ae221461028d5780637aadef8b146102a85780637e2f35fa146102c357600080fd5b806353e568201461024d578063614619541461026857806366760d7d1461027057600080fd5b8063040141e5146101935780630bc9136e146101cb5780632861c7d1146101e15780632fca5d4f146101fc57806336e6372f14610217578063474585e214610232575b600080fd5b6101ae73c02aaa39b223fe8d0a0e5c4f27ead9083c756cc281565b6040516001600160a01b0390911681526020015b60405180910390f35b6101d3600c81565b6040519081526020016101c2565b6101ae7352aa899454998be5b000ad077a46bbe360f4e49781565b6101ae73eabbfca72f8a8bf14c4ac59e69ecb2eb69f0811c81565b6101ae737f39c581f595b53c5cb19bd0b3f8da6c935e2ca081565b6101ae7315f6f562ae136240ab9f4905cb50aca54bcbeb5f81565b6101ae73a0f83fc5885cebc0420ce7c7b139adc80c4f4d9181565b610270610441565b005b6101ae73bec491fef7b4f666b270f9d5e5c3f443cbf2099181565b6101ae730204cd037b2ec03605cfdfe482d8e257c765fa1b81565b6101ae732386dc45added673317ef068992f19421b481f4c81565b6101ae73059a94a72951c0ae1cc1ce3bf0db52421bbe821081565b6101ae739fb7b4477576fe5b32be4c1843afb1e55f251b3381565b6101ae73324c5dc1fc42c7a4d43d92df1eba58a54d13bf2d81565b6101ae73eeeeeeeeeeeeeeeeeeeeeeeeeeeeeeeeeeeeeeee81565b61027061033d3660046113ba565b6104b6565b6101ae735c20b550819128074fd538edf79791733ccedd1881565b6101ae734f6f977acdd1177dcd81ab83074855ecb9c2d49e81565b6101ae73a0b86991c6218b36c1d19d4a2e9eb0ce3606eb4881565b6101ae73a45f7bd6a5ff45d31aace6bcd3d426d9328cea0181565b6101ae73dac17f958d2ee523a2206206994597c13d831ec781565b6101ae7f000000000000000000000000000000000000000000000000000000000000000081565b6101ae731c2bb46f36561bc4f05a94bd50916496aa50107881565b6101ae7351197586f6a9e2571868b6ffaef308f3bdfed3ae81565b6101ae7390551c1795392094fe6d29b758eccd233cfaa26081565b30732386dc45added673317ef068992f19421b481f4c1461049c5760405162461bcd60e51b815260206004820152601060248201526f3737ba16bb30b634b216b1b0b63632b960811b60448201526064015b60405180910390fd5b6104a461083c565b6104ac610b76565b6104b4610d80565b565b3373a45f7bd6a5ff45d31aace6bcd3d426d9328cea0114806104eb575033734f6f977acdd1177dcd81ab83074855ecb9c2d49e145b8061050957503073059a94a72951c0ae1cc1ce3bf0db52421bbe8210145b61054e5760405162461bcd60e51b81526020600482015260166024820152751b5cd9cb9cd95b99195c8b5b9bdd0b585b1b1bddd95960521b6044820152606401610493565b604080516001808252818301909252600090826020808301908036833701905050905060008267ffffffffffffffff81111561058c5761058c6113a4565b6040519080825280602002602001820160405280156105b5578160200160208202803683370190505b50905060008367ffffffffffffffff8111156105d3576105d36113a4565b60405190808252806020026020018201604052801561060657816020015b60608152602001906001900390816105f15790505b50905060008467ffffffffffffffff811115610624576106246113a4565b60405190808252806020026020018201604052801561065757816020015b60608152602001906001900390816106425790505b509050732386dc45added673317ef068992f19421b481f4c846000815181106106825761068261146b565b60200260200101906001600160a01b031690816001600160a01b0316815250506000836000815181106106b7576106b761146b565b6020026020010181815250506040518060600160405280602481526020016117a460249139826000815181106106ef576106ef61146b565b60209081029190910181019190915260408051600081529182018152610738917f00000000000000000000000000000000000000000000000000000000000000009181016114c7565b6040516020818303038152906040528160008151811061075a5761075a61146b565b6020908102919091010152604051636d4ab48d60e11b8152600090730204cd037b2ec03605cfdfe482d8e257c765fa1b9063da95691a906107a79088908890889088908e906004016115a0565b6020604051808303816000875af11580156107c6573d6000803e3d6000fd5b505050506040513d601f19601f820116820180604052508101906107ea919061163f565b9050600c81146108335760405162461bcd60e51b815260206004820152601460248201527350524f504f53414c5f49535f4e4f545f53414d4560601b6044820152606401610493565b50505050505050565b6040805160088082526101208201909252600091816020015b61085d611307565b8152602001906001900390816108555790505090506108a773dac17f958d2ee523a2206206994597c13d831ec7735c20b550819128074fd538edf79791733ccedd186107d0611091565b816000815181106108ba576108ba61146b565b60200260200101819052506108fa73a0b86991c6218b36c1d19d4a2e9eb0ce3606eb48739fb7b4477576fe5b32be4c1843afb1e55f251b336107d0611091565b8160018151811061090d5761090d61146b565b602002602001018190525061094d73eeeeeeeeeeeeeeeeeeeeeeeeeeeeeeeeeeeeeeee7390551c1795392094fe6d29b758eccd233cfaa2606107d0611091565b816002815181106109605761096061146b565b60200260200101819052506109a073eeeeeeeeeeeeeeeeeeeeeeeeeeeeeeeeeeeeeeee73eabbfca72f8a8bf14c4ac59e69ecb2eb69f0811c6109c4611091565b816003815181106109b3576109b361146b565b60200260200101819052506109f373eeeeeeeeeeeeeeeeeeeeeeeeeeeeeeeeeeeeeeee73bec491fef7b4f666b270f9d5e5c3f443cbf209916109c4611091565b81600481518110610a0657610a0661146b565b6020026020010181905250610a46737f39c581f595b53c5cb19bd0b3f8da6c935e2ca07351197586f6a9e2571868b6ffaef308f3bdfed3ae6109c4611091565b81600581518110610a5957610a5961146b565b6020026020010181905250610a99737f39c581f595b53c5cb19bd0b3f8da6c935e2ca0731c2bb46f36561bc4f05a94bd50916496aa5010786109c4611091565b81600681518110610aac57610aac61146b565b6020026020010181905250610aec737f39c581f595b53c5cb19bd0b3f8da6c935e2ca073a0f83fc5885cebc0420ce7c7b139adc80c4f4d916109c4611091565b81600781518110610aff57610aff61146b565b60209081029190910101526040516301635db560e11b81527352aa899454998be5b000ad077a46bbe360f4e497906302c6bb6a90610b41908490600401611658565b600060405180830381600087803b158015610b5b57600080fd5b505af1158015610b6f573d6000803e3d6000fd5b5050505050565b60408051600580825260c08201909252600091816020015b610b96611352565b815260200190600190039081610b8e579050509050610be073a0b86991c6218b36c1d19d4a2e9eb0ce3606eb4873eabbfca72f8a8bf14c4ac59e69ecb2eb69f0811c6107d0611194565b81600081518110610bf357610bf361146b565b6020026020010181905250610c3373dac17f958d2ee523a2206206994597c13d831ec773bec491fef7b4f666b270f9d5e5c3f443cbf209916107d0611194565b81600181518110610c4657610c4661146b565b6020026020010181905250610c8673a0b86991c6218b36c1d19d4a2e9eb0ce3606eb487351197586f6a9e2571868b6ffaef308f3bdfed3ae6107d0611194565b81600281518110610c9957610c9961146b565b6020026020010181905250610cd973dac17f958d2ee523a2206206994597c13d831ec7731c2bb46f36561bc4f05a94bd50916496aa5010786107d0611194565b81600381518110610cec57610cec61146b565b6020026020010181905250610d2c73eeeeeeeeeeeeeeeeeeeeeeeeeeeeeeeeeeeeeeee73a0f83fc5885cebc0420ce7c7b139adc80c4f4d916107d0611194565b81600481518110610d3f57610d3f61146b565b602090810291909101015260405162dc47c360e11b81527352aa899454998be5b000ad077a46bbe360f4e497906301b88f8690610b419084906004016116d2565b6040805160088082526101208201909252600091816020015b6040805180820190915260008082526020820152815260200190600190039081610d9957905050905060405180604001604052807302afbfa971299c2434e7a04565d9f5a1ed6180f16001600160a01b031681526020016000151581525081600081518110610e0a57610e0a61146b565b6020026020010181905250604051806040016040528073f45364ec2230c64b1ab0ce1e4c7e63f0a2078f306001600160a01b031681526020016000151581525081600181518110610e5d57610e5d61146b565b6020026020010181905250604051806040016040528073580f8c04080347f5675cf67c1e90d935463148dc6001600160a01b031681526020016000151581525081600281518110610eb057610eb061146b565b6020026020010181905250604051806040016040528073acdf9c61720a4d97afa7f215dddd56c2d1019fc96001600160a01b031681526020016000151581525081600381518110610f0357610f0361146b565b60200260200101819052506040518060400160405280732274f61847703dba28300bd7a0fb3f1166cb0e7c6001600160a01b031681526020016000151581525081600481518110610f5657610f5661146b565b602002602001018190525060405180604001604052807328d64d5c85e9a0f0a33a481e71842255aeff0fe96001600160a01b031681526020016000151581525081600581518110610fa957610fa961146b565b6020026020010181905250604051806040016040528073a66906140d5d413e40b1ae452b52dd1f162d47ca6001600160a01b031681526020016000151581525081600681518110610ffc57610ffc61146b565b6020026020010181905250604051806040016040528073b7ae8d080c7c26152e43dd6e8dca7451bb33be686001600160a01b03168152602001600015158152508160078151811061104f5761104f61146b565b6020908102919091010152604051633f66feff60e01b81527352aa899454998be5b000ad077a46bbe360f4e49790633f66feff90610b41908490600401611756565b611099611307565b60006110a7600885876112a7565b604051632d71cdb960e21b8152600481018290529091506000907352aa899454998be5b000ad077a46bbe360f4e4979063b5c736e490602401602060405180830381865afa1580156110fd573d6000803e3d6000fd5b505050506040513d601f19601f82011682018060405250810190611121919061163f565b90506040518060c00160405280866001600160a01b03168152602001876001600160a01b031681526020018260011660ff16815260200185815260200162ffffff60b084901c1681526020016111886203ffff60c885901c16600860ff9082901c91161b90565b90529695505050505050565b61119c611352565b60006111aa600985876112a7565b604051632d71cdb960e21b8152600481018290529091506000907352aa899454998be5b000ad077a46bbe360f4e4979063b5c736e490602401602060405180830381865afa158015611200573d6000803e3d6000fd5b505050506040513d601f19601f82011682018060405250810190611224919061163f565b90506040518060e00160405280866001600160a01b03168152602001876001600160a01b031681526020018260011660ff16815260200185815260200162ffffff60b084901c16815260200161128b6203ffff60c885901c16600860ff9082901c91161b90565b81526020016103ff60e284901c1660ff60da85901c161b611188565b604080516001600160a01b039384166020808301919091528183019590955281518082038301815260608201835280519086012092909316608084015260a0808401929092528051808403909201825260c0909201909152805191012090565b6040518060c0016040528060006001600160a01b0316815260200160006001600160a01b03168152602001600060ff1681526020016000815260200160008152602001600081525090565b6040518060e0016040528060006001600160a01b0316815260200160006001600160a01b03168152602001600060ff168152602001600081526020016000815260200160008152602001600081525090565b634e487b7160e01b600052604160045260246000fd5b6000602082840312156113cc57600080fd5b813567ffffffffffffffff808211156113e457600080fd5b818401915084601f8301126113f857600080fd5b81358181111561140a5761140a6113a4565b604051601f8201601f19908116603f01168101908382118183101715611432576114326113a4565b8160405282815287602084870101111561144b57600080fd5b826020860160208301376000928101602001929092525095945050505050565b634e487b7160e01b600052603260045260246000fd5b6000815180845260005b818110156114a75760208185018101518683018201520161148b565b506000602082860101526020601f19601f83011685010191505092915050565b60018060a01b038316815260606020820152600960608201526865786563757465282960b81b608082015260a06040820152600061150860a0830184611481565b949350505050565b600081518084526020808501945080840160005b8381101561154057815187529582019590820190600101611524565b509495945050505050565b600081518084526020808501808196508360051b8101915082860160005b85811015611593578284038952611581848351611481565b98850198935090840190600101611569565b5091979650505050505050565b60a0808252865190820181905260009060209060c0840190828a01845b828110156115e25781516001600160a01b0316845292840192908401906001016115bd565b505050838103828501526115f68189611510565b915050828103604084015261160b818761154b565b9050828103606084015261161f818661154b565b905082810360808401526116338185611481565b98975050505050505050565b60006020828403121561165157600080fd5b5051919050565b602080825282518282018190526000919060409081850190868401855b8281101561159357815180516001600160a01b0390811686528782015116878601528581015160ff1686860152606080820151908601526080808201519086015260a0908101519085015260c09093019290850190600101611675565b602080825282518282018190526000919060409081850190868401855b8281101561159357815180516001600160a01b0390811686528782015116878601528581015160ff1686860152606080820151908601526080808201519086015260a0808201519086015260c0908101519085015260e090930192908501906001016116ef565b602080825282518282018190526000919060409081850190868401855b8281101561159357815180516001600160a01b03168552860151151586850152928401929085019060010161177356fe657865637574655061796c6f616428616464726573732c737472696e672c627974657329a264697066735822122058d44133535b36a669fb7e36a9017ed0c269a100246ba1cb6279524251083b4e64736f6c63430008150033","abi":[{"inputs":[],"stateMutability":"nonpayable","type":"constructor"},{"inputs":[],"name":"ADDRESS_THIS","outputs":[{"internalType":"address","name":"","type":"address"}],"stateMutability":"view","type":"function"},{"inputs":[],"name":"ETH_ADDRESS","outputs":[{"internalType":"address","name":"","type":"address"}],"stateMutability":"view","type":"function"},{"inputs":[],"name":"F_USDC","outputs":[{"internalType":"address","name":"","type":"address"}],"stateMutability":"view","type":"function"},{"inputs":[],"name":"F_USDT","outputs":[{"internalType":"address","name":"","type":"address"}],"stateMutability":"view","type":"function"},{"inputs":[],"name":"F_WETH","outputs":[{"internalType":"address","name":"","type":"address"}],"stateMutability":"view","type":"function"},{"inputs":[],"name":"GOVERNOR","outputs":[{"internalType":"contract IGovernorBravo","name":"","type":"address"}],"stateMutability":"view","type":"function"},{"inputs":[],"name":"LIQUIDITY","outputs":[{"internalType":"contract IFluidLiquidityAdmin","name":"","type":"address"}],"stateMutability":"view","type":"function"},{"inputs":[],"name":"PROPOSAL_ID","outputs":[{"internalType":"uint256","name":"","type":"uint256"}],"stateMutability":"view","type":"function"},{"inputs":[],"name":"PROPOSER","outputs":[{"internalType":"address","name":"","type":"address"}],"stateMutability":"view","type":"function"},{"inputs":[],"name":"PROPOSER_AVO_MULTISIG","outputs":[{"internalType":"address","name":"","type":"address"}],"stateMutability":"view","type":"function"},{"inputs":[],"name":"TEAM_MULTISIG","outputs":[{"internalType":"address","name":"","type":"address"}],"stateMutability":"view","type":"function"},{"inputs":[],"name":"TIMELOCK","outputs":[{"internalType":"contract ITimelock","name":"","type":"address"}],"stateMutability":"view","type":"function"},{"inputs":[],"name":"USDC_ADDRESS","outputs":[{"internalType":"address","name":"","type":"address"}],"stateMutability":"view","type":"function"},{"inputs":[],"name":"USDT_ADDRESS","outputs":[{"internalType":"address","name":"","type":"address"}],"stateMutability":"view","type":"function"},{"inputs":[],"name":"VAULT_ETH_USDC","outputs":[{"internalType":"address","name":"","type":"address"}],"stateMutability":"view","type":"function"},{"inputs":[],"name":"VAULT_ETH_USDT","outputs":[{"internalType":"address","name":"","type":"address"}],"stateMutability":"view","type":"function"},{"inputs":[],"name":"VAULT_T1_DEPLOYMENT_LOGIC","outputs":[{"internalType":"contract IFluidVaultT1DeploymentLogic","name":"","type":"address"}],"stateMutability":"view","type":"function"},{"inputs":[],"name":"VAULT_T1_FACTORY","outputs":[{"internalType":"contract IFluidVaultT1Factory","name":"","type":"address"}],"stateMutability":"view","type":"function"},{"inputs":[],"name":"VAULT_WSTETH_ETH","outputs":[{"internalType":"address","name":"","type":"address"}],"stateMutability":"view","type":"function"},{"inputs":[],"name":"VAULT_WSTETH_USDC","outputs":[{"internalType":"address","name":"","type":"address"}],"stateMutability":"view","type":"function"},{"inputs":[],"name":"VAULT_WSTETH_USDT","outputs":[{"internalType":"address","name":"","type":"address"}],"stateMutability":"view","type":"function"},{"inputs":[],"name":"WETH_ADDRESS","outputs":[{"internalType":"address","name":"","type":"address"}],"stateMutability":"view","type":"function"},{"inputs":[],"name":"WSTETH_ADDRESS","outputs":[{"internalType":"address","name":"","type":"address"}],"stateMutability":"view","type":"function"},{"inputs":[],"name":"execute","outputs":[],"stateMutability":"nonpayable","type":"function"},{"inputs":[{"internalType":"string","name":"description","type":"string"}],"name":"propose","outputs":[],"stateMutability":"nonpayable","type":"function"},{"inputs":[],"name":"verifyProposal","outputs":[],"stateMutability":"view","type":"function"}]}